{
  "_format": "hh-sol-artifact-1",
  "contractName": "NCPProof",
  "sourceName": "contracts/NCPProof.sol",
  "abi": [
    {
      "inputs": [],
      "stateMutability": "nonpayable",
      "type": "constructor"
    },
    {
      "anonymous": false,
      "inputs": [
        {
          "indexed": true,
          "internalType": "address",
          "name": "owner",
          "type": "address"
        },
        {
          "indexed": true,
          "internalType": "address",
          "name": "approved",
          "type": "address"
        },
        {
          "indexed": true,
          "internalType": "uint256",
          "name": "tokenId",
          "type": "uint256"
        }
      ],
      "name": "Approval",
      "type": "event"
    },
    {
      "anonymous": false,
      "inputs": [
        {
          "indexed": true,
          "internalType": "address",
          "name": "owner",
          "type": "address"
        },
        {
          "indexed": true,
          "internalType": "address",
          "name": "operator",
          "type": "address"
        },
        {
          "indexed": false,
          "internalType": "bool",
          "name": "approved",
          "type": "bool"
        }
      ],
      "name": "ApprovalForAll",
      "type": "event"
    },
    {
      "anonymous": false,
      "inputs": [
        {
          "indexed": true,
          "internalType": "address",
          "name": "_to",
          "type": "address"
        },
        {
          "indexed": false,
          "internalType": "uint256",
          "name": "_contentId",
          "type": "uint256"
        }
      ],
      "name": "MintNFT",
      "type": "event"
    },
    {
      "anonymous": false,
      "inputs": [
        {
          "indexed": true,
          "internalType": "address",
          "name": "previousOwner",
          "type": "address"
        },
        {
          "indexed": true,
          "internalType": "address",
          "name": "newOwner",
          "type": "address"
        }
      ],
      "name": "OwnershipTransferred",
      "type": "event"
    },
    {
      "anonymous": false,
      "inputs": [
        {
          "indexed": true,
          "internalType": "address",
          "name": "from",
          "type": "address"
        },
        {
          "indexed": true,
          "internalType": "address",
          "name": "to",
          "type": "address"
        },
        {
          "indexed": true,
          "internalType": "uint256",
          "name": "tokenId",
          "type": "uint256"
        }
      ],
      "name": "Transfer",
      "type": "event"
    },
    {
      "inputs": [
        {
          "internalType": "address",
          "name": "to",
          "type": "address"
        },
        {
          "internalType": "uint256",
          "name": "tokenId",
          "type": "uint256"
        }
      ],
      "name": "approve",
      "outputs": [],
      "stateMutability": "nonpayable",
      "type": "function"
    },
    {
      "inputs": [
        {
          "internalType": "address",
          "name": "owner",
          "type": "address"
        }
      ],
      "name": "balanceOf",
      "outputs": [
        {
          "internalType": "uint256",
          "name": "",
          "type": "uint256"
        }
      ],
      "stateMutability": "view",
      "type": "function"
    },
    {
      "inputs": [
        {
          "internalType": "uint256",
          "name": "contentId",
          "type": "uint256"
        }
      ],
      "name": "contentDistributorOf",
      "outputs": [
        {
          "internalType": "address",
          "name": "",
          "type": "address"
        }
      ],
      "stateMutability": "view",
      "type": "function"
    },
    {
      "inputs": [
        {
          "internalType": "uint256",
          "name": "tokenId",
          "type": "uint256"
        }
      ],
      "name": "contentOf",
      "outputs": [
        {
          "internalType": "uint256",
          "name": "",
          "type": "uint256"
        }
      ],
      "stateMutability": "view",
      "type": "function"
    },
    {
      "inputs": [],
      "name": "countOfNFT",
      "outputs": [
        {
          "internalType": "uint256",
          "name": "",
          "type": "uint256"
        }
      ],
      "stateMutability": "view",
      "type": "function"
    },
    {
      "inputs": [
        {
          "internalType": "uint256",
          "name": "tokenId",
          "type": "uint256"
        }
      ],
      "name": "getApproved",
      "outputs": [
        {
          "internalType": "address",
          "name": "",
          "type": "address"
        }
      ],
      "stateMutability": "view",
      "type": "function"
    },
    {
      "inputs": [
        {
          "internalType": "address",
          "name": "owner",
          "type": "address"
        },
        {
          "internalType": "uint256",
          "name": "contentId",
          "type": "uint256"
        }
      ],
      "name": "hasNFTForContent",
      "outputs": [
        {
          "internalType": "bool",
          "name": "",
          "type": "bool"
        }
      ],
      "stateMutability": "view",
      "type": "function"
    },
    {
      "inputs": [
        {
          "internalType": "address",
          "name": "owner",
          "type": "address"
        },
        {
          "internalType": "address",
          "name": "operator",
          "type": "address"
        }
      ],
      "name": "isApprovedForAll",
      "outputs": [
        {
          "internalType": "bool",
          "name": "",
          "type": "bool"
        }
      ],
      "stateMutability": "view",
      "type": "function"
    },
    {
      "inputs": [
        {
          "internalType": "address",
          "name": "addr",
          "type": "address"
        }
      ],
      "name": "isContentServer",
      "outputs": [
        {
          "internalType": "bool",
          "name": "",
          "type": "bool"
        }
      ],
      "stateMutability": "view",
      "type": "function"
    },
    {
      "inputs": [
        {
          "internalType": "address",
          "name": "owner",
          "type": "address"
        },
        {
          "internalType": "uint256",
          "name": "contentId",
          "type": "uint256"
        }
      ],
      "name": "isDistributorOf",
      "outputs": [
        {
          "internalType": "bool",
          "name": "",
          "type": "bool"
        }
      ],
      "stateMutability": "view",
      "type": "function"
    },
    {
      "inputs": [
        {
          "internalType": "uint256",
          "name": "contentId",
          "type": "uint256"
        }
      ],
      "name": "isSetted",
      "outputs": [
        {
          "internalType": "bool",
          "name": "",
          "type": "bool"
        }
      ],
      "stateMutability": "view",
      "type": "function"
    },
    {
      "inputs": [
        {
          "internalType": "address",
          "name": "to",
          "type": "address"
        },
        {
          "internalType": "uint256",
          "name": "contentId",
          "type": "uint256"
        }
      ],
      "name": "mint",
      "outputs": [
        {
          "internalType": "uint256",
          "name": "",
          "type": "uint256"
        }
      ],
      "stateMutability": "nonpayable",
      "type": "function"
    },
    {
      "inputs": [],
      "name": "name",
      "outputs": [
        {
          "internalType": "string",
          "name": "",
          "type": "string"
        }
      ],
      "stateMutability": "view",
      "type": "function"
    },
    {
      "inputs": [
        {
          "internalType": "uint256",
          "name": "contentId",
          "type": "uint256"
        },
        {
          "internalType": "address",
          "name": "contentOwner",
          "type": "address"
        },
        {
          "internalType": "bytes",
          "name": "signature",
          "type": "bytes"
        }
      ],
      "name": "newContent",
      "outputs": [],
      "stateMutability": "nonpayable",
      "type": "function"
    },
    {
      "inputs": [],
      "name": "owner",
      "outputs": [
        {
          "internalType": "address",
          "name": "",
          "type": "address"
        }
      ],
      "stateMutability": "view",
      "type": "function"
    },
    {
      "inputs": [
        {
          "internalType": "uint256",
          "name": "tokenId",
          "type": "uint256"
        }
      ],
      "name": "ownerOf",
      "outputs": [
        {
          "internalType": "address",
          "name": "",
          "type": "address"
        }
      ],
      "stateMutability": "view",
      "type": "function"
    },
    {
      "inputs": [],
      "name": "renounceOwnership",
      "outputs": [],
      "stateMutability": "nonpayable",
      "type": "function"
    },
    {
      "inputs": [
        {
          "internalType": "address",
          "name": "from",
          "type": "address"
        },
        {
          "internalType": "address",
          "name": "to",
          "type": "address"
        },
        {
          "internalType": "uint256",
          "name": "tokenId",
          "type": "uint256"
        }
      ],
      "name": "safeTransferFrom",
      "outputs": [],
      "stateMutability": "nonpayable",
      "type": "function"
    },
    {
      "inputs": [
        {
          "internalType": "address",
          "name": "from",
          "type": "address"
        },
        {
          "internalType": "address",
          "name": "to",
          "type": "address"
        },
        {
          "internalType": "uint256",
          "name": "tokenId",
          "type": "uint256"
        },
        {
          "internalType": "bytes",
          "name": "_data",
          "type": "bytes"
        }
      ],
      "name": "safeTransferFrom",
      "outputs": [],
      "stateMutability": "nonpayable",
      "type": "function"
    },
    {
      "inputs": [
        {
          "internalType": "address",
          "name": "operator",
          "type": "address"
        },
        {
          "internalType": "bool",
          "name": "approved",
          "type": "bool"
        }
      ],
      "name": "setApprovalForAll",
      "outputs": [],
      "stateMutability": "nonpayable",
      "type": "function"
    },
    {
      "inputs": [
        {
          "internalType": "string",
          "name": "baseURI",
          "type": "string"
        }
      ],
      "name": "setBaseTokenURI",
      "outputs": [],
      "stateMutability": "nonpayable",
      "type": "function"
    },
    {
      "inputs": [
        {
          "internalType": "address",
          "name": "contentServer",
          "type": "address"
        },
        {
          "internalType": "bool",
          "name": "set",
          "type": "bool"
        }
      ],
      "name": "setContentServer",
      "outputs": [],
      "stateMutability": "nonpayable",
      "type": "function"
    },
    {
      "inputs": [
        {
          "internalType": "bytes4",
          "name": "interfaceId",
          "type": "bytes4"
        }
      ],
      "name": "supportsInterface",
      "outputs": [
        {
          "internalType": "bool",
          "name": "",
          "type": "bool"
        }
      ],
      "stateMutability": "view",
      "type": "function"
    },
    {
      "inputs": [],
      "name": "symbol",
      "outputs": [
        {
          "internalType": "string",
          "name": "",
          "type": "string"
        }
      ],
      "stateMutability": "view",
      "type": "function"
    },
    {
      "inputs": [
        {
          "internalType": "uint256",
          "name": "tokenId",
          "type": "uint256"
        }
      ],
      "name": "tokenURI",
      "outputs": [
        {
          "internalType": "string",
          "name": "",
          "type": "string"
        }
      ],
      "stateMutability": "view",
      "type": "function"
    },
    {
      "inputs": [
        {
          "internalType": "uint256",
          "name": "contentId",
          "type": "uint256"
        },
        {
          "internalType": "address",
          "name": "newOwner",
          "type": "address"
        }
      ],
      "name": "transferContentRights",
      "outputs": [
        {
          "internalType": "bool",
          "name": "",
          "type": "bool"
        }
      ],
      "stateMutability": "nonpayable",
      "type": "function"
    },
    {
      "inputs": [
        {
          "internalType": "address",
          "name": "from",
          "type": "address"
        },
        {
          "internalType": "address",
          "name": "to",
          "type": "address"
        },
        {
          "internalType": "uint256",
          "name": "tokenId",
          "type": "uint256"
        }
      ],
      "name": "transferFrom",
      "outputs": [],
      "stateMutability": "nonpayable",
      "type": "function"
    },
    {
      "inputs": [
        {
          "internalType": "address",
          "name": "newOwner",
          "type": "address"
        }
      ],
      "name": "transferOwnership",
      "outputs": [],
      "stateMutability": "nonpayable",
      "type": "function"
    },
    {
      "inputs": [],
      "name": "withdraw",
      "outputs": [],
      "stateMutability": "nonpayable",
      "type": "function"
    }
  ],
  "bytecode": "0x60806040523480156200001157600080fd5b506040518060400160405280601881526020017f4e465420436f6e74656e7420506c617965722050726f6f6600000000000000008152506040518060400160405280600481526020017f4e43505000000000000000000000000000000000000000000000000000000000815250816000908051906020019062000096929190620001f4565b508060019080519060200190620000af929190620001f4565b505050620000d2620000c66200012660201b60201c565b6200012e60201b60201c565b6040518060400160405280600d81526020017f68747470733a2f2f697066732f00000000000000000000000000000000000000815250600b90805190602001906200011f929190620001f4565b5062000309565b600033905090565b6000600660009054906101000a900473ffffffffffffffffffffffffffffffffffffffff16905081600660006101000a81548173ffffffffffffffffffffffffffffffffffffffff021916908373ffffffffffffffffffffffffffffffffffffffff1602179055508173ffffffffffffffffffffffffffffffffffffffff168173ffffffffffffffffffffffffffffffffffffffff167f8be0079c531659141344cd1fd0a4f28419497f9722a3daafe3b4186f6b6457e060405160405180910390a35050565b8280546200020290620002a4565b90600052602060002090601f01602090048101928262000226576000855562000272565b82601f106200024157805160ff191683800117855562000272565b8280016001018555821562000272579182015b828111156200027157825182559160200191906001019062000254565b5b50905062000281919062000285565b5090565b5b80821115620002a057600081600090555060010162000286565b5090565b60006002820490506001821680620002bd57607f821691505b60208210811415620002d457620002d3620002da565b5b50919050565b7f4e487b7100000000000000000000000000000000000000000000000000000000600052602260045260246000fd5b6143f580620003196000396000f3fe608060405234801561001057600080fd5b50600436106101cf5760003560e01c8063715018a611610104578063aae0ca62116100a2578063d4a8478111610071578063d4a8478114610562578063e985e9c514610580578063f2fde38b146105b0578063f9da9c5a146105cc576101cf565b8063aae0ca62146104b6578063b88d4fde146104e6578063bb4243e514610502578063c87b56dd14610532576101cf565b806389c61dc2116100de57806389c61dc21461042e5780638da5cb5b1461045e57806395d89b411461047c578063a22cb4651461049a576101cf565b8063715018a6146103c457806371ca59ca146103ce5780638170ced5146103fe576101cf565b806330176e131161017157806342842e0e1161014b57806342842e0e1461032c57806361aad37b146103485780636352211e1461036457806370a0823114610394576101cf565b806330176e13146102d65780633ccfd60b146102f257806340c10f19146102fc576101cf565b8063095ea7b3116101ad578063095ea7b3146102525780631690a5a61461026e57806323b872dd1461028a57806327427e31146102a6576101cf565b806301ffc9a7146101d457806306fdde0314610204578063081812fc14610222575b600080fd5b6101ee60048036038101906101e99190612e19565b6105fc565b6040516101fb9190613521565b60405180910390f35b61020c6106de565b6040516102199190613581565b60405180910390f35b61023c60048036038101906102379190612eac565b610770565b60405161024991906134ba565b60405180910390f35b61026c60048036038101906102679190612ddd565b6107f5565b005b61028860048036038101906102839190612f11565b61090d565b005b6102a4600480360381019061029f9190612cd7565b610a8b565b005b6102c060048036038101906102bb9190612eac565b610aeb565b6040516102cd91906138a3565b60405180910390f35b6102f060048036038101906102eb9190612e6b565b610b08565b005b6102fa610b9e565b005b61031660048036038101906103119190612ddd565b610c63565b60405161032391906138a3565b60405180910390f35b61034660048036038101906103419190612cd7565b610d9f565b005b610362600480360381019061035d9190612da1565b610dbf565b005b61037e60048036038101906103799190612eac565b610e96565b60405161038b91906134ba565b60405180910390f35b6103ae60048036038101906103a99190612c72565b610f48565b6040516103bb91906138a3565b60405180910390f35b6103cc611000565b005b6103e860048036038101906103e39190612eac565b611088565b6040516103f591906134ba565b60405180910390f35b61041860048036038101906104139190612eac565b6110c5565b6040516104259190613521565b60405180910390f35b61044860048036038101906104439190612ddd565b611131565b6040516104559190613521565b60405180910390f35b6104666111c3565b60405161047391906134ba565b60405180910390f35b6104846111ed565b6040516104919190613581565b60405180910390f35b6104b460048036038101906104af9190612da1565b61127f565b005b6104d060048036038101906104cb9190612c72565b611295565b6040516104dd9190613521565b60405180910390f35b61050060048036038101906104fb9190612d26565b6113ac565b005b61051c60048036038101906105179190612ddd565b61140e565b6040516105299190613521565b60405180910390f35b61054c60048036038101906105479190612eac565b611492565b6040516105599190613581565b60405180910390f35b61056a611541565b60405161057791906138a3565b60405180910390f35b61059a60048036038101906105959190612c9b565b611552565b6040516105a79190613521565b60405180910390f35b6105ca60048036038101906105c59190612c72565b6115e6565b005b6105e660048036038101906105e19190612ed5565b6116de565b6040516105f39190613521565b60405180910390f35b60007f80ac58cd000000000000000000000000000000000000000000000000000000007bffffffffffffffffffffffffffffffffffffffffffffffffffffffff1916827bffffffffffffffffffffffffffffffffffffffffffffffffffffffff191614806106c757507f5b5e139f000000000000000000000000000000000000000000000000000000007bffffffffffffffffffffffffffffffffffffffffffffffffffffffff1916827bffffffffffffffffffffffffffffffffffffffffffffffffffffffff1916145b806106d757506106d68261177b565b5b9050919050565b6060600080546106ed90613b10565b80601f016020809104026020016040519081016040528092919081815260200182805461071990613b10565b80156107665780601f1061073b57610100808354040283529160200191610766565b820191906000526020600020905b81548152906001019060200180831161074957829003601f168201915b5050505050905090565b600061077b826117e5565b6107ba576040517f08c379a00000000000000000000000000000000000000000000000000000000081526004016107b1906137c3565b60405180910390fd5b6004600083815260200190815260200160002060009054906101000a900473ffffffffffffffffffffffffffffffffffffffff169050919050565b600061080082610e96565b90508073ffffffffffffffffffffffffffffffffffffffff168373ffffffffffffffffffffffffffffffffffffffff161415610871576040517f08c379a000000000000000000000000000000000000000000000000000000000815260040161086890613823565b60405180910390fd5b8073ffffffffffffffffffffffffffffffffffffffff16610890611851565b73ffffffffffffffffffffffffffffffffffffffff1614806108bf57506108be816108b9611851565b611552565b5b6108fe576040517f08c379a00000000000000000000000000000000000000000000000000000000081526004016108f590613723565b60405180910390fd5b6109088383611859565b505050565b600073ffffffffffffffffffffffffffffffffffffffff16600a600085815260200190815260200160002060009054906101000a900473ffffffffffffffffffffffffffffffffffffffff1673ffffffffffffffffffffffffffffffffffffffff16146109af576040517f08c379a00000000000000000000000000000000000000000000000000000000081526004016109a690613883565b60405180910390fd5b600082846040516020016109c4929190613439565b60405160208183030381529060405280519060200120905060006109e88284611912565b90506109f381611295565b610a32576040517f08c379a0000000000000000000000000000000000000000000000000000000008152600401610a2990613603565b60405180910390fd5b83600a600087815260200190815260200160002060006101000a81548173ffffffffffffffffffffffffffffffffffffffff021916908373ffffffffffffffffffffffffffffffffffffffff1602179055505050505050565b610a9c610a96611851565b8261195a565b610adb576040517f08c379a0000000000000000000000000000000000000000000000000000000008152600401610ad290613863565b60405180910390fd5b610ae6838383611a38565b505050565b600060096000838152602001908152602001600020549050919050565b610b10611851565b73ffffffffffffffffffffffffffffffffffffffff16610b2e6111c3565b73ffffffffffffffffffffffffffffffffffffffff1614610b84576040517f08c379a0000000000000000000000000000000000000000000000000000000008152600401610b7b906137e3565b60405180910390fd5b80600b9080519060200190610b9a929190612a96565b5050565b610ba6611851565b73ffffffffffffffffffffffffffffffffffffffff16610bc46111c3565b73ffffffffffffffffffffffffffffffffffffffff1614610c1a576040517f08c379a0000000000000000000000000000000000000000000000000000000008152600401610c11906137e3565b60405180910390fd5b3373ffffffffffffffffffffffffffffffffffffffff166108fc479081150290604051600060405180830381858888f19350505050158015610c60573d6000803e3d6000fd5b50565b60003373ffffffffffffffffffffffffffffffffffffffff16610c8583611088565b73ffffffffffffffffffffffffffffffffffffffff1614610cdb576040517f08c379a0000000000000000000000000000000000000000000000000000000008152600401610cd290613843565b60405180910390fd5b610ce58383611131565b15610d25576040517f08c379a0000000000000000000000000000000000000000000000000000000008152600401610d1c906136a3565b60405180910390fd5b6000610d316007611c9f565b9050610d3d6007611cad565b610d478482611cc3565b8373ffffffffffffffffffffffffffffffffffffffff167f1f89f147a58d1673945cf416187db98efc8208408c011b91887acd59fd8523c384604051610d8d91906138a3565b60405180910390a28091505092915050565b610dba838383604051806020016040528060008152506113ac565b505050565b610dc7611851565b73ffffffffffffffffffffffffffffffffffffffff16610de56111c3565b73ffffffffffffffffffffffffffffffffffffffff1614610e3b576040517f08c379a0000000000000000000000000000000000000000000000000000000008152600401610e32906137e3565b60405180910390fd5b80600860008473ffffffffffffffffffffffffffffffffffffffff1673ffffffffffffffffffffffffffffffffffffffff16815260200190815260200160002060006101000a81548160ff0219169083151502179055505050565b6000806002600084815260200190815260200160002060009054906101000a900473ffffffffffffffffffffffffffffffffffffffff169050600073ffffffffffffffffffffffffffffffffffffffff168173ffffffffffffffffffffffffffffffffffffffff161415610f3f576040517f08c379a0000000000000000000000000000000000000000000000000000000008152600401610f3690613763565b60405180910390fd5b80915050919050565b60008073ffffffffffffffffffffffffffffffffffffffff168273ffffffffffffffffffffffffffffffffffffffff161415610fb9576040517f08c379a0000000000000000000000000000000000000000000000000000000008152600401610fb090613743565b60405180910390fd5b600360008373ffffffffffffffffffffffffffffffffffffffff1673ffffffffffffffffffffffffffffffffffffffff168152602001908152602001600020549050919050565b611008611851565b73ffffffffffffffffffffffffffffffffffffffff166110266111c3565b73ffffffffffffffffffffffffffffffffffffffff161461107c576040517f08c379a0000000000000000000000000000000000000000000000000000000008152600401611073906137e3565b60405180910390fd5b6110866000611e9d565b565b6000600a600083815260200190815260200160002060009054906101000a900473ffffffffffffffffffffffffffffffffffffffff169050919050565b60008073ffffffffffffffffffffffffffffffffffffffff16600a600084815260200190815260200160002060009054906101000a900473ffffffffffffffffffffffffffffffffffffffff1673ffffffffffffffffffffffffffffffffffffffff1614159050919050565b60008061113c611541565b905060005b818110156111b6578473ffffffffffffffffffffffffffffffffffffffff1661116982610e96565b73ffffffffffffffffffffffffffffffffffffffff1614801561119357508361119182610aeb565b145b156111a3576001925050506111bd565b80806111ae90613b73565b915050611141565b5060009150505b92915050565b6000600660009054906101000a900473ffffffffffffffffffffffffffffffffffffffff16905090565b6060600180546111fc90613b10565b80601f016020809104026020016040519081016040528092919081815260200182805461122890613b10565b80156112755780601f1061124a57610100808354040283529160200191611275565b820191906000526020600020905b81548152906001019060200180831161125857829003601f168201915b5050505050905090565b61129161128a611851565b8383611f63565b5050565b600061129f611851565b73ffffffffffffffffffffffffffffffffffffffff166112bd6111c3565b73ffffffffffffffffffffffffffffffffffffffff1614611313576040517f08c379a000000000000000000000000000000000000000000000000000000000815260040161130a906137e3565b60405180910390fd5b61131b6111c3565b73ffffffffffffffffffffffffffffffffffffffff168273ffffffffffffffffffffffffffffffffffffffff16141561135757600190506113a7565b600860008373ffffffffffffffffffffffffffffffffffffffff1673ffffffffffffffffffffffffffffffffffffffff16815260200190815260200160002060009054906101000a900460ff1690505b919050565b6113bd6113b7611851565b8361195a565b6113fc576040517f08c379a00000000000000000000000000000000000000000000000000000000081526004016113f390613863565b60405180910390fd5b611408848484846120d0565b50505050565b60008073ffffffffffffffffffffffffffffffffffffffff1661143083611088565b73ffffffffffffffffffffffffffffffffffffffff1614611487578273ffffffffffffffffffffffffffffffffffffffff1661146b83611088565b73ffffffffffffffffffffffffffffffffffffffff161461148a565b60015b905092915050565b606061149d826117e5565b6114dc576040517f08c379a00000000000000000000000000000000000000000000000000000000081526004016114d390613803565b60405180910390fd5b60006114e661212c565b905060008151116115065760405180602001604052806000815250611539565b8061151861151385610aeb565b6121be565b604051602001611529929190613465565b6040516020818303038152906040525b915050919050565b600061154d6007611c9f565b905090565b6000600560008473ffffffffffffffffffffffffffffffffffffffff1673ffffffffffffffffffffffffffffffffffffffff16815260200190815260200160002060008373ffffffffffffffffffffffffffffffffffffffff1673ffffffffffffffffffffffffffffffffffffffff16815260200190815260200160002060009054906101000a900460ff16905092915050565b6115ee611851565b73ffffffffffffffffffffffffffffffffffffffff1661160c6111c3565b73ffffffffffffffffffffffffffffffffffffffff1614611662576040517f08c379a0000000000000000000000000000000000000000000000000000000008152600401611659906137e3565b60405180910390fd5b600073ffffffffffffffffffffffffffffffffffffffff168173ffffffffffffffffffffffffffffffffffffffff1614156116d2576040517f08c379a00000000000000000000000000000000000000000000000000000000081526004016116c990613623565b60405180910390fd5b6116db81611e9d565b50565b6000806116e9611541565b905060005b8181101561176e573373ffffffffffffffffffffffffffffffffffffffff1661171682610e96565b73ffffffffffffffffffffffffffffffffffffffff1614801561174057508461173e82610aeb565b145b1561175b57611750338583611a38565b600192505050611775565b808061176690613b73565b9150506116ee565b5060009150505b92915050565b60007f01ffc9a7000000000000000000000000000000000000000000000000000000007bffffffffffffffffffffffffffffffffffffffffffffffffffffffff1916827bffffffffffffffffffffffffffffffffffffffffffffffffffffffff1916149050919050565b60008073ffffffffffffffffffffffffffffffffffffffff166002600084815260200190815260200160002060009054906101000a900473ffffffffffffffffffffffffffffffffffffffff1673ffffffffffffffffffffffffffffffffffffffff1614159050919050565b600033905090565b816004600083815260200190815260200160002060006101000a81548173ffffffffffffffffffffffffffffffffffffffff021916908373ffffffffffffffffffffffffffffffffffffffff160217905550808273ffffffffffffffffffffffffffffffffffffffff166118cc83610e96565b73ffffffffffffffffffffffffffffffffffffffff167f8c5be1e5ebec7d5bd14f71427d1e84f3dd0314c0f7b2291e5b200ac8c7c3b92560405160405180910390a45050565b600080836040516020016119269190613494565b604051602081830303815290604052805190602001209050611951838261236b90919063ffffffff16565b91505092915050565b6000611965826117e5565b6119a4576040517f08c379a000000000000000000000000000000000000000000000000000000000815260040161199b90613703565b60405180910390fd5b60006119af83610e96565b90508073ffffffffffffffffffffffffffffffffffffffff168473ffffffffffffffffffffffffffffffffffffffff161480611a1e57508373ffffffffffffffffffffffffffffffffffffffff16611a0684610770565b73ffffffffffffffffffffffffffffffffffffffff16145b80611a2f5750611a2e8185611552565b5b91505092915050565b8273ffffffffffffffffffffffffffffffffffffffff16611a5882610e96565b73ffffffffffffffffffffffffffffffffffffffff1614611aae576040517f08c379a0000000000000000000000000000000000000000000000000000000008152600401611aa590613643565b60405180910390fd5b600073ffffffffffffffffffffffffffffffffffffffff168273ffffffffffffffffffffffffffffffffffffffff161415611b1e576040517f08c379a0000000000000000000000000000000000000000000000000000000008152600401611b1590613683565b60405180910390fd5b611b29838383612392565b611b34600082611859565b6001600360008573ffffffffffffffffffffffffffffffffffffffff1673ffffffffffffffffffffffffffffffffffffffff1681526020019081526020016000206000828254611b849190613a0f565b925050819055506001600360008473ffffffffffffffffffffffffffffffffffffffff1673ffffffffffffffffffffffffffffffffffffffff1681526020019081526020016000206000828254611bdb9190613988565b92505081905550816002600083815260200190815260200160002060006101000a81548173ffffffffffffffffffffffffffffffffffffffff021916908373ffffffffffffffffffffffffffffffffffffffff160217905550808273ffffffffffffffffffffffffffffffffffffffff168473ffffffffffffffffffffffffffffffffffffffff167fddf252ad1be2c89b69c2b068fc378daa952ba7f163c4a11628f55a4df523b3ef60405160405180910390a4611c9a838383612397565b505050565b600081600001549050919050565b6001816000016000828254019250508190555050565b600073ffffffffffffffffffffffffffffffffffffffff168273ffffffffffffffffffffffffffffffffffffffff161415611d33576040517f08c379a0000000000000000000000000000000000000000000000000000000008152600401611d2a906137a3565b60405180910390fd5b611d3c816117e5565b15611d7c576040517f08c379a0000000000000000000000000000000000000000000000000000000008152600401611d7390613663565b60405180910390fd5b611d8860008383612392565b6001600360008473ffffffffffffffffffffffffffffffffffffffff1673ffffffffffffffffffffffffffffffffffffffff1681526020019081526020016000206000828254611dd89190613988565b92505081905550816002600083815260200190815260200160002060006101000a81548173ffffffffffffffffffffffffffffffffffffffff021916908373ffffffffffffffffffffffffffffffffffffffff160217905550808273ffffffffffffffffffffffffffffffffffffffff16600073ffffffffffffffffffffffffffffffffffffffff167fddf252ad1be2c89b69c2b068fc378daa952ba7f163c4a11628f55a4df523b3ef60405160405180910390a4611e9960008383612397565b5050565b6000600660009054906101000a900473ffffffffffffffffffffffffffffffffffffffff16905081600660006101000a81548173ffffffffffffffffffffffffffffffffffffffff021916908373ffffffffffffffffffffffffffffffffffffffff1602179055508173ffffffffffffffffffffffffffffffffffffffff168173ffffffffffffffffffffffffffffffffffffffff167f8be0079c531659141344cd1fd0a4f28419497f9722a3daafe3b4186f6b6457e060405160405180910390a35050565b8173ffffffffffffffffffffffffffffffffffffffff168373ffffffffffffffffffffffffffffffffffffffff161415611fd2576040517f08c379a0000000000000000000000000000000000000000000000000000000008152600401611fc9906136c3565b60405180910390fd5b80600560008573ffffffffffffffffffffffffffffffffffffffff1673ffffffffffffffffffffffffffffffffffffffff16815260200190815260200160002060008473ffffffffffffffffffffffffffffffffffffffff1673ffffffffffffffffffffffffffffffffffffffff16815260200190815260200160002060006101000a81548160ff0219169083151502179055508173ffffffffffffffffffffffffffffffffffffffff168373ffffffffffffffffffffffffffffffffffffffff167f17307eab39ab6107e8899845ad3d59bd9653f200f220920489ca2b5937696c31836040516120c39190613521565b60405180910390a3505050565b6120db848484611a38565b6120e78484848461239c565b612126576040517f08c379a000000000000000000000000000000000000000000000000000000000815260040161211d906135e3565b60405180910390fd5b50505050565b6060600b805461213b90613b10565b80601f016020809104026020016040519081016040528092919081815260200182805461216790613b10565b80156121b45780601f10612189576101008083540402835291602001916121b4565b820191906000526020600020905b81548152906001019060200180831161219757829003601f168201915b5050505050905090565b60606000821415612206576040518060400160405280600181526020017f30000000000000000000000000000000000000000000000000000000000000008152509050612366565b600082905060005b6000821461223857808061222190613b73565b915050600a8261223191906139de565b915061220e565b60008167ffffffffffffffff81111561227a577f4e487b7100000000000000000000000000000000000000000000000000000000600052604160045260246000fd5b6040519080825280601f01601f1916602001820160405280156122ac5781602001600182028036833780820191505090505b5090505b6000851461235f576001826122c59190613a0f565b9150600a856122d49190613bf4565b60306122e09190613988565b60f81b81838151811061231c577f4e487b7100000000000000000000000000000000000000000000000000000000600052603260045260246000fd5b60200101907effffffffffffffffffffffffffffffffffffffffffffffffffffffffffffff1916908160001a905350600a8561235891906139de565b94506122b0565b8093505050505b919050565b600080600061237a8585612533565b91509150612387816125b6565b819250505092915050565b505050565b505050565b60006123bd8473ffffffffffffffffffffffffffffffffffffffff16612907565b15612526578373ffffffffffffffffffffffffffffffffffffffff1663150b7a026123e6611851565b8786866040518563ffffffff1660e01b815260040161240894939291906134d5565b602060405180830381600087803b15801561242257600080fd5b505af192505050801561245357506040513d601f19601f820116820180604052508101906124509190612e42565b60015b6124d6573d8060008114612483576040519150601f19603f3d011682016040523d82523d6000602084013e612488565b606091505b506000815114156124ce576040517f08c379a00000000000000000000000000000000000000000000000000000000081526004016124c5906135e3565b60405180910390fd5b805181602001fd5b63150b7a0260e01b7bffffffffffffffffffffffffffffffffffffffffffffffffffffffff1916817bffffffffffffffffffffffffffffffffffffffffffffffffffffffff19161491505061252b565b600190505b949350505050565b6000806041835114156125755760008060006020860151925060408601519150606086015160001a90506125698782858561292a565b945094505050506125af565b6040835114156125a657600080602085015191506040850151905061259b868383612a37565b9350935050506125af565b60006002915091505b9250929050565b600060048111156125f0577f4e487b7100000000000000000000000000000000000000000000000000000000600052602160045260246000fd5b816004811115612629577f4e487b7100000000000000000000000000000000000000000000000000000000600052602160045260246000fd5b141561263457612904565b6001600481111561266e577f4e487b7100000000000000000000000000000000000000000000000000000000600052602160045260246000fd5b8160048111156126a7577f4e487b7100000000000000000000000000000000000000000000000000000000600052602160045260246000fd5b14156126e8576040517f08c379a00000000000000000000000000000000000000000000000000000000081526004016126df906135a3565b60405180910390fd5b60026004811115612722577f4e487b7100000000000000000000000000000000000000000000000000000000600052602160045260246000fd5b81600481111561275b577f4e487b7100000000000000000000000000000000000000000000000000000000600052602160045260246000fd5b141561279c576040517f08c379a0000000000000000000000000000000000000000000000000000000008152600401612793906135c3565b60405180910390fd5b600360048111156127d6577f4e487b7100000000000000000000000000000000000000000000000000000000600052602160045260246000fd5b81600481111561280f577f4e487b7100000000000000000000000000000000000000000000000000000000600052602160045260246000fd5b1415612850576040517f08c379a0000000000000000000000000000000000000000000000000000000008152600401612847906136e3565b60405180910390fd5b600480811115612889577f4e487b7100000000000000000000000000000000000000000000000000000000600052602160045260246000fd5b8160048111156128c2577f4e487b7100000000000000000000000000000000000000000000000000000000600052602160045260246000fd5b1415612903576040517f08c379a00000000000000000000000000000000000000000000000000000000081526004016128fa90613783565b60405180910390fd5b5b50565b6000808273ffffffffffffffffffffffffffffffffffffffff163b119050919050565b6000807f7fffffffffffffffffffffffffffffff5d576e7357a4501ddfe92f46681b20a08360001c1115612965576000600391509150612a2e565b601b8560ff161415801561297d5750601c8560ff1614155b1561298f576000600491509150612a2e565b6000600187878787604051600081526020016040526040516129b4949392919061353c565b6020604051602081039080840390855afa1580156129d6573d6000803e3d6000fd5b505050602060405103519050600073ffffffffffffffffffffffffffffffffffffffff168173ffffffffffffffffffffffffffffffffffffffff161415612a2557600060019250925050612a2e565b80600092509250505b94509492505050565b60008060007f7fffffffffffffffffffffffffffffffffffffffffffffffffffffffffffffff60001b841690506000601b60ff8660001c901c612a7a9190613988565b9050612a888782888561292a565b935093505050935093915050565b828054612aa290613b10565b90600052602060002090601f016020900481019282612ac45760008555612b0b565b82601f10612add57805160ff1916838001178555612b0b565b82800160010185558215612b0b579182015b82811115612b0a578251825591602001919060010190612aef565b5b509050612b189190612b1c565b5090565b5b80821115612b35576000816000905550600101612b1d565b5090565b6000612b4c612b47846138e3565b6138be565b905082815260208101848484011115612b6457600080fd5b612b6f848285613ace565b509392505050565b6000612b8a612b8584613914565b6138be565b905082815260208101848484011115612ba257600080fd5b612bad848285613ace565b509392505050565b600081359050612bc481614363565b92915050565b600081359050612bd98161437a565b92915050565b600081359050612bee81614391565b92915050565b600081519050612c0381614391565b92915050565b600082601f830112612c1a57600080fd5b8135612c2a848260208601612b39565b91505092915050565b600082601f830112612c4457600080fd5b8135612c54848260208601612b77565b91505092915050565b600081359050612c6c816143a8565b92915050565b600060208284031215612c8457600080fd5b6000612c9284828501612bb5565b91505092915050565b60008060408385031215612cae57600080fd5b6000612cbc85828601612bb5565b9250506020612ccd85828601612bb5565b9150509250929050565b600080600060608486031215612cec57600080fd5b6000612cfa86828701612bb5565b9350506020612d0b86828701612bb5565b9250506040612d1c86828701612c5d565b9150509250925092565b60008060008060808587031215612d3c57600080fd5b6000612d4a87828801612bb5565b9450506020612d5b87828801612bb5565b9350506040612d6c87828801612c5d565b925050606085013567ffffffffffffffff811115612d8957600080fd5b612d9587828801612c09565b91505092959194509250565b60008060408385031215612db457600080fd5b6000612dc285828601612bb5565b9250506020612dd385828601612bca565b9150509250929050565b60008060408385031215612df057600080fd5b6000612dfe85828601612bb5565b9250506020612e0f85828601612c5d565b9150509250929050565b600060208284031215612e2b57600080fd5b6000612e3984828501612bdf565b91505092915050565b600060208284031215612e5457600080fd5b6000612e6284828501612bf4565b91505092915050565b600060208284031215612e7d57600080fd5b600082013567ffffffffffffffff811115612e9757600080fd5b612ea384828501612c33565b91505092915050565b600060208284031215612ebe57600080fd5b6000612ecc84828501612c5d565b91505092915050565b60008060408385031215612ee857600080fd5b6000612ef685828601612c5d565b9250506020612f0785828601612bb5565b9150509250929050565b600080600060608486031215612f2657600080fd5b6000612f3486828701612c5d565b9350506020612f4586828701612bb5565b925050604084013567ffffffffffffffff811115612f6257600080fd5b612f6e86828701612c09565b9150509250925092565b612f8181613a43565b82525050565b612f98612f9382613a43565b613bbc565b82525050565b612fa781613a55565b82525050565b612fb681613a61565b82525050565b612fcd612fc882613a61565b613bce565b82525050565b6000612fde82613945565b612fe8818561395b565b9350612ff8818560208601613add565b61300181613ce1565b840191505092915050565b600061301782613950565b613021818561396c565b9350613031818560208601613add565b61303a81613ce1565b840191505092915050565b600061305082613950565b61305a818561397d565b935061306a818560208601613add565b80840191505092915050565b600061308360188361396c565b915061308e82613cff565b602082019050919050565b60006130a6601f8361396c565b91506130b182613d28565b602082019050919050565b60006130c9601c8361397d565b91506130d482613d51565b601c82019050919050565b60006130ec60328361396c565b91506130f782613d7a565b604082019050919050565b600061310f60378361396c565b915061311a82613dc9565b604082019050919050565b600061313260268361396c565b915061313d82613e18565b604082019050919050565b600061315560258361396c565b915061316082613e67565b604082019050919050565b6000613178601c8361396c565b915061318382613eb6565b602082019050919050565b600061319b60248361396c565b91506131a682613edf565b604082019050919050565b60006131be60128361396c565b91506131c982613f2e565b602082019050919050565b60006131e160198361396c565b91506131ec82613f57565b602082019050919050565b600061320460228361396c565b915061320f82613f80565b604082019050919050565b6000613227602c8361396c565b915061323282613fcf565b604082019050919050565b600061324a60388361396c565b91506132558261401e565b604082019050919050565b600061326d602a8361396c565b91506132788261406d565b604082019050919050565b600061329060298361396c565b915061329b826140bc565b604082019050919050565b60006132b360228361396c565b91506132be8261410b565b604082019050919050565b60006132d660208361396c565b91506132e18261415a565b602082019050919050565b60006132f9602c8361396c565b915061330482614183565b604082019050919050565b600061331c60058361397d565b9150613327826141d2565b600582019050919050565b600061333f60208361396c565b915061334a826141fb565b602082019050919050565b6000613362602f8361396c565b915061336d82614224565b604082019050919050565b600061338560218361396c565b915061339082614273565b604082019050919050565b60006133a860178361396c565b91506133b3826142c2565b602082019050919050565b60006133cb60318361396c565b91506133d6826142eb565b604082019050919050565b60006133ee60158361396c565b91506133f98261433a565b602082019050919050565b61340d81613ab7565b82525050565b61342461341f82613ab7565b613bea565b82525050565b61343381613ac1565b82525050565b60006134458285612f87565b6014820191506134558284613413565b6020820191508190509392505050565b60006134718285613045565b915061347d8284613045565b91506134888261330f565b91508190509392505050565b600061349f826130bc565b91506134ab8284612fbc565b60208201915081905092915050565b60006020820190506134cf6000830184612f78565b92915050565b60006080820190506134ea6000830187612f78565b6134f76020830186612f78565b6135046040830185613404565b81810360608301526135168184612fd3565b905095945050505050565b60006020820190506135366000830184612f9e565b92915050565b60006080820190506135516000830187612fad565b61355e602083018661342a565b61356b6040830185612fad565b6135786060830184612fad565b95945050505050565b6000602082019050818103600083015261359b818461300c565b905092915050565b600060208201905081810360008301526135bc81613076565b9050919050565b600060208201905081810360008301526135dc81613099565b9050919050565b600060208201905081810360008301526135fc816130df565b9050919050565b6000602082019050818103600083015261361c81613102565b9050919050565b6000602082019050818103600083015261363c81613125565b9050919050565b6000602082019050818103600083015261365c81613148565b9050919050565b6000602082019050818103600083015261367c8161316b565b9050919050565b6000602082019050818103600083015261369c8161318e565b9050919050565b600060208201905081810360008301526136bc816131b1565b9050919050565b600060208201905081810360008301526136dc816131d4565b9050919050565b600060208201905081810360008301526136fc816131f7565b9050919050565b6000602082019050818103600083015261371c8161321a565b9050919050565b6000602082019050818103600083015261373c8161323d565b9050919050565b6000602082019050818103600083015261375c81613260565b9050919050565b6000602082019050818103600083015261377c81613283565b9050919050565b6000602082019050818103600083015261379c816132a6565b9050919050565b600060208201905081810360008301526137bc816132c9565b9050919050565b600060208201905081810360008301526137dc816132ec565b9050919050565b600060208201905081810360008301526137fc81613332565b9050919050565b6000602082019050818103600083015261381c81613355565b9050919050565b6000602082019050818103600083015261383c81613378565b9050919050565b6000602082019050818103600083015261385c8161339b565b9050919050565b6000602082019050818103600083015261387c816133be565b9050919050565b6000602082019050818103600083015261389c816133e1565b9050919050565b60006020820190506138b86000830184613404565b92915050565b60006138c86138d9565b90506138d48282613b42565b919050565b6000604051905090565b600067ffffffffffffffff8211156138fe576138fd613cb2565b5b61390782613ce1565b9050602081019050919050565b600067ffffffffffffffff82111561392f5761392e613cb2565b5b61393882613ce1565b9050602081019050919050565b600081519050919050565b600081519050919050565b600082825260208201905092915050565b600082825260208201905092915050565b600081905092915050565b600061399382613ab7565b915061399e83613ab7565b9250827fffffffffffffffffffffffffffffffffffffffffffffffffffffffffffffffff038211156139d3576139d2613c25565b5b828201905092915050565b60006139e982613ab7565b91506139f483613ab7565b925082613a0457613a03613c54565b5b828204905092915050565b6000613a1a82613ab7565b9150613a2583613ab7565b925082821015613a3857613a37613c25565b5b828203905092915050565b6000613a4e82613a97565b9050919050565b60008115159050919050565b6000819050919050565b60007fffffffff0000000000000000000000000000000000000000000000000000000082169050919050565b600073ffffffffffffffffffffffffffffffffffffffff82169050919050565b6000819050919050565b600060ff82169050919050565b82818337600083830152505050565b60005b83811015613afb578082015181840152602081019050613ae0565b83811115613b0a576000848401525b50505050565b60006002820490506001821680613b2857607f821691505b60208210811415613b3c57613b3b613c83565b5b50919050565b613b4b82613ce1565b810181811067ffffffffffffffff82111715613b6a57613b69613cb2565b5b80604052505050565b6000613b7e82613ab7565b91507fffffffffffffffffffffffffffffffffffffffffffffffffffffffffffffffff821415613bb157613bb0613c25565b5b600182019050919050565b6000613bc782613bd8565b9050919050565b6000819050919050565b6000613be382613cf2565b9050919050565b6000819050919050565b6000613bff82613ab7565b9150613c0a83613ab7565b925082613c1a57613c19613c54565b5b828206905092915050565b7f4e487b7100000000000000000000000000000000000000000000000000000000600052601160045260246000fd5b7f4e487b7100000000000000000000000000000000000000000000000000000000600052601260045260246000fd5b7f4e487b7100000000000000000000000000000000000000000000000000000000600052602260045260246000fd5b7f4e487b7100000000000000000000000000000000000000000000000000000000600052604160045260246000fd5b6000601f19601f8301169050919050565b60008160601b9050919050565b7f45434453413a20696e76616c6964207369676e61747572650000000000000000600082015250565b7f45434453413a20696e76616c6964207369676e6174757265206c656e67746800600082015250565b7f19457468657265756d205369676e6564204d6573736167653a0a333200000000600082015250565b7f4552433732313a207472616e7366657220746f206e6f6e20455243373231526560008201527f63656976657220696d706c656d656e7465720000000000000000000000000000602082015250565b7f43616e27742063726561746520636f6e74656e74206265636175736520796f7560008201527f20617265206e6f7420636f6e74656e7420736572766572000000000000000000602082015250565b7f4f776e61626c653a206e6577206f776e657220697320746865207a65726f206160008201527f6464726573730000000000000000000000000000000000000000000000000000602082015250565b7f4552433732313a207472616e736665722066726f6d20696e636f72726563742060008201527f6f776e6572000000000000000000000000000000000000000000000000000000602082015250565b7f4552433732313a20746f6b656e20616c7265616479206d696e74656400000000600082015250565b7f4552433732313a207472616e7366657220746f20746865207a65726f2061646460008201527f7265737300000000000000000000000000000000000000000000000000000000602082015250565b7f4e465420616c7265616479206d696e7465640000000000000000000000000000600082015250565b7f4552433732313a20617070726f766520746f2063616c6c657200000000000000600082015250565b7f45434453413a20696e76616c6964207369676e6174757265202773272076616c60008201527f7565000000000000000000000000000000000000000000000000000000000000602082015250565b7f4552433732313a206f70657261746f7220717565727920666f72206e6f6e657860008201527f697374656e7420746f6b656e0000000000000000000000000000000000000000602082015250565b7f4552433732313a20617070726f76652063616c6c6572206973206e6f74206f7760008201527f6e6572206e6f7220617070726f76656420666f7220616c6c0000000000000000602082015250565b7f4552433732313a2062616c616e636520717565727920666f7220746865207a6560008201527f726f206164647265737300000000000000000000000000000000000000000000602082015250565b7f4552433732313a206f776e657220717565727920666f72206e6f6e657869737460008201527f656e7420746f6b656e0000000000000000000000000000000000000000000000602082015250565b7f45434453413a20696e76616c6964207369676e6174757265202776272076616c60008201527f7565000000000000000000000000000000000000000000000000000000000000602082015250565b7f4552433732313a206d696e7420746f20746865207a65726f2061646472657373600082015250565b7f4552433732313a20617070726f76656420717565727920666f72206e6f6e657860008201527f697374656e7420746f6b656e0000000000000000000000000000000000000000602082015250565b7f2e6a736f6e000000000000000000000000000000000000000000000000000000600082015250565b7f4f776e61626c653a2063616c6c6572206973206e6f7420746865206f776e6572600082015250565b7f4552433732314d657461646174613a2055524920717565727920666f72206e6f60008201527f6e6578697374656e7420746f6b656e0000000000000000000000000000000000602082015250565b7f4552433732313a20617070726f76616c20746f2063757272656e74206f776e6560008201527f7200000000000000000000000000000000000000000000000000000000000000602082015250565b7f596f752063616e2774206d696e742074686973204e4654000000000000000000600082015250565b7f4552433732313a207472616e736665722063616c6c6572206973206e6f74206f60008201527f776e6572206e6f7220617070726f766564000000000000000000000000000000602082015250565b7f436f6e74656e7420616c72656164792061646465640000000000000000000000600082015250565b61436c81613a43565b811461437757600080fd5b50565b61438381613a55565b811461438e57600080fd5b50565b61439a81613a6b565b81146143a557600080fd5b50565b6143b181613ab7565b81146143bc57600080fd5b5056fea26469706673582212202e0400585697e8d2c15cbed706be785abb25b6f92aa50ce6e02dfdf359e006af64736f6c63430008040033",
  "linkReferences": {},
  "deployedLinkReferences": {}
}