{
  "_format": "hh-sol-artifact-1",
  "contractName": "NCPProof",
  "sourceName": "contracts/NCPProof.sol",
  "abi": [
    {
      "inputs": [],
      "stateMutability": "nonpayable",
      "type": "constructor"
    },
    {
      "anonymous": false,
      "inputs": [
        {
          "indexed": true,
          "internalType": "address",
          "name": "owner",
          "type": "address"
        },
        {
          "indexed": true,
          "internalType": "address",
          "name": "approved",
          "type": "address"
        },
        {
          "indexed": true,
          "internalType": "uint256",
          "name": "tokenId",
          "type": "uint256"
        }
      ],
      "name": "Approval",
      "type": "event"
    },
    {
      "anonymous": false,
      "inputs": [
        {
          "indexed": true,
          "internalType": "address",
          "name": "owner",
          "type": "address"
        },
        {
          "indexed": true,
          "internalType": "address",
          "name": "operator",
          "type": "address"
        },
        {
          "indexed": false,
          "internalType": "bool",
          "name": "approved",
          "type": "bool"
        }
      ],
      "name": "ApprovalForAll",
      "type": "event"
    },
    {
      "anonymous": false,
      "inputs": [
        {
          "indexed": true,
          "internalType": "address",
          "name": "_to",
          "type": "address"
        },
        {
          "indexed": false,
          "internalType": "uint256",
          "name": "_contentId",
          "type": "uint256"
        }
      ],
      "name": "MintNFT",
      "type": "event"
    },
    {
      "anonymous": false,
      "inputs": [
        {
          "indexed": true,
          "internalType": "address",
          "name": "previousOwner",
          "type": "address"
        },
        {
          "indexed": true,
          "internalType": "address",
          "name": "newOwner",
          "type": "address"
        }
      ],
      "name": "OwnershipTransferred",
      "type": "event"
    },
    {
      "anonymous": false,
      "inputs": [
        {
          "indexed": true,
          "internalType": "address",
          "name": "from",
          "type": "address"
        },
        {
          "indexed": true,
          "internalType": "address",
          "name": "to",
          "type": "address"
        },
        {
          "indexed": true,
          "internalType": "uint256",
          "name": "tokenId",
          "type": "uint256"
        }
      ],
      "name": "Transfer",
      "type": "event"
    },
    {
      "inputs": [
        {
          "internalType": "address",
          "name": "to",
          "type": "address"
        },
        {
          "internalType": "uint256",
          "name": "tokenId",
          "type": "uint256"
        }
      ],
      "name": "approve",
      "outputs": [],
      "stateMutability": "nonpayable",
      "type": "function"
    },
    {
      "inputs": [
        {
          "internalType": "address",
          "name": "owner",
          "type": "address"
        }
      ],
      "name": "balanceOf",
      "outputs": [
        {
          "internalType": "uint256",
          "name": "",
          "type": "uint256"
        }
      ],
      "stateMutability": "view",
      "type": "function"
    },
    {
      "inputs": [
        {
          "internalType": "uint256",
          "name": "contentId",
          "type": "uint256"
        }
      ],
      "name": "contentDistributorOf",
      "outputs": [
        {
          "internalType": "address",
          "name": "",
          "type": "address"
        }
      ],
      "stateMutability": "view",
      "type": "function"
    },
    {
      "inputs": [
        {
          "internalType": "uint256",
          "name": "tokenId",
          "type": "uint256"
        }
      ],
      "name": "contentOf",
      "outputs": [
        {
          "internalType": "uint256",
          "name": "",
          "type": "uint256"
        }
      ],
      "stateMutability": "view",
      "type": "function"
    },
    {
      "inputs": [],
      "name": "countOfNFT",
      "outputs": [
        {
          "internalType": "uint256",
          "name": "",
          "type": "uint256"
        }
      ],
      "stateMutability": "view",
      "type": "function"
    },
    {
      "inputs": [
        {
          "internalType": "uint256",
          "name": "tokenId",
          "type": "uint256"
        }
      ],
      "name": "getApproved",
      "outputs": [
        {
          "internalType": "address",
          "name": "",
          "type": "address"
        }
      ],
      "stateMutability": "view",
      "type": "function"
    },
    {
      "inputs": [
        {
          "internalType": "address",
          "name": "owner",
          "type": "address"
        },
        {
          "internalType": "uint256",
          "name": "contentId",
          "type": "uint256"
        }
      ],
      "name": "hasNFTForContent",
      "outputs": [
        {
          "internalType": "bool",
          "name": "",
          "type": "bool"
        }
      ],
      "stateMutability": "view",
      "type": "function"
    },
    {
      "inputs": [
        {
          "internalType": "address",
          "name": "owner",
          "type": "address"
        },
        {
          "internalType": "uint256[]",
          "name": "contentIds",
          "type": "uint256[]"
        }
      ],
      "name": "hasNFTForContents",
      "outputs": [
        {
          "internalType": "bool[]",
          "name": "",
          "type": "bool[]"
        }
      ],
      "stateMutability": "view",
      "type": "function"
    },
    {
      "inputs": [
        {
          "internalType": "address",
          "name": "owner",
          "type": "address"
        },
        {
          "internalType": "address",
          "name": "operator",
          "type": "address"
        }
      ],
      "name": "isApprovedForAll",
      "outputs": [
        {
          "internalType": "bool",
          "name": "",
          "type": "bool"
        }
      ],
      "stateMutability": "view",
      "type": "function"
    },
    {
      "inputs": [
        {
          "internalType": "address",
          "name": "addr",
          "type": "address"
        }
      ],
      "name": "isContentServer",
      "outputs": [
        {
          "internalType": "bool",
          "name": "",
          "type": "bool"
        }
      ],
      "stateMutability": "view",
      "type": "function"
    },
    {
      "inputs": [
        {
          "internalType": "address",
          "name": "owner",
          "type": "address"
        },
        {
          "internalType": "uint256",
          "name": "contentId",
          "type": "uint256"
        }
      ],
      "name": "isDistributorOf",
      "outputs": [
        {
          "internalType": "bool",
          "name": "",
          "type": "bool"
        }
      ],
      "stateMutability": "view",
      "type": "function"
    },
    {
      "inputs": [
        {
          "internalType": "uint256",
          "name": "contentId",
          "type": "uint256"
        }
      ],
      "name": "isSetted",
      "outputs": [
        {
          "internalType": "bool",
          "name": "",
          "type": "bool"
        }
      ],
      "stateMutability": "view",
      "type": "function"
    },
    {
      "inputs": [
        {
          "internalType": "address",
          "name": "to",
          "type": "address"
        },
        {
          "internalType": "uint256",
          "name": "contentId",
          "type": "uint256"
        }
      ],
      "name": "mint",
      "outputs": [
        {
          "internalType": "uint256",
          "name": "",
          "type": "uint256"
        }
      ],
      "stateMutability": "nonpayable",
      "type": "function"
    },
    {
      "inputs": [],
      "name": "name",
      "outputs": [
        {
          "internalType": "string",
          "name": "",
          "type": "string"
        }
      ],
      "stateMutability": "view",
      "type": "function"
    },
    {
      "inputs": [
        {
          "internalType": "uint256",
          "name": "contentId",
          "type": "uint256"
        },
        {
          "internalType": "address",
          "name": "contentOwner",
          "type": "address"
        },
        {
          "internalType": "bytes",
          "name": "signature",
          "type": "bytes"
        }
      ],
      "name": "newContent",
      "outputs": [
        {
          "internalType": "bool",
          "name": "",
          "type": "bool"
        }
      ],
      "stateMutability": "nonpayable",
      "type": "function"
    },
    {
      "inputs": [],
      "name": "newContentId",
      "outputs": [
        {
          "internalType": "uint256",
          "name": "",
          "type": "uint256"
        }
      ],
      "stateMutability": "view",
      "type": "function"
    },
    {
      "inputs": [],
      "name": "owner",
      "outputs": [
        {
          "internalType": "address",
          "name": "",
          "type": "address"
        }
      ],
      "stateMutability": "view",
      "type": "function"
    },
    {
      "inputs": [
        {
          "internalType": "uint256",
          "name": "tokenId",
          "type": "uint256"
        }
      ],
      "name": "ownerOf",
      "outputs": [
        {
          "internalType": "address",
          "name": "",
          "type": "address"
        }
      ],
      "stateMutability": "view",
      "type": "function"
    },
    {
      "inputs": [],
      "name": "renounceOwnership",
      "outputs": [],
      "stateMutability": "nonpayable",
      "type": "function"
    },
    {
      "inputs": [
        {
          "internalType": "address",
          "name": "from",
          "type": "address"
        },
        {
          "internalType": "address",
          "name": "to",
          "type": "address"
        },
        {
          "internalType": "uint256",
          "name": "tokenId",
          "type": "uint256"
        }
      ],
      "name": "safeTransferFrom",
      "outputs": [],
      "stateMutability": "nonpayable",
      "type": "function"
    },
    {
      "inputs": [
        {
          "internalType": "address",
          "name": "from",
          "type": "address"
        },
        {
          "internalType": "address",
          "name": "to",
          "type": "address"
        },
        {
          "internalType": "uint256",
          "name": "tokenId",
          "type": "uint256"
        },
        {
          "internalType": "bytes",
          "name": "_data",
          "type": "bytes"
        }
      ],
      "name": "safeTransferFrom",
      "outputs": [],
      "stateMutability": "nonpayable",
      "type": "function"
    },
    {
      "inputs": [
        {
          "internalType": "address",
          "name": "operator",
          "type": "address"
        },
        {
          "internalType": "bool",
          "name": "approved",
          "type": "bool"
        }
      ],
      "name": "setApprovalForAll",
      "outputs": [],
      "stateMutability": "nonpayable",
      "type": "function"
    },
    {
      "inputs": [
        {
          "internalType": "string",
          "name": "baseURI",
          "type": "string"
        }
      ],
      "name": "setBaseTokenURI",
      "outputs": [],
      "stateMutability": "nonpayable",
      "type": "function"
    },
    {
      "inputs": [
        {
          "internalType": "address",
          "name": "contentServer",
          "type": "address"
        },
        {
          "internalType": "bool",
          "name": "set",
          "type": "bool"
        }
      ],
      "name": "setContentServer",
      "outputs": [],
      "stateMutability": "nonpayable",
      "type": "function"
    },
    {
      "inputs": [
        {
          "internalType": "bytes4",
          "name": "interfaceId",
          "type": "bytes4"
        }
      ],
      "name": "supportsInterface",
      "outputs": [
        {
          "internalType": "bool",
          "name": "",
          "type": "bool"
        }
      ],
      "stateMutability": "view",
      "type": "function"
    },
    {
      "inputs": [],
      "name": "symbol",
      "outputs": [
        {
          "internalType": "string",
          "name": "",
          "type": "string"
        }
      ],
      "stateMutability": "view",
      "type": "function"
    },
    {
      "inputs": [
        {
          "internalType": "uint256",
          "name": "tokenId",
          "type": "uint256"
        }
      ],
      "name": "tokenURI",
      "outputs": [
        {
          "internalType": "string",
          "name": "",
          "type": "string"
        }
      ],
      "stateMutability": "view",
      "type": "function"
    },
    {
      "inputs": [
        {
          "internalType": "uint256",
          "name": "contentId",
          "type": "uint256"
        },
        {
          "internalType": "address",
          "name": "newOwner",
          "type": "address"
        }
      ],
      "name": "transferContentRights",
      "outputs": [
        {
          "internalType": "bool",
          "name": "",
          "type": "bool"
        }
      ],
      "stateMutability": "nonpayable",
      "type": "function"
    },
    {
      "inputs": [
        {
          "internalType": "address",
          "name": "from",
          "type": "address"
        },
        {
          "internalType": "address",
          "name": "to",
          "type": "address"
        },
        {
          "internalType": "uint256",
          "name": "tokenId",
          "type": "uint256"
        }
      ],
      "name": "transferFrom",
      "outputs": [],
      "stateMutability": "nonpayable",
      "type": "function"
    },
    {
      "inputs": [
        {
          "internalType": "address",
          "name": "newOwner",
          "type": "address"
        }
      ],
      "name": "transferOwnership",
      "outputs": [],
      "stateMutability": "nonpayable",
      "type": "function"
    },
    {
      "inputs": [],
      "name": "withdraw",
      "outputs": [],
      "stateMutability": "nonpayable",
      "type": "function"
    }
  ],
  "bytecode": "0x60806040523480156200001157600080fd5b506040518060400160405280601881526020017f4e465420436f6e74656e7420506c617965722050726f6f6600000000000000008152506040518060400160405280600481526020017f4e43505000000000000000000000000000000000000000000000000000000000815250816000908051906020019062000096929190620001f4565b508060019080519060200190620000af929190620001f4565b505050620000d2620000c66200012660201b60201c565b6200012e60201b60201c565b6040518060400160405280600d81526020017f68747470733a2f2f697066732f00000000000000000000000000000000000000815250600b90805190602001906200011f929190620001f4565b5062000309565b600033905090565b6000600660009054906101000a900473ffffffffffffffffffffffffffffffffffffffff16905081600660006101000a81548173ffffffffffffffffffffffffffffffffffffffff021916908373ffffffffffffffffffffffffffffffffffffffff1602179055508173ffffffffffffffffffffffffffffffffffffffff168173ffffffffffffffffffffffffffffffffffffffff167f8be0079c531659141344cd1fd0a4f28419497f9722a3daafe3b4186f6b6457e060405160405180910390a35050565b8280546200020290620002a4565b90600052602060002090601f01602090048101928262000226576000855562000272565b82601f106200024157805160ff191683800117855562000272565b8280016001018555821562000272579182015b828111156200027157825182559160200191906001019062000254565b5b50905062000281919062000285565b5090565b5b80821115620002a057600081600090555060010162000286565b5090565b60006002820490506001821680620002bd57607f821691505b60208210811415620002d457620002d3620002da565b5b50919050565b7f4e487b7100000000000000000000000000000000000000000000000000000000600052602260045260246000fd5b61483380620003196000396000f3fe608060405234801561001057600080fd5b50600436106101e55760003560e01c806370a082311161010f578063aae0ca62116100a2578063d4a8478111610071578063d4a84781146105da578063e985e9c5146105f8578063f2fde38b14610628578063f9da9c5a14610644576101e5565b8063aae0ca621461052e578063b88d4fde1461055e578063bb4243e51461057a578063c87b56dd146105aa576101e5565b806389c61dc2116100de57806389c61dc2146104a65780638da5cb5b146104d657806395d89b41146104f4578063a22cb46514610512576101e5565b806370a082311461040c578063715018a61461043c57806371ca59ca146104465780638170ced514610476576101e5565b806323b872dd1161018757806340c10f191161015657806340c10f191461037457806342842e0e146103a457806361aad37b146103c05780636352211e146103dc576101e5565b806323b872dd1461030257806327427e311461031e57806330176e131461034e5780633ccfd60b1461036a576101e5565b8063081812fc116101c3578063081812fc14610256578063095ea7b3146102865780631187beb1146102a25780631690a5a6146102d2576101e5565b806301ffc9a7146101ea57806306fdde031461021a5780630737b4f714610238575b600080fd5b61020460048036038101906101ff919061314b565b610674565b60405161021191906138fa565b60405180910390f35b610222610756565b60405161022f919061395a565b60405180910390f35b6102406107e8565b60405161024d9190613c7c565b60405180910390f35b610270600480360381019061026b91906131de565b61082e565b60405161027d9190613871565b60405180910390f35b6102a0600480360381019061029b919061310f565b6108b3565b005b6102bc60048036038101906102b7919061307f565b6109cb565b6040516102c991906138d8565b60405180910390f35b6102ec60048036038101906102e79190613243565b610bca565b6040516102f991906138fa565b60405180910390f35b61031c60048036038101906103179190612fb5565b610d4f565b005b610338600480360381019061033391906131de565b610daf565b6040516103459190613c7c565b60405180910390f35b6103686004803603810190610363919061319d565b610dcc565b005b610372610e62565b005b61038e6004803603810190610389919061310f565b610f27565b60405161039b9190613c7c565b60405180910390f35b6103be60048036038101906103b99190612fb5565b611063565b005b6103da60048036038101906103d591906130d3565b611083565b005b6103f660048036038101906103f191906131de565b61115a565b6040516104039190613871565b60405180910390f35b61042660048036038101906104219190612f50565b61120c565b6040516104339190613c7c565b60405180910390f35b6104446112c4565b005b610460600480360381019061045b91906131de565b61134c565b60405161046d9190613871565b60405180910390f35b610490600480360381019061048b91906131de565b611389565b60405161049d91906138fa565b60405180910390f35b6104c060048036038101906104bb919061310f565b6113f5565b6040516104cd91906138fa565b60405180910390f35b6104de611487565b6040516104eb9190613871565b60405180910390f35b6104fc6114b1565b604051610509919061395a565b60405180910390f35b61052c600480360381019061052791906130d3565b611543565b005b61054860048036038101906105439190612f50565b611559565b60405161055591906138fa565b60405180910390f35b61057860048036038101906105739190613004565b6115f4565b005b610594600480360381019061058f919061310f565b611656565b6040516105a191906138fa565b60405180910390f35b6105c460048036038101906105bf91906131de565b6116da565b6040516105d1919061395a565b60405180910390f35b6105e2611789565b6040516105ef9190613c7c565b60405180910390f35b610612600480360381019061060d9190612f79565b61179a565b60405161061f91906138fa565b60405180910390f35b610642600480360381019061063d9190612f50565b61182e565b005b61065e60048036038101906106599190613207565b611926565b60405161066b91906138fa565b60405180910390f35b60007f80ac58cd000000000000000000000000000000000000000000000000000000007bffffffffffffffffffffffffffffffffffffffffffffffffffffffff1916827bffffffffffffffffffffffffffffffffffffffffffffffffffffffff1916148061073f57507f5b5e139f000000000000000000000000000000000000000000000000000000007bffffffffffffffffffffffffffffffffffffffffffffffffffffffff1916827bffffffffffffffffffffffffffffffffffffffffffffffffffffffff1916145b8061074f575061074e826119c3565b5b9050919050565b60606000805461076590613f4e565b80601f016020809104026020016040519081016040528092919081815260200182805461079190613f4e565b80156107de5780601f106107b3576101008083540402835291602001916107de565b820191906000526020600020905b8154815290600101906020018083116107c157829003601f168201915b5050505050905090565b6000805b33426040516020016107ff9291906137f0565b6040516020818303038152906040528051906020012060001c905061082381611389565b6107ec578091505090565b600061083982611a2d565b610878576040517f08c379a000000000000000000000000000000000000000000000000000000000815260040161086f90613b9c565b60405180910390fd5b6004600083815260200190815260200160002060009054906101000a900473ffffffffffffffffffffffffffffffffffffffff169050919050565b60006108be8261115a565b90508073ffffffffffffffffffffffffffffffffffffffff168373ffffffffffffffffffffffffffffffffffffffff16141561092f576040517f08c379a000000000000000000000000000000000000000000000000000000000815260040161092690613bfc565b60405180910390fd5b8073ffffffffffffffffffffffffffffffffffffffff1661094e611a99565b73ffffffffffffffffffffffffffffffffffffffff16148061097d575061097c81610977611a99565b61179a565b5b6109bc576040517f08c379a00000000000000000000000000000000000000000000000000000000081526004016109b390613afc565b60405180910390fd5b6109c68383611aa1565b505050565b606060008251905060008167ffffffffffffffff811115610a15577f4e487b7100000000000000000000000000000000000000000000000000000000600052604160045260246000fd5b604051908082528060200260200182016040528015610a435781602001602082028036833780820191505090505b5090506000610a50611789565b905060005b83811015610bbd576000838281518110610a98577f4e487b7100000000000000000000000000000000000000000000000000000000600052603260045260246000fd5b60200260200101901515908115158152505060005b82811015610ba9578773ffffffffffffffffffffffffffffffffffffffff16610ad58261115a565b73ffffffffffffffffffffffffffffffffffffffff16148015610b3f5750868281518110610b2c577f4e487b7100000000000000000000000000000000000000000000000000000000600052603260045260246000fd5b6020026020010151610b3d82610daf565b145b15610b96576001848381518110610b7f577f4e487b7100000000000000000000000000000000000000000000000000000000600052603260045260246000fd5b602002602001019015159081151581525050610ba9565b8080610ba190613fb1565b915050610aad565b508080610bb590613fb1565b915050610a55565b5081935050505092915050565b60008073ffffffffffffffffffffffffffffffffffffffff16600a600086815260200190815260200160002060009054906101000a900473ffffffffffffffffffffffffffffffffffffffff1673ffffffffffffffffffffffffffffffffffffffff1614610c6d576040517f08c379a0000000000000000000000000000000000000000000000000000000008152600401610c6490613c5c565b60405180910390fd5b60008385604051602001610c829291906137f0565b6040516020818303038152906040528051906020012090506000610ca68285611b5a565b9050610cb181611559565b610cf0576040517f08c379a0000000000000000000000000000000000000000000000000000000008152600401610ce7906139dc565b60405180910390fd5b84600a600088815260200190815260200160002060006101000a81548173ffffffffffffffffffffffffffffffffffffffff021916908373ffffffffffffffffffffffffffffffffffffffff1602179055506001925050509392505050565b610d60610d5a611a99565b82611ba2565b610d9f576040517f08c379a0000000000000000000000000000000000000000000000000000000008152600401610d9690613c3c565b60405180910390fd5b610daa838383611c80565b505050565b600060096000838152602001908152602001600020549050919050565b610dd4611a99565b73ffffffffffffffffffffffffffffffffffffffff16610df2611487565b73ffffffffffffffffffffffffffffffffffffffff1614610e48576040517f08c379a0000000000000000000000000000000000000000000000000000000008152600401610e3f90613bbc565b60405180910390fd5b80600b9080519060200190610e5e929190612cde565b5050565b610e6a611a99565b73ffffffffffffffffffffffffffffffffffffffff16610e88611487565b73ffffffffffffffffffffffffffffffffffffffff1614610ede576040517f08c379a0000000000000000000000000000000000000000000000000000000008152600401610ed590613bbc565b60405180910390fd5b3373ffffffffffffffffffffffffffffffffffffffff166108fc479081150290604051600060405180830381858888f19350505050158015610f24573d6000803e3d6000fd5b50565b60003373ffffffffffffffffffffffffffffffffffffffff16610f498361134c565b73ffffffffffffffffffffffffffffffffffffffff1614610f9f576040517f08c379a0000000000000000000000000000000000000000000000000000000008152600401610f9690613c1c565b60405180910390fd5b610fa983836113f5565b15610fe9576040517f08c379a0000000000000000000000000000000000000000000000000000000008152600401610fe090613a7c565b60405180910390fd5b6000610ff56007611ee7565b90506110016007611ef5565b61100b8482611f0b565b8373ffffffffffffffffffffffffffffffffffffffff167f1f89f147a58d1673945cf416187db98efc8208408c011b91887acd59fd8523c3846040516110519190613c7c565b60405180910390a28091505092915050565b61107e838383604051806020016040528060008152506115f4565b505050565b61108b611a99565b73ffffffffffffffffffffffffffffffffffffffff166110a9611487565b73ffffffffffffffffffffffffffffffffffffffff16146110ff576040517f08c379a00000000000000000000000000000000000000000000000000000000081526004016110f690613bbc565b60405180910390fd5b80600860008473ffffffffffffffffffffffffffffffffffffffff1673ffffffffffffffffffffffffffffffffffffffff16815260200190815260200160002060006101000a81548160ff0219169083151502179055505050565b6000806002600084815260200190815260200160002060009054906101000a900473ffffffffffffffffffffffffffffffffffffffff169050600073ffffffffffffffffffffffffffffffffffffffff168173ffffffffffffffffffffffffffffffffffffffff161415611203576040517f08c379a00000000000000000000000000000000000000000000000000000000081526004016111fa90613b3c565b60405180910390fd5b80915050919050565b60008073ffffffffffffffffffffffffffffffffffffffff168273ffffffffffffffffffffffffffffffffffffffff16141561127d576040517f08c379a000000000000000000000000000000000000000000000000000000000815260040161127490613b1c565b60405180910390fd5b600360008373ffffffffffffffffffffffffffffffffffffffff1673ffffffffffffffffffffffffffffffffffffffff168152602001908152602001600020549050919050565b6112cc611a99565b73ffffffffffffffffffffffffffffffffffffffff166112ea611487565b73ffffffffffffffffffffffffffffffffffffffff1614611340576040517f08c379a000000000000000000000000000000000000000000000000000000000815260040161133790613bbc565b60405180910390fd5b61134a60006120e5565b565b6000600a600083815260200190815260200160002060009054906101000a900473ffffffffffffffffffffffffffffffffffffffff169050919050565b60008073ffffffffffffffffffffffffffffffffffffffff16600a600084815260200190815260200160002060009054906101000a900473ffffffffffffffffffffffffffffffffffffffff1673ffffffffffffffffffffffffffffffffffffffff1614159050919050565b600080611400611789565b905060005b8181101561147a578473ffffffffffffffffffffffffffffffffffffffff1661142d8261115a565b73ffffffffffffffffffffffffffffffffffffffff1614801561145757508361145582610daf565b145b1561146757600192505050611481565b808061147290613fb1565b915050611405565b5060009150505b92915050565b6000600660009054906101000a900473ffffffffffffffffffffffffffffffffffffffff16905090565b6060600180546114c090613f4e565b80601f01602080910402602001604051908101604052809291908181526020018280546114ec90613f4e565b80156115395780601f1061150e57610100808354040283529160200191611539565b820191906000526020600020905b81548152906001019060200180831161151c57829003601f168201915b5050505050905090565b61155561154e611a99565b83836121ab565b5050565b6000611563611487565b73ffffffffffffffffffffffffffffffffffffffff168273ffffffffffffffffffffffffffffffffffffffff16141561159f57600190506115ef565b600860008373ffffffffffffffffffffffffffffffffffffffff1673ffffffffffffffffffffffffffffffffffffffff16815260200190815260200160002060009054906101000a900460ff1690505b919050565b6116056115ff611a99565b83611ba2565b611644576040517f08c379a000000000000000000000000000000000000000000000000000000000815260040161163b90613c3c565b60405180910390fd5b61165084848484612318565b50505050565b60008073ffffffffffffffffffffffffffffffffffffffff166116788361134c565b73ffffffffffffffffffffffffffffffffffffffff16146116cf578273ffffffffffffffffffffffffffffffffffffffff166116b38361134c565b73ffffffffffffffffffffffffffffffffffffffff16146116d2565b60015b905092915050565b60606116e582611a2d565b611724576040517f08c379a000000000000000000000000000000000000000000000000000000000815260040161171b90613bdc565b60405180910390fd5b600061172e612374565b9050600081511161174e5760405180602001604052806000815250611781565b8061176061175b85610daf565b612406565b60405160200161177192919061381c565b6040516020818303038152906040525b915050919050565b60006117956007611ee7565b905090565b6000600560008473ffffffffffffffffffffffffffffffffffffffff1673ffffffffffffffffffffffffffffffffffffffff16815260200190815260200160002060008373ffffffffffffffffffffffffffffffffffffffff1673ffffffffffffffffffffffffffffffffffffffff16815260200190815260200160002060009054906101000a900460ff16905092915050565b611836611a99565b73ffffffffffffffffffffffffffffffffffffffff16611854611487565b73ffffffffffffffffffffffffffffffffffffffff16146118aa576040517f08c379a00000000000000000000000000000000000000000000000000000000081526004016118a190613bbc565b60405180910390fd5b600073ffffffffffffffffffffffffffffffffffffffff168173ffffffffffffffffffffffffffffffffffffffff16141561191a576040517f08c379a0000000000000000000000000000000000000000000000000000000008152600401611911906139fc565b60405180910390fd5b611923816120e5565b50565b600080611931611789565b905060005b818110156119b6573373ffffffffffffffffffffffffffffffffffffffff1661195e8261115a565b73ffffffffffffffffffffffffffffffffffffffff1614801561198857508461198682610daf565b145b156119a357611998338583611c80565b6001925050506119bd565b80806119ae90613fb1565b915050611936565b5060009150505b92915050565b60007f01ffc9a7000000000000000000000000000000000000000000000000000000007bffffffffffffffffffffffffffffffffffffffffffffffffffffffff1916827bffffffffffffffffffffffffffffffffffffffffffffffffffffffff1916149050919050565b60008073ffffffffffffffffffffffffffffffffffffffff166002600084815260200190815260200160002060009054906101000a900473ffffffffffffffffffffffffffffffffffffffff1673ffffffffffffffffffffffffffffffffffffffff1614159050919050565b600033905090565b816004600083815260200190815260200160002060006101000a81548173ffffffffffffffffffffffffffffffffffffffff021916908373ffffffffffffffffffffffffffffffffffffffff160217905550808273ffffffffffffffffffffffffffffffffffffffff16611b148361115a565b73ffffffffffffffffffffffffffffffffffffffff167f8c5be1e5ebec7d5bd14f71427d1e84f3dd0314c0f7b2291e5b200ac8c7c3b92560405160405180910390a45050565b60008083604051602001611b6e919061384b565b604051602081830303815290604052805190602001209050611b9983826125b390919063ffffffff16565b91505092915050565b6000611bad82611a2d565b611bec576040517f08c379a0000000000000000000000000000000000000000000000000000000008152600401611be390613adc565b60405180910390fd5b6000611bf78361115a565b90508073ffffffffffffffffffffffffffffffffffffffff168473ffffffffffffffffffffffffffffffffffffffff161480611c6657508373ffffffffffffffffffffffffffffffffffffffff16611c4e8461082e565b73ffffffffffffffffffffffffffffffffffffffff16145b80611c775750611c76818561179a565b5b91505092915050565b8273ffffffffffffffffffffffffffffffffffffffff16611ca08261115a565b73ffffffffffffffffffffffffffffffffffffffff1614611cf6576040517f08c379a0000000000000000000000000000000000000000000000000000000008152600401611ced90613a1c565b60405180910390fd5b600073ffffffffffffffffffffffffffffffffffffffff168273ffffffffffffffffffffffffffffffffffffffff161415611d66576040517f08c379a0000000000000000000000000000000000000000000000000000000008152600401611d5d90613a5c565b60405180910390fd5b611d718383836125da565b611d7c600082611aa1565b6001600360008573ffffffffffffffffffffffffffffffffffffffff1673ffffffffffffffffffffffffffffffffffffffff1681526020019081526020016000206000828254611dcc9190613e4d565b925050819055506001600360008473ffffffffffffffffffffffffffffffffffffffff1673ffffffffffffffffffffffffffffffffffffffff1681526020019081526020016000206000828254611e239190613dc6565b92505081905550816002600083815260200190815260200160002060006101000a81548173ffffffffffffffffffffffffffffffffffffffff021916908373ffffffffffffffffffffffffffffffffffffffff160217905550808273ffffffffffffffffffffffffffffffffffffffff168473ffffffffffffffffffffffffffffffffffffffff167fddf252ad1be2c89b69c2b068fc378daa952ba7f163c4a11628f55a4df523b3ef60405160405180910390a4611ee28383836125df565b505050565b600081600001549050919050565b6001816000016000828254019250508190555050565b600073ffffffffffffffffffffffffffffffffffffffff168273ffffffffffffffffffffffffffffffffffffffff161415611f7b576040517f08c379a0000000000000000000000000000000000000000000000000000000008152600401611f7290613b7c565b60405180910390fd5b611f8481611a2d565b15611fc4576040517f08c379a0000000000000000000000000000000000000000000000000000000008152600401611fbb90613a3c565b60405180910390fd5b611fd0600083836125da565b6001600360008473ffffffffffffffffffffffffffffffffffffffff1673ffffffffffffffffffffffffffffffffffffffff16815260200190815260200160002060008282546120209190613dc6565b92505081905550816002600083815260200190815260200160002060006101000a81548173ffffffffffffffffffffffffffffffffffffffff021916908373ffffffffffffffffffffffffffffffffffffffff160217905550808273ffffffffffffffffffffffffffffffffffffffff16600073ffffffffffffffffffffffffffffffffffffffff167fddf252ad1be2c89b69c2b068fc378daa952ba7f163c4a11628f55a4df523b3ef60405160405180910390a46120e1600083836125df565b5050565b6000600660009054906101000a900473ffffffffffffffffffffffffffffffffffffffff16905081600660006101000a81548173ffffffffffffffffffffffffffffffffffffffff021916908373ffffffffffffffffffffffffffffffffffffffff1602179055508173ffffffffffffffffffffffffffffffffffffffff168173ffffffffffffffffffffffffffffffffffffffff167f8be0079c531659141344cd1fd0a4f28419497f9722a3daafe3b4186f6b6457e060405160405180910390a35050565b8173ffffffffffffffffffffffffffffffffffffffff168373ffffffffffffffffffffffffffffffffffffffff16141561221a576040517f08c379a000000000000000000000000000000000000000000000000000000000815260040161221190613a9c565b60405180910390fd5b80600560008573ffffffffffffffffffffffffffffffffffffffff1673ffffffffffffffffffffffffffffffffffffffff16815260200190815260200160002060008473ffffffffffffffffffffffffffffffffffffffff1673ffffffffffffffffffffffffffffffffffffffff16815260200190815260200160002060006101000a81548160ff0219169083151502179055508173ffffffffffffffffffffffffffffffffffffffff168373ffffffffffffffffffffffffffffffffffffffff167f17307eab39ab6107e8899845ad3d59bd9653f200f220920489ca2b5937696c318360405161230b91906138fa565b60405180910390a3505050565b612323848484611c80565b61232f848484846125e4565b61236e576040517f08c379a0000000000000000000000000000000000000000000000000000000008152600401612365906139bc565b60405180910390fd5b50505050565b6060600b805461238390613f4e565b80601f01602080910402602001604051908101604052809291908181526020018280546123af90613f4e565b80156123fc5780601f106123d1576101008083540402835291602001916123fc565b820191906000526020600020905b8154815290600101906020018083116123df57829003601f168201915b5050505050905090565b6060600082141561244e576040518060400160405280600181526020017f300000000000000000000000000000000000000000000000000000000000000081525090506125ae565b600082905060005b6000821461248057808061246990613fb1565b915050600a826124799190613e1c565b9150612456565b60008167ffffffffffffffff8111156124c2577f4e487b7100000000000000000000000000000000000000000000000000000000600052604160045260246000fd5b6040519080825280601f01601f1916602001820160405280156124f45781602001600182028036833780820191505090505b5090505b600085146125a75760018261250d9190613e4d565b9150600a8561251c9190614032565b60306125289190613dc6565b60f81b818381518110612564577f4e487b7100000000000000000000000000000000000000000000000000000000600052603260045260246000fd5b60200101907effffffffffffffffffffffffffffffffffffffffffffffffffffffffffffff1916908160001a905350600a856125a09190613e1c565b94506124f8565b8093505050505b919050565b60008060006125c2858561277b565b915091506125cf816127fe565b819250505092915050565b505050565b505050565b60006126058473ffffffffffffffffffffffffffffffffffffffff16612b4f565b1561276e578373ffffffffffffffffffffffffffffffffffffffff1663150b7a0261262e611a99565b8786866040518563ffffffff1660e01b8152600401612650949392919061388c565b602060405180830381600087803b15801561266a57600080fd5b505af192505050801561269b57506040513d601f19601f820116820180604052508101906126989190613174565b60015b61271e573d80600081146126cb576040519150601f19603f3d011682016040523d82523d6000602084013e6126d0565b606091505b50600081511415612716576040517f08c379a000000000000000000000000000000000000000000000000000000000815260040161270d906139bc565b60405180910390fd5b805181602001fd5b63150b7a0260e01b7bffffffffffffffffffffffffffffffffffffffffffffffffffffffff1916817bffffffffffffffffffffffffffffffffffffffffffffffffffffffff191614915050612773565b600190505b949350505050565b6000806041835114156127bd5760008060006020860151925060408601519150606086015160001a90506127b187828585612b72565b945094505050506127f7565b6040835114156127ee5760008060208501519150604085015190506127e3868383612c7f565b9350935050506127f7565b60006002915091505b9250929050565b60006004811115612838577f4e487b7100000000000000000000000000000000000000000000000000000000600052602160045260246000fd5b816004811115612871577f4e487b7100000000000000000000000000000000000000000000000000000000600052602160045260246000fd5b141561287c57612b4c565b600160048111156128b6577f4e487b7100000000000000000000000000000000000000000000000000000000600052602160045260246000fd5b8160048111156128ef577f4e487b7100000000000000000000000000000000000000000000000000000000600052602160045260246000fd5b1415612930576040517f08c379a00000000000000000000000000000000000000000000000000000000081526004016129279061397c565b60405180910390fd5b6002600481111561296a577f4e487b7100000000000000000000000000000000000000000000000000000000600052602160045260246000fd5b8160048111156129a3577f4e487b7100000000000000000000000000000000000000000000000000000000600052602160045260246000fd5b14156129e4576040517f08c379a00000000000000000000000000000000000000000000000000000000081526004016129db9061399c565b60405180910390fd5b60036004811115612a1e577f4e487b7100000000000000000000000000000000000000000000000000000000600052602160045260246000fd5b816004811115612a57577f4e487b7100000000000000000000000000000000000000000000000000000000600052602160045260246000fd5b1415612a98576040517f08c379a0000000000000000000000000000000000000000000000000000000008152600401612a8f90613abc565b60405180910390fd5b600480811115612ad1577f4e487b7100000000000000000000000000000000000000000000000000000000600052602160045260246000fd5b816004811115612b0a577f4e487b7100000000000000000000000000000000000000000000000000000000600052602160045260246000fd5b1415612b4b576040517f08c379a0000000000000000000000000000000000000000000000000000000008152600401612b4290613b5c565b60405180910390fd5b5b50565b6000808273ffffffffffffffffffffffffffffffffffffffff163b119050919050565b6000807f7fffffffffffffffffffffffffffffff5d576e7357a4501ddfe92f46681b20a08360001c1115612bad576000600391509150612c76565b601b8560ff1614158015612bc55750601c8560ff1614155b15612bd7576000600491509150612c76565b600060018787878760405160008152602001604052604051612bfc9493929190613915565b6020604051602081039080840390855afa158015612c1e573d6000803e3d6000fd5b505050602060405103519050600073ffffffffffffffffffffffffffffffffffffffff168173ffffffffffffffffffffffffffffffffffffffff161415612c6d57600060019250925050612c76565b80600092509250505b94509492505050565b60008060007f7fffffffffffffffffffffffffffffffffffffffffffffffffffffffffffffff60001b841690506000601b60ff8660001c901c612cc29190613dc6565b9050612cd087828885612b72565b935093505050935093915050565b828054612cea90613f4e565b90600052602060002090601f016020900481019282612d0c5760008555612d53565b82601f10612d2557805160ff1916838001178555612d53565b82800160010185558215612d53579182015b82811115612d52578251825591602001919060010190612d37565b5b509050612d609190612d64565b5090565b5b80821115612d7d576000816000905550600101612d65565b5090565b6000612d94612d8f84613cbc565b613c97565b90508083825260208201905082856020860282011115612db357600080fd5b60005b85811015612de35781612dc98882612f3b565b845260208401935060208301925050600181019050612db6565b5050509392505050565b6000612e00612dfb84613ce8565b613c97565b905082815260208101848484011115612e1857600080fd5b612e23848285613f0c565b509392505050565b6000612e3e612e3984613d19565b613c97565b905082815260208101848484011115612e5657600080fd5b612e61848285613f0c565b509392505050565b600081359050612e78816147a1565b92915050565b600082601f830112612e8f57600080fd5b8135612e9f848260208601612d81565b91505092915050565b600081359050612eb7816147b8565b92915050565b600081359050612ecc816147cf565b92915050565b600081519050612ee1816147cf565b92915050565b600082601f830112612ef857600080fd5b8135612f08848260208601612ded565b91505092915050565b600082601f830112612f2257600080fd5b8135612f32848260208601612e2b565b91505092915050565b600081359050612f4a816147e6565b92915050565b600060208284031215612f6257600080fd5b6000612f7084828501612e69565b91505092915050565b60008060408385031215612f8c57600080fd5b6000612f9a85828601612e69565b9250506020612fab85828601612e69565b9150509250929050565b600080600060608486031215612fca57600080fd5b6000612fd886828701612e69565b9350506020612fe986828701612e69565b9250506040612ffa86828701612f3b565b9150509250925092565b6000806000806080858703121561301a57600080fd5b600061302887828801612e69565b945050602061303987828801612e69565b935050604061304a87828801612f3b565b925050606085013567ffffffffffffffff81111561306757600080fd5b61307387828801612ee7565b91505092959194509250565b6000806040838503121561309257600080fd5b60006130a085828601612e69565b925050602083013567ffffffffffffffff8111156130bd57600080fd5b6130c985828601612e7e565b9150509250929050565b600080604083850312156130e657600080fd5b60006130f485828601612e69565b925050602061310585828601612ea8565b9150509250929050565b6000806040838503121561312257600080fd5b600061313085828601612e69565b925050602061314185828601612f3b565b9150509250929050565b60006020828403121561315d57600080fd5b600061316b84828501612ebd565b91505092915050565b60006020828403121561318657600080fd5b600061319484828501612ed2565b91505092915050565b6000602082840312156131af57600080fd5b600082013567ffffffffffffffff8111156131c957600080fd5b6131d584828501612f11565b91505092915050565b6000602082840312156131f057600080fd5b60006131fe84828501612f3b565b91505092915050565b6000806040838503121561321a57600080fd5b600061322885828601612f3b565b925050602061323985828601612e69565b9150509250929050565b60008060006060848603121561325857600080fd5b600061326686828701612f3b565b935050602061327786828701612e69565b925050604084013567ffffffffffffffff81111561329457600080fd5b6132a086828701612ee7565b9150509250925092565b60006132b68383613346565b60208301905092915050565b6132cb81613e81565b82525050565b6132e26132dd82613e81565b613ffa565b82525050565b60006132f382613d5a565b6132fd8185613d88565b935061330883613d4a565b8060005b8381101561333957815161332088826132aa565b975061332b83613d7b565b92505060018101905061330c565b5085935050505092915050565b61334f81613e93565b82525050565b61335e81613e93565b82525050565b61336d81613e9f565b82525050565b61338461337f82613e9f565b61400c565b82525050565b600061339582613d65565b61339f8185613d99565b93506133af818560208601613f1b565b6133b88161411f565b840191505092915050565b60006133ce82613d70565b6133d88185613daa565b93506133e8818560208601613f1b565b6133f18161411f565b840191505092915050565b600061340782613d70565b6134118185613dbb565b9350613421818560208601613f1b565b80840191505092915050565b600061343a601883613daa565b91506134458261413d565b602082019050919050565b600061345d601f83613daa565b915061346882614166565b602082019050919050565b6000613480601c83613dbb565b915061348b8261418f565b601c82019050919050565b60006134a3603283613daa565b91506134ae826141b8565b604082019050919050565b60006134c6603783613daa565b91506134d182614207565b604082019050919050565b60006134e9602683613daa565b91506134f482614256565b604082019050919050565b600061350c602583613daa565b9150613517826142a5565b604082019050919050565b600061352f601c83613daa565b915061353a826142f4565b602082019050919050565b6000613552602483613daa565b915061355d8261431d565b604082019050919050565b6000613575601283613daa565b91506135808261436c565b602082019050919050565b6000613598601983613daa565b91506135a382614395565b602082019050919050565b60006135bb602283613daa565b91506135c6826143be565b604082019050919050565b60006135de602c83613daa565b91506135e98261440d565b604082019050919050565b6000613601603883613daa565b915061360c8261445c565b604082019050919050565b6000613624602a83613daa565b915061362f826144ab565b604082019050919050565b6000613647602983613daa565b9150613652826144fa565b604082019050919050565b600061366a602283613daa565b915061367582614549565b604082019050919050565b600061368d602083613daa565b915061369882614598565b602082019050919050565b60006136b0602c83613daa565b91506136bb826145c1565b604082019050919050565b60006136d3600583613dbb565b91506136de82614610565b600582019050919050565b60006136f6602083613daa565b915061370182614639565b602082019050919050565b6000613719602f83613daa565b915061372482614662565b604082019050919050565b600061373c602183613daa565b9150613747826146b1565b604082019050919050565b600061375f601783613daa565b915061376a82614700565b602082019050919050565b6000613782603183613daa565b915061378d82614729565b604082019050919050565b60006137a5601583613daa565b91506137b082614778565b602082019050919050565b6137c481613ef5565b82525050565b6137db6137d682613ef5565b614028565b82525050565b6137ea81613eff565b82525050565b60006137fc82856132d1565b60148201915061380c82846137ca565b6020820191508190509392505050565b600061382882856133fc565b915061383482846133fc565b915061383f826136c6565b91508190509392505050565b600061385682613473565b91506138628284613373565b60208201915081905092915050565b600060208201905061388660008301846132c2565b92915050565b60006080820190506138a160008301876132c2565b6138ae60208301866132c2565b6138bb60408301856137bb565b81810360608301526138cd818461338a565b905095945050505050565b600060208201905081810360008301526138f281846132e8565b905092915050565b600060208201905061390f6000830184613355565b92915050565b600060808201905061392a6000830187613364565b61393760208301866137e1565b6139446040830185613364565b6139516060830184613364565b95945050505050565b6000602082019050818103600083015261397481846133c3565b905092915050565b600060208201905081810360008301526139958161342d565b9050919050565b600060208201905081810360008301526139b581613450565b9050919050565b600060208201905081810360008301526139d581613496565b9050919050565b600060208201905081810360008301526139f5816134b9565b9050919050565b60006020820190508181036000830152613a15816134dc565b9050919050565b60006020820190508181036000830152613a35816134ff565b9050919050565b60006020820190508181036000830152613a5581613522565b9050919050565b60006020820190508181036000830152613a7581613545565b9050919050565b60006020820190508181036000830152613a9581613568565b9050919050565b60006020820190508181036000830152613ab58161358b565b9050919050565b60006020820190508181036000830152613ad5816135ae565b9050919050565b60006020820190508181036000830152613af5816135d1565b9050919050565b60006020820190508181036000830152613b15816135f4565b9050919050565b60006020820190508181036000830152613b3581613617565b9050919050565b60006020820190508181036000830152613b558161363a565b9050919050565b60006020820190508181036000830152613b758161365d565b9050919050565b60006020820190508181036000830152613b9581613680565b9050919050565b60006020820190508181036000830152613bb5816136a3565b9050919050565b60006020820190508181036000830152613bd5816136e9565b9050919050565b60006020820190508181036000830152613bf58161370c565b9050919050565b60006020820190508181036000830152613c158161372f565b9050919050565b60006020820190508181036000830152613c3581613752565b9050919050565b60006020820190508181036000830152613c5581613775565b9050919050565b60006020820190508181036000830152613c7581613798565b9050919050565b6000602082019050613c9160008301846137bb565b92915050565b6000613ca1613cb2565b9050613cad8282613f80565b919050565b6000604051905090565b600067ffffffffffffffff821115613cd757613cd66140f0565b5b602082029050602081019050919050565b600067ffffffffffffffff821115613d0357613d026140f0565b5b613d0c8261411f565b9050602081019050919050565b600067ffffffffffffffff821115613d3457613d336140f0565b5b613d3d8261411f565b9050602081019050919050565b6000819050602082019050919050565b600081519050919050565b600081519050919050565b600081519050919050565b6000602082019050919050565b600082825260208201905092915050565b600082825260208201905092915050565b600082825260208201905092915050565b600081905092915050565b6000613dd182613ef5565b9150613ddc83613ef5565b9250827fffffffffffffffffffffffffffffffffffffffffffffffffffffffffffffffff03821115613e1157613e10614063565b5b828201905092915050565b6000613e2782613ef5565b9150613e3283613ef5565b925082613e4257613e41614092565b5b828204905092915050565b6000613e5882613ef5565b9150613e6383613ef5565b925082821015613e7657613e75614063565b5b828203905092915050565b6000613e8c82613ed5565b9050919050565b60008115159050919050565b6000819050919050565b60007fffffffff0000000000000000000000000000000000000000000000000000000082169050919050565b600073ffffffffffffffffffffffffffffffffffffffff82169050919050565b6000819050919050565b600060ff82169050919050565b82818337600083830152505050565b60005b83811015613f39578082015181840152602081019050613f1e565b83811115613f48576000848401525b50505050565b60006002820490506001821680613f6657607f821691505b60208210811415613f7a57613f796140c1565b5b50919050565b613f898261411f565b810181811067ffffffffffffffff82111715613fa857613fa76140f0565b5b80604052505050565b6000613fbc82613ef5565b91507fffffffffffffffffffffffffffffffffffffffffffffffffffffffffffffffff821415613fef57613fee614063565b5b600182019050919050565b600061400582614016565b9050919050565b6000819050919050565b600061402182614130565b9050919050565b6000819050919050565b600061403d82613ef5565b915061404883613ef5565b92508261405857614057614092565b5b828206905092915050565b7f4e487b7100000000000000000000000000000000000000000000000000000000600052601160045260246000fd5b7f4e487b7100000000000000000000000000000000000000000000000000000000600052601260045260246000fd5b7f4e487b7100000000000000000000000000000000000000000000000000000000600052602260045260246000fd5b7f4e487b7100000000000000000000000000000000000000000000000000000000600052604160045260246000fd5b6000601f19601f8301169050919050565b60008160601b9050919050565b7f45434453413a20696e76616c6964207369676e61747572650000000000000000600082015250565b7f45434453413a20696e76616c6964207369676e6174757265206c656e67746800600082015250565b7f19457468657265756d205369676e6564204d6573736167653a0a333200000000600082015250565b7f4552433732313a207472616e7366657220746f206e6f6e20455243373231526560008201527f63656976657220696d706c656d656e7465720000000000000000000000000000602082015250565b7f43616e27742063726561746520636f6e74656e74206265636175736520796f7560008201527f20617265206e6f7420636f6e74656e7420736572766572000000000000000000602082015250565b7f4f776e61626c653a206e6577206f776e657220697320746865207a65726f206160008201527f6464726573730000000000000000000000000000000000000000000000000000602082015250565b7f4552433732313a207472616e736665722066726f6d20696e636f72726563742060008201527f6f776e6572000000000000000000000000000000000000000000000000000000602082015250565b7f4552433732313a20746f6b656e20616c7265616479206d696e74656400000000600082015250565b7f4552433732313a207472616e7366657220746f20746865207a65726f2061646460008201527f7265737300000000000000000000000000000000000000000000000000000000602082015250565b7f4e465420616c7265616479206d696e7465640000000000000000000000000000600082015250565b7f4552433732313a20617070726f766520746f2063616c6c657200000000000000600082015250565b7f45434453413a20696e76616c6964207369676e6174757265202773272076616c60008201527f7565000000000000000000000000000000000000000000000000000000000000602082015250565b7f4552433732313a206f70657261746f7220717565727920666f72206e6f6e657860008201527f697374656e7420746f6b656e0000000000000000000000000000000000000000602082015250565b7f4552433732313a20617070726f76652063616c6c6572206973206e6f74206f7760008201527f6e6572206e6f7220617070726f76656420666f7220616c6c0000000000000000602082015250565b7f4552433732313a2062616c616e636520717565727920666f7220746865207a6560008201527f726f206164647265737300000000000000000000000000000000000000000000602082015250565b7f4552433732313a206f776e657220717565727920666f72206e6f6e657869737460008201527f656e7420746f6b656e0000000000000000000000000000000000000000000000602082015250565b7f45434453413a20696e76616c6964207369676e6174757265202776272076616c60008201527f7565000000000000000000000000000000000000000000000000000000000000602082015250565b7f4552433732313a206d696e7420746f20746865207a65726f2061646472657373600082015250565b7f4552433732313a20617070726f76656420717565727920666f72206e6f6e657860008201527f697374656e7420746f6b656e0000000000000000000000000000000000000000602082015250565b7f2e6a736f6e000000000000000000000000000000000000000000000000000000600082015250565b7f4f776e61626c653a2063616c6c6572206973206e6f7420746865206f776e6572600082015250565b7f4552433732314d657461646174613a2055524920717565727920666f72206e6f60008201527f6e6578697374656e7420746f6b656e0000000000000000000000000000000000602082015250565b7f4552433732313a20617070726f76616c20746f2063757272656e74206f776e6560008201527f7200000000000000000000000000000000000000000000000000000000000000602082015250565b7f596f752063616e2774206d696e742074686973204e4654000000000000000000600082015250565b7f4552433732313a207472616e736665722063616c6c6572206973206e6f74206f60008201527f776e6572206e6f7220617070726f766564000000000000000000000000000000602082015250565b7f436f6e74656e7420616c72656164792061646465640000000000000000000000600082015250565b6147aa81613e81565b81146147b557600080fd5b50565b6147c181613e93565b81146147cc57600080fd5b50565b6147d881613ea9565b81146147e357600080fd5b50565b6147ef81613ef5565b81146147fa57600080fd5b5056fea2646970667358221220e8cf4c5cb272cce279070271d1496d80db08fa56a616233095831d40cf4bd3aa64736f6c63430008040033",
  "linkReferences": {},
  "deployedLinkReferences": {}
}