{
  "_format": "hh-sol-artifact-1",
  "contractName": "NCPProof",
  "sourceName": "contracts/NCPProof.sol",
  "abi": [
    {
      "inputs": [],
      "stateMutability": "nonpayable",
      "type": "constructor"
    },
    {
      "anonymous": false,
      "inputs": [
        {
          "indexed": true,
          "internalType": "address",
          "name": "owner",
          "type": "address"
        },
        {
          "indexed": true,
          "internalType": "address",
          "name": "approved",
          "type": "address"
        },
        {
          "indexed": true,
          "internalType": "uint256",
          "name": "tokenId",
          "type": "uint256"
        }
      ],
      "name": "Approval",
      "type": "event"
    },
    {
      "anonymous": false,
      "inputs": [
        {
          "indexed": true,
          "internalType": "address",
          "name": "owner",
          "type": "address"
        },
        {
          "indexed": true,
          "internalType": "address",
          "name": "operator",
          "type": "address"
        },
        {
          "indexed": false,
          "internalType": "bool",
          "name": "approved",
          "type": "bool"
        }
      ],
      "name": "ApprovalForAll",
      "type": "event"
    },
    {
      "anonymous": false,
      "inputs": [
        {
          "indexed": true,
          "internalType": "address",
          "name": "_to",
          "type": "address"
        },
        {
          "indexed": false,
          "internalType": "uint256",
          "name": "_contentId",
          "type": "uint256"
        }
      ],
      "name": "MintNFT",
      "type": "event"
    },
    {
      "anonymous": false,
      "inputs": [
        {
          "indexed": true,
          "internalType": "address",
          "name": "previousOwner",
          "type": "address"
        },
        {
          "indexed": true,
          "internalType": "address",
          "name": "newOwner",
          "type": "address"
        }
      ],
      "name": "OwnershipTransferred",
      "type": "event"
    },
    {
      "anonymous": false,
      "inputs": [
        {
          "indexed": true,
          "internalType": "address",
          "name": "from",
          "type": "address"
        },
        {
          "indexed": true,
          "internalType": "address",
          "name": "to",
          "type": "address"
        },
        {
          "indexed": true,
          "internalType": "uint256",
          "name": "tokenId",
          "type": "uint256"
        }
      ],
      "name": "Transfer",
      "type": "event"
    },
    {
      "inputs": [
        {
          "internalType": "address",
          "name": "to",
          "type": "address"
        },
        {
          "internalType": "uint256",
          "name": "tokenId",
          "type": "uint256"
        }
      ],
      "name": "approve",
      "outputs": [],
      "stateMutability": "nonpayable",
      "type": "function"
    },
    {
      "inputs": [
        {
          "internalType": "address",
          "name": "owner",
          "type": "address"
        }
      ],
      "name": "balanceOf",
      "outputs": [
        {
          "internalType": "uint256",
          "name": "",
          "type": "uint256"
        }
      ],
      "stateMutability": "view",
      "type": "function"
    },
    {
      "inputs": [
        {
          "internalType": "address",
          "name": "owner",
          "type": "address"
        },
        {
          "internalType": "uint256",
          "name": "contentId",
          "type": "uint256"
        }
      ],
      "name": "canSeeProtected",
      "outputs": [
        {
          "internalType": "bool",
          "name": "",
          "type": "bool"
        }
      ],
      "stateMutability": "view",
      "type": "function"
    },
    {
      "inputs": [
        {
          "internalType": "uint256",
          "name": "contentId",
          "type": "uint256"
        }
      ],
      "name": "contentDistributorOf",
      "outputs": [
        {
          "internalType": "address",
          "name": "",
          "type": "address"
        }
      ],
      "stateMutability": "view",
      "type": "function"
    },
    {
      "inputs": [
        {
          "internalType": "uint256",
          "name": "tokenId",
          "type": "uint256"
        }
      ],
      "name": "contentOf",
      "outputs": [
        {
          "internalType": "uint256",
          "name": "",
          "type": "uint256"
        }
      ],
      "stateMutability": "view",
      "type": "function"
    },
    {
      "inputs": [],
      "name": "countOfNFT",
      "outputs": [
        {
          "internalType": "uint256",
          "name": "",
          "type": "uint256"
        }
      ],
      "stateMutability": "view",
      "type": "function"
    },
    {
      "inputs": [
        {
          "internalType": "uint256",
          "name": "tokenId",
          "type": "uint256"
        }
      ],
      "name": "getApproved",
      "outputs": [
        {
          "internalType": "address",
          "name": "",
          "type": "address"
        }
      ],
      "stateMutability": "view",
      "type": "function"
    },
    {
      "inputs": [
        {
          "internalType": "address",
          "name": "owner",
          "type": "address"
        },
        {
          "internalType": "uint256",
          "name": "contentId",
          "type": "uint256"
        }
      ],
      "name": "hasNFTForContent",
      "outputs": [
        {
          "internalType": "bool",
          "name": "",
          "type": "bool"
        }
      ],
      "stateMutability": "view",
      "type": "function"
    },
    {
      "inputs": [
        {
          "internalType": "address",
          "name": "owner",
          "type": "address"
        },
        {
          "internalType": "uint256[]",
          "name": "contentIds",
          "type": "uint256[]"
        }
      ],
      "name": "hasNFTForContents",
      "outputs": [
        {
          "internalType": "bool[]",
          "name": "",
          "type": "bool[]"
        }
      ],
      "stateMutability": "view",
      "type": "function"
    },
    {
      "inputs": [
        {
          "internalType": "address",
          "name": "owner",
          "type": "address"
        },
        {
          "internalType": "address",
          "name": "operator",
          "type": "address"
        }
      ],
      "name": "isApprovedForAll",
      "outputs": [
        {
          "internalType": "bool",
          "name": "",
          "type": "bool"
        }
      ],
      "stateMutability": "view",
      "type": "function"
    },
    {
      "inputs": [
        {
          "internalType": "address",
          "name": "addr",
          "type": "address"
        }
      ],
      "name": "isContentServer",
      "outputs": [
        {
          "internalType": "bool",
          "name": "",
          "type": "bool"
        }
      ],
      "stateMutability": "view",
      "type": "function"
    },
    {
      "inputs": [
        {
          "internalType": "address",
          "name": "owner",
          "type": "address"
        },
        {
          "internalType": "uint256",
          "name": "contentId",
          "type": "uint256"
        }
      ],
      "name": "isDistributorOf",
      "outputs": [
        {
          "internalType": "bool",
          "name": "",
          "type": "bool"
        }
      ],
      "stateMutability": "view",
      "type": "function"
    },
    {
      "inputs": [
        {
          "internalType": "address",
          "name": "owner",
          "type": "address"
        },
        {
          "internalType": "uint256[]",
          "name": "contentIds",
          "type": "uint256[]"
        }
      ],
      "name": "isDistributorOfContents",
      "outputs": [
        {
          "internalType": "bool[]",
          "name": "",
          "type": "bool[]"
        }
      ],
      "stateMutability": "view",
      "type": "function"
    },
    {
      "inputs": [
        {
          "internalType": "uint256",
          "name": "contentId",
          "type": "uint256"
        }
      ],
      "name": "isSetted",
      "outputs": [
        {
          "internalType": "bool",
          "name": "",
          "type": "bool"
        }
      ],
      "stateMutability": "view",
      "type": "function"
    },
    {
      "inputs": [
        {
          "internalType": "address",
          "name": "to",
          "type": "address"
        },
        {
          "internalType": "uint256",
          "name": "contentId",
          "type": "uint256"
        }
      ],
      "name": "mint",
      "outputs": [
        {
          "internalType": "uint256",
          "name": "",
          "type": "uint256"
        }
      ],
      "stateMutability": "nonpayable",
      "type": "function"
    },
    {
      "inputs": [],
      "name": "name",
      "outputs": [
        {
          "internalType": "string",
          "name": "",
          "type": "string"
        }
      ],
      "stateMutability": "view",
      "type": "function"
    },
    {
      "inputs": [
        {
          "internalType": "uint256",
          "name": "contentId",
          "type": "uint256"
        },
        {
          "internalType": "address",
          "name": "contentOwner",
          "type": "address"
        },
        {
          "internalType": "bytes",
          "name": "signature",
          "type": "bytes"
        }
      ],
      "name": "newContent",
      "outputs": [
        {
          "internalType": "bool",
          "name": "",
          "type": "bool"
        }
      ],
      "stateMutability": "nonpayable",
      "type": "function"
    },
    {
      "inputs": [],
      "name": "newContentId",
      "outputs": [
        {
          "internalType": "uint256",
          "name": "",
          "type": "uint256"
        }
      ],
      "stateMutability": "view",
      "type": "function"
    },
    {
      "inputs": [],
      "name": "owner",
      "outputs": [
        {
          "internalType": "address",
          "name": "",
          "type": "address"
        }
      ],
      "stateMutability": "view",
      "type": "function"
    },
    {
      "inputs": [
        {
          "internalType": "uint256",
          "name": "tokenId",
          "type": "uint256"
        }
      ],
      "name": "ownerOf",
      "outputs": [
        {
          "internalType": "address",
          "name": "",
          "type": "address"
        }
      ],
      "stateMutability": "view",
      "type": "function"
    },
    {
      "inputs": [],
      "name": "renounceOwnership",
      "outputs": [],
      "stateMutability": "nonpayable",
      "type": "function"
    },
    {
      "inputs": [
        {
          "internalType": "address",
          "name": "from",
          "type": "address"
        },
        {
          "internalType": "address",
          "name": "to",
          "type": "address"
        },
        {
          "internalType": "uint256",
          "name": "tokenId",
          "type": "uint256"
        }
      ],
      "name": "safeTransferFrom",
      "outputs": [],
      "stateMutability": "nonpayable",
      "type": "function"
    },
    {
      "inputs": [
        {
          "internalType": "address",
          "name": "from",
          "type": "address"
        },
        {
          "internalType": "address",
          "name": "to",
          "type": "address"
        },
        {
          "internalType": "uint256",
          "name": "tokenId",
          "type": "uint256"
        },
        {
          "internalType": "bytes",
          "name": "_data",
          "type": "bytes"
        }
      ],
      "name": "safeTransferFrom",
      "outputs": [],
      "stateMutability": "nonpayable",
      "type": "function"
    },
    {
      "inputs": [
        {
          "internalType": "address",
          "name": "operator",
          "type": "address"
        },
        {
          "internalType": "bool",
          "name": "approved",
          "type": "bool"
        }
      ],
      "name": "setApprovalForAll",
      "outputs": [],
      "stateMutability": "nonpayable",
      "type": "function"
    },
    {
      "inputs": [
        {
          "internalType": "string",
          "name": "baseURI",
          "type": "string"
        }
      ],
      "name": "setBaseTokenURI",
      "outputs": [],
      "stateMutability": "nonpayable",
      "type": "function"
    },
    {
      "inputs": [
        {
          "internalType": "address",
          "name": "contentServer",
          "type": "address"
        },
        {
          "internalType": "bool",
          "name": "set",
          "type": "bool"
        }
      ],
      "name": "setContentServer",
      "outputs": [],
      "stateMutability": "nonpayable",
      "type": "function"
    },
    {
      "inputs": [
        {
          "internalType": "bytes4",
          "name": "interfaceId",
          "type": "bytes4"
        }
      ],
      "name": "supportsInterface",
      "outputs": [
        {
          "internalType": "bool",
          "name": "",
          "type": "bool"
        }
      ],
      "stateMutability": "view",
      "type": "function"
    },
    {
      "inputs": [],
      "name": "symbol",
      "outputs": [
        {
          "internalType": "string",
          "name": "",
          "type": "string"
        }
      ],
      "stateMutability": "view",
      "type": "function"
    },
    {
      "inputs": [
        {
          "internalType": "uint256",
          "name": "tokenId",
          "type": "uint256"
        }
      ],
      "name": "tokenURI",
      "outputs": [
        {
          "internalType": "string",
          "name": "",
          "type": "string"
        }
      ],
      "stateMutability": "view",
      "type": "function"
    },
    {
      "inputs": [
        {
          "internalType": "uint256",
          "name": "contentId",
          "type": "uint256"
        },
        {
          "internalType": "address",
          "name": "newOwner",
          "type": "address"
        }
      ],
      "name": "transferContentRights",
      "outputs": [],
      "stateMutability": "nonpayable",
      "type": "function"
    },
    {
      "inputs": [
        {
          "internalType": "address",
          "name": "from",
          "type": "address"
        },
        {
          "internalType": "address",
          "name": "to",
          "type": "address"
        },
        {
          "internalType": "uint256",
          "name": "tokenId",
          "type": "uint256"
        }
      ],
      "name": "transferFrom",
      "outputs": [],
      "stateMutability": "nonpayable",
      "type": "function"
    },
    {
      "inputs": [
        {
          "internalType": "uint256",
          "name": "contentId",
          "type": "uint256"
        },
        {
          "internalType": "address",
          "name": "newOwner",
          "type": "address"
        }
      ],
      "name": "transferNFTRights",
      "outputs": [
        {
          "internalType": "bool",
          "name": "",
          "type": "bool"
        }
      ],
      "stateMutability": "nonpayable",
      "type": "function"
    },
    {
      "inputs": [
        {
          "internalType": "address",
          "name": "newOwner",
          "type": "address"
        }
      ],
      "name": "transferOwnership",
      "outputs": [],
      "stateMutability": "nonpayable",
      "type": "function"
    },
    {
      "inputs": [],
      "name": "withdraw",
      "outputs": [],
      "stateMutability": "nonpayable",
      "type": "function"
    }
  ],
  "bytecode": "0x60806040523480156200001157600080fd5b506040518060400160405280601881526020017f4e465420436f6e74656e7420506c617965722050726f6f6600000000000000008152506040518060400160405280600481526020017f4e43505000000000000000000000000000000000000000000000000000000000815250816000908051906020019062000096929190620001f4565b508060019080519060200190620000af929190620001f4565b505050620000d2620000c66200012660201b60201c565b6200012e60201b60201c565b6040518060400160405280600d81526020017f68747470733a2f2f697066732f00000000000000000000000000000000000000815250600b90805190602001906200011f929190620001f4565b5062000309565b600033905090565b6000600660009054906101000a900473ffffffffffffffffffffffffffffffffffffffff16905081600660006101000a81548173ffffffffffffffffffffffffffffffffffffffff021916908373ffffffffffffffffffffffffffffffffffffffff1602179055508173ffffffffffffffffffffffffffffffffffffffff168173ffffffffffffffffffffffffffffffffffffffff167f8be0079c531659141344cd1fd0a4f28419497f9722a3daafe3b4186f6b6457e060405160405180910390a35050565b8280546200020290620002a4565b90600052602060002090601f01602090048101928262000226576000855562000272565b82601f106200024157805160ff191683800117855562000272565b8280016001018555821562000272579182015b828111156200027157825182559160200191906001019062000254565b5b50905062000281919062000285565b5090565b5b80821115620002a057600081600090555060010162000286565b5090565b60006002820490506001821680620002bd57607f821691505b60208210811415620002d457620002d3620002da565b5b50919050565b7f4e487b7100000000000000000000000000000000000000000000000000000000600052602260045260246000fd5b614cc580620003196000396000f3fe608060405234801561001057600080fd5b50600436106102065760003560e01c806370a082311161011a578063a22cb465116100ad578063c87b56dd1161007c578063c87b56dd1461065b578063d4a847811461068b578063e985e9c5146106a9578063f2fde38b146106d9578063f9da9c5a146106f557610206565b8063a22cb465146105c3578063aae0ca62146105df578063b88d4fde1461060f578063bb4243e51461062b57610206565b806389c61dc2116100e957806389c61dc2146105275780638da5cb5b1461055757806395d89b411461057557806399a0d11e1461059357610206565b806370a082311461048d578063715018a6146104bd57806371ca59ca146104c75780638170ced5146104f757610206565b806323b872dd1161019d57806340c10f191161016c57806340c10f19146103c557806342842e0e146103f557806361aad37b146104115780636352211e1461042d5780636f1140181461045d57610206565b806323b872dd1461035357806327427e311461036f57806330176e131461039f5780633ccfd60b146103bb57610206565b8063081812fc116101d9578063081812fc146102a7578063095ea7b3146102d75780631187beb1146102f35780631690a5a61461032357610206565b806301ffc9a71461020b57806306fdde031461023b5780630737b4f71461025957806307c8bbc214610277575b600080fd5b610225600480360381019061022091906134df565b610711565b6040516102329190613cd4565b60405180910390f35b6102436107f3565b6040516102509190613d34565b60405180910390f35b610261610885565b60405161026e9190614096565b60405180910390f35b610291600480360381019061028c9190613413565b610914565b60405161029e9190613cb2565b60405180910390f35b6102c160048036038101906102bc9190613572565b610aa6565b6040516102ce9190613c4b565b60405180910390f35b6102f160048036038101906102ec91906134a3565b610b2b565b005b61030d60048036038101906103089190613413565b610c43565b60405161031a9190613cb2565b60405180910390f35b61033d600480360381019061033891906135d7565b610e42565b60405161034a9190613cd4565b60405180910390f35b61036d60048036038101906103689190613349565b610fc7565b005b61038960048036038101906103849190613572565b611027565b6040516103969190614096565b60405180910390f35b6103b960048036038101906103b49190613531565b611044565b005b6103c36110da565b005b6103df60048036038101906103da91906134a3565b61119f565b6040516103ec9190614096565b60405180910390f35b61040f600480360381019061040a9190613349565b6112db565b005b61042b60048036038101906104269190613467565b6112fb565b005b61044760048036038101906104429190613572565b6113d2565b6040516104549190613c4b565b60405180910390f35b610477600480360381019061047291906134a3565b611484565b6040516104849190613cd4565b60405180910390f35b6104a760048036038101906104a291906132e4565b6114a9565b6040516104b49190614096565b60405180910390f35b6104c5611561565b005b6104e160048036038101906104dc9190613572565b6115e9565b6040516104ee9190613c4b565b60405180910390f35b610511600480360381019061050c9190613572565b611626565b60405161051e9190613cd4565b60405180910390f35b610541600480360381019061053c91906134a3565b611692565b60405161054e9190613cd4565b60405180910390f35b61055f611724565b60405161056c9190613c4b565b60405180910390f35b61057d61174e565b60405161058a9190613d34565b60405180910390f35b6105ad60048036038101906105a8919061359b565b6117e0565b6040516105ba9190613cd4565b60405180910390f35b6105dd60048036038101906105d89190613467565b61187d565b005b6105f960048036038101906105f491906132e4565b611893565b6040516106069190613cd4565b60405180910390f35b61062960048036038101906106249190613398565b61192e565b005b610645600480360381019061064091906134a3565b611990565b6040516106529190613cd4565b60405180910390f35b61067560048036038101906106709190613572565b611a14565b6040516106829190613d34565b60405180910390f35b610693611ac3565b6040516106a09190614096565b60405180910390f35b6106c360048036038101906106be919061330d565b611ad4565b6040516106d09190613cd4565b60405180910390f35b6106f360048036038101906106ee91906132e4565b611b68565b005b61070f600480360381019061070a919061359b565b611c60565b005b60007f80ac58cd000000000000000000000000000000000000000000000000000000007bffffffffffffffffffffffffffffffffffffffffffffffffffffffff1916827bffffffffffffffffffffffffffffffffffffffffffffffffffffffff191614806107dc57507f5b5e139f000000000000000000000000000000000000000000000000000000007bffffffffffffffffffffffffffffffffffffffffffffffffffffffff1916827bffffffffffffffffffffffffffffffffffffffffffffffffffffffff1916145b806107ec57506107eb82611d57565b5b9050919050565b60606000805461080290614368565b80601f016020809104026020016040519081016040528092919081815260200182805461082e90614368565b801561087b5780601f106108505761010080835404028352916020019161087b565b820191906000526020600020905b81548152906001019060200180831161085e57829003601f168201915b5050505050905090565b600061089033611893565b6108cf576040517f08c379a00000000000000000000000000000000000000000000000000000000081526004016108c690614056565b60405180910390fd5b60005b33426040516020016108e5929190613bca565b6040516020818303038152906040528051906020012060001c905061090981611626565b6108d2578091505090565b606060008251905060008167ffffffffffffffff81111561095e577f4e487b7100000000000000000000000000000000000000000000000000000000600052604160045260246000fd5b60405190808252806020026020018201604052801561098c5781602001602082028036833780820191505090505b50905060005b82811015610a9a57600a60008683815181106109d7577f4e487b7100000000000000000000000000000000000000000000000000000000600052603260045260246000fd5b6020026020010151815260200190815260200160002060009054906101000a900473ffffffffffffffffffffffffffffffffffffffff1673ffffffffffffffffffffffffffffffffffffffff168673ffffffffffffffffffffffffffffffffffffffff1614828281518110610a75577f4e487b7100000000000000000000000000000000000000000000000000000000600052603260045260246000fd5b6020026020010190151590811515815250508080610a92906143cb565b915050610992565b50809250505092915050565b6000610ab182611dc1565b610af0576040517f08c379a0000000000000000000000000000000000000000000000000000000008152600401610ae790613f76565b60405180910390fd5b6004600083815260200190815260200160002060009054906101000a900473ffffffffffffffffffffffffffffffffffffffff169050919050565b6000610b36826113d2565b90508073ffffffffffffffffffffffffffffffffffffffff168373ffffffffffffffffffffffffffffffffffffffff161415610ba7576040517f08c379a0000000000000000000000000000000000000000000000000000000008152600401610b9e90613fd6565b60405180910390fd5b8073ffffffffffffffffffffffffffffffffffffffff16610bc6611e2d565b73ffffffffffffffffffffffffffffffffffffffff161480610bf55750610bf481610bef611e2d565b611ad4565b5b610c34576040517f08c379a0000000000000000000000000000000000000000000000000000000008152600401610c2b90613ed6565b60405180910390fd5b610c3e8383611e35565b505050565b606060008251905060008167ffffffffffffffff811115610c8d577f4e487b7100000000000000000000000000000000000000000000000000000000600052604160045260246000fd5b604051908082528060200260200182016040528015610cbb5781602001602082028036833780820191505090505b5090506000610cc8611ac3565b905060005b83811015610e35576000838281518110610d10577f4e487b7100000000000000000000000000000000000000000000000000000000600052603260045260246000fd5b60200260200101901515908115158152505060005b82811015610e21578773ffffffffffffffffffffffffffffffffffffffff16610d4d826113d2565b73ffffffffffffffffffffffffffffffffffffffff16148015610db75750868281518110610da4577f4e487b7100000000000000000000000000000000000000000000000000000000600052603260045260246000fd5b6020026020010151610db582611027565b145b15610e0e576001848381518110610df7577f4e487b7100000000000000000000000000000000000000000000000000000000600052603260045260246000fd5b602002602001019015159081151581525050610e21565b8080610e19906143cb565b915050610d25565b508080610e2d906143cb565b915050610ccd565b5081935050505092915050565b60008073ffffffffffffffffffffffffffffffffffffffff16600a600086815260200190815260200160002060009054906101000a900473ffffffffffffffffffffffffffffffffffffffff1673ffffffffffffffffffffffffffffffffffffffff1614610ee5576040517f08c379a0000000000000000000000000000000000000000000000000000000008152600401610edc90614076565b60405180910390fd5b60008385604051602001610efa929190613bca565b6040516020818303038152906040528051906020012090506000610f1e8285611eee565b9050610f2981611893565b610f68576040517f08c379a0000000000000000000000000000000000000000000000000000000008152600401610f5f90613db6565b60405180910390fd5b84600a600088815260200190815260200160002060006101000a81548173ffffffffffffffffffffffffffffffffffffffff021916908373ffffffffffffffffffffffffffffffffffffffff1602179055506001925050509392505050565b610fd8610fd2611e2d565b82611f36565b611017576040517f08c379a000000000000000000000000000000000000000000000000000000000815260040161100e90614016565b60405180910390fd5b611022838383612014565b505050565b600060096000838152602001908152602001600020549050919050565b61104c611e2d565b73ffffffffffffffffffffffffffffffffffffffff1661106a611724565b73ffffffffffffffffffffffffffffffffffffffff16146110c0576040517f08c379a00000000000000000000000000000000000000000000000000000000081526004016110b790613f96565b60405180910390fd5b80600b90805190602001906110d6929190613072565b5050565b6110e2611e2d565b73ffffffffffffffffffffffffffffffffffffffff16611100611724565b73ffffffffffffffffffffffffffffffffffffffff1614611156576040517f08c379a000000000000000000000000000000000000000000000000000000000815260040161114d90613f96565b60405180910390fd5b3373ffffffffffffffffffffffffffffffffffffffff166108fc479081150290604051600060405180830381858888f1935050505015801561119c573d6000803e3d6000fd5b50565b60003373ffffffffffffffffffffffffffffffffffffffff166111c1836115e9565b73ffffffffffffffffffffffffffffffffffffffff1614611217576040517f08c379a000000000000000000000000000000000000000000000000000000000815260040161120e90613ff6565b60405180910390fd5b6112218383611692565b15611261576040517f08c379a000000000000000000000000000000000000000000000000000000000815260040161125890613e56565b60405180910390fd5b600061126d600761227b565b90506112796007612289565b611283848261229f565b8373ffffffffffffffffffffffffffffffffffffffff167f1f89f147a58d1673945cf416187db98efc8208408c011b91887acd59fd8523c3846040516112c99190614096565b60405180910390a28091505092915050565b6112f68383836040518060200160405280600081525061192e565b505050565b611303611e2d565b73ffffffffffffffffffffffffffffffffffffffff16611321611724565b73ffffffffffffffffffffffffffffffffffffffff1614611377576040517f08c379a000000000000000000000000000000000000000000000000000000000815260040161136e90613f96565b60405180910390fd5b80600860008473ffffffffffffffffffffffffffffffffffffffff1673ffffffffffffffffffffffffffffffffffffffff16815260200190815260200160002060006101000a81548160ff0219169083151502179055505050565b6000806002600084815260200190815260200160002060009054906101000a900473ffffffffffffffffffffffffffffffffffffffff169050600073ffffffffffffffffffffffffffffffffffffffff168173ffffffffffffffffffffffffffffffffffffffff16141561147b576040517f08c379a000000000000000000000000000000000000000000000000000000000815260040161147290613f16565b60405180910390fd5b80915050919050565b60006114908383611990565b806114a157506114a08383611692565b5b905092915050565b60008073ffffffffffffffffffffffffffffffffffffffff168273ffffffffffffffffffffffffffffffffffffffff16141561151a576040517f08c379a000000000000000000000000000000000000000000000000000000000815260040161151190613ef6565b60405180910390fd5b600360008373ffffffffffffffffffffffffffffffffffffffff1673ffffffffffffffffffffffffffffffffffffffff168152602001908152602001600020549050919050565b611569611e2d565b73ffffffffffffffffffffffffffffffffffffffff16611587611724565b73ffffffffffffffffffffffffffffffffffffffff16146115dd576040517f08c379a00000000000000000000000000000000000000000000000000000000081526004016115d490613f96565b60405180910390fd5b6115e76000612479565b565b6000600a600083815260200190815260200160002060009054906101000a900473ffffffffffffffffffffffffffffffffffffffff169050919050565b60008073ffffffffffffffffffffffffffffffffffffffff16600a600084815260200190815260200160002060009054906101000a900473ffffffffffffffffffffffffffffffffffffffff1673ffffffffffffffffffffffffffffffffffffffff1614159050919050565b60008061169d611ac3565b905060005b81811015611717578473ffffffffffffffffffffffffffffffffffffffff166116ca826113d2565b73ffffffffffffffffffffffffffffffffffffffff161480156116f45750836116f282611027565b145b156117045760019250505061171e565b808061170f906143cb565b9150506116a2565b5060009150505b92915050565b6000600660009054906101000a900473ffffffffffffffffffffffffffffffffffffffff16905090565b60606001805461175d90614368565b80601f016020809104026020016040519081016040528092919081815260200182805461178990614368565b80156117d65780601f106117ab576101008083540402835291602001916117d6565b820191906000526020600020905b8154815290600101906020018083116117b957829003601f168201915b5050505050905090565b6000806117eb611ac3565b905060005b81811015611870573373ffffffffffffffffffffffffffffffffffffffff16611818826113d2565b73ffffffffffffffffffffffffffffffffffffffff1614801561184257508461184082611027565b145b1561185d57611852338583612014565b600192505050611877565b8080611868906143cb565b9150506117f0565b5060009150505b92915050565b61188f611888611e2d565b838361253f565b5050565b600061189d611724565b73ffffffffffffffffffffffffffffffffffffffff168273ffffffffffffffffffffffffffffffffffffffff1614156118d95760019050611929565b600860008373ffffffffffffffffffffffffffffffffffffffff1673ffffffffffffffffffffffffffffffffffffffff16815260200190815260200160002060009054906101000a900460ff1690505b919050565b61193f611939611e2d565b83611f36565b61197e576040517f08c379a000000000000000000000000000000000000000000000000000000000815260040161197590614016565b60405180910390fd5b61198a848484846126ac565b50505050565b60008073ffffffffffffffffffffffffffffffffffffffff166119b2836115e9565b73ffffffffffffffffffffffffffffffffffffffff1614611a09578273ffffffffffffffffffffffffffffffffffffffff166119ed836115e9565b73ffffffffffffffffffffffffffffffffffffffff1614611a0c565b60015b905092915050565b6060611a1f82611dc1565b611a5e576040517f08c379a0000000000000000000000000000000000000000000000000000000008152600401611a5590613fb6565b60405180910390fd5b6000611a68612708565b90506000815111611a885760405180602001604052806000815250611abb565b80611a9a611a9585611027565b61279a565b604051602001611aab929190613bf6565b6040516020818303038152906040525b915050919050565b6000611acf600761227b565b905090565b6000600560008473ffffffffffffffffffffffffffffffffffffffff1673ffffffffffffffffffffffffffffffffffffffff16815260200190815260200160002060008373ffffffffffffffffffffffffffffffffffffffff1673ffffffffffffffffffffffffffffffffffffffff16815260200190815260200160002060009054906101000a900460ff16905092915050565b611b70611e2d565b73ffffffffffffffffffffffffffffffffffffffff16611b8e611724565b73ffffffffffffffffffffffffffffffffffffffff1614611be4576040517f08c379a0000000000000000000000000000000000000000000000000000000008152600401611bdb90613f96565b60405180910390fd5b600073ffffffffffffffffffffffffffffffffffffffff168173ffffffffffffffffffffffffffffffffffffffff161415611c54576040517f08c379a0000000000000000000000000000000000000000000000000000000008152600401611c4b90613dd6565b60405180910390fd5b611c5d81612479565b50565b3373ffffffffffffffffffffffffffffffffffffffff16600a600084815260200190815260200160002060009054906101000a900473ffffffffffffffffffffffffffffffffffffffff1673ffffffffffffffffffffffffffffffffffffffff1614611d01576040517f08c379a0000000000000000000000000000000000000000000000000000000008152600401611cf890614036565b60405180910390fd5b80600a600084815260200190815260200160002060006101000a81548173ffffffffffffffffffffffffffffffffffffffff021916908373ffffffffffffffffffffffffffffffffffffffff1602179055505050565b60007f01ffc9a7000000000000000000000000000000000000000000000000000000007bffffffffffffffffffffffffffffffffffffffffffffffffffffffff1916827bffffffffffffffffffffffffffffffffffffffffffffffffffffffff1916149050919050565b60008073ffffffffffffffffffffffffffffffffffffffff166002600084815260200190815260200160002060009054906101000a900473ffffffffffffffffffffffffffffffffffffffff1673ffffffffffffffffffffffffffffffffffffffff1614159050919050565b600033905090565b816004600083815260200190815260200160002060006101000a81548173ffffffffffffffffffffffffffffffffffffffff021916908373ffffffffffffffffffffffffffffffffffffffff160217905550808273ffffffffffffffffffffffffffffffffffffffff16611ea8836113d2565b73ffffffffffffffffffffffffffffffffffffffff167f8c5be1e5ebec7d5bd14f71427d1e84f3dd0314c0f7b2291e5b200ac8c7c3b92560405160405180910390a45050565b60008083604051602001611f029190613c25565b604051602081830303815290604052805190602001209050611f2d838261294790919063ffffffff16565b91505092915050565b6000611f4182611dc1565b611f80576040517f08c379a0000000000000000000000000000000000000000000000000000000008152600401611f7790613eb6565b60405180910390fd5b6000611f8b836113d2565b90508073ffffffffffffffffffffffffffffffffffffffff168473ffffffffffffffffffffffffffffffffffffffff161480611ffa57508373ffffffffffffffffffffffffffffffffffffffff16611fe284610aa6565b73ffffffffffffffffffffffffffffffffffffffff16145b8061200b575061200a8185611ad4565b5b91505092915050565b8273ffffffffffffffffffffffffffffffffffffffff16612034826113d2565b73ffffffffffffffffffffffffffffffffffffffff161461208a576040517f08c379a000000000000000000000000000000000000000000000000000000000815260040161208190613df6565b60405180910390fd5b600073ffffffffffffffffffffffffffffffffffffffff168273ffffffffffffffffffffffffffffffffffffffff1614156120fa576040517f08c379a00000000000000000000000000000000000000000000000000000000081526004016120f190613e36565b60405180910390fd5b61210583838361296e565b612110600082611e35565b6001600360008573ffffffffffffffffffffffffffffffffffffffff1673ffffffffffffffffffffffffffffffffffffffff16815260200190815260200160002060008282546121609190614267565b925050819055506001600360008473ffffffffffffffffffffffffffffffffffffffff1673ffffffffffffffffffffffffffffffffffffffff16815260200190815260200160002060008282546121b791906141e0565b92505081905550816002600083815260200190815260200160002060006101000a81548173ffffffffffffffffffffffffffffffffffffffff021916908373ffffffffffffffffffffffffffffffffffffffff160217905550808273ffffffffffffffffffffffffffffffffffffffff168473ffffffffffffffffffffffffffffffffffffffff167fddf252ad1be2c89b69c2b068fc378daa952ba7f163c4a11628f55a4df523b3ef60405160405180910390a4612276838383612973565b505050565b600081600001549050919050565b6001816000016000828254019250508190555050565b600073ffffffffffffffffffffffffffffffffffffffff168273ffffffffffffffffffffffffffffffffffffffff16141561230f576040517f08c379a000000000000000000000000000000000000000000000000000000000815260040161230690613f56565b60405180910390fd5b61231881611dc1565b15612358576040517f08c379a000000000000000000000000000000000000000000000000000000000815260040161234f90613e16565b60405180910390fd5b6123646000838361296e565b6001600360008473ffffffffffffffffffffffffffffffffffffffff1673ffffffffffffffffffffffffffffffffffffffff16815260200190815260200160002060008282546123b491906141e0565b92505081905550816002600083815260200190815260200160002060006101000a81548173ffffffffffffffffffffffffffffffffffffffff021916908373ffffffffffffffffffffffffffffffffffffffff160217905550808273ffffffffffffffffffffffffffffffffffffffff16600073ffffffffffffffffffffffffffffffffffffffff167fddf252ad1be2c89b69c2b068fc378daa952ba7f163c4a11628f55a4df523b3ef60405160405180910390a461247560008383612973565b5050565b6000600660009054906101000a900473ffffffffffffffffffffffffffffffffffffffff16905081600660006101000a81548173ffffffffffffffffffffffffffffffffffffffff021916908373ffffffffffffffffffffffffffffffffffffffff1602179055508173ffffffffffffffffffffffffffffffffffffffff168173ffffffffffffffffffffffffffffffffffffffff167f8be0079c531659141344cd1fd0a4f28419497f9722a3daafe3b4186f6b6457e060405160405180910390a35050565b8173ffffffffffffffffffffffffffffffffffffffff168373ffffffffffffffffffffffffffffffffffffffff1614156125ae576040517f08c379a00000000000000000000000000000000000000000000000000000000081526004016125a590613e76565b60405180910390fd5b80600560008573ffffffffffffffffffffffffffffffffffffffff1673ffffffffffffffffffffffffffffffffffffffff16815260200190815260200160002060008473ffffffffffffffffffffffffffffffffffffffff1673ffffffffffffffffffffffffffffffffffffffff16815260200190815260200160002060006101000a81548160ff0219169083151502179055508173ffffffffffffffffffffffffffffffffffffffff168373ffffffffffffffffffffffffffffffffffffffff167f17307eab39ab6107e8899845ad3d59bd9653f200f220920489ca2b5937696c318360405161269f9190613cd4565b60405180910390a3505050565b6126b7848484612014565b6126c384848484612978565b612702576040517f08c379a00000000000000000000000000000000000000000000000000000000081526004016126f990613d96565b60405180910390fd5b50505050565b6060600b805461271790614368565b80601f016020809104026020016040519081016040528092919081815260200182805461274390614368565b80156127905780601f1061276557610100808354040283529160200191612790565b820191906000526020600020905b81548152906001019060200180831161277357829003601f168201915b5050505050905090565b606060008214156127e2576040518060400160405280600181526020017f30000000000000000000000000000000000000000000000000000000000000008152509050612942565b600082905060005b600082146128145780806127fd906143cb565b915050600a8261280d9190614236565b91506127ea565b60008167ffffffffffffffff811115612856577f4e487b7100000000000000000000000000000000000000000000000000000000600052604160045260246000fd5b6040519080825280601f01601f1916602001820160405280156128885781602001600182028036833780820191505090505b5090505b6000851461293b576001826128a19190614267565b9150600a856128b0919061444c565b60306128bc91906141e0565b60f81b8183815181106128f8577f4e487b7100000000000000000000000000000000000000000000000000000000600052603260045260246000fd5b60200101907effffffffffffffffffffffffffffffffffffffffffffffffffffffffffffff1916908160001a905350600a856129349190614236565b945061288c565b8093505050505b919050565b60008060006129568585612b0f565b9150915061296381612b92565b819250505092915050565b505050565b505050565b60006129998473ffffffffffffffffffffffffffffffffffffffff16612ee3565b15612b02578373ffffffffffffffffffffffffffffffffffffffff1663150b7a026129c2611e2d565b8786866040518563ffffffff1660e01b81526004016129e49493929190613c66565b602060405180830381600087803b1580156129fe57600080fd5b505af1925050508015612a2f57506040513d601f19601f82011682018060405250810190612a2c9190613508565b60015b612ab2573d8060008114612a5f576040519150601f19603f3d011682016040523d82523d6000602084013e612a64565b606091505b50600081511415612aaa576040517f08c379a0000000000000000000000000000000000000000000000000000000008152600401612aa190613d96565b60405180910390fd5b805181602001fd5b63150b7a0260e01b7bffffffffffffffffffffffffffffffffffffffffffffffffffffffff1916817bffffffffffffffffffffffffffffffffffffffffffffffffffffffff191614915050612b07565b600190505b949350505050565b600080604183511415612b515760008060006020860151925060408601519150606086015160001a9050612b4587828585612f06565b94509450505050612b8b565b604083511415612b82576000806020850151915060408501519050612b77868383613013565b935093505050612b8b565b60006002915091505b9250929050565b60006004811115612bcc577f4e487b7100000000000000000000000000000000000000000000000000000000600052602160045260246000fd5b816004811115612c05577f4e487b7100000000000000000000000000000000000000000000000000000000600052602160045260246000fd5b1415612c1057612ee0565b60016004811115612c4a577f4e487b7100000000000000000000000000000000000000000000000000000000600052602160045260246000fd5b816004811115612c83577f4e487b7100000000000000000000000000000000000000000000000000000000600052602160045260246000fd5b1415612cc4576040517f08c379a0000000000000000000000000000000000000000000000000000000008152600401612cbb90613d56565b60405180910390fd5b60026004811115612cfe577f4e487b7100000000000000000000000000000000000000000000000000000000600052602160045260246000fd5b816004811115612d37577f4e487b7100000000000000000000000000000000000000000000000000000000600052602160045260246000fd5b1415612d78576040517f08c379a0000000000000000000000000000000000000000000000000000000008152600401612d6f90613d76565b60405180910390fd5b60036004811115612db2577f4e487b7100000000000000000000000000000000000000000000000000000000600052602160045260246000fd5b816004811115612deb577f4e487b7100000000000000000000000000000000000000000000000000000000600052602160045260246000fd5b1415612e2c576040517f08c379a0000000000000000000000000000000000000000000000000000000008152600401612e2390613e96565b60405180910390fd5b600480811115612e65577f4e487b7100000000000000000000000000000000000000000000000000000000600052602160045260246000fd5b816004811115612e9e577f4e487b7100000000000000000000000000000000000000000000000000000000600052602160045260246000fd5b1415612edf576040517f08c379a0000000000000000000000000000000000000000000000000000000008152600401612ed690613f36565b60405180910390fd5b5b50565b6000808273ffffffffffffffffffffffffffffffffffffffff163b119050919050565b6000807f7fffffffffffffffffffffffffffffff5d576e7357a4501ddfe92f46681b20a08360001c1115612f4157600060039150915061300a565b601b8560ff1614158015612f595750601c8560ff1614155b15612f6b57600060049150915061300a565b600060018787878760405160008152602001604052604051612f909493929190613cef565b6020604051602081039080840390855afa158015612fb2573d6000803e3d6000fd5b505050602060405103519050600073ffffffffffffffffffffffffffffffffffffffff168173ffffffffffffffffffffffffffffffffffffffff1614156130015760006001925092505061300a565b80600092509250505b94509492505050565b60008060007f7fffffffffffffffffffffffffffffffffffffffffffffffffffffffffffffff60001b841690506000601b60ff8660001c901c61305691906141e0565b905061306487828885612f06565b935093505050935093915050565b82805461307e90614368565b90600052602060002090601f0160209004810192826130a057600085556130e7565b82601f106130b957805160ff19168380011785556130e7565b828001600101855582156130e7579182015b828111156130e65782518255916020019190600101906130cb565b5b5090506130f491906130f8565b5090565b5b808211156131115760008160009055506001016130f9565b5090565b6000613128613123846140d6565b6140b1565b9050808382526020820190508285602086028201111561314757600080fd5b60005b85811015613177578161315d88826132cf565b84526020840193506020830192505060018101905061314a565b5050509392505050565b600061319461318f84614102565b6140b1565b9050828152602081018484840111156131ac57600080fd5b6131b7848285614326565b509392505050565b60006131d26131cd84614133565b6140b1565b9050828152602081018484840111156131ea57600080fd5b6131f5848285614326565b509392505050565b60008135905061320c81614c33565b92915050565b600082601f83011261322357600080fd5b8135613233848260208601613115565b91505092915050565b60008135905061324b81614c4a565b92915050565b60008135905061326081614c61565b92915050565b60008151905061327581614c61565b92915050565b600082601f83011261328c57600080fd5b813561329c848260208601613181565b91505092915050565b600082601f8301126132b657600080fd5b81356132c68482602086016131bf565b91505092915050565b6000813590506132de81614c78565b92915050565b6000602082840312156132f657600080fd5b6000613304848285016131fd565b91505092915050565b6000806040838503121561332057600080fd5b600061332e858286016131fd565b925050602061333f858286016131fd565b9150509250929050565b60008060006060848603121561335e57600080fd5b600061336c868287016131fd565b935050602061337d868287016131fd565b925050604061338e868287016132cf565b9150509250925092565b600080600080608085870312156133ae57600080fd5b60006133bc878288016131fd565b94505060206133cd878288016131fd565b93505060406133de878288016132cf565b925050606085013567ffffffffffffffff8111156133fb57600080fd5b6134078782880161327b565b91505092959194509250565b6000806040838503121561342657600080fd5b6000613434858286016131fd565b925050602083013567ffffffffffffffff81111561345157600080fd5b61345d85828601613212565b9150509250929050565b6000806040838503121561347a57600080fd5b6000613488858286016131fd565b92505060206134998582860161323c565b9150509250929050565b600080604083850312156134b657600080fd5b60006134c4858286016131fd565b92505060206134d5858286016132cf565b9150509250929050565b6000602082840312156134f157600080fd5b60006134ff84828501613251565b91505092915050565b60006020828403121561351a57600080fd5b600061352884828501613266565b91505092915050565b60006020828403121561354357600080fd5b600082013567ffffffffffffffff81111561355d57600080fd5b613569848285016132a5565b91505092915050565b60006020828403121561358457600080fd5b6000613592848285016132cf565b91505092915050565b600080604083850312156135ae57600080fd5b60006135bc858286016132cf565b92505060206135cd858286016131fd565b9150509250929050565b6000806000606084860312156135ec57600080fd5b60006135fa868287016132cf565b935050602061360b868287016131fd565b925050604084013567ffffffffffffffff81111561362857600080fd5b6136348682870161327b565b9150509250925092565b600061364a83836136da565b60208301905092915050565b61365f8161429b565b82525050565b6136766136718261429b565b614414565b82525050565b600061368782614174565b61369181856141a2565b935061369c83614164565b8060005b838110156136cd5781516136b4888261363e565b97506136bf83614195565b9250506001810190506136a0565b5085935050505092915050565b6136e3816142ad565b82525050565b6136f2816142ad565b82525050565b613701816142b9565b82525050565b613718613713826142b9565b614426565b82525050565b60006137298261417f565b61373381856141b3565b9350613743818560208601614335565b61374c81614539565b840191505092915050565b60006137628261418a565b61376c81856141c4565b935061377c818560208601614335565b61378581614539565b840191505092915050565b600061379b8261418a565b6137a581856141d5565b93506137b5818560208601614335565b80840191505092915050565b60006137ce6018836141c4565b91506137d982614557565b602082019050919050565b60006137f1601f836141c4565b91506137fc82614580565b602082019050919050565b6000613814601c836141d5565b915061381f826145a9565b601c82019050919050565b60006138376032836141c4565b9150613842826145d2565b604082019050919050565b600061385a6037836141c4565b915061386582614621565b604082019050919050565b600061387d6026836141c4565b915061388882614670565b604082019050919050565b60006138a06025836141c4565b91506138ab826146bf565b604082019050919050565b60006138c3601c836141c4565b91506138ce8261470e565b602082019050919050565b60006138e66024836141c4565b91506138f182614737565b604082019050919050565b60006139096012836141c4565b915061391482614786565b602082019050919050565b600061392c6019836141c4565b9150613937826147af565b602082019050919050565b600061394f6022836141c4565b915061395a826147d8565b604082019050919050565b6000613972602c836141c4565b915061397d82614827565b604082019050919050565b60006139956038836141c4565b91506139a082614876565b604082019050919050565b60006139b8602a836141c4565b91506139c3826148c5565b604082019050919050565b60006139db6029836141c4565b91506139e682614914565b604082019050919050565b60006139fe6022836141c4565b9150613a0982614963565b604082019050919050565b6000613a216020836141c4565b9150613a2c826149b2565b602082019050919050565b6000613a44602c836141c4565b9150613a4f826149db565b604082019050919050565b6000613a676005836141d5565b9150613a7282614a2a565b600582019050919050565b6000613a8a6020836141c4565b9150613a9582614a53565b602082019050919050565b6000613aad602f836141c4565b9150613ab882614a7c565b604082019050919050565b6000613ad06021836141c4565b9150613adb82614acb565b604082019050919050565b6000613af36017836141c4565b9150613afe82614b1a565b602082019050919050565b6000613b166031836141c4565b9150613b2182614b43565b604082019050919050565b6000613b396027836141c4565b9150613b4482614b92565b604082019050919050565b6000613b5c601f836141c4565b9150613b6782614be1565b602082019050919050565b6000613b7f6015836141c4565b9150613b8a82614c0a565b602082019050919050565b613b9e8161430f565b82525050565b613bb5613bb08261430f565b614442565b82525050565b613bc481614319565b82525050565b6000613bd68285613665565b601482019150613be68284613ba4565b6020820191508190509392505050565b6000613c028285613790565b9150613c0e8284613790565b9150613c1982613a5a565b91508190509392505050565b6000613c3082613807565b9150613c3c8284613707565b60208201915081905092915050565b6000602082019050613c606000830184613656565b92915050565b6000608082019050613c7b6000830187613656565b613c886020830186613656565b613c956040830185613b95565b8181036060830152613ca7818461371e565b905095945050505050565b60006020820190508181036000830152613ccc818461367c565b905092915050565b6000602082019050613ce960008301846136e9565b92915050565b6000608082019050613d0460008301876136f8565b613d116020830186613bbb565b613d1e60408301856136f8565b613d2b60608301846136f8565b95945050505050565b60006020820190508181036000830152613d4e8184613757565b905092915050565b60006020820190508181036000830152613d6f816137c1565b9050919050565b60006020820190508181036000830152613d8f816137e4565b9050919050565b60006020820190508181036000830152613daf8161382a565b9050919050565b60006020820190508181036000830152613dcf8161384d565b9050919050565b60006020820190508181036000830152613def81613870565b9050919050565b60006020820190508181036000830152613e0f81613893565b9050919050565b60006020820190508181036000830152613e2f816138b6565b9050919050565b60006020820190508181036000830152613e4f816138d9565b9050919050565b60006020820190508181036000830152613e6f816138fc565b9050919050565b60006020820190508181036000830152613e8f8161391f565b9050919050565b60006020820190508181036000830152613eaf81613942565b9050919050565b60006020820190508181036000830152613ecf81613965565b9050919050565b60006020820190508181036000830152613eef81613988565b9050919050565b60006020820190508181036000830152613f0f816139ab565b9050919050565b60006020820190508181036000830152613f2f816139ce565b9050919050565b60006020820190508181036000830152613f4f816139f1565b9050919050565b60006020820190508181036000830152613f6f81613a14565b9050919050565b60006020820190508181036000830152613f8f81613a37565b9050919050565b60006020820190508181036000830152613faf81613a7d565b9050919050565b60006020820190508181036000830152613fcf81613aa0565b9050919050565b60006020820190508181036000830152613fef81613ac3565b9050919050565b6000602082019050818103600083015261400f81613ae6565b9050919050565b6000602082019050818103600083015261402f81613b09565b9050919050565b6000602082019050818103600083015261404f81613b2c565b9050919050565b6000602082019050818103600083015261406f81613b4f565b9050919050565b6000602082019050818103600083015261408f81613b72565b9050919050565b60006020820190506140ab6000830184613b95565b92915050565b60006140bb6140cc565b90506140c7828261439a565b919050565b6000604051905090565b600067ffffffffffffffff8211156140f1576140f061450a565b5b602082029050602081019050919050565b600067ffffffffffffffff82111561411d5761411c61450a565b5b61412682614539565b9050602081019050919050565b600067ffffffffffffffff82111561414e5761414d61450a565b5b61415782614539565b9050602081019050919050565b6000819050602082019050919050565b600081519050919050565b600081519050919050565b600081519050919050565b6000602082019050919050565b600082825260208201905092915050565b600082825260208201905092915050565b600082825260208201905092915050565b600081905092915050565b60006141eb8261430f565b91506141f68361430f565b9250827fffffffffffffffffffffffffffffffffffffffffffffffffffffffffffffffff0382111561422b5761422a61447d565b5b828201905092915050565b60006142418261430f565b915061424c8361430f565b92508261425c5761425b6144ac565b5b828204905092915050565b60006142728261430f565b915061427d8361430f565b9250828210156142905761428f61447d565b5b828203905092915050565b60006142a6826142ef565b9050919050565b60008115159050919050565b6000819050919050565b60007fffffffff0000000000000000000000000000000000000000000000000000000082169050919050565b600073ffffffffffffffffffffffffffffffffffffffff82169050919050565b6000819050919050565b600060ff82169050919050565b82818337600083830152505050565b60005b83811015614353578082015181840152602081019050614338565b83811115614362576000848401525b50505050565b6000600282049050600182168061438057607f821691505b60208210811415614394576143936144db565b5b50919050565b6143a382614539565b810181811067ffffffffffffffff821117156143c2576143c161450a565b5b80604052505050565b60006143d68261430f565b91507fffffffffffffffffffffffffffffffffffffffffffffffffffffffffffffffff8214156144095761440861447d565b5b600182019050919050565b600061441f82614430565b9050919050565b6000819050919050565b600061443b8261454a565b9050919050565b6000819050919050565b60006144578261430f565b91506144628361430f565b925082614472576144716144ac565b5b828206905092915050565b7f4e487b7100000000000000000000000000000000000000000000000000000000600052601160045260246000fd5b7f4e487b7100000000000000000000000000000000000000000000000000000000600052601260045260246000fd5b7f4e487b7100000000000000000000000000000000000000000000000000000000600052602260045260246000fd5b7f4e487b7100000000000000000000000000000000000000000000000000000000600052604160045260246000fd5b6000601f19601f8301169050919050565b60008160601b9050919050565b7f45434453413a20696e76616c6964207369676e61747572650000000000000000600082015250565b7f45434453413a20696e76616c6964207369676e6174757265206c656e67746800600082015250565b7f19457468657265756d205369676e6564204d6573736167653a0a333200000000600082015250565b7f4552433732313a207472616e7366657220746f206e6f6e20455243373231526560008201527f63656976657220696d706c656d656e7465720000000000000000000000000000602082015250565b7f43616e27742063726561746520636f6e74656e74206265636175736520796f7560008201527f20617265206e6f7420636f6e74656e7420736572766572000000000000000000602082015250565b7f4f776e61626c653a206e6577206f776e657220697320746865207a65726f206160008201527f6464726573730000000000000000000000000000000000000000000000000000602082015250565b7f4552433732313a207472616e736665722066726f6d20696e636f72726563742060008201527f6f776e6572000000000000000000000000000000000000000000000000000000602082015250565b7f4552433732313a20746f6b656e20616c7265616479206d696e74656400000000600082015250565b7f4552433732313a207472616e7366657220746f20746865207a65726f2061646460008201527f7265737300000000000000000000000000000000000000000000000000000000602082015250565b7f4e465420616c7265616479206d696e7465640000000000000000000000000000600082015250565b7f4552433732313a20617070726f766520746f2063616c6c657200000000000000600082015250565b7f45434453413a20696e76616c6964207369676e6174757265202773272076616c60008201527f7565000000000000000000000000000000000000000000000000000000000000602082015250565b7f4552433732313a206f70657261746f7220717565727920666f72206e6f6e657860008201527f697374656e7420746f6b656e0000000000000000000000000000000000000000602082015250565b7f4552433732313a20617070726f76652063616c6c6572206973206e6f74206f7760008201527f6e6572206e6f7220617070726f76656420666f7220616c6c0000000000000000602082015250565b7f4552433732313a2062616c616e636520717565727920666f7220746865207a6560008201527f726f206164647265737300000000000000000000000000000000000000000000602082015250565b7f4552433732313a206f776e657220717565727920666f72206e6f6e657869737460008201527f656e7420746f6b656e0000000000000000000000000000000000000000000000602082015250565b7f45434453413a20696e76616c6964207369676e6174757265202776272076616c60008201527f7565000000000000000000000000000000000000000000000000000000000000602082015250565b7f4552433732313a206d696e7420746f20746865207a65726f2061646472657373600082015250565b7f4552433732313a20617070726f76656420717565727920666f72206e6f6e657860008201527f697374656e7420746f6b656e0000000000000000000000000000000000000000602082015250565b7f2e6a736f6e000000000000000000000000000000000000000000000000000000600082015250565b7f4f776e61626c653a2063616c6c6572206973206e6f7420746865206f776e6572600082015250565b7f4552433732314d657461646174613a2055524920717565727920666f72206e6f60008201527f6e6578697374656e7420746f6b656e0000000000000000000000000000000000602082015250565b7f4552433732313a20617070726f76616c20746f2063757272656e74206f776e6560008201527f7200000000000000000000000000000000000000000000000000000000000000602082015250565b7f596f752063616e2774206d696e742074686973204e4654000000000000000000600082015250565b7f4552433732313a207472616e736665722063616c6c6572206973206e6f74206f60008201527f776e6572206e6f7220617070726f766564000000000000000000000000000000602082015250565b7f596f7520617265206e6f74206469737472696275746f72206f6620746869732060008201527f636f6e74656e7400000000000000000000000000000000000000000000000000602082015250565b7f596f7520646f6e2774207065726d6974746564207468697320616374696f6e00600082015250565b7f436f6e74656e7420616c72656164792061646465640000000000000000000000600082015250565b614c3c8161429b565b8114614c4757600080fd5b50565b614c53816142ad565b8114614c5e57600080fd5b50565b614c6a816142c3565b8114614c7557600080fd5b50565b614c818161430f565b8114614c8c57600080fd5b5056fea26469706673582212202015e8937eb5082ed107e1759ddc414410368ed9417c87d284ee44734f3f7adf64736f6c63430008040033",
  "linkReferences": {},
  "deployedLinkReferences": {}
}