{
  "_format": "hh-sol-artifact-1",
  "contractName": "NCPProof",
  "sourceName": "contracts/NCPProof.sol",
  "abi": [
    {
      "inputs": [],
      "stateMutability": "nonpayable",
      "type": "constructor"
    },
    {
      "anonymous": false,
      "inputs": [
        {
          "indexed": true,
          "internalType": "address",
          "name": "owner",
          "type": "address"
        },
        {
          "indexed": true,
          "internalType": "address",
          "name": "approved",
          "type": "address"
        },
        {
          "indexed": true,
          "internalType": "uint256",
          "name": "tokenId",
          "type": "uint256"
        }
      ],
      "name": "Approval",
      "type": "event"
    },
    {
      "anonymous": false,
      "inputs": [
        {
          "indexed": true,
          "internalType": "address",
          "name": "owner",
          "type": "address"
        },
        {
          "indexed": true,
          "internalType": "address",
          "name": "operator",
          "type": "address"
        },
        {
          "indexed": false,
          "internalType": "bool",
          "name": "approved",
          "type": "bool"
        }
      ],
      "name": "ApprovalForAll",
      "type": "event"
    },
    {
      "anonymous": false,
      "inputs": [
        {
          "indexed": true,
          "internalType": "address",
          "name": "_to",
          "type": "address"
        },
        {
          "indexed": false,
          "internalType": "uint256",
          "name": "_contentId",
          "type": "uint256"
        }
      ],
      "name": "MintNFT",
      "type": "event"
    },
    {
      "anonymous": false,
      "inputs": [
        {
          "indexed": true,
          "internalType": "address",
          "name": "previousOwner",
          "type": "address"
        },
        {
          "indexed": true,
          "internalType": "address",
          "name": "newOwner",
          "type": "address"
        }
      ],
      "name": "OwnershipTransferred",
      "type": "event"
    },
    {
      "anonymous": false,
      "inputs": [
        {
          "indexed": true,
          "internalType": "address",
          "name": "from",
          "type": "address"
        },
        {
          "indexed": true,
          "internalType": "address",
          "name": "to",
          "type": "address"
        },
        {
          "indexed": true,
          "internalType": "uint256",
          "name": "tokenId",
          "type": "uint256"
        }
      ],
      "name": "Transfer",
      "type": "event"
    },
    {
      "inputs": [
        {
          "internalType": "address",
          "name": "to",
          "type": "address"
        },
        {
          "internalType": "uint256",
          "name": "tokenId",
          "type": "uint256"
        }
      ],
      "name": "approve",
      "outputs": [],
      "stateMutability": "nonpayable",
      "type": "function"
    },
    {
      "inputs": [
        {
          "internalType": "address",
          "name": "owner",
          "type": "address"
        }
      ],
      "name": "balanceOf",
      "outputs": [
        {
          "internalType": "uint256",
          "name": "",
          "type": "uint256"
        }
      ],
      "stateMutability": "view",
      "type": "function"
    },
    {
      "inputs": [
        {
          "internalType": "address",
          "name": "owner",
          "type": "address"
        },
        {
          "internalType": "uint256",
          "name": "contentId",
          "type": "uint256"
        }
      ],
      "name": "canSeeProtected",
      "outputs": [
        {
          "internalType": "bool",
          "name": "",
          "type": "bool"
        }
      ],
      "stateMutability": "view",
      "type": "function"
    },
    {
      "inputs": [
        {
          "internalType": "uint256",
          "name": "contentId",
          "type": "uint256"
        }
      ],
      "name": "contentDistributorOf",
      "outputs": [
        {
          "internalType": "address",
          "name": "",
          "type": "address"
        }
      ],
      "stateMutability": "view",
      "type": "function"
    },
    {
      "inputs": [
        {
          "internalType": "uint256",
          "name": "tokenId",
          "type": "uint256"
        }
      ],
      "name": "contentOf",
      "outputs": [
        {
          "internalType": "uint256",
          "name": "",
          "type": "uint256"
        }
      ],
      "stateMutability": "view",
      "type": "function"
    },
    {
      "inputs": [],
      "name": "countOfNFT",
      "outputs": [
        {
          "internalType": "uint256",
          "name": "",
          "type": "uint256"
        }
      ],
      "stateMutability": "view",
      "type": "function"
    },
    {
      "inputs": [
        {
          "internalType": "uint256",
          "name": "tokenId",
          "type": "uint256"
        }
      ],
      "name": "getApproved",
      "outputs": [
        {
          "internalType": "address",
          "name": "",
          "type": "address"
        }
      ],
      "stateMutability": "view",
      "type": "function"
    },
    {
      "inputs": [
        {
          "internalType": "address",
          "name": "owner",
          "type": "address"
        },
        {
          "internalType": "uint256",
          "name": "contentId",
          "type": "uint256"
        }
      ],
      "name": "hasNFTForContent",
      "outputs": [
        {
          "internalType": "bool",
          "name": "",
          "type": "bool"
        }
      ],
      "stateMutability": "view",
      "type": "function"
    },
    {
      "inputs": [
        {
          "internalType": "address",
          "name": "owner",
          "type": "address"
        },
        {
          "internalType": "uint256[]",
          "name": "contentIds",
          "type": "uint256[]"
        }
      ],
      "name": "hasNFTForContents",
      "outputs": [
        {
          "internalType": "bool[]",
          "name": "",
          "type": "bool[]"
        }
      ],
      "stateMutability": "view",
      "type": "function"
    },
    {
      "inputs": [
        {
          "internalType": "address",
          "name": "owner",
          "type": "address"
        },
        {
          "internalType": "address",
          "name": "operator",
          "type": "address"
        }
      ],
      "name": "isApprovedForAll",
      "outputs": [
        {
          "internalType": "bool",
          "name": "",
          "type": "bool"
        }
      ],
      "stateMutability": "view",
      "type": "function"
    },
    {
      "inputs": [
        {
          "internalType": "address",
          "name": "addr",
          "type": "address"
        }
      ],
      "name": "isContentServer",
      "outputs": [
        {
          "internalType": "bool",
          "name": "",
          "type": "bool"
        }
      ],
      "stateMutability": "view",
      "type": "function"
    },
    {
      "inputs": [
        {
          "internalType": "address",
          "name": "owner",
          "type": "address"
        },
        {
          "internalType": "uint256",
          "name": "contentId",
          "type": "uint256"
        }
      ],
      "name": "isDistributorOf",
      "outputs": [
        {
          "internalType": "bool",
          "name": "",
          "type": "bool"
        }
      ],
      "stateMutability": "view",
      "type": "function"
    },
    {
      "inputs": [
        {
          "internalType": "uint256",
          "name": "contentId",
          "type": "uint256"
        }
      ],
      "name": "isSetted",
      "outputs": [
        {
          "internalType": "bool",
          "name": "",
          "type": "bool"
        }
      ],
      "stateMutability": "view",
      "type": "function"
    },
    {
      "inputs": [
        {
          "internalType": "address",
          "name": "to",
          "type": "address"
        },
        {
          "internalType": "uint256",
          "name": "contentId",
          "type": "uint256"
        }
      ],
      "name": "mint",
      "outputs": [
        {
          "internalType": "uint256",
          "name": "",
          "type": "uint256"
        }
      ],
      "stateMutability": "nonpayable",
      "type": "function"
    },
    {
      "inputs": [],
      "name": "name",
      "outputs": [
        {
          "internalType": "string",
          "name": "",
          "type": "string"
        }
      ],
      "stateMutability": "view",
      "type": "function"
    },
    {
      "inputs": [
        {
          "internalType": "uint256",
          "name": "contentId",
          "type": "uint256"
        },
        {
          "internalType": "address",
          "name": "contentOwner",
          "type": "address"
        },
        {
          "internalType": "bytes",
          "name": "signature",
          "type": "bytes"
        }
      ],
      "name": "newContent",
      "outputs": [
        {
          "internalType": "bool",
          "name": "",
          "type": "bool"
        }
      ],
      "stateMutability": "nonpayable",
      "type": "function"
    },
    {
      "inputs": [],
      "name": "newContentId",
      "outputs": [
        {
          "internalType": "uint256",
          "name": "",
          "type": "uint256"
        }
      ],
      "stateMutability": "view",
      "type": "function"
    },
    {
      "inputs": [],
      "name": "owner",
      "outputs": [
        {
          "internalType": "address",
          "name": "",
          "type": "address"
        }
      ],
      "stateMutability": "view",
      "type": "function"
    },
    {
      "inputs": [
        {
          "internalType": "uint256",
          "name": "tokenId",
          "type": "uint256"
        }
      ],
      "name": "ownerOf",
      "outputs": [
        {
          "internalType": "address",
          "name": "",
          "type": "address"
        }
      ],
      "stateMutability": "view",
      "type": "function"
    },
    {
      "inputs": [],
      "name": "renounceOwnership",
      "outputs": [],
      "stateMutability": "nonpayable",
      "type": "function"
    },
    {
      "inputs": [
        {
          "internalType": "address",
          "name": "from",
          "type": "address"
        },
        {
          "internalType": "address",
          "name": "to",
          "type": "address"
        },
        {
          "internalType": "uint256",
          "name": "tokenId",
          "type": "uint256"
        }
      ],
      "name": "safeTransferFrom",
      "outputs": [],
      "stateMutability": "nonpayable",
      "type": "function"
    },
    {
      "inputs": [
        {
          "internalType": "address",
          "name": "from",
          "type": "address"
        },
        {
          "internalType": "address",
          "name": "to",
          "type": "address"
        },
        {
          "internalType": "uint256",
          "name": "tokenId",
          "type": "uint256"
        },
        {
          "internalType": "bytes",
          "name": "_data",
          "type": "bytes"
        }
      ],
      "name": "safeTransferFrom",
      "outputs": [],
      "stateMutability": "nonpayable",
      "type": "function"
    },
    {
      "inputs": [
        {
          "internalType": "address",
          "name": "operator",
          "type": "address"
        },
        {
          "internalType": "bool",
          "name": "approved",
          "type": "bool"
        }
      ],
      "name": "setApprovalForAll",
      "outputs": [],
      "stateMutability": "nonpayable",
      "type": "function"
    },
    {
      "inputs": [
        {
          "internalType": "string",
          "name": "baseURI",
          "type": "string"
        }
      ],
      "name": "setBaseTokenURI",
      "outputs": [],
      "stateMutability": "nonpayable",
      "type": "function"
    },
    {
      "inputs": [
        {
          "internalType": "address",
          "name": "contentServer",
          "type": "address"
        },
        {
          "internalType": "bool",
          "name": "set",
          "type": "bool"
        }
      ],
      "name": "setContentServer",
      "outputs": [],
      "stateMutability": "nonpayable",
      "type": "function"
    },
    {
      "inputs": [
        {
          "internalType": "bytes4",
          "name": "interfaceId",
          "type": "bytes4"
        }
      ],
      "name": "supportsInterface",
      "outputs": [
        {
          "internalType": "bool",
          "name": "",
          "type": "bool"
        }
      ],
      "stateMutability": "view",
      "type": "function"
    },
    {
      "inputs": [],
      "name": "symbol",
      "outputs": [
        {
          "internalType": "string",
          "name": "",
          "type": "string"
        }
      ],
      "stateMutability": "view",
      "type": "function"
    },
    {
      "inputs": [
        {
          "internalType": "uint256",
          "name": "tokenId",
          "type": "uint256"
        }
      ],
      "name": "tokenURI",
      "outputs": [
        {
          "internalType": "string",
          "name": "",
          "type": "string"
        }
      ],
      "stateMutability": "view",
      "type": "function"
    },
    {
      "inputs": [
        {
          "internalType": "uint256",
          "name": "contentId",
          "type": "uint256"
        },
        {
          "internalType": "address",
          "name": "newOwner",
          "type": "address"
        }
      ],
      "name": "transferContentRights",
      "outputs": [
        {
          "internalType": "bool",
          "name": "",
          "type": "bool"
        }
      ],
      "stateMutability": "nonpayable",
      "type": "function"
    },
    {
      "inputs": [
        {
          "internalType": "address",
          "name": "from",
          "type": "address"
        },
        {
          "internalType": "address",
          "name": "to",
          "type": "address"
        },
        {
          "internalType": "uint256",
          "name": "tokenId",
          "type": "uint256"
        }
      ],
      "name": "transferFrom",
      "outputs": [],
      "stateMutability": "nonpayable",
      "type": "function"
    },
    {
      "inputs": [
        {
          "internalType": "address",
          "name": "newOwner",
          "type": "address"
        }
      ],
      "name": "transferOwnership",
      "outputs": [],
      "stateMutability": "nonpayable",
      "type": "function"
    },
    {
      "inputs": [],
      "name": "withdraw",
      "outputs": [],
      "stateMutability": "nonpayable",
      "type": "function"
    }
  ],
  "bytecode": "0x60806040523480156200001157600080fd5b506040518060400160405280601881526020017f4e465420436f6e74656e7420506c617965722050726f6f6600000000000000008152506040518060400160405280600481526020017f4e43505000000000000000000000000000000000000000000000000000000000815250816000908051906020019062000096929190620001f4565b508060019080519060200190620000af929190620001f4565b505050620000d2620000c66200012660201b60201c565b6200012e60201b60201c565b6040518060400160405280600d81526020017f68747470733a2f2f697066732f00000000000000000000000000000000000000815250600b90805190602001906200011f929190620001f4565b5062000309565b600033905090565b6000600660009054906101000a900473ffffffffffffffffffffffffffffffffffffffff16905081600660006101000a81548173ffffffffffffffffffffffffffffffffffffffff021916908373ffffffffffffffffffffffffffffffffffffffff1602179055508173ffffffffffffffffffffffffffffffffffffffff168173ffffffffffffffffffffffffffffffffffffffff167f8be0079c531659141344cd1fd0a4f28419497f9722a3daafe3b4186f6b6457e060405160405180910390a35050565b8280546200020290620002a4565b90600052602060002090601f01602090048101928262000226576000855562000272565b82601f106200024157805160ff191683800117855562000272565b8280016001018555821562000272579182015b828111156200027157825182559160200191906001019062000254565b5b50905062000281919062000285565b5090565b5b80821115620002a057600081600090555060010162000286565b5090565b60006002820490506001821680620002bd57607f821691505b60208210811415620002d457620002d3620002da565b5b50919050565b7f4e487b7100000000000000000000000000000000000000000000000000000000600052602260045260246000fd5b61494880620003196000396000f3fe608060405234801561001057600080fd5b50600436106101f05760003560e01c806370a082311161010f578063aae0ca62116100a2578063d4a8478111610071578063d4a8478114610615578063e985e9c514610633578063f2fde38b14610663578063f9da9c5a1461067f576101f0565b8063aae0ca6214610569578063b88d4fde14610599578063bb4243e5146105b5578063c87b56dd146105e5576101f0565b806389c61dc2116100de57806389c61dc2146104e15780638da5cb5b1461051157806395d89b411461052f578063a22cb4651461054d576101f0565b806370a0823114610447578063715018a61461047757806371ca59ca146104815780638170ced5146104b1576101f0565b806327427e311161018757806342842e0e1161015657806342842e0e146103af57806361aad37b146103cb5780636352211e146103e75780636f11401814610417576101f0565b806327427e311461032957806330176e13146103595780633ccfd60b1461037557806340c10f191461037f576101f0565b8063095ea7b3116101c3578063095ea7b3146102915780631187beb1146102ad5780631690a5a6146102dd57806323b872dd1461030d576101f0565b806301ffc9a7146101f557806306fdde03146102255780630737b4f714610243578063081812fc14610261575b600080fd5b61020f600480360381019061020a91906131f4565b6106af565b60405161021c91906139c6565b60405180910390f35b61022d610791565b60405161023a9190613a26565b60405180910390f35b61024b610823565b6040516102589190613d68565b60405180910390f35b61027b60048036038101906102769190613287565b6108b2565b604051610288919061393d565b60405180910390f35b6102ab60048036038101906102a691906131b8565b610937565b005b6102c760048036038101906102c29190613128565b610a4f565b6040516102d491906139a4565b60405180910390f35b6102f760048036038101906102f291906132ec565b610c4e565b60405161030491906139c6565b60405180910390f35b6103276004803603810190610322919061305e565b610dd3565b005b610343600480360381019061033e9190613287565b610e33565b6040516103509190613d68565b60405180910390f35b610373600480360381019061036e9190613246565b610e50565b005b61037d610ee6565b005b610399600480360381019061039491906131b8565b610fab565b6040516103a69190613d68565b60405180910390f35b6103c960048036038101906103c4919061305e565b6110e7565b005b6103e560048036038101906103e0919061317c565b611107565b005b61040160048036038101906103fc9190613287565b6111de565b60405161040e919061393d565b60405180910390f35b610431600480360381019061042c91906131b8565b611290565b60405161043e91906139c6565b60405180910390f35b610461600480360381019061045c9190612ff9565b6112b5565b60405161046e9190613d68565b60405180910390f35b61047f61136d565b005b61049b60048036038101906104969190613287565b6113f5565b6040516104a8919061393d565b60405180910390f35b6104cb60048036038101906104c69190613287565b611432565b6040516104d891906139c6565b60405180910390f35b6104fb60048036038101906104f691906131b8565b61149e565b60405161050891906139c6565b60405180910390f35b610519611530565b604051610526919061393d565b60405180910390f35b61053761155a565b6040516105449190613a26565b60405180910390f35b6105676004803603810190610562919061317c565b6115ec565b005b610583600480360381019061057e9190612ff9565b611602565b60405161059091906139c6565b60405180910390f35b6105b360048036038101906105ae91906130ad565b61169d565b005b6105cf60048036038101906105ca91906131b8565b6116ff565b6040516105dc91906139c6565b60405180910390f35b6105ff60048036038101906105fa9190613287565b611783565b60405161060c9190613a26565b60405180910390f35b61061d611832565b60405161062a9190613d68565b60405180910390f35b61064d60048036038101906106489190613022565b611843565b60405161065a91906139c6565b60405180910390f35b61067d60048036038101906106789190612ff9565b6118d7565b005b610699600480360381019061069491906132b0565b6119cf565b6040516106a691906139c6565b60405180910390f35b60007f80ac58cd000000000000000000000000000000000000000000000000000000007bffffffffffffffffffffffffffffffffffffffffffffffffffffffff1916827bffffffffffffffffffffffffffffffffffffffffffffffffffffffff1916148061077a57507f5b5e139f000000000000000000000000000000000000000000000000000000007bffffffffffffffffffffffffffffffffffffffffffffffffffffffff1916827bffffffffffffffffffffffffffffffffffffffffffffffffffffffff1916145b8061078a575061078982611a6c565b5b9050919050565b6060600080546107a09061403a565b80601f01602080910402602001604051908101604052809291908181526020018280546107cc9061403a565b80156108195780601f106107ee57610100808354040283529160200191610819565b820191906000526020600020905b8154815290600101906020018083116107fc57829003601f168201915b5050505050905090565b600061082e33611602565b61086d576040517f08c379a000000000000000000000000000000000000000000000000000000000815260040161086490613d28565b60405180910390fd5b60005b33426040516020016108839291906138bc565b6040516020818303038152906040528051906020012060001c90506108a781611432565b610870578091505090565b60006108bd82611ad6565b6108fc576040517f08c379a00000000000000000000000000000000000000000000000000000000081526004016108f390613c68565b60405180910390fd5b6004600083815260200190815260200160002060009054906101000a900473ffffffffffffffffffffffffffffffffffffffff169050919050565b6000610942826111de565b90508073ffffffffffffffffffffffffffffffffffffffff168373ffffffffffffffffffffffffffffffffffffffff1614156109b3576040517f08c379a00000000000000000000000000000000000000000000000000000000081526004016109aa90613cc8565b60405180910390fd5b8073ffffffffffffffffffffffffffffffffffffffff166109d2611b42565b73ffffffffffffffffffffffffffffffffffffffff161480610a015750610a00816109fb611b42565b611843565b5b610a40576040517f08c379a0000000000000000000000000000000000000000000000000000000008152600401610a3790613bc8565b60405180910390fd5b610a4a8383611b4a565b505050565b606060008251905060008167ffffffffffffffff811115610a99577f4e487b7100000000000000000000000000000000000000000000000000000000600052604160045260246000fd5b604051908082528060200260200182016040528015610ac75781602001602082028036833780820191505090505b5090506000610ad4611832565b905060005b83811015610c41576000838281518110610b1c577f4e487b7100000000000000000000000000000000000000000000000000000000600052603260045260246000fd5b60200260200101901515908115158152505060005b82811015610c2d578773ffffffffffffffffffffffffffffffffffffffff16610b59826111de565b73ffffffffffffffffffffffffffffffffffffffff16148015610bc35750868281518110610bb0577f4e487b7100000000000000000000000000000000000000000000000000000000600052603260045260246000fd5b6020026020010151610bc182610e33565b145b15610c1a576001848381518110610c03577f4e487b7100000000000000000000000000000000000000000000000000000000600052603260045260246000fd5b602002602001019015159081151581525050610c2d565b8080610c259061409d565b915050610b31565b508080610c399061409d565b915050610ad9565b5081935050505092915050565b60008073ffffffffffffffffffffffffffffffffffffffff16600a600086815260200190815260200160002060009054906101000a900473ffffffffffffffffffffffffffffffffffffffff1673ffffffffffffffffffffffffffffffffffffffff1614610cf1576040517f08c379a0000000000000000000000000000000000000000000000000000000008152600401610ce890613d48565b60405180910390fd5b60008385604051602001610d069291906138bc565b6040516020818303038152906040528051906020012090506000610d2a8285611c03565b9050610d3581611602565b610d74576040517f08c379a0000000000000000000000000000000000000000000000000000000008152600401610d6b90613aa8565b60405180910390fd5b84600a600088815260200190815260200160002060006101000a81548173ffffffffffffffffffffffffffffffffffffffff021916908373ffffffffffffffffffffffffffffffffffffffff1602179055506001925050509392505050565b610de4610dde611b42565b82611c4b565b610e23576040517f08c379a0000000000000000000000000000000000000000000000000000000008152600401610e1a90613d08565b60405180910390fd5b610e2e838383611d29565b505050565b600060096000838152602001908152602001600020549050919050565b610e58611b42565b73ffffffffffffffffffffffffffffffffffffffff16610e76611530565b73ffffffffffffffffffffffffffffffffffffffff1614610ecc576040517f08c379a0000000000000000000000000000000000000000000000000000000008152600401610ec390613c88565b60405180910390fd5b80600b9080519060200190610ee2929190612d87565b5050565b610eee611b42565b73ffffffffffffffffffffffffffffffffffffffff16610f0c611530565b73ffffffffffffffffffffffffffffffffffffffff1614610f62576040517f08c379a0000000000000000000000000000000000000000000000000000000008152600401610f5990613c88565b60405180910390fd5b3373ffffffffffffffffffffffffffffffffffffffff166108fc479081150290604051600060405180830381858888f19350505050158015610fa8573d6000803e3d6000fd5b50565b60003373ffffffffffffffffffffffffffffffffffffffff16610fcd836113f5565b73ffffffffffffffffffffffffffffffffffffffff1614611023576040517f08c379a000000000000000000000000000000000000000000000000000000000815260040161101a90613ce8565b60405180910390fd5b61102d838361149e565b1561106d576040517f08c379a000000000000000000000000000000000000000000000000000000000815260040161106490613b48565b60405180910390fd5b60006110796007611f90565b90506110856007611f9e565b61108f8482611fb4565b8373ffffffffffffffffffffffffffffffffffffffff167f1f89f147a58d1673945cf416187db98efc8208408c011b91887acd59fd8523c3846040516110d59190613d68565b60405180910390a28091505092915050565b6111028383836040518060200160405280600081525061169d565b505050565b61110f611b42565b73ffffffffffffffffffffffffffffffffffffffff1661112d611530565b73ffffffffffffffffffffffffffffffffffffffff1614611183576040517f08c379a000000000000000000000000000000000000000000000000000000000815260040161117a90613c88565b60405180910390fd5b80600860008473ffffffffffffffffffffffffffffffffffffffff1673ffffffffffffffffffffffffffffffffffffffff16815260200190815260200160002060006101000a81548160ff0219169083151502179055505050565b6000806002600084815260200190815260200160002060009054906101000a900473ffffffffffffffffffffffffffffffffffffffff169050600073ffffffffffffffffffffffffffffffffffffffff168173ffffffffffffffffffffffffffffffffffffffff161415611287576040517f08c379a000000000000000000000000000000000000000000000000000000000815260040161127e90613c08565b60405180910390fd5b80915050919050565b600061129c83836116ff565b806112ad57506112ac838361149e565b5b905092915050565b60008073ffffffffffffffffffffffffffffffffffffffff168273ffffffffffffffffffffffffffffffffffffffff161415611326576040517f08c379a000000000000000000000000000000000000000000000000000000000815260040161131d90613be8565b60405180910390fd5b600360008373ffffffffffffffffffffffffffffffffffffffff1673ffffffffffffffffffffffffffffffffffffffff168152602001908152602001600020549050919050565b611375611b42565b73ffffffffffffffffffffffffffffffffffffffff16611393611530565b73ffffffffffffffffffffffffffffffffffffffff16146113e9576040517f08c379a00000000000000000000000000000000000000000000000000000000081526004016113e090613c88565b60405180910390fd5b6113f3600061218e565b565b6000600a600083815260200190815260200160002060009054906101000a900473ffffffffffffffffffffffffffffffffffffffff169050919050565b60008073ffffffffffffffffffffffffffffffffffffffff16600a600084815260200190815260200160002060009054906101000a900473ffffffffffffffffffffffffffffffffffffffff1673ffffffffffffffffffffffffffffffffffffffff1614159050919050565b6000806114a9611832565b905060005b81811015611523578473ffffffffffffffffffffffffffffffffffffffff166114d6826111de565b73ffffffffffffffffffffffffffffffffffffffff161480156115005750836114fe82610e33565b145b156115105760019250505061152a565b808061151b9061409d565b9150506114ae565b5060009150505b92915050565b6000600660009054906101000a900473ffffffffffffffffffffffffffffffffffffffff16905090565b6060600180546115699061403a565b80601f01602080910402602001604051908101604052809291908181526020018280546115959061403a565b80156115e25780601f106115b7576101008083540402835291602001916115e2565b820191906000526020600020905b8154815290600101906020018083116115c557829003601f168201915b5050505050905090565b6115fe6115f7611b42565b8383612254565b5050565b600061160c611530565b73ffffffffffffffffffffffffffffffffffffffff168273ffffffffffffffffffffffffffffffffffffffff1614156116485760019050611698565b600860008373ffffffffffffffffffffffffffffffffffffffff1673ffffffffffffffffffffffffffffffffffffffff16815260200190815260200160002060009054906101000a900460ff1690505b919050565b6116ae6116a8611b42565b83611c4b565b6116ed576040517f08c379a00000000000000000000000000000000000000000000000000000000081526004016116e490613d08565b60405180910390fd5b6116f9848484846123c1565b50505050565b60008073ffffffffffffffffffffffffffffffffffffffff16611721836113f5565b73ffffffffffffffffffffffffffffffffffffffff1614611778578273ffffffffffffffffffffffffffffffffffffffff1661175c836113f5565b73ffffffffffffffffffffffffffffffffffffffff161461177b565b60015b905092915050565b606061178e82611ad6565b6117cd576040517f08c379a00000000000000000000000000000000000000000000000000000000081526004016117c490613ca8565b60405180910390fd5b60006117d761241d565b905060008151116117f7576040518060200160405280600081525061182a565b8061180961180485610e33565b6124af565b60405160200161181a9291906138e8565b6040516020818303038152906040525b915050919050565b600061183e6007611f90565b905090565b6000600560008473ffffffffffffffffffffffffffffffffffffffff1673ffffffffffffffffffffffffffffffffffffffff16815260200190815260200160002060008373ffffffffffffffffffffffffffffffffffffffff1673ffffffffffffffffffffffffffffffffffffffff16815260200190815260200160002060009054906101000a900460ff16905092915050565b6118df611b42565b73ffffffffffffffffffffffffffffffffffffffff166118fd611530565b73ffffffffffffffffffffffffffffffffffffffff1614611953576040517f08c379a000000000000000000000000000000000000000000000000000000000815260040161194a90613c88565b60405180910390fd5b600073ffffffffffffffffffffffffffffffffffffffff168173ffffffffffffffffffffffffffffffffffffffff1614156119c3576040517f08c379a00000000000000000000000000000000000000000000000000000000081526004016119ba90613ac8565b60405180910390fd5b6119cc8161218e565b50565b6000806119da611832565b905060005b81811015611a5f573373ffffffffffffffffffffffffffffffffffffffff16611a07826111de565b73ffffffffffffffffffffffffffffffffffffffff16148015611a31575084611a2f82610e33565b145b15611a4c57611a41338583611d29565b600192505050611a66565b8080611a579061409d565b9150506119df565b5060009150505b92915050565b60007f01ffc9a7000000000000000000000000000000000000000000000000000000007bffffffffffffffffffffffffffffffffffffffffffffffffffffffff1916827bffffffffffffffffffffffffffffffffffffffffffffffffffffffff1916149050919050565b60008073ffffffffffffffffffffffffffffffffffffffff166002600084815260200190815260200160002060009054906101000a900473ffffffffffffffffffffffffffffffffffffffff1673ffffffffffffffffffffffffffffffffffffffff1614159050919050565b600033905090565b816004600083815260200190815260200160002060006101000a81548173ffffffffffffffffffffffffffffffffffffffff021916908373ffffffffffffffffffffffffffffffffffffffff160217905550808273ffffffffffffffffffffffffffffffffffffffff16611bbd836111de565b73ffffffffffffffffffffffffffffffffffffffff167f8c5be1e5ebec7d5bd14f71427d1e84f3dd0314c0f7b2291e5b200ac8c7c3b92560405160405180910390a45050565b60008083604051602001611c179190613917565b604051602081830303815290604052805190602001209050611c42838261265c90919063ffffffff16565b91505092915050565b6000611c5682611ad6565b611c95576040517f08c379a0000000000000000000000000000000000000000000000000000000008152600401611c8c90613ba8565b60405180910390fd5b6000611ca0836111de565b90508073ffffffffffffffffffffffffffffffffffffffff168473ffffffffffffffffffffffffffffffffffffffff161480611d0f57508373ffffffffffffffffffffffffffffffffffffffff16611cf7846108b2565b73ffffffffffffffffffffffffffffffffffffffff16145b80611d205750611d1f8185611843565b5b91505092915050565b8273ffffffffffffffffffffffffffffffffffffffff16611d49826111de565b73ffffffffffffffffffffffffffffffffffffffff1614611d9f576040517f08c379a0000000000000000000000000000000000000000000000000000000008152600401611d9690613ae8565b60405180910390fd5b600073ffffffffffffffffffffffffffffffffffffffff168273ffffffffffffffffffffffffffffffffffffffff161415611e0f576040517f08c379a0000000000000000000000000000000000000000000000000000000008152600401611e0690613b28565b60405180910390fd5b611e1a838383612683565b611e25600082611b4a565b6001600360008573ffffffffffffffffffffffffffffffffffffffff1673ffffffffffffffffffffffffffffffffffffffff1681526020019081526020016000206000828254611e759190613f39565b925050819055506001600360008473ffffffffffffffffffffffffffffffffffffffff1673ffffffffffffffffffffffffffffffffffffffff1681526020019081526020016000206000828254611ecc9190613eb2565b92505081905550816002600083815260200190815260200160002060006101000a81548173ffffffffffffffffffffffffffffffffffffffff021916908373ffffffffffffffffffffffffffffffffffffffff160217905550808273ffffffffffffffffffffffffffffffffffffffff168473ffffffffffffffffffffffffffffffffffffffff167fddf252ad1be2c89b69c2b068fc378daa952ba7f163c4a11628f55a4df523b3ef60405160405180910390a4611f8b838383612688565b505050565b600081600001549050919050565b6001816000016000828254019250508190555050565b600073ffffffffffffffffffffffffffffffffffffffff168273ffffffffffffffffffffffffffffffffffffffff161415612024576040517f08c379a000000000000000000000000000000000000000000000000000000000815260040161201b90613c48565b60405180910390fd5b61202d81611ad6565b1561206d576040517f08c379a000000000000000000000000000000000000000000000000000000000815260040161206490613b08565b60405180910390fd5b61207960008383612683565b6001600360008473ffffffffffffffffffffffffffffffffffffffff1673ffffffffffffffffffffffffffffffffffffffff16815260200190815260200160002060008282546120c99190613eb2565b92505081905550816002600083815260200190815260200160002060006101000a81548173ffffffffffffffffffffffffffffffffffffffff021916908373ffffffffffffffffffffffffffffffffffffffff160217905550808273ffffffffffffffffffffffffffffffffffffffff16600073ffffffffffffffffffffffffffffffffffffffff167fddf252ad1be2c89b69c2b068fc378daa952ba7f163c4a11628f55a4df523b3ef60405160405180910390a461218a60008383612688565b5050565b6000600660009054906101000a900473ffffffffffffffffffffffffffffffffffffffff16905081600660006101000a81548173ffffffffffffffffffffffffffffffffffffffff021916908373ffffffffffffffffffffffffffffffffffffffff1602179055508173ffffffffffffffffffffffffffffffffffffffff168173ffffffffffffffffffffffffffffffffffffffff167f8be0079c531659141344cd1fd0a4f28419497f9722a3daafe3b4186f6b6457e060405160405180910390a35050565b8173ffffffffffffffffffffffffffffffffffffffff168373ffffffffffffffffffffffffffffffffffffffff1614156122c3576040517f08c379a00000000000000000000000000000000000000000000000000000000081526004016122ba90613b68565b60405180910390fd5b80600560008573ffffffffffffffffffffffffffffffffffffffff1673ffffffffffffffffffffffffffffffffffffffff16815260200190815260200160002060008473ffffffffffffffffffffffffffffffffffffffff1673ffffffffffffffffffffffffffffffffffffffff16815260200190815260200160002060006101000a81548160ff0219169083151502179055508173ffffffffffffffffffffffffffffffffffffffff168373ffffffffffffffffffffffffffffffffffffffff167f17307eab39ab6107e8899845ad3d59bd9653f200f220920489ca2b5937696c31836040516123b491906139c6565b60405180910390a3505050565b6123cc848484611d29565b6123d88484848461268d565b612417576040517f08c379a000000000000000000000000000000000000000000000000000000000815260040161240e90613a88565b60405180910390fd5b50505050565b6060600b805461242c9061403a565b80601f01602080910402602001604051908101604052809291908181526020018280546124589061403a565b80156124a55780601f1061247a576101008083540402835291602001916124a5565b820191906000526020600020905b81548152906001019060200180831161248857829003601f168201915b5050505050905090565b606060008214156124f7576040518060400160405280600181526020017f30000000000000000000000000000000000000000000000000000000000000008152509050612657565b600082905060005b600082146125295780806125129061409d565b915050600a826125229190613f08565b91506124ff565b60008167ffffffffffffffff81111561256b577f4e487b7100000000000000000000000000000000000000000000000000000000600052604160045260246000fd5b6040519080825280601f01601f19166020018201604052801561259d5781602001600182028036833780820191505090505b5090505b60008514612650576001826125b69190613f39565b9150600a856125c5919061411e565b60306125d19190613eb2565b60f81b81838151811061260d577f4e487b7100000000000000000000000000000000000000000000000000000000600052603260045260246000fd5b60200101907effffffffffffffffffffffffffffffffffffffffffffffffffffffffffffff1916908160001a905350600a856126499190613f08565b94506125a1565b8093505050505b919050565b600080600061266b8585612824565b91509150612678816128a7565b819250505092915050565b505050565b505050565b60006126ae8473ffffffffffffffffffffffffffffffffffffffff16612bf8565b15612817578373ffffffffffffffffffffffffffffffffffffffff1663150b7a026126d7611b42565b8786866040518563ffffffff1660e01b81526004016126f99493929190613958565b602060405180830381600087803b15801561271357600080fd5b505af192505050801561274457506040513d601f19601f82011682018060405250810190612741919061321d565b60015b6127c7573d8060008114612774576040519150601f19603f3d011682016040523d82523d6000602084013e612779565b606091505b506000815114156127bf576040517f08c379a00000000000000000000000000000000000000000000000000000000081526004016127b690613a88565b60405180910390fd5b805181602001fd5b63150b7a0260e01b7bffffffffffffffffffffffffffffffffffffffffffffffffffffffff1916817bffffffffffffffffffffffffffffffffffffffffffffffffffffffff19161491505061281c565b600190505b949350505050565b6000806041835114156128665760008060006020860151925060408601519150606086015160001a905061285a87828585612c1b565b945094505050506128a0565b60408351141561289757600080602085015191506040850151905061288c868383612d28565b9350935050506128a0565b60006002915091505b9250929050565b600060048111156128e1577f4e487b7100000000000000000000000000000000000000000000000000000000600052602160045260246000fd5b81600481111561291a577f4e487b7100000000000000000000000000000000000000000000000000000000600052602160045260246000fd5b141561292557612bf5565b6001600481111561295f577f4e487b7100000000000000000000000000000000000000000000000000000000600052602160045260246000fd5b816004811115612998577f4e487b7100000000000000000000000000000000000000000000000000000000600052602160045260246000fd5b14156129d9576040517f08c379a00000000000000000000000000000000000000000000000000000000081526004016129d090613a48565b60405180910390fd5b60026004811115612a13577f4e487b7100000000000000000000000000000000000000000000000000000000600052602160045260246000fd5b816004811115612a4c577f4e487b7100000000000000000000000000000000000000000000000000000000600052602160045260246000fd5b1415612a8d576040517f08c379a0000000000000000000000000000000000000000000000000000000008152600401612a8490613a68565b60405180910390fd5b60036004811115612ac7577f4e487b7100000000000000000000000000000000000000000000000000000000600052602160045260246000fd5b816004811115612b00577f4e487b7100000000000000000000000000000000000000000000000000000000600052602160045260246000fd5b1415612b41576040517f08c379a0000000000000000000000000000000000000000000000000000000008152600401612b3890613b88565b60405180910390fd5b600480811115612b7a577f4e487b7100000000000000000000000000000000000000000000000000000000600052602160045260246000fd5b816004811115612bb3577f4e487b7100000000000000000000000000000000000000000000000000000000600052602160045260246000fd5b1415612bf4576040517f08c379a0000000000000000000000000000000000000000000000000000000008152600401612beb90613c28565b60405180910390fd5b5b50565b6000808273ffffffffffffffffffffffffffffffffffffffff163b119050919050565b6000807f7fffffffffffffffffffffffffffffff5d576e7357a4501ddfe92f46681b20a08360001c1115612c56576000600391509150612d1f565b601b8560ff1614158015612c6e5750601c8560ff1614155b15612c80576000600491509150612d1f565b600060018787878760405160008152602001604052604051612ca594939291906139e1565b6020604051602081039080840390855afa158015612cc7573d6000803e3d6000fd5b505050602060405103519050600073ffffffffffffffffffffffffffffffffffffffff168173ffffffffffffffffffffffffffffffffffffffff161415612d1657600060019250925050612d1f565b80600092509250505b94509492505050565b60008060007f7fffffffffffffffffffffffffffffffffffffffffffffffffffffffffffffff60001b841690506000601b60ff8660001c901c612d6b9190613eb2565b9050612d7987828885612c1b565b935093505050935093915050565b828054612d939061403a565b90600052602060002090601f016020900481019282612db55760008555612dfc565b82601f10612dce57805160ff1916838001178555612dfc565b82800160010185558215612dfc579182015b82811115612dfb578251825591602001919060010190612de0565b5b509050612e099190612e0d565b5090565b5b80821115612e26576000816000905550600101612e0e565b5090565b6000612e3d612e3884613da8565b613d83565b90508083825260208201905082856020860282011115612e5c57600080fd5b60005b85811015612e8c5781612e728882612fe4565b845260208401935060208301925050600181019050612e5f565b5050509392505050565b6000612ea9612ea484613dd4565b613d83565b905082815260208101848484011115612ec157600080fd5b612ecc848285613ff8565b509392505050565b6000612ee7612ee284613e05565b613d83565b905082815260208101848484011115612eff57600080fd5b612f0a848285613ff8565b509392505050565b600081359050612f21816148b6565b92915050565b600082601f830112612f3857600080fd5b8135612f48848260208601612e2a565b91505092915050565b600081359050612f60816148cd565b92915050565b600081359050612f75816148e4565b92915050565b600081519050612f8a816148e4565b92915050565b600082601f830112612fa157600080fd5b8135612fb1848260208601612e96565b91505092915050565b600082601f830112612fcb57600080fd5b8135612fdb848260208601612ed4565b91505092915050565b600081359050612ff3816148fb565b92915050565b60006020828403121561300b57600080fd5b600061301984828501612f12565b91505092915050565b6000806040838503121561303557600080fd5b600061304385828601612f12565b925050602061305485828601612f12565b9150509250929050565b60008060006060848603121561307357600080fd5b600061308186828701612f12565b935050602061309286828701612f12565b92505060406130a386828701612fe4565b9150509250925092565b600080600080608085870312156130c357600080fd5b60006130d187828801612f12565b94505060206130e287828801612f12565b93505060406130f387828801612fe4565b925050606085013567ffffffffffffffff81111561311057600080fd5b61311c87828801612f90565b91505092959194509250565b6000806040838503121561313b57600080fd5b600061314985828601612f12565b925050602083013567ffffffffffffffff81111561316657600080fd5b61317285828601612f27565b9150509250929050565b6000806040838503121561318f57600080fd5b600061319d85828601612f12565b92505060206131ae85828601612f51565b9150509250929050565b600080604083850312156131cb57600080fd5b60006131d985828601612f12565b92505060206131ea85828601612fe4565b9150509250929050565b60006020828403121561320657600080fd5b600061321484828501612f66565b91505092915050565b60006020828403121561322f57600080fd5b600061323d84828501612f7b565b91505092915050565b60006020828403121561325857600080fd5b600082013567ffffffffffffffff81111561327257600080fd5b61327e84828501612fba565b91505092915050565b60006020828403121561329957600080fd5b60006132a784828501612fe4565b91505092915050565b600080604083850312156132c357600080fd5b60006132d185828601612fe4565b92505060206132e285828601612f12565b9150509250929050565b60008060006060848603121561330157600080fd5b600061330f86828701612fe4565b935050602061332086828701612f12565b925050604084013567ffffffffffffffff81111561333d57600080fd5b61334986828701612f90565b9150509250925092565b600061335f83836133ef565b60208301905092915050565b61337481613f6d565b82525050565b61338b61338682613f6d565b6140e6565b82525050565b600061339c82613e46565b6133a68185613e74565b93506133b183613e36565b8060005b838110156133e25781516133c98882613353565b97506133d483613e67565b9250506001810190506133b5565b5085935050505092915050565b6133f881613f7f565b82525050565b61340781613f7f565b82525050565b61341681613f8b565b82525050565b61342d61342882613f8b565b6140f8565b82525050565b600061343e82613e51565b6134488185613e85565b9350613458818560208601614007565b6134618161420b565b840191505092915050565b600061347782613e5c565b6134818185613e96565b9350613491818560208601614007565b61349a8161420b565b840191505092915050565b60006134b082613e5c565b6134ba8185613ea7565b93506134ca818560208601614007565b80840191505092915050565b60006134e3601883613e96565b91506134ee82614229565b602082019050919050565b6000613506601f83613e96565b915061351182614252565b602082019050919050565b6000613529601c83613ea7565b91506135348261427b565b601c82019050919050565b600061354c603283613e96565b9150613557826142a4565b604082019050919050565b600061356f603783613e96565b915061357a826142f3565b604082019050919050565b6000613592602683613e96565b915061359d82614342565b604082019050919050565b60006135b5602583613e96565b91506135c082614391565b604082019050919050565b60006135d8601c83613e96565b91506135e3826143e0565b602082019050919050565b60006135fb602483613e96565b915061360682614409565b604082019050919050565b600061361e601283613e96565b915061362982614458565b602082019050919050565b6000613641601983613e96565b915061364c82614481565b602082019050919050565b6000613664602283613e96565b915061366f826144aa565b604082019050919050565b6000613687602c83613e96565b9150613692826144f9565b604082019050919050565b60006136aa603883613e96565b91506136b582614548565b604082019050919050565b60006136cd602a83613e96565b91506136d882614597565b604082019050919050565b60006136f0602983613e96565b91506136fb826145e6565b604082019050919050565b6000613713602283613e96565b915061371e82614635565b604082019050919050565b6000613736602083613e96565b915061374182614684565b602082019050919050565b6000613759602c83613e96565b9150613764826146ad565b604082019050919050565b600061377c600583613ea7565b9150613787826146fc565b600582019050919050565b600061379f602083613e96565b91506137aa82614725565b602082019050919050565b60006137c2602f83613e96565b91506137cd8261474e565b604082019050919050565b60006137e5602183613e96565b91506137f08261479d565b604082019050919050565b6000613808601783613e96565b9150613813826147ec565b602082019050919050565b600061382b603183613e96565b915061383682614815565b604082019050919050565b600061384e601f83613e96565b915061385982614864565b602082019050919050565b6000613871601583613e96565b915061387c8261488d565b602082019050919050565b61389081613fe1565b82525050565b6138a76138a282613fe1565b614114565b82525050565b6138b681613feb565b82525050565b60006138c8828561337a565b6014820191506138d88284613896565b6020820191508190509392505050565b60006138f482856134a5565b915061390082846134a5565b915061390b8261376f565b91508190509392505050565b60006139228261351c565b915061392e828461341c565b60208201915081905092915050565b6000602082019050613952600083018461336b565b92915050565b600060808201905061396d600083018761336b565b61397a602083018661336b565b6139876040830185613887565b81810360608301526139998184613433565b905095945050505050565b600060208201905081810360008301526139be8184613391565b905092915050565b60006020820190506139db60008301846133fe565b92915050565b60006080820190506139f6600083018761340d565b613a0360208301866138ad565b613a10604083018561340d565b613a1d606083018461340d565b95945050505050565b60006020820190508181036000830152613a40818461346c565b905092915050565b60006020820190508181036000830152613a61816134d6565b9050919050565b60006020820190508181036000830152613a81816134f9565b9050919050565b60006020820190508181036000830152613aa18161353f565b9050919050565b60006020820190508181036000830152613ac181613562565b9050919050565b60006020820190508181036000830152613ae181613585565b9050919050565b60006020820190508181036000830152613b01816135a8565b9050919050565b60006020820190508181036000830152613b21816135cb565b9050919050565b60006020820190508181036000830152613b41816135ee565b9050919050565b60006020820190508181036000830152613b6181613611565b9050919050565b60006020820190508181036000830152613b8181613634565b9050919050565b60006020820190508181036000830152613ba181613657565b9050919050565b60006020820190508181036000830152613bc18161367a565b9050919050565b60006020820190508181036000830152613be18161369d565b9050919050565b60006020820190508181036000830152613c01816136c0565b9050919050565b60006020820190508181036000830152613c21816136e3565b9050919050565b60006020820190508181036000830152613c4181613706565b9050919050565b60006020820190508181036000830152613c6181613729565b9050919050565b60006020820190508181036000830152613c818161374c565b9050919050565b60006020820190508181036000830152613ca181613792565b9050919050565b60006020820190508181036000830152613cc1816137b5565b9050919050565b60006020820190508181036000830152613ce1816137d8565b9050919050565b60006020820190508181036000830152613d01816137fb565b9050919050565b60006020820190508181036000830152613d218161381e565b9050919050565b60006020820190508181036000830152613d4181613841565b9050919050565b60006020820190508181036000830152613d6181613864565b9050919050565b6000602082019050613d7d6000830184613887565b92915050565b6000613d8d613d9e565b9050613d99828261406c565b919050565b6000604051905090565b600067ffffffffffffffff821115613dc357613dc26141dc565b5b602082029050602081019050919050565b600067ffffffffffffffff821115613def57613dee6141dc565b5b613df88261420b565b9050602081019050919050565b600067ffffffffffffffff821115613e2057613e1f6141dc565b5b613e298261420b565b9050602081019050919050565b6000819050602082019050919050565b600081519050919050565b600081519050919050565b600081519050919050565b6000602082019050919050565b600082825260208201905092915050565b600082825260208201905092915050565b600082825260208201905092915050565b600081905092915050565b6000613ebd82613fe1565b9150613ec883613fe1565b9250827fffffffffffffffffffffffffffffffffffffffffffffffffffffffffffffffff03821115613efd57613efc61414f565b5b828201905092915050565b6000613f1382613fe1565b9150613f1e83613fe1565b925082613f2e57613f2d61417e565b5b828204905092915050565b6000613f4482613fe1565b9150613f4f83613fe1565b925082821015613f6257613f6161414f565b5b828203905092915050565b6000613f7882613fc1565b9050919050565b60008115159050919050565b6000819050919050565b60007fffffffff0000000000000000000000000000000000000000000000000000000082169050919050565b600073ffffffffffffffffffffffffffffffffffffffff82169050919050565b6000819050919050565b600060ff82169050919050565b82818337600083830152505050565b60005b8381101561402557808201518184015260208101905061400a565b83811115614034576000848401525b50505050565b6000600282049050600182168061405257607f821691505b60208210811415614066576140656141ad565b5b50919050565b6140758261420b565b810181811067ffffffffffffffff82111715614094576140936141dc565b5b80604052505050565b60006140a882613fe1565b91507fffffffffffffffffffffffffffffffffffffffffffffffffffffffffffffffff8214156140db576140da61414f565b5b600182019050919050565b60006140f182614102565b9050919050565b6000819050919050565b600061410d8261421c565b9050919050565b6000819050919050565b600061412982613fe1565b915061413483613fe1565b9250826141445761414361417e565b5b828206905092915050565b7f4e487b7100000000000000000000000000000000000000000000000000000000600052601160045260246000fd5b7f4e487b7100000000000000000000000000000000000000000000000000000000600052601260045260246000fd5b7f4e487b7100000000000000000000000000000000000000000000000000000000600052602260045260246000fd5b7f4e487b7100000000000000000000000000000000000000000000000000000000600052604160045260246000fd5b6000601f19601f8301169050919050565b60008160601b9050919050565b7f45434453413a20696e76616c6964207369676e61747572650000000000000000600082015250565b7f45434453413a20696e76616c6964207369676e6174757265206c656e67746800600082015250565b7f19457468657265756d205369676e6564204d6573736167653a0a333200000000600082015250565b7f4552433732313a207472616e7366657220746f206e6f6e20455243373231526560008201527f63656976657220696d706c656d656e7465720000000000000000000000000000602082015250565b7f43616e27742063726561746520636f6e74656e74206265636175736520796f7560008201527f20617265206e6f7420636f6e74656e7420736572766572000000000000000000602082015250565b7f4f776e61626c653a206e6577206f776e657220697320746865207a65726f206160008201527f6464726573730000000000000000000000000000000000000000000000000000602082015250565b7f4552433732313a207472616e736665722066726f6d20696e636f72726563742060008201527f6f776e6572000000000000000000000000000000000000000000000000000000602082015250565b7f4552433732313a20746f6b656e20616c7265616479206d696e74656400000000600082015250565b7f4552433732313a207472616e7366657220746f20746865207a65726f2061646460008201527f7265737300000000000000000000000000000000000000000000000000000000602082015250565b7f4e465420616c7265616479206d696e7465640000000000000000000000000000600082015250565b7f4552433732313a20617070726f766520746f2063616c6c657200000000000000600082015250565b7f45434453413a20696e76616c6964207369676e6174757265202773272076616c60008201527f7565000000000000000000000000000000000000000000000000000000000000602082015250565b7f4552433732313a206f70657261746f7220717565727920666f72206e6f6e657860008201527f697374656e7420746f6b656e0000000000000000000000000000000000000000602082015250565b7f4552433732313a20617070726f76652063616c6c6572206973206e6f74206f7760008201527f6e6572206e6f7220617070726f76656420666f7220616c6c0000000000000000602082015250565b7f4552433732313a2062616c616e636520717565727920666f7220746865207a6560008201527f726f206164647265737300000000000000000000000000000000000000000000602082015250565b7f4552433732313a206f776e657220717565727920666f72206e6f6e657869737460008201527f656e7420746f6b656e0000000000000000000000000000000000000000000000602082015250565b7f45434453413a20696e76616c6964207369676e6174757265202776272076616c60008201527f7565000000000000000000000000000000000000000000000000000000000000602082015250565b7f4552433732313a206d696e7420746f20746865207a65726f2061646472657373600082015250565b7f4552433732313a20617070726f76656420717565727920666f72206e6f6e657860008201527f697374656e7420746f6b656e0000000000000000000000000000000000000000602082015250565b7f2e6a736f6e000000000000000000000000000000000000000000000000000000600082015250565b7f4f776e61626c653a2063616c6c6572206973206e6f7420746865206f776e6572600082015250565b7f4552433732314d657461646174613a2055524920717565727920666f72206e6f60008201527f6e6578697374656e7420746f6b656e0000000000000000000000000000000000602082015250565b7f4552433732313a20617070726f76616c20746f2063757272656e74206f776e6560008201527f7200000000000000000000000000000000000000000000000000000000000000602082015250565b7f596f752063616e2774206d696e742074686973204e4654000000000000000000600082015250565b7f4552433732313a207472616e736665722063616c6c6572206973206e6f74206f60008201527f776e6572206e6f7220617070726f766564000000000000000000000000000000602082015250565b7f596f7520646f6e2774207065726d6974746564207468697320616374696f6e00600082015250565b7f436f6e74656e7420616c72656164792061646465640000000000000000000000600082015250565b6148bf81613f6d565b81146148ca57600080fd5b50565b6148d681613f7f565b81146148e157600080fd5b50565b6148ed81613f95565b81146148f857600080fd5b50565b61490481613fe1565b811461490f57600080fd5b5056fea2646970667358221220e5b4c035131582b60c6bd50cefdbb46a0f76160681444714b4de2f0995b352ee64736f6c63430008040033",
  "linkReferences": {},
  "deployedLinkReferences": {}
}