{
  "_format": "hh-sol-artifact-1",
  "contractName": "NCPProof",
  "sourceName": "contracts/NCPProof.sol",
  "abi": [
    {
      "inputs": [],
      "stateMutability": "nonpayable",
      "type": "constructor"
    },
    {
      "anonymous": false,
      "inputs": [
        {
          "indexed": true,
          "internalType": "address",
          "name": "owner",
          "type": "address"
        },
        {
          "indexed": true,
          "internalType": "address",
          "name": "approved",
          "type": "address"
        },
        {
          "indexed": true,
          "internalType": "uint256",
          "name": "tokenId",
          "type": "uint256"
        }
      ],
      "name": "Approval",
      "type": "event"
    },
    {
      "anonymous": false,
      "inputs": [
        {
          "indexed": true,
          "internalType": "address",
          "name": "owner",
          "type": "address"
        },
        {
          "indexed": true,
          "internalType": "address",
          "name": "operator",
          "type": "address"
        },
        {
          "indexed": false,
          "internalType": "bool",
          "name": "approved",
          "type": "bool"
        }
      ],
      "name": "ApprovalForAll",
      "type": "event"
    },
    {
      "anonymous": false,
      "inputs": [
        {
          "indexed": true,
          "internalType": "address",
          "name": "_to",
          "type": "address"
        },
        {
          "indexed": false,
          "internalType": "uint256",
          "name": "_contentId",
          "type": "uint256"
        }
      ],
      "name": "MintNFT",
      "type": "event"
    },
    {
      "anonymous": false,
      "inputs": [
        {
          "indexed": true,
          "internalType": "address",
          "name": "previousOwner",
          "type": "address"
        },
        {
          "indexed": true,
          "internalType": "address",
          "name": "newOwner",
          "type": "address"
        }
      ],
      "name": "OwnershipTransferred",
      "type": "event"
    },
    {
      "anonymous": false,
      "inputs": [
        {
          "indexed": true,
          "internalType": "address",
          "name": "from",
          "type": "address"
        },
        {
          "indexed": true,
          "internalType": "address",
          "name": "to",
          "type": "address"
        },
        {
          "indexed": true,
          "internalType": "uint256",
          "name": "tokenId",
          "type": "uint256"
        }
      ],
      "name": "Transfer",
      "type": "event"
    },
    {
      "inputs": [
        {
          "internalType": "address",
          "name": "to",
          "type": "address"
        },
        {
          "internalType": "uint256",
          "name": "tokenId",
          "type": "uint256"
        }
      ],
      "name": "approve",
      "outputs": [],
      "stateMutability": "nonpayable",
      "type": "function"
    },
    {
      "inputs": [
        {
          "internalType": "address",
          "name": "owner",
          "type": "address"
        }
      ],
      "name": "balanceOf",
      "outputs": [
        {
          "internalType": "uint256",
          "name": "",
          "type": "uint256"
        }
      ],
      "stateMutability": "view",
      "type": "function"
    },
    {
      "inputs": [
        {
          "internalType": "uint256",
          "name": "contentId",
          "type": "uint256"
        }
      ],
      "name": "contentDistributorOf",
      "outputs": [
        {
          "internalType": "address",
          "name": "",
          "type": "address"
        }
      ],
      "stateMutability": "view",
      "type": "function"
    },
    {
      "inputs": [
        {
          "internalType": "uint256",
          "name": "tokenId",
          "type": "uint256"
        }
      ],
      "name": "contentOf",
      "outputs": [
        {
          "internalType": "uint256",
          "name": "",
          "type": "uint256"
        }
      ],
      "stateMutability": "view",
      "type": "function"
    },
    {
      "inputs": [],
      "name": "countOfContent",
      "outputs": [
        {
          "internalType": "uint256",
          "name": "",
          "type": "uint256"
        }
      ],
      "stateMutability": "view",
      "type": "function"
    },
    {
      "inputs": [],
      "name": "countOfNFT",
      "outputs": [
        {
          "internalType": "uint256",
          "name": "",
          "type": "uint256"
        }
      ],
      "stateMutability": "view",
      "type": "function"
    },
    {
      "inputs": [
        {
          "internalType": "uint256",
          "name": "tokenId",
          "type": "uint256"
        }
      ],
      "name": "getApproved",
      "outputs": [
        {
          "internalType": "address",
          "name": "",
          "type": "address"
        }
      ],
      "stateMutability": "view",
      "type": "function"
    },
    {
      "inputs": [
        {
          "internalType": "address",
          "name": "owner",
          "type": "address"
        },
        {
          "internalType": "uint256",
          "name": "contentId",
          "type": "uint256"
        }
      ],
      "name": "hasNFTForContent",
      "outputs": [
        {
          "internalType": "bool",
          "name": "",
          "type": "bool"
        }
      ],
      "stateMutability": "view",
      "type": "function"
    },
    {
      "inputs": [
        {
          "internalType": "address",
          "name": "owner",
          "type": "address"
        },
        {
          "internalType": "address",
          "name": "operator",
          "type": "address"
        }
      ],
      "name": "isApprovedForAll",
      "outputs": [
        {
          "internalType": "bool",
          "name": "",
          "type": "bool"
        }
      ],
      "stateMutability": "view",
      "type": "function"
    },
    {
      "inputs": [
        {
          "internalType": "address",
          "name": "addr",
          "type": "address"
        }
      ],
      "name": "isContentServer",
      "outputs": [
        {
          "internalType": "bool",
          "name": "",
          "type": "bool"
        }
      ],
      "stateMutability": "view",
      "type": "function"
    },
    {
      "inputs": [
        {
          "internalType": "address",
          "name": "to",
          "type": "address"
        },
        {
          "internalType": "uint256",
          "name": "contentId",
          "type": "uint256"
        }
      ],
      "name": "mint",
      "outputs": [
        {
          "internalType": "uint256",
          "name": "",
          "type": "uint256"
        }
      ],
      "stateMutability": "nonpayable",
      "type": "function"
    },
    {
      "inputs": [],
      "name": "name",
      "outputs": [
        {
          "internalType": "string",
          "name": "",
          "type": "string"
        }
      ],
      "stateMutability": "view",
      "type": "function"
    },
    {
      "inputs": [
        {
          "internalType": "uint256",
          "name": "contentId",
          "type": "uint256"
        },
        {
          "internalType": "address",
          "name": "contentOwner",
          "type": "address"
        },
        {
          "internalType": "bytes",
          "name": "signature",
          "type": "bytes"
        }
      ],
      "name": "newContent",
      "outputs": [],
      "stateMutability": "nonpayable",
      "type": "function"
    },
    {
      "inputs": [],
      "name": "newContentId",
      "outputs": [
        {
          "internalType": "uint256",
          "name": "",
          "type": "uint256"
        }
      ],
      "stateMutability": "nonpayable",
      "type": "function"
    },
    {
      "inputs": [],
      "name": "owner",
      "outputs": [
        {
          "internalType": "address",
          "name": "",
          "type": "address"
        }
      ],
      "stateMutability": "view",
      "type": "function"
    },
    {
      "inputs": [
        {
          "internalType": "uint256",
          "name": "tokenId",
          "type": "uint256"
        }
      ],
      "name": "ownerOf",
      "outputs": [
        {
          "internalType": "address",
          "name": "",
          "type": "address"
        }
      ],
      "stateMutability": "view",
      "type": "function"
    },
    {
      "inputs": [],
      "name": "renounceOwnership",
      "outputs": [],
      "stateMutability": "nonpayable",
      "type": "function"
    },
    {
      "inputs": [
        {
          "internalType": "address",
          "name": "from",
          "type": "address"
        },
        {
          "internalType": "address",
          "name": "to",
          "type": "address"
        },
        {
          "internalType": "uint256",
          "name": "tokenId",
          "type": "uint256"
        }
      ],
      "name": "safeTransferFrom",
      "outputs": [],
      "stateMutability": "nonpayable",
      "type": "function"
    },
    {
      "inputs": [
        {
          "internalType": "address",
          "name": "from",
          "type": "address"
        },
        {
          "internalType": "address",
          "name": "to",
          "type": "address"
        },
        {
          "internalType": "uint256",
          "name": "tokenId",
          "type": "uint256"
        },
        {
          "internalType": "bytes",
          "name": "_data",
          "type": "bytes"
        }
      ],
      "name": "safeTransferFrom",
      "outputs": [],
      "stateMutability": "nonpayable",
      "type": "function"
    },
    {
      "inputs": [
        {
          "internalType": "address",
          "name": "operator",
          "type": "address"
        },
        {
          "internalType": "bool",
          "name": "approved",
          "type": "bool"
        }
      ],
      "name": "setApprovalForAll",
      "outputs": [],
      "stateMutability": "nonpayable",
      "type": "function"
    },
    {
      "inputs": [
        {
          "internalType": "string",
          "name": "baseURI",
          "type": "string"
        }
      ],
      "name": "setBaseTokenURI",
      "outputs": [],
      "stateMutability": "nonpayable",
      "type": "function"
    },
    {
      "inputs": [
        {
          "internalType": "address",
          "name": "contentServer",
          "type": "address"
        },
        {
          "internalType": "bool",
          "name": "set",
          "type": "bool"
        }
      ],
      "name": "setContentServer",
      "outputs": [],
      "stateMutability": "nonpayable",
      "type": "function"
    },
    {
      "inputs": [
        {
          "internalType": "bytes4",
          "name": "interfaceId",
          "type": "bytes4"
        }
      ],
      "name": "supportsInterface",
      "outputs": [
        {
          "internalType": "bool",
          "name": "",
          "type": "bool"
        }
      ],
      "stateMutability": "view",
      "type": "function"
    },
    {
      "inputs": [],
      "name": "symbol",
      "outputs": [
        {
          "internalType": "string",
          "name": "",
          "type": "string"
        }
      ],
      "stateMutability": "view",
      "type": "function"
    },
    {
      "inputs": [
        {
          "internalType": "uint256",
          "name": "tokenId",
          "type": "uint256"
        }
      ],
      "name": "tokenURI",
      "outputs": [
        {
          "internalType": "string",
          "name": "",
          "type": "string"
        }
      ],
      "stateMutability": "view",
      "type": "function"
    },
    {
      "inputs": [
        {
          "internalType": "uint256",
          "name": "contentId",
          "type": "uint256"
        },
        {
          "internalType": "address",
          "name": "newOwner",
          "type": "address"
        }
      ],
      "name": "transferContentRights",
      "outputs": [
        {
          "internalType": "bool",
          "name": "",
          "type": "bool"
        }
      ],
      "stateMutability": "nonpayable",
      "type": "function"
    },
    {
      "inputs": [
        {
          "internalType": "address",
          "name": "from",
          "type": "address"
        },
        {
          "internalType": "address",
          "name": "to",
          "type": "address"
        },
        {
          "internalType": "uint256",
          "name": "tokenId",
          "type": "uint256"
        }
      ],
      "name": "transferFrom",
      "outputs": [],
      "stateMutability": "nonpayable",
      "type": "function"
    },
    {
      "inputs": [
        {
          "internalType": "address",
          "name": "newOwner",
          "type": "address"
        }
      ],
      "name": "transferOwnership",
      "outputs": [],
      "stateMutability": "nonpayable",
      "type": "function"
    },
    {
      "inputs": [],
      "name": "withdraw",
      "outputs": [],
      "stateMutability": "nonpayable",
      "type": "function"
    }
  ],
  "bytecode": "0x60806040523480156200001157600080fd5b506040518060400160405280601881526020017f4e465420436f6e74656e7420506c617965722050726f6f6600000000000000008152506040518060400160405280600481526020017f4e43505000000000000000000000000000000000000000000000000000000000815250816000908051906020019062000096929190620001f4565b508060019080519060200190620000af929190620001f4565b505050620000d2620000c66200012660201b60201c565b6200012e60201b60201c565b6040518060400160405280600d81526020017f68747470733a2f2f697066732f00000000000000000000000000000000000000815250600c90805190602001906200011f929190620001f4565b5062000309565b600033905090565b6000600660009054906101000a900473ffffffffffffffffffffffffffffffffffffffff16905081600660006101000a81548173ffffffffffffffffffffffffffffffffffffffff021916908373ffffffffffffffffffffffffffffffffffffffff1602179055508173ffffffffffffffffffffffffffffffffffffffff168173ffffffffffffffffffffffffffffffffffffffff167f8be0079c531659141344cd1fd0a4f28419497f9722a3daafe3b4186f6b6457e060405160405180910390a35050565b8280546200020290620002a4565b90600052602060002090601f01602090048101928262000226576000855562000272565b82601f106200024157805160ff191683800117855562000272565b8280016001018555821562000272579182015b828111156200027157825182559160200191906001019062000254565b5b50905062000281919062000285565b5090565b5b80821115620002a057600081600090555060010162000286565b5090565b60006002820490506001821680620002bd57607f821691505b60208210811415620002d457620002d3620002da565b5b50919050565b7f4e487b7100000000000000000000000000000000000000000000000000000000600052602260045260246000fd5b61434a80620003196000396000f3fe608060405234801561001057600080fd5b50600436106101cf5760003560e01c80636352211e11610104578063a22cb465116100a2578063d4a8478111610071578063d4a847811461053e578063e985e9c51461055c578063f2fde38b1461058c578063f9da9c5a146105a8576101cf565b8063a22cb465146104a6578063aae0ca62146104c2578063b88d4fde146104f2578063c87b56dd1461050e576101cf565b806371ca59ca116100de57806371ca59ca1461040a57806389c61dc21461043a5780638da5cb5b1461046a57806395d89b4114610488576101cf565b80636352211e146103a057806370a08231146103d0578063715018a614610400576101cf565b806327427e31116101715780633ccfd60b1161014b5780633ccfd60b1461032e57806340c10f191461033857806342842e0e1461036857806361aad37b14610384576101cf565b806327427e31146102c457806330176e13146102f457806334cd507514610310576101cf565b8063081812fc116101ad578063081812fc14610240578063095ea7b3146102705780631690a5a61461028c57806323b872dd146102a8576101cf565b806301ffc9a7146101d457806306fdde03146102045780630737b4f714610222575b600080fd5b6101ee60048036038101906101e99190612d6e565b6105d8565b6040516101fb9190613476565b60405180910390f35b61020c6106ba565b60405161021991906134d6565b60405180910390f35b61022a61074c565b60405161023791906137f8565b60405180910390f35b61025a60048036038101906102559190612e01565b6107e9565b604051610267919061340f565b60405180910390f35b61028a60048036038101906102859190612d32565b61086e565b005b6102a660048036038101906102a19190612e66565b610986565b005b6102c260048036038101906102bd9190612c2c565b610b04565b005b6102de60048036038101906102d99190612e01565b610b64565b6040516102eb91906137f8565b60405180910390f35b61030e60048036038101906103099190612dc0565b610b81565b005b610318610c17565b60405161032591906137f8565b60405180910390f35b610336610c28565b005b610352600480360381019061034d9190612d32565b610ced565b60405161035f91906137f8565b60405180910390f35b610382600480360381019061037d9190612c2c565b610e29565b005b61039e60048036038101906103999190612cf6565b610e49565b005b6103ba60048036038101906103b59190612e01565b610f20565b6040516103c7919061340f565b60405180910390f35b6103ea60048036038101906103e59190612bc7565b610fd2565b6040516103f791906137f8565b60405180910390f35b61040861108a565b005b610424600480360381019061041f9190612e01565b611112565b604051610431919061340f565b60405180910390f35b610454600480360381019061044f9190612d32565b61114f565b6040516104619190613476565b60405180910390f35b6104726111e1565b60405161047f919061340f565b60405180910390f35b61049061120b565b60405161049d91906134d6565b60405180910390f35b6104c060048036038101906104bb9190612cf6565b61129d565b005b6104dc60048036038101906104d79190612bc7565b6112b3565b6040516104e99190613476565b60405180910390f35b61050c60048036038101906105079190612c7b565b611385565b005b61052860048036038101906105239190612e01565b6113e7565b60405161053591906134d6565b60405180910390f35b610546611496565b60405161055391906137f8565b60405180910390f35b61057660048036038101906105719190612bf0565b6114a7565b6040516105839190613476565b60405180910390f35b6105a660048036038101906105a19190612bc7565b61153b565b005b6105c260048036038101906105bd9190612e2a565b611633565b6040516105cf9190613476565b60405180910390f35b60007f80ac58cd000000000000000000000000000000000000000000000000000000007bffffffffffffffffffffffffffffffffffffffffffffffffffffffff1916827bffffffffffffffffffffffffffffffffffffffffffffffffffffffff191614806106a357507f5b5e139f000000000000000000000000000000000000000000000000000000007bffffffffffffffffffffffffffffffffffffffffffffffffffffffff1916827bffffffffffffffffffffffffffffffffffffffffffffffffffffffff1916145b806106b357506106b2826116d0565b5b9050919050565b6060600080546106c990613a65565b80601f01602080910402602001604051908101604052809291908181526020018280546106f590613a65565b80156107425780601f1061071757610100808354040283529160200191610742565b820191906000526020600020905b81548152906001019060200180831161072557829003601f168201915b5050505050905090565b600061075661173a565b73ffffffffffffffffffffffffffffffffffffffff166107746111e1565b73ffffffffffffffffffffffffffffffffffffffff16146107ca576040517f08c379a00000000000000000000000000000000000000000000000000000000081526004016107c190613738565b60405180910390fd5b60006107d66008611742565b90506107e26008611750565b8091505090565b60006107f482611766565b610833576040517f08c379a000000000000000000000000000000000000000000000000000000000815260040161082a90613718565b60405180910390fd5b6004600083815260200190815260200160002060009054906101000a900473ffffffffffffffffffffffffffffffffffffffff169050919050565b600061087982610f20565b90508073ffffffffffffffffffffffffffffffffffffffff168373ffffffffffffffffffffffffffffffffffffffff1614156108ea576040517f08c379a00000000000000000000000000000000000000000000000000000000081526004016108e190613778565b60405180910390fd5b8073ffffffffffffffffffffffffffffffffffffffff1661090961173a565b73ffffffffffffffffffffffffffffffffffffffff16148061093857506109378161093261173a565b6114a7565b5b610977576040517f08c379a000000000000000000000000000000000000000000000000000000000815260040161096e90613678565b60405180910390fd5b61098183836117d2565b505050565b600073ffffffffffffffffffffffffffffffffffffffff16600b600085815260200190815260200160002060009054906101000a900473ffffffffffffffffffffffffffffffffffffffff1673ffffffffffffffffffffffffffffffffffffffff1614610a28576040517f08c379a0000000000000000000000000000000000000000000000000000000008152600401610a1f906137d8565b60405180910390fd5b60008284604051602001610a3d92919061338e565b6040516020818303038152906040528051906020012090506000610a61828461188b565b9050610a6c816112b3565b610aab576040517f08c379a0000000000000000000000000000000000000000000000000000000008152600401610aa290613558565b60405180910390fd5b83600b600087815260200190815260200160002060006101000a81548173ffffffffffffffffffffffffffffffffffffffff021916908373ffffffffffffffffffffffffffffffffffffffff1602179055505050505050565b610b15610b0f61173a565b826118d3565b610b54576040517f08c379a0000000000000000000000000000000000000000000000000000000008152600401610b4b906137b8565b60405180910390fd5b610b5f8383836119b1565b505050565b6000600a6000838152602001908152602001600020549050919050565b610b8961173a565b73ffffffffffffffffffffffffffffffffffffffff16610ba76111e1565b73ffffffffffffffffffffffffffffffffffffffff1614610bfd576040517f08c379a0000000000000000000000000000000000000000000000000000000008152600401610bf490613738565b60405180910390fd5b80600c9080519060200190610c139291906129eb565b5050565b6000610c236008611742565b905090565b610c3061173a565b73ffffffffffffffffffffffffffffffffffffffff16610c4e6111e1565b73ffffffffffffffffffffffffffffffffffffffff1614610ca4576040517f08c379a0000000000000000000000000000000000000000000000000000000008152600401610c9b90613738565b60405180910390fd5b3373ffffffffffffffffffffffffffffffffffffffff166108fc479081150290604051600060405180830381858888f19350505050158015610cea573d6000803e3d6000fd5b50565b60003373ffffffffffffffffffffffffffffffffffffffff16610d0f83611112565b73ffffffffffffffffffffffffffffffffffffffff1614610d65576040517f08c379a0000000000000000000000000000000000000000000000000000000008152600401610d5c90613798565b60405180910390fd5b610d6f838361114f565b15610daf576040517f08c379a0000000000000000000000000000000000000000000000000000000008152600401610da6906135f8565b60405180910390fd5b6000610dbb6007611742565b9050610dc76007611750565b610dd18482611c18565b8373ffffffffffffffffffffffffffffffffffffffff167f1f89f147a58d1673945cf416187db98efc8208408c011b91887acd59fd8523c384604051610e1791906137f8565b60405180910390a28091505092915050565b610e4483838360405180602001604052806000815250611385565b505050565b610e5161173a565b73ffffffffffffffffffffffffffffffffffffffff16610e6f6111e1565b73ffffffffffffffffffffffffffffffffffffffff1614610ec5576040517f08c379a0000000000000000000000000000000000000000000000000000000008152600401610ebc90613738565b60405180910390fd5b80600960008473ffffffffffffffffffffffffffffffffffffffff1673ffffffffffffffffffffffffffffffffffffffff16815260200190815260200160002060006101000a81548160ff0219169083151502179055505050565b6000806002600084815260200190815260200160002060009054906101000a900473ffffffffffffffffffffffffffffffffffffffff169050600073ffffffffffffffffffffffffffffffffffffffff168173ffffffffffffffffffffffffffffffffffffffff161415610fc9576040517f08c379a0000000000000000000000000000000000000000000000000000000008152600401610fc0906136b8565b60405180910390fd5b80915050919050565b60008073ffffffffffffffffffffffffffffffffffffffff168273ffffffffffffffffffffffffffffffffffffffff161415611043576040517f08c379a000000000000000000000000000000000000000000000000000000000815260040161103a90613698565b60405180910390fd5b600360008373ffffffffffffffffffffffffffffffffffffffff1673ffffffffffffffffffffffffffffffffffffffff168152602001908152602001600020549050919050565b61109261173a565b73ffffffffffffffffffffffffffffffffffffffff166110b06111e1565b73ffffffffffffffffffffffffffffffffffffffff1614611106576040517f08c379a00000000000000000000000000000000000000000000000000000000081526004016110fd90613738565b60405180910390fd5b6111106000611df2565b565b6000600b600083815260200190815260200160002060009054906101000a900473ffffffffffffffffffffffffffffffffffffffff169050919050565b60008061115a611496565b905060005b818110156111d4578473ffffffffffffffffffffffffffffffffffffffff1661118782610f20565b73ffffffffffffffffffffffffffffffffffffffff161480156111b15750836111af82610b64565b145b156111c1576001925050506111db565b80806111cc90613ac8565b91505061115f565b5060009150505b92915050565b6000600660009054906101000a900473ffffffffffffffffffffffffffffffffffffffff16905090565b60606001805461121a90613a65565b80601f016020809104026020016040519081016040528092919081815260200182805461124690613a65565b80156112935780601f1061126857610100808354040283529160200191611293565b820191906000526020600020905b81548152906001019060200180831161127657829003601f168201915b5050505050905090565b6112af6112a861173a565b8383611eb8565b5050565b60006112bd61173a565b73ffffffffffffffffffffffffffffffffffffffff166112db6111e1565b73ffffffffffffffffffffffffffffffffffffffff1614611331576040517f08c379a000000000000000000000000000000000000000000000000000000000815260040161132890613738565b60405180910390fd5b600960008373ffffffffffffffffffffffffffffffffffffffff1673ffffffffffffffffffffffffffffffffffffffff16815260200190815260200160002060009054906101000a900460ff169050919050565b61139661139061173a565b836118d3565b6113d5576040517f08c379a00000000000000000000000000000000000000000000000000000000081526004016113cc906137b8565b60405180910390fd5b6113e184848484612025565b50505050565b60606113f282611766565b611431576040517f08c379a000000000000000000000000000000000000000000000000000000000815260040161142890613758565b60405180910390fd5b600061143b612081565b9050600081511161145b576040518060200160405280600081525061148e565b8061146d61146885610b64565b612113565b60405160200161147e9291906133ba565b6040516020818303038152906040525b915050919050565b60006114a26007611742565b905090565b6000600560008473ffffffffffffffffffffffffffffffffffffffff1673ffffffffffffffffffffffffffffffffffffffff16815260200190815260200160002060008373ffffffffffffffffffffffffffffffffffffffff1673ffffffffffffffffffffffffffffffffffffffff16815260200190815260200160002060009054906101000a900460ff16905092915050565b61154361173a565b73ffffffffffffffffffffffffffffffffffffffff166115616111e1565b73ffffffffffffffffffffffffffffffffffffffff16146115b7576040517f08c379a00000000000000000000000000000000000000000000000000000000081526004016115ae90613738565b60405180910390fd5b600073ffffffffffffffffffffffffffffffffffffffff168173ffffffffffffffffffffffffffffffffffffffff161415611627576040517f08c379a000000000000000000000000000000000000000000000000000000000815260040161161e90613578565b60405180910390fd5b61163081611df2565b50565b60008061163e611496565b905060005b818110156116c3573373ffffffffffffffffffffffffffffffffffffffff1661166b82610f20565b73ffffffffffffffffffffffffffffffffffffffff1614801561169557508461169382610b64565b145b156116b0576116a53385836119b1565b6001925050506116ca565b80806116bb90613ac8565b915050611643565b5060009150505b92915050565b60007f01ffc9a7000000000000000000000000000000000000000000000000000000007bffffffffffffffffffffffffffffffffffffffffffffffffffffffff1916827bffffffffffffffffffffffffffffffffffffffffffffffffffffffff1916149050919050565b600033905090565b600081600001549050919050565b6001816000016000828254019250508190555050565b60008073ffffffffffffffffffffffffffffffffffffffff166002600084815260200190815260200160002060009054906101000a900473ffffffffffffffffffffffffffffffffffffffff1673ffffffffffffffffffffffffffffffffffffffff1614159050919050565b816004600083815260200190815260200160002060006101000a81548173ffffffffffffffffffffffffffffffffffffffff021916908373ffffffffffffffffffffffffffffffffffffffff160217905550808273ffffffffffffffffffffffffffffffffffffffff1661184583610f20565b73ffffffffffffffffffffffffffffffffffffffff167f8c5be1e5ebec7d5bd14f71427d1e84f3dd0314c0f7b2291e5b200ac8c7c3b92560405160405180910390a45050565b6000808360405160200161189f91906133e9565b6040516020818303038152906040528051906020012090506118ca83826122c090919063ffffffff16565b91505092915050565b60006118de82611766565b61191d576040517f08c379a000000000000000000000000000000000000000000000000000000000815260040161191490613658565b60405180910390fd5b600061192883610f20565b90508073ffffffffffffffffffffffffffffffffffffffff168473ffffffffffffffffffffffffffffffffffffffff16148061199757508373ffffffffffffffffffffffffffffffffffffffff1661197f846107e9565b73ffffffffffffffffffffffffffffffffffffffff16145b806119a857506119a781856114a7565b5b91505092915050565b8273ffffffffffffffffffffffffffffffffffffffff166119d182610f20565b73ffffffffffffffffffffffffffffffffffffffff1614611a27576040517f08c379a0000000000000000000000000000000000000000000000000000000008152600401611a1e90613598565b60405180910390fd5b600073ffffffffffffffffffffffffffffffffffffffff168273ffffffffffffffffffffffffffffffffffffffff161415611a97576040517f08c379a0000000000000000000000000000000000000000000000000000000008152600401611a8e906135d8565b60405180910390fd5b611aa28383836122e7565b611aad6000826117d2565b6001600360008573ffffffffffffffffffffffffffffffffffffffff1673ffffffffffffffffffffffffffffffffffffffff1681526020019081526020016000206000828254611afd9190613964565b925050819055506001600360008473ffffffffffffffffffffffffffffffffffffffff1673ffffffffffffffffffffffffffffffffffffffff1681526020019081526020016000206000828254611b5491906138dd565b92505081905550816002600083815260200190815260200160002060006101000a81548173ffffffffffffffffffffffffffffffffffffffff021916908373ffffffffffffffffffffffffffffffffffffffff160217905550808273ffffffffffffffffffffffffffffffffffffffff168473ffffffffffffffffffffffffffffffffffffffff167fddf252ad1be2c89b69c2b068fc378daa952ba7f163c4a11628f55a4df523b3ef60405160405180910390a4611c138383836122ec565b505050565b600073ffffffffffffffffffffffffffffffffffffffff168273ffffffffffffffffffffffffffffffffffffffff161415611c88576040517f08c379a0000000000000000000000000000000000000000000000000000000008152600401611c7f906136f8565b60405180910390fd5b611c9181611766565b15611cd1576040517f08c379a0000000000000000000000000000000000000000000000000000000008152600401611cc8906135b8565b60405180910390fd5b611cdd600083836122e7565b6001600360008473ffffffffffffffffffffffffffffffffffffffff1673ffffffffffffffffffffffffffffffffffffffff1681526020019081526020016000206000828254611d2d91906138dd565b92505081905550816002600083815260200190815260200160002060006101000a81548173ffffffffffffffffffffffffffffffffffffffff021916908373ffffffffffffffffffffffffffffffffffffffff160217905550808273ffffffffffffffffffffffffffffffffffffffff16600073ffffffffffffffffffffffffffffffffffffffff167fddf252ad1be2c89b69c2b068fc378daa952ba7f163c4a11628f55a4df523b3ef60405160405180910390a4611dee600083836122ec565b5050565b6000600660009054906101000a900473ffffffffffffffffffffffffffffffffffffffff16905081600660006101000a81548173ffffffffffffffffffffffffffffffffffffffff021916908373ffffffffffffffffffffffffffffffffffffffff1602179055508173ffffffffffffffffffffffffffffffffffffffff168173ffffffffffffffffffffffffffffffffffffffff167f8be0079c531659141344cd1fd0a4f28419497f9722a3daafe3b4186f6b6457e060405160405180910390a35050565b8173ffffffffffffffffffffffffffffffffffffffff168373ffffffffffffffffffffffffffffffffffffffff161415611f27576040517f08c379a0000000000000000000000000000000000000000000000000000000008152600401611f1e90613618565b60405180910390fd5b80600560008573ffffffffffffffffffffffffffffffffffffffff1673ffffffffffffffffffffffffffffffffffffffff16815260200190815260200160002060008473ffffffffffffffffffffffffffffffffffffffff1673ffffffffffffffffffffffffffffffffffffffff16815260200190815260200160002060006101000a81548160ff0219169083151502179055508173ffffffffffffffffffffffffffffffffffffffff168373ffffffffffffffffffffffffffffffffffffffff167f17307eab39ab6107e8899845ad3d59bd9653f200f220920489ca2b5937696c31836040516120189190613476565b60405180910390a3505050565b6120308484846119b1565b61203c848484846122f1565b61207b576040517f08c379a000000000000000000000000000000000000000000000000000000000815260040161207290613538565b60405180910390fd5b50505050565b6060600c805461209090613a65565b80601f01602080910402602001604051908101604052809291908181526020018280546120bc90613a65565b80156121095780601f106120de57610100808354040283529160200191612109565b820191906000526020600020905b8154815290600101906020018083116120ec57829003601f168201915b5050505050905090565b6060600082141561215b576040518060400160405280600181526020017f300000000000000000000000000000000000000000000000000000000000000081525090506122bb565b600082905060005b6000821461218d57808061217690613ac8565b915050600a826121869190613933565b9150612163565b60008167ffffffffffffffff8111156121cf577f4e487b7100000000000000000000000000000000000000000000000000000000600052604160045260246000fd5b6040519080825280601f01601f1916602001820160405280156122015781602001600182028036833780820191505090505b5090505b600085146122b45760018261221a9190613964565b9150600a856122299190613b49565b603061223591906138dd565b60f81b818381518110612271577f4e487b7100000000000000000000000000000000000000000000000000000000600052603260045260246000fd5b60200101907effffffffffffffffffffffffffffffffffffffffffffffffffffffffffffff1916908160001a905350600a856122ad9190613933565b9450612205565b8093505050505b919050565b60008060006122cf8585612488565b915091506122dc8161250b565b819250505092915050565b505050565b505050565b60006123128473ffffffffffffffffffffffffffffffffffffffff1661285c565b1561247b578373ffffffffffffffffffffffffffffffffffffffff1663150b7a0261233b61173a565b8786866040518563ffffffff1660e01b815260040161235d949392919061342a565b602060405180830381600087803b15801561237757600080fd5b505af19250505080156123a857506040513d601f19601f820116820180604052508101906123a59190612d97565b60015b61242b573d80600081146123d8576040519150601f19603f3d011682016040523d82523d6000602084013e6123dd565b606091505b50600081511415612423576040517f08c379a000000000000000000000000000000000000000000000000000000000815260040161241a90613538565b60405180910390fd5b805181602001fd5b63150b7a0260e01b7bffffffffffffffffffffffffffffffffffffffffffffffffffffffff1916817bffffffffffffffffffffffffffffffffffffffffffffffffffffffff191614915050612480565b600190505b949350505050565b6000806041835114156124ca5760008060006020860151925060408601519150606086015160001a90506124be8782858561287f565b94509450505050612504565b6040835114156124fb5760008060208501519150604085015190506124f086838361298c565b935093505050612504565b60006002915091505b9250929050565b60006004811115612545577f4e487b7100000000000000000000000000000000000000000000000000000000600052602160045260246000fd5b81600481111561257e577f4e487b7100000000000000000000000000000000000000000000000000000000600052602160045260246000fd5b141561258957612859565b600160048111156125c3577f4e487b7100000000000000000000000000000000000000000000000000000000600052602160045260246000fd5b8160048111156125fc577f4e487b7100000000000000000000000000000000000000000000000000000000600052602160045260246000fd5b141561263d576040517f08c379a0000000000000000000000000000000000000000000000000000000008152600401612634906134f8565b60405180910390fd5b60026004811115612677577f4e487b7100000000000000000000000000000000000000000000000000000000600052602160045260246000fd5b8160048111156126b0577f4e487b7100000000000000000000000000000000000000000000000000000000600052602160045260246000fd5b14156126f1576040517f08c379a00000000000000000000000000000000000000000000000000000000081526004016126e890613518565b60405180910390fd5b6003600481111561272b577f4e487b7100000000000000000000000000000000000000000000000000000000600052602160045260246000fd5b816004811115612764577f4e487b7100000000000000000000000000000000000000000000000000000000600052602160045260246000fd5b14156127a5576040517f08c379a000000000000000000000000000000000000000000000000000000000815260040161279c90613638565b60405180910390fd5b6004808111156127de577f4e487b7100000000000000000000000000000000000000000000000000000000600052602160045260246000fd5b816004811115612817577f4e487b7100000000000000000000000000000000000000000000000000000000600052602160045260246000fd5b1415612858576040517f08c379a000000000000000000000000000000000000000000000000000000000815260040161284f906136d8565b60405180910390fd5b5b50565b6000808273ffffffffffffffffffffffffffffffffffffffff163b119050919050565b6000807f7fffffffffffffffffffffffffffffff5d576e7357a4501ddfe92f46681b20a08360001c11156128ba576000600391509150612983565b601b8560ff16141580156128d25750601c8560ff1614155b156128e4576000600491509150612983565b6000600187878787604051600081526020016040526040516129099493929190613491565b6020604051602081039080840390855afa15801561292b573d6000803e3d6000fd5b505050602060405103519050600073ffffffffffffffffffffffffffffffffffffffff168173ffffffffffffffffffffffffffffffffffffffff16141561297a57600060019250925050612983565b80600092509250505b94509492505050565b60008060007f7fffffffffffffffffffffffffffffffffffffffffffffffffffffffffffffff60001b841690506000601b60ff8660001c901c6129cf91906138dd565b90506129dd8782888561287f565b935093505050935093915050565b8280546129f790613a65565b90600052602060002090601f016020900481019282612a195760008555612a60565b82601f10612a3257805160ff1916838001178555612a60565b82800160010185558215612a60579182015b82811115612a5f578251825591602001919060010190612a44565b5b509050612a6d9190612a71565b5090565b5b80821115612a8a576000816000905550600101612a72565b5090565b6000612aa1612a9c84613838565b613813565b905082815260208101848484011115612ab957600080fd5b612ac4848285613a23565b509392505050565b6000612adf612ada84613869565b613813565b905082815260208101848484011115612af757600080fd5b612b02848285613a23565b509392505050565b600081359050612b19816142b8565b92915050565b600081359050612b2e816142cf565b92915050565b600081359050612b43816142e6565b92915050565b600081519050612b58816142e6565b92915050565b600082601f830112612b6f57600080fd5b8135612b7f848260208601612a8e565b91505092915050565b600082601f830112612b9957600080fd5b8135612ba9848260208601612acc565b91505092915050565b600081359050612bc1816142fd565b92915050565b600060208284031215612bd957600080fd5b6000612be784828501612b0a565b91505092915050565b60008060408385031215612c0357600080fd5b6000612c1185828601612b0a565b9250506020612c2285828601612b0a565b9150509250929050565b600080600060608486031215612c4157600080fd5b6000612c4f86828701612b0a565b9350506020612c6086828701612b0a565b9250506040612c7186828701612bb2565b9150509250925092565b60008060008060808587031215612c9157600080fd5b6000612c9f87828801612b0a565b9450506020612cb087828801612b0a565b9350506040612cc187828801612bb2565b925050606085013567ffffffffffffffff811115612cde57600080fd5b612cea87828801612b5e565b91505092959194509250565b60008060408385031215612d0957600080fd5b6000612d1785828601612b0a565b9250506020612d2885828601612b1f565b9150509250929050565b60008060408385031215612d4557600080fd5b6000612d5385828601612b0a565b9250506020612d6485828601612bb2565b9150509250929050565b600060208284031215612d8057600080fd5b6000612d8e84828501612b34565b91505092915050565b600060208284031215612da957600080fd5b6000612db784828501612b49565b91505092915050565b600060208284031215612dd257600080fd5b600082013567ffffffffffffffff811115612dec57600080fd5b612df884828501612b88565b91505092915050565b600060208284031215612e1357600080fd5b6000612e2184828501612bb2565b91505092915050565b60008060408385031215612e3d57600080fd5b6000612e4b85828601612bb2565b9250506020612e5c85828601612b0a565b9150509250929050565b600080600060608486031215612e7b57600080fd5b6000612e8986828701612bb2565b9350506020612e9a86828701612b0a565b925050604084013567ffffffffffffffff811115612eb757600080fd5b612ec386828701612b5e565b9150509250925092565b612ed681613998565b82525050565b612eed612ee882613998565b613b11565b82525050565b612efc816139aa565b82525050565b612f0b816139b6565b82525050565b612f22612f1d826139b6565b613b23565b82525050565b6000612f338261389a565b612f3d81856138b0565b9350612f4d818560208601613a32565b612f5681613c36565b840191505092915050565b6000612f6c826138a5565b612f7681856138c1565b9350612f86818560208601613a32565b612f8f81613c36565b840191505092915050565b6000612fa5826138a5565b612faf81856138d2565b9350612fbf818560208601613a32565b80840191505092915050565b6000612fd86018836138c1565b9150612fe382613c54565b602082019050919050565b6000612ffb601f836138c1565b915061300682613c7d565b602082019050919050565b600061301e601c836138d2565b915061302982613ca6565b601c82019050919050565b60006130416032836138c1565b915061304c82613ccf565b604082019050919050565b60006130646037836138c1565b915061306f82613d1e565b604082019050919050565b60006130876026836138c1565b915061309282613d6d565b604082019050919050565b60006130aa6025836138c1565b91506130b582613dbc565b604082019050919050565b60006130cd601c836138c1565b91506130d882613e0b565b602082019050919050565b60006130f06024836138c1565b91506130fb82613e34565b604082019050919050565b60006131136012836138c1565b915061311e82613e83565b602082019050919050565b60006131366019836138c1565b915061314182613eac565b602082019050919050565b60006131596022836138c1565b915061316482613ed5565b604082019050919050565b600061317c602c836138c1565b915061318782613f24565b604082019050919050565b600061319f6038836138c1565b91506131aa82613f73565b604082019050919050565b60006131c2602a836138c1565b91506131cd82613fc2565b604082019050919050565b60006131e56029836138c1565b91506131f082614011565b604082019050919050565b60006132086022836138c1565b915061321382614060565b604082019050919050565b600061322b6020836138c1565b9150613236826140af565b602082019050919050565b600061324e602c836138c1565b9150613259826140d8565b604082019050919050565b60006132716005836138d2565b915061327c82614127565b600582019050919050565b60006132946020836138c1565b915061329f82614150565b602082019050919050565b60006132b7602f836138c1565b91506132c282614179565b604082019050919050565b60006132da6021836138c1565b91506132e5826141c8565b604082019050919050565b60006132fd6017836138c1565b915061330882614217565b602082019050919050565b60006133206031836138c1565b915061332b82614240565b604082019050919050565b60006133436015836138c1565b915061334e8261428f565b602082019050919050565b61336281613a0c565b82525050565b61337961337482613a0c565b613b3f565b82525050565b61338881613a16565b82525050565b600061339a8285612edc565b6014820191506133aa8284613368565b6020820191508190509392505050565b60006133c68285612f9a565b91506133d28284612f9a565b91506133dd82613264565b91508190509392505050565b60006133f482613011565b91506134008284612f11565b60208201915081905092915050565b60006020820190506134246000830184612ecd565b92915050565b600060808201905061343f6000830187612ecd565b61344c6020830186612ecd565b6134596040830185613359565b818103606083015261346b8184612f28565b905095945050505050565b600060208201905061348b6000830184612ef3565b92915050565b60006080820190506134a66000830187612f02565b6134b3602083018661337f565b6134c06040830185612f02565b6134cd6060830184612f02565b95945050505050565b600060208201905081810360008301526134f08184612f61565b905092915050565b6000602082019050818103600083015261351181612fcb565b9050919050565b6000602082019050818103600083015261353181612fee565b9050919050565b6000602082019050818103600083015261355181613034565b9050919050565b6000602082019050818103600083015261357181613057565b9050919050565b600060208201905081810360008301526135918161307a565b9050919050565b600060208201905081810360008301526135b18161309d565b9050919050565b600060208201905081810360008301526135d1816130c0565b9050919050565b600060208201905081810360008301526135f1816130e3565b9050919050565b6000602082019050818103600083015261361181613106565b9050919050565b6000602082019050818103600083015261363181613129565b9050919050565b600060208201905081810360008301526136518161314c565b9050919050565b600060208201905081810360008301526136718161316f565b9050919050565b6000602082019050818103600083015261369181613192565b9050919050565b600060208201905081810360008301526136b1816131b5565b9050919050565b600060208201905081810360008301526136d1816131d8565b9050919050565b600060208201905081810360008301526136f1816131fb565b9050919050565b600060208201905081810360008301526137118161321e565b9050919050565b6000602082019050818103600083015261373181613241565b9050919050565b6000602082019050818103600083015261375181613287565b9050919050565b60006020820190508181036000830152613771816132aa565b9050919050565b60006020820190508181036000830152613791816132cd565b9050919050565b600060208201905081810360008301526137b1816132f0565b9050919050565b600060208201905081810360008301526137d181613313565b9050919050565b600060208201905081810360008301526137f181613336565b9050919050565b600060208201905061380d6000830184613359565b92915050565b600061381d61382e565b90506138298282613a97565b919050565b6000604051905090565b600067ffffffffffffffff82111561385357613852613c07565b5b61385c82613c36565b9050602081019050919050565b600067ffffffffffffffff82111561388457613883613c07565b5b61388d82613c36565b9050602081019050919050565b600081519050919050565b600081519050919050565b600082825260208201905092915050565b600082825260208201905092915050565b600081905092915050565b60006138e882613a0c565b91506138f383613a0c565b9250827fffffffffffffffffffffffffffffffffffffffffffffffffffffffffffffffff0382111561392857613927613b7a565b5b828201905092915050565b600061393e82613a0c565b915061394983613a0c565b92508261395957613958613ba9565b5b828204905092915050565b600061396f82613a0c565b915061397a83613a0c565b92508282101561398d5761398c613b7a565b5b828203905092915050565b60006139a3826139ec565b9050919050565b60008115159050919050565b6000819050919050565b60007fffffffff0000000000000000000000000000000000000000000000000000000082169050919050565b600073ffffffffffffffffffffffffffffffffffffffff82169050919050565b6000819050919050565b600060ff82169050919050565b82818337600083830152505050565b60005b83811015613a50578082015181840152602081019050613a35565b83811115613a5f576000848401525b50505050565b60006002820490506001821680613a7d57607f821691505b60208210811415613a9157613a90613bd8565b5b50919050565b613aa082613c36565b810181811067ffffffffffffffff82111715613abf57613abe613c07565b5b80604052505050565b6000613ad382613a0c565b91507fffffffffffffffffffffffffffffffffffffffffffffffffffffffffffffffff821415613b0657613b05613b7a565b5b600182019050919050565b6000613b1c82613b2d565b9050919050565b6000819050919050565b6000613b3882613c47565b9050919050565b6000819050919050565b6000613b5482613a0c565b9150613b5f83613a0c565b925082613b6f57613b6e613ba9565b5b828206905092915050565b7f4e487b7100000000000000000000000000000000000000000000000000000000600052601160045260246000fd5b7f4e487b7100000000000000000000000000000000000000000000000000000000600052601260045260246000fd5b7f4e487b7100000000000000000000000000000000000000000000000000000000600052602260045260246000fd5b7f4e487b7100000000000000000000000000000000000000000000000000000000600052604160045260246000fd5b6000601f19601f8301169050919050565b60008160601b9050919050565b7f45434453413a20696e76616c6964207369676e61747572650000000000000000600082015250565b7f45434453413a20696e76616c6964207369676e6174757265206c656e67746800600082015250565b7f19457468657265756d205369676e6564204d6573736167653a0a333200000000600082015250565b7f4552433732313a207472616e7366657220746f206e6f6e20455243373231526560008201527f63656976657220696d706c656d656e7465720000000000000000000000000000602082015250565b7f43616e27742063726561746520636f6e74656e74206265636175736520796f7560008201527f20617265206e6f7420636f6e74656e7420736572766572000000000000000000602082015250565b7f4f776e61626c653a206e6577206f776e657220697320746865207a65726f206160008201527f6464726573730000000000000000000000000000000000000000000000000000602082015250565b7f4552433732313a207472616e736665722066726f6d20696e636f72726563742060008201527f6f776e6572000000000000000000000000000000000000000000000000000000602082015250565b7f4552433732313a20746f6b656e20616c7265616479206d696e74656400000000600082015250565b7f4552433732313a207472616e7366657220746f20746865207a65726f2061646460008201527f7265737300000000000000000000000000000000000000000000000000000000602082015250565b7f4e465420616c7265616479206d696e7465640000000000000000000000000000600082015250565b7f4552433732313a20617070726f766520746f2063616c6c657200000000000000600082015250565b7f45434453413a20696e76616c6964207369676e6174757265202773272076616c60008201527f7565000000000000000000000000000000000000000000000000000000000000602082015250565b7f4552433732313a206f70657261746f7220717565727920666f72206e6f6e657860008201527f697374656e7420746f6b656e0000000000000000000000000000000000000000602082015250565b7f4552433732313a20617070726f76652063616c6c6572206973206e6f74206f7760008201527f6e6572206e6f7220617070726f76656420666f7220616c6c0000000000000000602082015250565b7f4552433732313a2062616c616e636520717565727920666f7220746865207a6560008201527f726f206164647265737300000000000000000000000000000000000000000000602082015250565b7f4552433732313a206f776e657220717565727920666f72206e6f6e657869737460008201527f656e7420746f6b656e0000000000000000000000000000000000000000000000602082015250565b7f45434453413a20696e76616c6964207369676e6174757265202776272076616c60008201527f7565000000000000000000000000000000000000000000000000000000000000602082015250565b7f4552433732313a206d696e7420746f20746865207a65726f2061646472657373600082015250565b7f4552433732313a20617070726f76656420717565727920666f72206e6f6e657860008201527f697374656e7420746f6b656e0000000000000000000000000000000000000000602082015250565b7f2e6a736f6e000000000000000000000000000000000000000000000000000000600082015250565b7f4f776e61626c653a2063616c6c6572206973206e6f7420746865206f776e6572600082015250565b7f4552433732314d657461646174613a2055524920717565727920666f72206e6f60008201527f6e6578697374656e7420746f6b656e0000000000000000000000000000000000602082015250565b7f4552433732313a20617070726f76616c20746f2063757272656e74206f776e6560008201527f7200000000000000000000000000000000000000000000000000000000000000602082015250565b7f596f752063616e2774206d696e742074686973204e4654000000000000000000600082015250565b7f4552433732313a207472616e736665722063616c6c6572206973206e6f74206f60008201527f776e6572206e6f7220617070726f766564000000000000000000000000000000602082015250565b7f436f6e74656e7420616c72656164792061646465640000000000000000000000600082015250565b6142c181613998565b81146142cc57600080fd5b50565b6142d8816139aa565b81146142e357600080fd5b50565b6142ef816139c0565b81146142fa57600080fd5b50565b61430681613a0c565b811461431157600080fd5b5056fea2646970667358221220a5e883228ad0e6f53fbef1e9f7c9a423d539ddaafacdd5c5295802f6cb03365864736f6c63430008040033",
  "linkReferences": {},
  "deployedLinkReferences": {}
}