{
  "_format": "hh-sol-artifact-1",
  "contractName": "NCPProof",
  "sourceName": "contracts/NCPProof.sol",
  "abi": [
    {
      "inputs": [],
      "stateMutability": "nonpayable",
      "type": "constructor"
    },
    {
      "anonymous": false,
      "inputs": [
        {
          "indexed": true,
          "internalType": "address",
          "name": "owner",
          "type": "address"
        },
        {
          "indexed": true,
          "internalType": "address",
          "name": "approved",
          "type": "address"
        },
        {
          "indexed": true,
          "internalType": "uint256",
          "name": "tokenId",
          "type": "uint256"
        }
      ],
      "name": "Approval",
      "type": "event"
    },
    {
      "anonymous": false,
      "inputs": [
        {
          "indexed": true,
          "internalType": "address",
          "name": "owner",
          "type": "address"
        },
        {
          "indexed": true,
          "internalType": "address",
          "name": "operator",
          "type": "address"
        },
        {
          "indexed": false,
          "internalType": "bool",
          "name": "approved",
          "type": "bool"
        }
      ],
      "name": "ApprovalForAll",
      "type": "event"
    },
    {
      "anonymous": false,
      "inputs": [
        {
          "indexed": true,
          "internalType": "address",
          "name": "_to",
          "type": "address"
        },
        {
          "indexed": false,
          "internalType": "uint256",
          "name": "_contentId",
          "type": "uint256"
        }
      ],
      "name": "MintNFT",
      "type": "event"
    },
    {
      "anonymous": false,
      "inputs": [
        {
          "indexed": true,
          "internalType": "address",
          "name": "previousOwner",
          "type": "address"
        },
        {
          "indexed": true,
          "internalType": "address",
          "name": "newOwner",
          "type": "address"
        }
      ],
      "name": "OwnershipTransferred",
      "type": "event"
    },
    {
      "anonymous": false,
      "inputs": [
        {
          "indexed": true,
          "internalType": "address",
          "name": "from",
          "type": "address"
        },
        {
          "indexed": true,
          "internalType": "address",
          "name": "to",
          "type": "address"
        },
        {
          "indexed": true,
          "internalType": "uint256",
          "name": "tokenId",
          "type": "uint256"
        }
      ],
      "name": "Transfer",
      "type": "event"
    },
    {
      "inputs": [
        {
          "internalType": "address",
          "name": "to",
          "type": "address"
        },
        {
          "internalType": "uint256",
          "name": "tokenId",
          "type": "uint256"
        }
      ],
      "name": "approve",
      "outputs": [],
      "stateMutability": "nonpayable",
      "type": "function"
    },
    {
      "inputs": [
        {
          "internalType": "address",
          "name": "owner",
          "type": "address"
        }
      ],
      "name": "balanceOf",
      "outputs": [
        {
          "internalType": "uint256",
          "name": "",
          "type": "uint256"
        }
      ],
      "stateMutability": "view",
      "type": "function"
    },
    {
      "inputs": [
        {
          "internalType": "uint256",
          "name": "contentId",
          "type": "uint256"
        }
      ],
      "name": "contentDistributorOf",
      "outputs": [
        {
          "internalType": "address",
          "name": "",
          "type": "address"
        }
      ],
      "stateMutability": "view",
      "type": "function"
    },
    {
      "inputs": [
        {
          "internalType": "uint256",
          "name": "tokenId",
          "type": "uint256"
        }
      ],
      "name": "contentOf",
      "outputs": [
        {
          "internalType": "uint256",
          "name": "",
          "type": "uint256"
        }
      ],
      "stateMutability": "view",
      "type": "function"
    },
    {
      "inputs": [],
      "name": "countOfNFT",
      "outputs": [
        {
          "internalType": "uint256",
          "name": "",
          "type": "uint256"
        }
      ],
      "stateMutability": "view",
      "type": "function"
    },
    {
      "inputs": [
        {
          "internalType": "uint256",
          "name": "tokenId",
          "type": "uint256"
        }
      ],
      "name": "getApproved",
      "outputs": [
        {
          "internalType": "address",
          "name": "",
          "type": "address"
        }
      ],
      "stateMutability": "view",
      "type": "function"
    },
    {
      "inputs": [
        {
          "internalType": "address",
          "name": "owner",
          "type": "address"
        },
        {
          "internalType": "uint256",
          "name": "contentId",
          "type": "uint256"
        }
      ],
      "name": "hasNFTForContent",
      "outputs": [
        {
          "internalType": "bool",
          "name": "",
          "type": "bool"
        }
      ],
      "stateMutability": "view",
      "type": "function"
    },
    {
      "inputs": [
        {
          "internalType": "address",
          "name": "owner",
          "type": "address"
        },
        {
          "internalType": "address",
          "name": "operator",
          "type": "address"
        }
      ],
      "name": "isApprovedForAll",
      "outputs": [
        {
          "internalType": "bool",
          "name": "",
          "type": "bool"
        }
      ],
      "stateMutability": "view",
      "type": "function"
    },
    {
      "inputs": [
        {
          "internalType": "address",
          "name": "addr",
          "type": "address"
        }
      ],
      "name": "isContentServer",
      "outputs": [
        {
          "internalType": "bool",
          "name": "",
          "type": "bool"
        }
      ],
      "stateMutability": "view",
      "type": "function"
    },
    {
      "inputs": [
        {
          "internalType": "uint256",
          "name": "contentId",
          "type": "uint256"
        }
      ],
      "name": "isSetted",
      "outputs": [
        {
          "internalType": "bool",
          "name": "",
          "type": "bool"
        }
      ],
      "stateMutability": "view",
      "type": "function"
    },
    {
      "inputs": [
        {
          "internalType": "address",
          "name": "to",
          "type": "address"
        },
        {
          "internalType": "uint256",
          "name": "contentId",
          "type": "uint256"
        }
      ],
      "name": "mint",
      "outputs": [
        {
          "internalType": "uint256",
          "name": "",
          "type": "uint256"
        }
      ],
      "stateMutability": "nonpayable",
      "type": "function"
    },
    {
      "inputs": [],
      "name": "name",
      "outputs": [
        {
          "internalType": "string",
          "name": "",
          "type": "string"
        }
      ],
      "stateMutability": "view",
      "type": "function"
    },
    {
      "inputs": [
        {
          "internalType": "uint256",
          "name": "contentId",
          "type": "uint256"
        },
        {
          "internalType": "address",
          "name": "contentOwner",
          "type": "address"
        },
        {
          "internalType": "bytes",
          "name": "signature",
          "type": "bytes"
        }
      ],
      "name": "newContent",
      "outputs": [],
      "stateMutability": "nonpayable",
      "type": "function"
    },
    {
      "inputs": [],
      "name": "owner",
      "outputs": [
        {
          "internalType": "address",
          "name": "",
          "type": "address"
        }
      ],
      "stateMutability": "view",
      "type": "function"
    },
    {
      "inputs": [
        {
          "internalType": "uint256",
          "name": "tokenId",
          "type": "uint256"
        }
      ],
      "name": "ownerOf",
      "outputs": [
        {
          "internalType": "address",
          "name": "",
          "type": "address"
        }
      ],
      "stateMutability": "view",
      "type": "function"
    },
    {
      "inputs": [],
      "name": "renounceOwnership",
      "outputs": [],
      "stateMutability": "nonpayable",
      "type": "function"
    },
    {
      "inputs": [
        {
          "internalType": "address",
          "name": "from",
          "type": "address"
        },
        {
          "internalType": "address",
          "name": "to",
          "type": "address"
        },
        {
          "internalType": "uint256",
          "name": "tokenId",
          "type": "uint256"
        }
      ],
      "name": "safeTransferFrom",
      "outputs": [],
      "stateMutability": "nonpayable",
      "type": "function"
    },
    {
      "inputs": [
        {
          "internalType": "address",
          "name": "from",
          "type": "address"
        },
        {
          "internalType": "address",
          "name": "to",
          "type": "address"
        },
        {
          "internalType": "uint256",
          "name": "tokenId",
          "type": "uint256"
        },
        {
          "internalType": "bytes",
          "name": "_data",
          "type": "bytes"
        }
      ],
      "name": "safeTransferFrom",
      "outputs": [],
      "stateMutability": "nonpayable",
      "type": "function"
    },
    {
      "inputs": [
        {
          "internalType": "address",
          "name": "operator",
          "type": "address"
        },
        {
          "internalType": "bool",
          "name": "approved",
          "type": "bool"
        }
      ],
      "name": "setApprovalForAll",
      "outputs": [],
      "stateMutability": "nonpayable",
      "type": "function"
    },
    {
      "inputs": [
        {
          "internalType": "string",
          "name": "baseURI",
          "type": "string"
        }
      ],
      "name": "setBaseTokenURI",
      "outputs": [],
      "stateMutability": "nonpayable",
      "type": "function"
    },
    {
      "inputs": [
        {
          "internalType": "address",
          "name": "contentServer",
          "type": "address"
        },
        {
          "internalType": "bool",
          "name": "set",
          "type": "bool"
        }
      ],
      "name": "setContentServer",
      "outputs": [],
      "stateMutability": "nonpayable",
      "type": "function"
    },
    {
      "inputs": [
        {
          "internalType": "bytes4",
          "name": "interfaceId",
          "type": "bytes4"
        }
      ],
      "name": "supportsInterface",
      "outputs": [
        {
          "internalType": "bool",
          "name": "",
          "type": "bool"
        }
      ],
      "stateMutability": "view",
      "type": "function"
    },
    {
      "inputs": [],
      "name": "symbol",
      "outputs": [
        {
          "internalType": "string",
          "name": "",
          "type": "string"
        }
      ],
      "stateMutability": "view",
      "type": "function"
    },
    {
      "inputs": [
        {
          "internalType": "uint256",
          "name": "tokenId",
          "type": "uint256"
        }
      ],
      "name": "tokenURI",
      "outputs": [
        {
          "internalType": "string",
          "name": "",
          "type": "string"
        }
      ],
      "stateMutability": "view",
      "type": "function"
    },
    {
      "inputs": [
        {
          "internalType": "uint256",
          "name": "contentId",
          "type": "uint256"
        },
        {
          "internalType": "address",
          "name": "newOwner",
          "type": "address"
        }
      ],
      "name": "transferContentRights",
      "outputs": [
        {
          "internalType": "bool",
          "name": "",
          "type": "bool"
        }
      ],
      "stateMutability": "nonpayable",
      "type": "function"
    },
    {
      "inputs": [
        {
          "internalType": "address",
          "name": "from",
          "type": "address"
        },
        {
          "internalType": "address",
          "name": "to",
          "type": "address"
        },
        {
          "internalType": "uint256",
          "name": "tokenId",
          "type": "uint256"
        }
      ],
      "name": "transferFrom",
      "outputs": [],
      "stateMutability": "nonpayable",
      "type": "function"
    },
    {
      "inputs": [
        {
          "internalType": "address",
          "name": "newOwner",
          "type": "address"
        }
      ],
      "name": "transferOwnership",
      "outputs": [],
      "stateMutability": "nonpayable",
      "type": "function"
    },
    {
      "inputs": [],
      "name": "withdraw",
      "outputs": [],
      "stateMutability": "nonpayable",
      "type": "function"
    }
  ],
  "bytecode": "0x60806040523480156200001157600080fd5b506040518060400160405280601881526020017f4e465420436f6e74656e7420506c617965722050726f6f6600000000000000008152506040518060400160405280600481526020017f4e43505000000000000000000000000000000000000000000000000000000000815250816000908051906020019062000096929190620001f4565b508060019080519060200190620000af929190620001f4565b505050620000d2620000c66200012660201b60201c565b6200012e60201b60201c565b6040518060400160405280600d81526020017f68747470733a2f2f697066732f00000000000000000000000000000000000000815250600b90805190602001906200011f929190620001f4565b5062000309565b600033905090565b6000600660009054906101000a900473ffffffffffffffffffffffffffffffffffffffff16905081600660006101000a81548173ffffffffffffffffffffffffffffffffffffffff021916908373ffffffffffffffffffffffffffffffffffffffff1602179055508173ffffffffffffffffffffffffffffffffffffffff168173ffffffffffffffffffffffffffffffffffffffff167f8be0079c531659141344cd1fd0a4f28419497f9722a3daafe3b4186f6b6457e060405160405180910390a35050565b8280546200020290620002a4565b90600052602060002090601f01602090048101928262000226576000855562000272565b82601f106200024157805160ff191683800117855562000272565b8280016001018555821562000272579182015b828111156200027157825182559160200191906001019062000254565b5b50905062000281919062000285565b5090565b5b80821115620002a057600081600090555060010162000286565b5090565b60006002820490506001821680620002bd57607f821691505b60208210811415620002d457620002d3620002da565b5b50919050565b7f4e487b7100000000000000000000000000000000000000000000000000000000600052602260045260246000fd5b61433680620003196000396000f3fe608060405234801561001057600080fd5b50600436106101c45760003560e01c8063715018a6116100f9578063aae0ca6211610097578063d4a8478111610071578063d4a8478114610527578063e985e9c514610545578063f2fde38b14610575578063f9da9c5a14610591576101c4565b8063aae0ca62146104ab578063b88d4fde146104db578063c87b56dd146104f7576101c4565b806389c61dc2116100d357806389c61dc2146104235780638da5cb5b1461045357806395d89b4114610471578063a22cb4651461048f576101c4565b8063715018a6146103b957806371ca59ca146103c35780638170ced5146103f3576101c4565b806330176e131161016657806342842e0e1161014057806342842e0e1461032157806361aad37b1461033d5780636352211e1461035957806370a0823114610389576101c4565b806330176e13146102cb5780633ccfd60b146102e757806340c10f19146102f1576101c4565b8063095ea7b3116101a2578063095ea7b3146102475780631690a5a61461026357806323b872dd1461027f57806327427e311461029b576101c4565b806301ffc9a7146101c957806306fdde03146101f9578063081812fc14610217575b600080fd5b6101e360048036038101906101de9190612d5a565b6105c1565b6040516101f09190613462565b60405180910390f35b6102016106a3565b60405161020e91906134c2565b60405180910390f35b610231600480360381019061022c9190612ded565b610735565b60405161023e91906133fb565b60405180910390f35b610261600480360381019061025c9190612d1e565b6107ba565b005b61027d60048036038101906102789190612e52565b6108d2565b005b61029960048036038101906102949190612c18565b610a50565b005b6102b560048036038101906102b09190612ded565b610ab0565b6040516102c291906137e4565b60405180910390f35b6102e560048036038101906102e09190612dac565b610acd565b005b6102ef610b63565b005b61030b60048036038101906103069190612d1e565b610c28565b60405161031891906137e4565b60405180910390f35b61033b60048036038101906103369190612c18565b610d64565b005b61035760048036038101906103529190612ce2565b610d84565b005b610373600480360381019061036e9190612ded565b610e5b565b60405161038091906133fb565b60405180910390f35b6103a3600480360381019061039e9190612bb3565b610f0d565b6040516103b091906137e4565b60405180910390f35b6103c1610fc5565b005b6103dd60048036038101906103d89190612ded565b61104d565b6040516103ea91906133fb565b60405180910390f35b61040d60048036038101906104089190612ded565b61108a565b60405161041a9190613462565b60405180910390f35b61043d60048036038101906104389190612d1e565b6110f6565b60405161044a9190613462565b60405180910390f35b61045b611188565b60405161046891906133fb565b60405180910390f35b6104796111b2565b60405161048691906134c2565b60405180910390f35b6104a960048036038101906104a49190612ce2565b611244565b005b6104c560048036038101906104c09190612bb3565b61125a565b6040516104d29190613462565b60405180910390f35b6104f560048036038101906104f09190612c67565b611371565b005b610511600480360381019061050c9190612ded565b6113d3565b60405161051e91906134c2565b60405180910390f35b61052f611482565b60405161053c91906137e4565b60405180910390f35b61055f600480360381019061055a9190612bdc565b611493565b60405161056c9190613462565b60405180910390f35b61058f600480360381019061058a9190612bb3565b611527565b005b6105ab60048036038101906105a69190612e16565b61161f565b6040516105b89190613462565b60405180910390f35b60007f80ac58cd000000000000000000000000000000000000000000000000000000007bffffffffffffffffffffffffffffffffffffffffffffffffffffffff1916827bffffffffffffffffffffffffffffffffffffffffffffffffffffffff1916148061068c57507f5b5e139f000000000000000000000000000000000000000000000000000000007bffffffffffffffffffffffffffffffffffffffffffffffffffffffff1916827bffffffffffffffffffffffffffffffffffffffffffffffffffffffff1916145b8061069c575061069b826116bc565b5b9050919050565b6060600080546106b290613a51565b80601f01602080910402602001604051908101604052809291908181526020018280546106de90613a51565b801561072b5780601f106107005761010080835404028352916020019161072b565b820191906000526020600020905b81548152906001019060200180831161070e57829003601f168201915b5050505050905090565b600061074082611726565b61077f576040517f08c379a000000000000000000000000000000000000000000000000000000000815260040161077690613704565b60405180910390fd5b6004600083815260200190815260200160002060009054906101000a900473ffffffffffffffffffffffffffffffffffffffff169050919050565b60006107c582610e5b565b90508073ffffffffffffffffffffffffffffffffffffffff168373ffffffffffffffffffffffffffffffffffffffff161415610836576040517f08c379a000000000000000000000000000000000000000000000000000000000815260040161082d90613764565b60405180910390fd5b8073ffffffffffffffffffffffffffffffffffffffff16610855611792565b73ffffffffffffffffffffffffffffffffffffffff16148061088457506108838161087e611792565b611493565b5b6108c3576040517f08c379a00000000000000000000000000000000000000000000000000000000081526004016108ba90613664565b60405180910390fd5b6108cd838361179a565b505050565b600073ffffffffffffffffffffffffffffffffffffffff16600a600085815260200190815260200160002060009054906101000a900473ffffffffffffffffffffffffffffffffffffffff1673ffffffffffffffffffffffffffffffffffffffff1614610974576040517f08c379a000000000000000000000000000000000000000000000000000000000815260040161096b906137c4565b60405180910390fd5b6000828460405160200161098992919061337a565b60405160208183030381529060405280519060200120905060006109ad8284611853565b90506109b88161125a565b6109f7576040517f08c379a00000000000000000000000000000000000000000000000000000000081526004016109ee90613544565b60405180910390fd5b83600a600087815260200190815260200160002060006101000a81548173ffffffffffffffffffffffffffffffffffffffff021916908373ffffffffffffffffffffffffffffffffffffffff1602179055505050505050565b610a61610a5b611792565b8261189b565b610aa0576040517f08c379a0000000000000000000000000000000000000000000000000000000008152600401610a97906137a4565b60405180910390fd5b610aab838383611979565b505050565b600060096000838152602001908152602001600020549050919050565b610ad5611792565b73ffffffffffffffffffffffffffffffffffffffff16610af3611188565b73ffffffffffffffffffffffffffffffffffffffff1614610b49576040517f08c379a0000000000000000000000000000000000000000000000000000000008152600401610b4090613724565b60405180910390fd5b80600b9080519060200190610b5f9291906129d7565b5050565b610b6b611792565b73ffffffffffffffffffffffffffffffffffffffff16610b89611188565b73ffffffffffffffffffffffffffffffffffffffff1614610bdf576040517f08c379a0000000000000000000000000000000000000000000000000000000008152600401610bd690613724565b60405180910390fd5b3373ffffffffffffffffffffffffffffffffffffffff166108fc479081150290604051600060405180830381858888f19350505050158015610c25573d6000803e3d6000fd5b50565b60003373ffffffffffffffffffffffffffffffffffffffff16610c4a8361104d565b73ffffffffffffffffffffffffffffffffffffffff1614610ca0576040517f08c379a0000000000000000000000000000000000000000000000000000000008152600401610c9790613784565b60405180910390fd5b610caa83836110f6565b15610cea576040517f08c379a0000000000000000000000000000000000000000000000000000000008152600401610ce1906135e4565b60405180910390fd5b6000610cf66007611be0565b9050610d026007611bee565b610d0c8482611c04565b8373ffffffffffffffffffffffffffffffffffffffff167f1f89f147a58d1673945cf416187db98efc8208408c011b91887acd59fd8523c384604051610d5291906137e4565b60405180910390a28091505092915050565b610d7f83838360405180602001604052806000815250611371565b505050565b610d8c611792565b73ffffffffffffffffffffffffffffffffffffffff16610daa611188565b73ffffffffffffffffffffffffffffffffffffffff1614610e00576040517f08c379a0000000000000000000000000000000000000000000000000000000008152600401610df790613724565b60405180910390fd5b80600860008473ffffffffffffffffffffffffffffffffffffffff1673ffffffffffffffffffffffffffffffffffffffff16815260200190815260200160002060006101000a81548160ff0219169083151502179055505050565b6000806002600084815260200190815260200160002060009054906101000a900473ffffffffffffffffffffffffffffffffffffffff169050600073ffffffffffffffffffffffffffffffffffffffff168173ffffffffffffffffffffffffffffffffffffffff161415610f04576040517f08c379a0000000000000000000000000000000000000000000000000000000008152600401610efb906136a4565b60405180910390fd5b80915050919050565b60008073ffffffffffffffffffffffffffffffffffffffff168273ffffffffffffffffffffffffffffffffffffffff161415610f7e576040517f08c379a0000000000000000000000000000000000000000000000000000000008152600401610f7590613684565b60405180910390fd5b600360008373ffffffffffffffffffffffffffffffffffffffff1673ffffffffffffffffffffffffffffffffffffffff168152602001908152602001600020549050919050565b610fcd611792565b73ffffffffffffffffffffffffffffffffffffffff16610feb611188565b73ffffffffffffffffffffffffffffffffffffffff1614611041576040517f08c379a000000000000000000000000000000000000000000000000000000000815260040161103890613724565b60405180910390fd5b61104b6000611dde565b565b6000600a600083815260200190815260200160002060009054906101000a900473ffffffffffffffffffffffffffffffffffffffff169050919050565b60008073ffffffffffffffffffffffffffffffffffffffff16600a600084815260200190815260200160002060009054906101000a900473ffffffffffffffffffffffffffffffffffffffff1673ffffffffffffffffffffffffffffffffffffffff1614159050919050565b600080611101611482565b905060005b8181101561117b578473ffffffffffffffffffffffffffffffffffffffff1661112e82610e5b565b73ffffffffffffffffffffffffffffffffffffffff1614801561115857508361115682610ab0565b145b1561116857600192505050611182565b808061117390613ab4565b915050611106565b5060009150505b92915050565b6000600660009054906101000a900473ffffffffffffffffffffffffffffffffffffffff16905090565b6060600180546111c190613a51565b80601f01602080910402602001604051908101604052809291908181526020018280546111ed90613a51565b801561123a5780601f1061120f5761010080835404028352916020019161123a565b820191906000526020600020905b81548152906001019060200180831161121d57829003601f168201915b5050505050905090565b61125661124f611792565b8383611ea4565b5050565b6000611264611792565b73ffffffffffffffffffffffffffffffffffffffff16611282611188565b73ffffffffffffffffffffffffffffffffffffffff16146112d8576040517f08c379a00000000000000000000000000000000000000000000000000000000081526004016112cf90613724565b60405180910390fd5b6112e0611188565b73ffffffffffffffffffffffffffffffffffffffff168273ffffffffffffffffffffffffffffffffffffffff16141561131c576001905061136c565b600860008373ffffffffffffffffffffffffffffffffffffffff1673ffffffffffffffffffffffffffffffffffffffff16815260200190815260200160002060009054906101000a900460ff1690505b919050565b61138261137c611792565b8361189b565b6113c1576040517f08c379a00000000000000000000000000000000000000000000000000000000081526004016113b8906137a4565b60405180910390fd5b6113cd84848484612011565b50505050565b60606113de82611726565b61141d576040517f08c379a000000000000000000000000000000000000000000000000000000000815260040161141490613744565b60405180910390fd5b600061142761206d565b90506000815111611447576040518060200160405280600081525061147a565b8061145961145485610ab0565b6120ff565b60405160200161146a9291906133a6565b6040516020818303038152906040525b915050919050565b600061148e6007611be0565b905090565b6000600560008473ffffffffffffffffffffffffffffffffffffffff1673ffffffffffffffffffffffffffffffffffffffff16815260200190815260200160002060008373ffffffffffffffffffffffffffffffffffffffff1673ffffffffffffffffffffffffffffffffffffffff16815260200190815260200160002060009054906101000a900460ff16905092915050565b61152f611792565b73ffffffffffffffffffffffffffffffffffffffff1661154d611188565b73ffffffffffffffffffffffffffffffffffffffff16146115a3576040517f08c379a000000000000000000000000000000000000000000000000000000000815260040161159a90613724565b60405180910390fd5b600073ffffffffffffffffffffffffffffffffffffffff168173ffffffffffffffffffffffffffffffffffffffff161415611613576040517f08c379a000000000000000000000000000000000000000000000000000000000815260040161160a90613564565b60405180910390fd5b61161c81611dde565b50565b60008061162a611482565b905060005b818110156116af573373ffffffffffffffffffffffffffffffffffffffff1661165782610e5b565b73ffffffffffffffffffffffffffffffffffffffff1614801561168157508461167f82610ab0565b145b1561169c57611691338583611979565b6001925050506116b6565b80806116a790613ab4565b91505061162f565b5060009150505b92915050565b60007f01ffc9a7000000000000000000000000000000000000000000000000000000007bffffffffffffffffffffffffffffffffffffffffffffffffffffffff1916827bffffffffffffffffffffffffffffffffffffffffffffffffffffffff1916149050919050565b60008073ffffffffffffffffffffffffffffffffffffffff166002600084815260200190815260200160002060009054906101000a900473ffffffffffffffffffffffffffffffffffffffff1673ffffffffffffffffffffffffffffffffffffffff1614159050919050565b600033905090565b816004600083815260200190815260200160002060006101000a81548173ffffffffffffffffffffffffffffffffffffffff021916908373ffffffffffffffffffffffffffffffffffffffff160217905550808273ffffffffffffffffffffffffffffffffffffffff1661180d83610e5b565b73ffffffffffffffffffffffffffffffffffffffff167f8c5be1e5ebec7d5bd14f71427d1e84f3dd0314c0f7b2291e5b200ac8c7c3b92560405160405180910390a45050565b6000808360405160200161186791906133d5565b60405160208183030381529060405280519060200120905061189283826122ac90919063ffffffff16565b91505092915050565b60006118a682611726565b6118e5576040517f08c379a00000000000000000000000000000000000000000000000000000000081526004016118dc90613644565b60405180910390fd5b60006118f083610e5b565b90508073ffffffffffffffffffffffffffffffffffffffff168473ffffffffffffffffffffffffffffffffffffffff16148061195f57508373ffffffffffffffffffffffffffffffffffffffff1661194784610735565b73ffffffffffffffffffffffffffffffffffffffff16145b80611970575061196f8185611493565b5b91505092915050565b8273ffffffffffffffffffffffffffffffffffffffff1661199982610e5b565b73ffffffffffffffffffffffffffffffffffffffff16146119ef576040517f08c379a00000000000000000000000000000000000000000000000000000000081526004016119e690613584565b60405180910390fd5b600073ffffffffffffffffffffffffffffffffffffffff168273ffffffffffffffffffffffffffffffffffffffff161415611a5f576040517f08c379a0000000000000000000000000000000000000000000000000000000008152600401611a56906135c4565b60405180910390fd5b611a6a8383836122d3565b611a7560008261179a565b6001600360008573ffffffffffffffffffffffffffffffffffffffff1673ffffffffffffffffffffffffffffffffffffffff1681526020019081526020016000206000828254611ac59190613950565b925050819055506001600360008473ffffffffffffffffffffffffffffffffffffffff1673ffffffffffffffffffffffffffffffffffffffff1681526020019081526020016000206000828254611b1c91906138c9565b92505081905550816002600083815260200190815260200160002060006101000a81548173ffffffffffffffffffffffffffffffffffffffff021916908373ffffffffffffffffffffffffffffffffffffffff160217905550808273ffffffffffffffffffffffffffffffffffffffff168473ffffffffffffffffffffffffffffffffffffffff167fddf252ad1be2c89b69c2b068fc378daa952ba7f163c4a11628f55a4df523b3ef60405160405180910390a4611bdb8383836122d8565b505050565b600081600001549050919050565b6001816000016000828254019250508190555050565b600073ffffffffffffffffffffffffffffffffffffffff168273ffffffffffffffffffffffffffffffffffffffff161415611c74576040517f08c379a0000000000000000000000000000000000000000000000000000000008152600401611c6b906136e4565b60405180910390fd5b611c7d81611726565b15611cbd576040517f08c379a0000000000000000000000000000000000000000000000000000000008152600401611cb4906135a4565b60405180910390fd5b611cc9600083836122d3565b6001600360008473ffffffffffffffffffffffffffffffffffffffff1673ffffffffffffffffffffffffffffffffffffffff1681526020019081526020016000206000828254611d1991906138c9565b92505081905550816002600083815260200190815260200160002060006101000a81548173ffffffffffffffffffffffffffffffffffffffff021916908373ffffffffffffffffffffffffffffffffffffffff160217905550808273ffffffffffffffffffffffffffffffffffffffff16600073ffffffffffffffffffffffffffffffffffffffff167fddf252ad1be2c89b69c2b068fc378daa952ba7f163c4a11628f55a4df523b3ef60405160405180910390a4611dda600083836122d8565b5050565b6000600660009054906101000a900473ffffffffffffffffffffffffffffffffffffffff16905081600660006101000a81548173ffffffffffffffffffffffffffffffffffffffff021916908373ffffffffffffffffffffffffffffffffffffffff1602179055508173ffffffffffffffffffffffffffffffffffffffff168173ffffffffffffffffffffffffffffffffffffffff167f8be0079c531659141344cd1fd0a4f28419497f9722a3daafe3b4186f6b6457e060405160405180910390a35050565b8173ffffffffffffffffffffffffffffffffffffffff168373ffffffffffffffffffffffffffffffffffffffff161415611f13576040517f08c379a0000000000000000000000000000000000000000000000000000000008152600401611f0a90613604565b60405180910390fd5b80600560008573ffffffffffffffffffffffffffffffffffffffff1673ffffffffffffffffffffffffffffffffffffffff16815260200190815260200160002060008473ffffffffffffffffffffffffffffffffffffffff1673ffffffffffffffffffffffffffffffffffffffff16815260200190815260200160002060006101000a81548160ff0219169083151502179055508173ffffffffffffffffffffffffffffffffffffffff168373ffffffffffffffffffffffffffffffffffffffff167f17307eab39ab6107e8899845ad3d59bd9653f200f220920489ca2b5937696c31836040516120049190613462565b60405180910390a3505050565b61201c848484611979565b612028848484846122dd565b612067576040517f08c379a000000000000000000000000000000000000000000000000000000000815260040161205e90613524565b60405180910390fd5b50505050565b6060600b805461207c90613a51565b80601f01602080910402602001604051908101604052809291908181526020018280546120a890613a51565b80156120f55780601f106120ca576101008083540402835291602001916120f5565b820191906000526020600020905b8154815290600101906020018083116120d857829003601f168201915b5050505050905090565b60606000821415612147576040518060400160405280600181526020017f300000000000000000000000000000000000000000000000000000000000000081525090506122a7565b600082905060005b6000821461217957808061216290613ab4565b915050600a82612172919061391f565b915061214f565b60008167ffffffffffffffff8111156121bb577f4e487b7100000000000000000000000000000000000000000000000000000000600052604160045260246000fd5b6040519080825280601f01601f1916602001820160405280156121ed5781602001600182028036833780820191505090505b5090505b600085146122a0576001826122069190613950565b9150600a856122159190613b35565b603061222191906138c9565b60f81b81838151811061225d577f4e487b7100000000000000000000000000000000000000000000000000000000600052603260045260246000fd5b60200101907effffffffffffffffffffffffffffffffffffffffffffffffffffffffffffff1916908160001a905350600a85612299919061391f565b94506121f1565b8093505050505b919050565b60008060006122bb8585612474565b915091506122c8816124f7565b819250505092915050565b505050565b505050565b60006122fe8473ffffffffffffffffffffffffffffffffffffffff16612848565b15612467578373ffffffffffffffffffffffffffffffffffffffff1663150b7a02612327611792565b8786866040518563ffffffff1660e01b81526004016123499493929190613416565b602060405180830381600087803b15801561236357600080fd5b505af192505050801561239457506040513d601f19601f820116820180604052508101906123919190612d83565b60015b612417573d80600081146123c4576040519150601f19603f3d011682016040523d82523d6000602084013e6123c9565b606091505b5060008151141561240f576040517f08c379a000000000000000000000000000000000000000000000000000000000815260040161240690613524565b60405180910390fd5b805181602001fd5b63150b7a0260e01b7bffffffffffffffffffffffffffffffffffffffffffffffffffffffff1916817bffffffffffffffffffffffffffffffffffffffffffffffffffffffff19161491505061246c565b600190505b949350505050565b6000806041835114156124b65760008060006020860151925060408601519150606086015160001a90506124aa8782858561286b565b945094505050506124f0565b6040835114156124e75760008060208501519150604085015190506124dc868383612978565b9350935050506124f0565b60006002915091505b9250929050565b60006004811115612531577f4e487b7100000000000000000000000000000000000000000000000000000000600052602160045260246000fd5b81600481111561256a577f4e487b7100000000000000000000000000000000000000000000000000000000600052602160045260246000fd5b141561257557612845565b600160048111156125af577f4e487b7100000000000000000000000000000000000000000000000000000000600052602160045260246000fd5b8160048111156125e8577f4e487b7100000000000000000000000000000000000000000000000000000000600052602160045260246000fd5b1415612629576040517f08c379a0000000000000000000000000000000000000000000000000000000008152600401612620906134e4565b60405180910390fd5b60026004811115612663577f4e487b7100000000000000000000000000000000000000000000000000000000600052602160045260246000fd5b81600481111561269c577f4e487b7100000000000000000000000000000000000000000000000000000000600052602160045260246000fd5b14156126dd576040517f08c379a00000000000000000000000000000000000000000000000000000000081526004016126d490613504565b60405180910390fd5b60036004811115612717577f4e487b7100000000000000000000000000000000000000000000000000000000600052602160045260246000fd5b816004811115612750577f4e487b7100000000000000000000000000000000000000000000000000000000600052602160045260246000fd5b1415612791576040517f08c379a000000000000000000000000000000000000000000000000000000000815260040161278890613624565b60405180910390fd5b6004808111156127ca577f4e487b7100000000000000000000000000000000000000000000000000000000600052602160045260246000fd5b816004811115612803577f4e487b7100000000000000000000000000000000000000000000000000000000600052602160045260246000fd5b1415612844576040517f08c379a000000000000000000000000000000000000000000000000000000000815260040161283b906136c4565b60405180910390fd5b5b50565b6000808273ffffffffffffffffffffffffffffffffffffffff163b119050919050565b6000807f7fffffffffffffffffffffffffffffff5d576e7357a4501ddfe92f46681b20a08360001c11156128a657600060039150915061296f565b601b8560ff16141580156128be5750601c8560ff1614155b156128d057600060049150915061296f565b6000600187878787604051600081526020016040526040516128f5949392919061347d565b6020604051602081039080840390855afa158015612917573d6000803e3d6000fd5b505050602060405103519050600073ffffffffffffffffffffffffffffffffffffffff168173ffffffffffffffffffffffffffffffffffffffff1614156129665760006001925092505061296f565b80600092509250505b94509492505050565b60008060007f7fffffffffffffffffffffffffffffffffffffffffffffffffffffffffffffff60001b841690506000601b60ff8660001c901c6129bb91906138c9565b90506129c98782888561286b565b935093505050935093915050565b8280546129e390613a51565b90600052602060002090601f016020900481019282612a055760008555612a4c565b82601f10612a1e57805160ff1916838001178555612a4c565b82800160010185558215612a4c579182015b82811115612a4b578251825591602001919060010190612a30565b5b509050612a599190612a5d565b5090565b5b80821115612a76576000816000905550600101612a5e565b5090565b6000612a8d612a8884613824565b6137ff565b905082815260208101848484011115612aa557600080fd5b612ab0848285613a0f565b509392505050565b6000612acb612ac684613855565b6137ff565b905082815260208101848484011115612ae357600080fd5b612aee848285613a0f565b509392505050565b600081359050612b05816142a4565b92915050565b600081359050612b1a816142bb565b92915050565b600081359050612b2f816142d2565b92915050565b600081519050612b44816142d2565b92915050565b600082601f830112612b5b57600080fd5b8135612b6b848260208601612a7a565b91505092915050565b600082601f830112612b8557600080fd5b8135612b95848260208601612ab8565b91505092915050565b600081359050612bad816142e9565b92915050565b600060208284031215612bc557600080fd5b6000612bd384828501612af6565b91505092915050565b60008060408385031215612bef57600080fd5b6000612bfd85828601612af6565b9250506020612c0e85828601612af6565b9150509250929050565b600080600060608486031215612c2d57600080fd5b6000612c3b86828701612af6565b9350506020612c4c86828701612af6565b9250506040612c5d86828701612b9e565b9150509250925092565b60008060008060808587031215612c7d57600080fd5b6000612c8b87828801612af6565b9450506020612c9c87828801612af6565b9350506040612cad87828801612b9e565b925050606085013567ffffffffffffffff811115612cca57600080fd5b612cd687828801612b4a565b91505092959194509250565b60008060408385031215612cf557600080fd5b6000612d0385828601612af6565b9250506020612d1485828601612b0b565b9150509250929050565b60008060408385031215612d3157600080fd5b6000612d3f85828601612af6565b9250506020612d5085828601612b9e565b9150509250929050565b600060208284031215612d6c57600080fd5b6000612d7a84828501612b20565b91505092915050565b600060208284031215612d9557600080fd5b6000612da384828501612b35565b91505092915050565b600060208284031215612dbe57600080fd5b600082013567ffffffffffffffff811115612dd857600080fd5b612de484828501612b74565b91505092915050565b600060208284031215612dff57600080fd5b6000612e0d84828501612b9e565b91505092915050565b60008060408385031215612e2957600080fd5b6000612e3785828601612b9e565b9250506020612e4885828601612af6565b9150509250929050565b600080600060608486031215612e6757600080fd5b6000612e7586828701612b9e565b9350506020612e8686828701612af6565b925050604084013567ffffffffffffffff811115612ea357600080fd5b612eaf86828701612b4a565b9150509250925092565b612ec281613984565b82525050565b612ed9612ed482613984565b613afd565b82525050565b612ee881613996565b82525050565b612ef7816139a2565b82525050565b612f0e612f09826139a2565b613b0f565b82525050565b6000612f1f82613886565b612f29818561389c565b9350612f39818560208601613a1e565b612f4281613c22565b840191505092915050565b6000612f5882613891565b612f6281856138ad565b9350612f72818560208601613a1e565b612f7b81613c22565b840191505092915050565b6000612f9182613891565b612f9b81856138be565b9350612fab818560208601613a1e565b80840191505092915050565b6000612fc46018836138ad565b9150612fcf82613c40565b602082019050919050565b6000612fe7601f836138ad565b9150612ff282613c69565b602082019050919050565b600061300a601c836138be565b915061301582613c92565b601c82019050919050565b600061302d6032836138ad565b915061303882613cbb565b604082019050919050565b60006130506037836138ad565b915061305b82613d0a565b604082019050919050565b60006130736026836138ad565b915061307e82613d59565b604082019050919050565b60006130966025836138ad565b91506130a182613da8565b604082019050919050565b60006130b9601c836138ad565b91506130c482613df7565b602082019050919050565b60006130dc6024836138ad565b91506130e782613e20565b604082019050919050565b60006130ff6012836138ad565b915061310a82613e6f565b602082019050919050565b60006131226019836138ad565b915061312d82613e98565b602082019050919050565b60006131456022836138ad565b915061315082613ec1565b604082019050919050565b6000613168602c836138ad565b915061317382613f10565b604082019050919050565b600061318b6038836138ad565b915061319682613f5f565b604082019050919050565b60006131ae602a836138ad565b91506131b982613fae565b604082019050919050565b60006131d16029836138ad565b91506131dc82613ffd565b604082019050919050565b60006131f46022836138ad565b91506131ff8261404c565b604082019050919050565b60006132176020836138ad565b91506132228261409b565b602082019050919050565b600061323a602c836138ad565b9150613245826140c4565b604082019050919050565b600061325d6005836138be565b915061326882614113565b600582019050919050565b60006132806020836138ad565b915061328b8261413c565b602082019050919050565b60006132a3602f836138ad565b91506132ae82614165565b604082019050919050565b60006132c66021836138ad565b91506132d1826141b4565b604082019050919050565b60006132e96017836138ad565b91506132f482614203565b602082019050919050565b600061330c6031836138ad565b91506133178261422c565b604082019050919050565b600061332f6015836138ad565b915061333a8261427b565b602082019050919050565b61334e816139f8565b82525050565b613365613360826139f8565b613b2b565b82525050565b61337481613a02565b82525050565b60006133868285612ec8565b6014820191506133968284613354565b6020820191508190509392505050565b60006133b28285612f86565b91506133be8284612f86565b91506133c982613250565b91508190509392505050565b60006133e082612ffd565b91506133ec8284612efd565b60208201915081905092915050565b60006020820190506134106000830184612eb9565b92915050565b600060808201905061342b6000830187612eb9565b6134386020830186612eb9565b6134456040830185613345565b81810360608301526134578184612f14565b905095945050505050565b60006020820190506134776000830184612edf565b92915050565b60006080820190506134926000830187612eee565b61349f602083018661336b565b6134ac6040830185612eee565b6134b96060830184612eee565b95945050505050565b600060208201905081810360008301526134dc8184612f4d565b905092915050565b600060208201905081810360008301526134fd81612fb7565b9050919050565b6000602082019050818103600083015261351d81612fda565b9050919050565b6000602082019050818103600083015261353d81613020565b9050919050565b6000602082019050818103600083015261355d81613043565b9050919050565b6000602082019050818103600083015261357d81613066565b9050919050565b6000602082019050818103600083015261359d81613089565b9050919050565b600060208201905081810360008301526135bd816130ac565b9050919050565b600060208201905081810360008301526135dd816130cf565b9050919050565b600060208201905081810360008301526135fd816130f2565b9050919050565b6000602082019050818103600083015261361d81613115565b9050919050565b6000602082019050818103600083015261363d81613138565b9050919050565b6000602082019050818103600083015261365d8161315b565b9050919050565b6000602082019050818103600083015261367d8161317e565b9050919050565b6000602082019050818103600083015261369d816131a1565b9050919050565b600060208201905081810360008301526136bd816131c4565b9050919050565b600060208201905081810360008301526136dd816131e7565b9050919050565b600060208201905081810360008301526136fd8161320a565b9050919050565b6000602082019050818103600083015261371d8161322d565b9050919050565b6000602082019050818103600083015261373d81613273565b9050919050565b6000602082019050818103600083015261375d81613296565b9050919050565b6000602082019050818103600083015261377d816132b9565b9050919050565b6000602082019050818103600083015261379d816132dc565b9050919050565b600060208201905081810360008301526137bd816132ff565b9050919050565b600060208201905081810360008301526137dd81613322565b9050919050565b60006020820190506137f96000830184613345565b92915050565b600061380961381a565b90506138158282613a83565b919050565b6000604051905090565b600067ffffffffffffffff82111561383f5761383e613bf3565b5b61384882613c22565b9050602081019050919050565b600067ffffffffffffffff8211156138705761386f613bf3565b5b61387982613c22565b9050602081019050919050565b600081519050919050565b600081519050919050565b600082825260208201905092915050565b600082825260208201905092915050565b600081905092915050565b60006138d4826139f8565b91506138df836139f8565b9250827fffffffffffffffffffffffffffffffffffffffffffffffffffffffffffffffff0382111561391457613913613b66565b5b828201905092915050565b600061392a826139f8565b9150613935836139f8565b92508261394557613944613b95565b5b828204905092915050565b600061395b826139f8565b9150613966836139f8565b92508282101561397957613978613b66565b5b828203905092915050565b600061398f826139d8565b9050919050565b60008115159050919050565b6000819050919050565b60007fffffffff0000000000000000000000000000000000000000000000000000000082169050919050565b600073ffffffffffffffffffffffffffffffffffffffff82169050919050565b6000819050919050565b600060ff82169050919050565b82818337600083830152505050565b60005b83811015613a3c578082015181840152602081019050613a21565b83811115613a4b576000848401525b50505050565b60006002820490506001821680613a6957607f821691505b60208210811415613a7d57613a7c613bc4565b5b50919050565b613a8c82613c22565b810181811067ffffffffffffffff82111715613aab57613aaa613bf3565b5b80604052505050565b6000613abf826139f8565b91507fffffffffffffffffffffffffffffffffffffffffffffffffffffffffffffffff821415613af257613af1613b66565b5b600182019050919050565b6000613b0882613b19565b9050919050565b6000819050919050565b6000613b2482613c33565b9050919050565b6000819050919050565b6000613b40826139f8565b9150613b4b836139f8565b925082613b5b57613b5a613b95565b5b828206905092915050565b7f4e487b7100000000000000000000000000000000000000000000000000000000600052601160045260246000fd5b7f4e487b7100000000000000000000000000000000000000000000000000000000600052601260045260246000fd5b7f4e487b7100000000000000000000000000000000000000000000000000000000600052602260045260246000fd5b7f4e487b7100000000000000000000000000000000000000000000000000000000600052604160045260246000fd5b6000601f19601f8301169050919050565b60008160601b9050919050565b7f45434453413a20696e76616c6964207369676e61747572650000000000000000600082015250565b7f45434453413a20696e76616c6964207369676e6174757265206c656e67746800600082015250565b7f19457468657265756d205369676e6564204d6573736167653a0a333200000000600082015250565b7f4552433732313a207472616e7366657220746f206e6f6e20455243373231526560008201527f63656976657220696d706c656d656e7465720000000000000000000000000000602082015250565b7f43616e27742063726561746520636f6e74656e74206265636175736520796f7560008201527f20617265206e6f7420636f6e74656e7420736572766572000000000000000000602082015250565b7f4f776e61626c653a206e6577206f776e657220697320746865207a65726f206160008201527f6464726573730000000000000000000000000000000000000000000000000000602082015250565b7f4552433732313a207472616e736665722066726f6d20696e636f72726563742060008201527f6f776e6572000000000000000000000000000000000000000000000000000000602082015250565b7f4552433732313a20746f6b656e20616c7265616479206d696e74656400000000600082015250565b7f4552433732313a207472616e7366657220746f20746865207a65726f2061646460008201527f7265737300000000000000000000000000000000000000000000000000000000602082015250565b7f4e465420616c7265616479206d696e7465640000000000000000000000000000600082015250565b7f4552433732313a20617070726f766520746f2063616c6c657200000000000000600082015250565b7f45434453413a20696e76616c6964207369676e6174757265202773272076616c60008201527f7565000000000000000000000000000000000000000000000000000000000000602082015250565b7f4552433732313a206f70657261746f7220717565727920666f72206e6f6e657860008201527f697374656e7420746f6b656e0000000000000000000000000000000000000000602082015250565b7f4552433732313a20617070726f76652063616c6c6572206973206e6f74206f7760008201527f6e6572206e6f7220617070726f76656420666f7220616c6c0000000000000000602082015250565b7f4552433732313a2062616c616e636520717565727920666f7220746865207a6560008201527f726f206164647265737300000000000000000000000000000000000000000000602082015250565b7f4552433732313a206f776e657220717565727920666f72206e6f6e657869737460008201527f656e7420746f6b656e0000000000000000000000000000000000000000000000602082015250565b7f45434453413a20696e76616c6964207369676e6174757265202776272076616c60008201527f7565000000000000000000000000000000000000000000000000000000000000602082015250565b7f4552433732313a206d696e7420746f20746865207a65726f2061646472657373600082015250565b7f4552433732313a20617070726f76656420717565727920666f72206e6f6e657860008201527f697374656e7420746f6b656e0000000000000000000000000000000000000000602082015250565b7f2e6a736f6e000000000000000000000000000000000000000000000000000000600082015250565b7f4f776e61626c653a2063616c6c6572206973206e6f7420746865206f776e6572600082015250565b7f4552433732314d657461646174613a2055524920717565727920666f72206e6f60008201527f6e6578697374656e7420746f6b656e0000000000000000000000000000000000602082015250565b7f4552433732313a20617070726f76616c20746f2063757272656e74206f776e6560008201527f7200000000000000000000000000000000000000000000000000000000000000602082015250565b7f596f752063616e2774206d696e742074686973204e4654000000000000000000600082015250565b7f4552433732313a207472616e736665722063616c6c6572206973206e6f74206f60008201527f776e6572206e6f7220617070726f766564000000000000000000000000000000602082015250565b7f436f6e74656e7420616c72656164792061646465640000000000000000000000600082015250565b6142ad81613984565b81146142b857600080fd5b50565b6142c481613996565b81146142cf57600080fd5b50565b6142db816139ac565b81146142e657600080fd5b50565b6142f2816139f8565b81146142fd57600080fd5b5056fea2646970667358221220824bdca7f6dd0db76ea85c820c40bbf74027e22dc0279380f9379e3d945d1c6f64736f6c63430008040033",
  "linkReferences": {},
  "deployedLinkReferences": {}
}