{
  "_format": "hh-sol-artifact-1",
  "contractName": "NCPProof",
  "sourceName": "contracts/NCPProof.sol",
  "abi": [
    {
      "inputs": [],
      "stateMutability": "nonpayable",
      "type": "constructor"
    },
    {
      "anonymous": false,
      "inputs": [
        {
          "indexed": true,
          "internalType": "address",
          "name": "owner",
          "type": "address"
        },
        {
          "indexed": true,
          "internalType": "address",
          "name": "approved",
          "type": "address"
        },
        {
          "indexed": true,
          "internalType": "uint256",
          "name": "tokenId",
          "type": "uint256"
        }
      ],
      "name": "Approval",
      "type": "event"
    },
    {
      "anonymous": false,
      "inputs": [
        {
          "indexed": true,
          "internalType": "address",
          "name": "owner",
          "type": "address"
        },
        {
          "indexed": true,
          "internalType": "address",
          "name": "operator",
          "type": "address"
        },
        {
          "indexed": false,
          "internalType": "bool",
          "name": "approved",
          "type": "bool"
        }
      ],
      "name": "ApprovalForAll",
      "type": "event"
    },
    {
      "anonymous": false,
      "inputs": [
        {
          "indexed": true,
          "internalType": "address",
          "name": "_to",
          "type": "address"
        },
        {
          "indexed": false,
          "internalType": "uint256",
          "name": "_contentId",
          "type": "uint256"
        }
      ],
      "name": "MintNFT",
      "type": "event"
    },
    {
      "anonymous": false,
      "inputs": [
        {
          "indexed": true,
          "internalType": "address",
          "name": "previousOwner",
          "type": "address"
        },
        {
          "indexed": true,
          "internalType": "address",
          "name": "newOwner",
          "type": "address"
        }
      ],
      "name": "OwnershipTransferred",
      "type": "event"
    },
    {
      "anonymous": false,
      "inputs": [
        {
          "indexed": true,
          "internalType": "address",
          "name": "from",
          "type": "address"
        },
        {
          "indexed": true,
          "internalType": "address",
          "name": "to",
          "type": "address"
        },
        {
          "indexed": true,
          "internalType": "uint256",
          "name": "tokenId",
          "type": "uint256"
        }
      ],
      "name": "Transfer",
      "type": "event"
    },
    {
      "inputs": [
        {
          "internalType": "address",
          "name": "to",
          "type": "address"
        },
        {
          "internalType": "uint256",
          "name": "tokenId",
          "type": "uint256"
        }
      ],
      "name": "approve",
      "outputs": [],
      "stateMutability": "nonpayable",
      "type": "function"
    },
    {
      "inputs": [
        {
          "internalType": "address",
          "name": "owner",
          "type": "address"
        }
      ],
      "name": "balanceOf",
      "outputs": [
        {
          "internalType": "uint256",
          "name": "",
          "type": "uint256"
        }
      ],
      "stateMutability": "view",
      "type": "function"
    },
    {
      "inputs": [
        {
          "internalType": "address",
          "name": "owner",
          "type": "address"
        },
        {
          "internalType": "uint256",
          "name": "contentId",
          "type": "uint256"
        }
      ],
      "name": "canSeeProtected",
      "outputs": [
        {
          "internalType": "bool",
          "name": "",
          "type": "bool"
        }
      ],
      "stateMutability": "view",
      "type": "function"
    },
    {
      "inputs": [
        {
          "internalType": "uint256",
          "name": "contentId",
          "type": "uint256"
        }
      ],
      "name": "contentDistributorOf",
      "outputs": [
        {
          "internalType": "address",
          "name": "",
          "type": "address"
        }
      ],
      "stateMutability": "view",
      "type": "function"
    },
    {
      "inputs": [
        {
          "internalType": "uint256",
          "name": "tokenId",
          "type": "uint256"
        }
      ],
      "name": "contentOf",
      "outputs": [
        {
          "internalType": "uint256",
          "name": "",
          "type": "uint256"
        }
      ],
      "stateMutability": "view",
      "type": "function"
    },
    {
      "inputs": [],
      "name": "countOfNFT",
      "outputs": [
        {
          "internalType": "uint256",
          "name": "",
          "type": "uint256"
        }
      ],
      "stateMutability": "view",
      "type": "function"
    },
    {
      "inputs": [
        {
          "internalType": "uint256",
          "name": "tokenId",
          "type": "uint256"
        }
      ],
      "name": "getApproved",
      "outputs": [
        {
          "internalType": "address",
          "name": "",
          "type": "address"
        }
      ],
      "stateMutability": "view",
      "type": "function"
    },
    {
      "inputs": [
        {
          "internalType": "address",
          "name": "owner",
          "type": "address"
        },
        {
          "internalType": "uint256",
          "name": "contentId",
          "type": "uint256"
        }
      ],
      "name": "hasNFTForContent",
      "outputs": [
        {
          "internalType": "bool",
          "name": "",
          "type": "bool"
        }
      ],
      "stateMutability": "view",
      "type": "function"
    },
    {
      "inputs": [
        {
          "internalType": "address",
          "name": "owner",
          "type": "address"
        },
        {
          "internalType": "uint256[]",
          "name": "contentIds",
          "type": "uint256[]"
        }
      ],
      "name": "hasNFTForContents",
      "outputs": [
        {
          "internalType": "bool[]",
          "name": "",
          "type": "bool[]"
        }
      ],
      "stateMutability": "view",
      "type": "function"
    },
    {
      "inputs": [
        {
          "internalType": "address",
          "name": "owner",
          "type": "address"
        },
        {
          "internalType": "address",
          "name": "operator",
          "type": "address"
        }
      ],
      "name": "isApprovedForAll",
      "outputs": [
        {
          "internalType": "bool",
          "name": "",
          "type": "bool"
        }
      ],
      "stateMutability": "view",
      "type": "function"
    },
    {
      "inputs": [
        {
          "internalType": "address",
          "name": "addr",
          "type": "address"
        }
      ],
      "name": "isContentServer",
      "outputs": [
        {
          "internalType": "bool",
          "name": "",
          "type": "bool"
        }
      ],
      "stateMutability": "view",
      "type": "function"
    },
    {
      "inputs": [
        {
          "internalType": "address",
          "name": "owner",
          "type": "address"
        },
        {
          "internalType": "uint256",
          "name": "contentId",
          "type": "uint256"
        }
      ],
      "name": "isDistributorOf",
      "outputs": [
        {
          "internalType": "bool",
          "name": "",
          "type": "bool"
        }
      ],
      "stateMutability": "view",
      "type": "function"
    },
    {
      "inputs": [
        {
          "internalType": "uint256",
          "name": "contentId",
          "type": "uint256"
        }
      ],
      "name": "isSetted",
      "outputs": [
        {
          "internalType": "bool",
          "name": "",
          "type": "bool"
        }
      ],
      "stateMutability": "view",
      "type": "function"
    },
    {
      "inputs": [
        {
          "internalType": "address",
          "name": "to",
          "type": "address"
        },
        {
          "internalType": "uint256",
          "name": "contentId",
          "type": "uint256"
        }
      ],
      "name": "mint",
      "outputs": [
        {
          "internalType": "uint256",
          "name": "",
          "type": "uint256"
        }
      ],
      "stateMutability": "nonpayable",
      "type": "function"
    },
    {
      "inputs": [],
      "name": "name",
      "outputs": [
        {
          "internalType": "string",
          "name": "",
          "type": "string"
        }
      ],
      "stateMutability": "view",
      "type": "function"
    },
    {
      "inputs": [
        {
          "internalType": "uint256",
          "name": "contentId",
          "type": "uint256"
        },
        {
          "internalType": "address",
          "name": "contentOwner",
          "type": "address"
        },
        {
          "internalType": "bytes",
          "name": "signature",
          "type": "bytes"
        }
      ],
      "name": "newContent",
      "outputs": [
        {
          "internalType": "bool",
          "name": "",
          "type": "bool"
        }
      ],
      "stateMutability": "nonpayable",
      "type": "function"
    },
    {
      "inputs": [],
      "name": "newContentId",
      "outputs": [
        {
          "internalType": "uint256",
          "name": "",
          "type": "uint256"
        }
      ],
      "stateMutability": "view",
      "type": "function"
    },
    {
      "inputs": [],
      "name": "owner",
      "outputs": [
        {
          "internalType": "address",
          "name": "",
          "type": "address"
        }
      ],
      "stateMutability": "view",
      "type": "function"
    },
    {
      "inputs": [
        {
          "internalType": "uint256",
          "name": "tokenId",
          "type": "uint256"
        }
      ],
      "name": "ownerOf",
      "outputs": [
        {
          "internalType": "address",
          "name": "",
          "type": "address"
        }
      ],
      "stateMutability": "view",
      "type": "function"
    },
    {
      "inputs": [],
      "name": "renounceOwnership",
      "outputs": [],
      "stateMutability": "nonpayable",
      "type": "function"
    },
    {
      "inputs": [
        {
          "internalType": "address",
          "name": "from",
          "type": "address"
        },
        {
          "internalType": "address",
          "name": "to",
          "type": "address"
        },
        {
          "internalType": "uint256",
          "name": "tokenId",
          "type": "uint256"
        }
      ],
      "name": "safeTransferFrom",
      "outputs": [],
      "stateMutability": "nonpayable",
      "type": "function"
    },
    {
      "inputs": [
        {
          "internalType": "address",
          "name": "from",
          "type": "address"
        },
        {
          "internalType": "address",
          "name": "to",
          "type": "address"
        },
        {
          "internalType": "uint256",
          "name": "tokenId",
          "type": "uint256"
        },
        {
          "internalType": "bytes",
          "name": "_data",
          "type": "bytes"
        }
      ],
      "name": "safeTransferFrom",
      "outputs": [],
      "stateMutability": "nonpayable",
      "type": "function"
    },
    {
      "inputs": [
        {
          "internalType": "address",
          "name": "operator",
          "type": "address"
        },
        {
          "internalType": "bool",
          "name": "approved",
          "type": "bool"
        }
      ],
      "name": "setApprovalForAll",
      "outputs": [],
      "stateMutability": "nonpayable",
      "type": "function"
    },
    {
      "inputs": [
        {
          "internalType": "string",
          "name": "baseURI",
          "type": "string"
        }
      ],
      "name": "setBaseTokenURI",
      "outputs": [],
      "stateMutability": "nonpayable",
      "type": "function"
    },
    {
      "inputs": [
        {
          "internalType": "address",
          "name": "contentServer",
          "type": "address"
        },
        {
          "internalType": "bool",
          "name": "set",
          "type": "bool"
        }
      ],
      "name": "setContentServer",
      "outputs": [],
      "stateMutability": "nonpayable",
      "type": "function"
    },
    {
      "inputs": [
        {
          "internalType": "bytes4",
          "name": "interfaceId",
          "type": "bytes4"
        }
      ],
      "name": "supportsInterface",
      "outputs": [
        {
          "internalType": "bool",
          "name": "",
          "type": "bool"
        }
      ],
      "stateMutability": "view",
      "type": "function"
    },
    {
      "inputs": [],
      "name": "symbol",
      "outputs": [
        {
          "internalType": "string",
          "name": "",
          "type": "string"
        }
      ],
      "stateMutability": "view",
      "type": "function"
    },
    {
      "inputs": [
        {
          "internalType": "uint256",
          "name": "tokenId",
          "type": "uint256"
        }
      ],
      "name": "tokenURI",
      "outputs": [
        {
          "internalType": "string",
          "name": "",
          "type": "string"
        }
      ],
      "stateMutability": "view",
      "type": "function"
    },
    {
      "inputs": [
        {
          "internalType": "uint256",
          "name": "contentId",
          "type": "uint256"
        },
        {
          "internalType": "address",
          "name": "newOwner",
          "type": "address"
        }
      ],
      "name": "transferContentRights",
      "outputs": [],
      "stateMutability": "nonpayable",
      "type": "function"
    },
    {
      "inputs": [
        {
          "internalType": "address",
          "name": "from",
          "type": "address"
        },
        {
          "internalType": "address",
          "name": "to",
          "type": "address"
        },
        {
          "internalType": "uint256",
          "name": "tokenId",
          "type": "uint256"
        }
      ],
      "name": "transferFrom",
      "outputs": [],
      "stateMutability": "nonpayable",
      "type": "function"
    },
    {
      "inputs": [
        {
          "internalType": "uint256",
          "name": "contentId",
          "type": "uint256"
        },
        {
          "internalType": "address",
          "name": "newOwner",
          "type": "address"
        }
      ],
      "name": "transferNFTRights",
      "outputs": [
        {
          "internalType": "bool",
          "name": "",
          "type": "bool"
        }
      ],
      "stateMutability": "nonpayable",
      "type": "function"
    },
    {
      "inputs": [
        {
          "internalType": "address",
          "name": "newOwner",
          "type": "address"
        }
      ],
      "name": "transferOwnership",
      "outputs": [],
      "stateMutability": "nonpayable",
      "type": "function"
    },
    {
      "inputs": [],
      "name": "withdraw",
      "outputs": [],
      "stateMutability": "nonpayable",
      "type": "function"
    }
  ],
  "bytecode": "0x60806040523480156200001157600080fd5b506040518060400160405280601881526020017f4e465420436f6e74656e7420506c617965722050726f6f6600000000000000008152506040518060400160405280600481526020017f4e43505000000000000000000000000000000000000000000000000000000000815250816000908051906020019062000096929190620001f4565b508060019080519060200190620000af929190620001f4565b505050620000d2620000c66200012660201b60201c565b6200012e60201b60201c565b6040518060400160405280600d81526020017f68747470733a2f2f697066732f00000000000000000000000000000000000000815250600b90805190602001906200011f929190620001f4565b5062000309565b600033905090565b6000600660009054906101000a900473ffffffffffffffffffffffffffffffffffffffff16905081600660006101000a81548173ffffffffffffffffffffffffffffffffffffffff021916908373ffffffffffffffffffffffffffffffffffffffff1602179055508173ffffffffffffffffffffffffffffffffffffffff168173ffffffffffffffffffffffffffffffffffffffff167f8be0079c531659141344cd1fd0a4f28419497f9722a3daafe3b4186f6b6457e060405160405180910390a35050565b8280546200020290620002a4565b90600052602060002090601f01602090048101928262000226576000855562000272565b82601f106200024157805160ff191683800117855562000272565b8280016001018555821562000272579182015b828111156200027157825182559160200191906001019062000254565b5b50905062000281919062000285565b5090565b5b80821115620002a057600081600090555060010162000286565b5090565b60006002820490506001821680620002bd57607f821691505b60208210811415620002d457620002d3620002da565b5b50919050565b7f4e487b7100000000000000000000000000000000000000000000000000000000600052602260045260246000fd5b614af880620003196000396000f3fe608060405234801561001057600080fd5b50600436106101fb5760003560e01c806370a082311161011a578063a22cb465116100ad578063c87b56dd1161007c578063c87b56dd14610620578063d4a8478114610650578063e985e9c51461066e578063f2fde38b1461069e578063f9da9c5a146106ba576101fb565b8063a22cb46514610588578063aae0ca62146105a4578063b88d4fde146105d4578063bb4243e5146105f0576101fb565b806389c61dc2116100e957806389c61dc2146104ec5780638da5cb5b1461051c57806395d89b411461053a57806399a0d11e14610558576101fb565b806370a0823114610452578063715018a61461048257806371ca59ca1461048c5780638170ced5146104bc576101fb565b806327427e311161019257806342842e0e1161016157806342842e0e146103ba57806361aad37b146103d65780636352211e146103f25780636f11401814610422576101fb565b806327427e311461033457806330176e13146103645780633ccfd60b1461038057806340c10f191461038a576101fb565b8063095ea7b3116101ce578063095ea7b31461029c5780631187beb1146102b85780631690a5a6146102e857806323b872dd14610318576101fb565b806301ffc9a71461020057806306fdde03146102305780630737b4f71461024e578063081812fc1461026c575b600080fd5b61021a60048036038101906102159190613312565b6106d6565b6040516102279190613b07565b60405180910390f35b6102386107b8565b6040516102459190613b67565b60405180910390f35b61025661084a565b6040516102639190613ec9565b60405180910390f35b610286600480360381019061028191906133a5565b6108d9565b6040516102939190613a7e565b60405180910390f35b6102b660048036038101906102b191906132d6565b61095e565b005b6102d260048036038101906102cd9190613246565b610a76565b6040516102df9190613ae5565b60405180910390f35b61030260048036038101906102fd919061340a565b610c75565b60405161030f9190613b07565b60405180910390f35b610332600480360381019061032d919061317c565b610dfa565b005b61034e600480360381019061034991906133a5565b610e5a565b60405161035b9190613ec9565b60405180910390f35b61037e60048036038101906103799190613364565b610e77565b005b610388610f0d565b005b6103a4600480360381019061039f91906132d6565b610fd2565b6040516103b19190613ec9565b60405180910390f35b6103d460048036038101906103cf919061317c565b61110e565b005b6103f060048036038101906103eb919061329a565b61112e565b005b61040c600480360381019061040791906133a5565b611205565b6040516104199190613a7e565b60405180910390f35b61043c600480360381019061043791906132d6565b6112b7565b6040516104499190613b07565b60405180910390f35b61046c60048036038101906104679190613117565b6112dc565b6040516104799190613ec9565b60405180910390f35b61048a611394565b005b6104a660048036038101906104a191906133a5565b61141c565b6040516104b39190613a7e565b60405180910390f35b6104d660048036038101906104d191906133a5565b611459565b6040516104e39190613b07565b60405180910390f35b610506600480360381019061050191906132d6565b6114c5565b6040516105139190613b07565b60405180910390f35b610524611557565b6040516105319190613a7e565b60405180910390f35b610542611581565b60405161054f9190613b67565b60405180910390f35b610572600480360381019061056d91906133ce565b611613565b60405161057f9190613b07565b60405180910390f35b6105a2600480360381019061059d919061329a565b6116b0565b005b6105be60048036038101906105b99190613117565b6116c6565b6040516105cb9190613b07565b60405180910390f35b6105ee60048036038101906105e991906131cb565b611761565b005b61060a600480360381019061060591906132d6565b6117c3565b6040516106179190613b07565b60405180910390f35b61063a600480360381019061063591906133a5565b611847565b6040516106479190613b67565b60405180910390f35b6106586118f6565b6040516106659190613ec9565b60405180910390f35b61068860048036038101906106839190613140565b611907565b6040516106959190613b07565b60405180910390f35b6106b860048036038101906106b39190613117565b61199b565b005b6106d460048036038101906106cf91906133ce565b611a93565b005b60007f80ac58cd000000000000000000000000000000000000000000000000000000007bffffffffffffffffffffffffffffffffffffffffffffffffffffffff1916827bffffffffffffffffffffffffffffffffffffffffffffffffffffffff191614806107a157507f5b5e139f000000000000000000000000000000000000000000000000000000007bffffffffffffffffffffffffffffffffffffffffffffffffffffffff1916827bffffffffffffffffffffffffffffffffffffffffffffffffffffffff1916145b806107b157506107b082611b8a565b5b9050919050565b6060600080546107c79061419b565b80601f01602080910402602001604051908101604052809291908181526020018280546107f39061419b565b80156108405780601f1061081557610100808354040283529160200191610840565b820191906000526020600020905b81548152906001019060200180831161082357829003601f168201915b5050505050905090565b6000610855336116c6565b610894576040517f08c379a000000000000000000000000000000000000000000000000000000000815260040161088b90613e89565b60405180910390fd5b60005b33426040516020016108aa9291906139fd565b6040516020818303038152906040528051906020012060001c90506108ce81611459565b610897578091505090565b60006108e482611bf4565b610923576040517f08c379a000000000000000000000000000000000000000000000000000000000815260040161091a90613da9565b60405180910390fd5b6004600083815260200190815260200160002060009054906101000a900473ffffffffffffffffffffffffffffffffffffffff169050919050565b600061096982611205565b90508073ffffffffffffffffffffffffffffffffffffffff168373ffffffffffffffffffffffffffffffffffffffff1614156109da576040517f08c379a00000000000000000000000000000000000000000000000000000000081526004016109d190613e09565b60405180910390fd5b8073ffffffffffffffffffffffffffffffffffffffff166109f9611c60565b73ffffffffffffffffffffffffffffffffffffffff161480610a285750610a2781610a22611c60565b611907565b5b610a67576040517f08c379a0000000000000000000000000000000000000000000000000000000008152600401610a5e90613d09565b60405180910390fd5b610a718383611c68565b505050565b606060008251905060008167ffffffffffffffff811115610ac0577f4e487b7100000000000000000000000000000000000000000000000000000000600052604160045260246000fd5b604051908082528060200260200182016040528015610aee5781602001602082028036833780820191505090505b5090506000610afb6118f6565b905060005b83811015610c68576000838281518110610b43577f4e487b7100000000000000000000000000000000000000000000000000000000600052603260045260246000fd5b60200260200101901515908115158152505060005b82811015610c54578773ffffffffffffffffffffffffffffffffffffffff16610b8082611205565b73ffffffffffffffffffffffffffffffffffffffff16148015610bea5750868281518110610bd7577f4e487b7100000000000000000000000000000000000000000000000000000000600052603260045260246000fd5b6020026020010151610be882610e5a565b145b15610c41576001848381518110610c2a577f4e487b7100000000000000000000000000000000000000000000000000000000600052603260045260246000fd5b602002602001019015159081151581525050610c54565b8080610c4c906141fe565b915050610b58565b508080610c60906141fe565b915050610b00565b5081935050505092915050565b60008073ffffffffffffffffffffffffffffffffffffffff16600a600086815260200190815260200160002060009054906101000a900473ffffffffffffffffffffffffffffffffffffffff1673ffffffffffffffffffffffffffffffffffffffff1614610d18576040517f08c379a0000000000000000000000000000000000000000000000000000000008152600401610d0f90613ea9565b60405180910390fd5b60008385604051602001610d2d9291906139fd565b6040516020818303038152906040528051906020012090506000610d518285611d21565b9050610d5c816116c6565b610d9b576040517f08c379a0000000000000000000000000000000000000000000000000000000008152600401610d9290613be9565b60405180910390fd5b84600a600088815260200190815260200160002060006101000a81548173ffffffffffffffffffffffffffffffffffffffff021916908373ffffffffffffffffffffffffffffffffffffffff1602179055506001925050509392505050565b610e0b610e05611c60565b82611d69565b610e4a576040517f08c379a0000000000000000000000000000000000000000000000000000000008152600401610e4190613e49565b60405180910390fd5b610e55838383611e47565b505050565b600060096000838152602001908152602001600020549050919050565b610e7f611c60565b73ffffffffffffffffffffffffffffffffffffffff16610e9d611557565b73ffffffffffffffffffffffffffffffffffffffff1614610ef3576040517f08c379a0000000000000000000000000000000000000000000000000000000008152600401610eea90613dc9565b60405180910390fd5b80600b9080519060200190610f09929190612ea5565b5050565b610f15611c60565b73ffffffffffffffffffffffffffffffffffffffff16610f33611557565b73ffffffffffffffffffffffffffffffffffffffff1614610f89576040517f08c379a0000000000000000000000000000000000000000000000000000000008152600401610f8090613dc9565b60405180910390fd5b3373ffffffffffffffffffffffffffffffffffffffff166108fc479081150290604051600060405180830381858888f19350505050158015610fcf573d6000803e3d6000fd5b50565b60003373ffffffffffffffffffffffffffffffffffffffff16610ff48361141c565b73ffffffffffffffffffffffffffffffffffffffff161461104a576040517f08c379a000000000000000000000000000000000000000000000000000000000815260040161104190613e29565b60405180910390fd5b61105483836114c5565b15611094576040517f08c379a000000000000000000000000000000000000000000000000000000000815260040161108b90613c89565b60405180910390fd5b60006110a060076120ae565b90506110ac60076120bc565b6110b684826120d2565b8373ffffffffffffffffffffffffffffffffffffffff167f1f89f147a58d1673945cf416187db98efc8208408c011b91887acd59fd8523c3846040516110fc9190613ec9565b60405180910390a28091505092915050565b61112983838360405180602001604052806000815250611761565b505050565b611136611c60565b73ffffffffffffffffffffffffffffffffffffffff16611154611557565b73ffffffffffffffffffffffffffffffffffffffff16146111aa576040517f08c379a00000000000000000000000000000000000000000000000000000000081526004016111a190613dc9565b60405180910390fd5b80600860008473ffffffffffffffffffffffffffffffffffffffff1673ffffffffffffffffffffffffffffffffffffffff16815260200190815260200160002060006101000a81548160ff0219169083151502179055505050565b6000806002600084815260200190815260200160002060009054906101000a900473ffffffffffffffffffffffffffffffffffffffff169050600073ffffffffffffffffffffffffffffffffffffffff168173ffffffffffffffffffffffffffffffffffffffff1614156112ae576040517f08c379a00000000000000000000000000000000000000000000000000000000081526004016112a590613d49565b60405180910390fd5b80915050919050565b60006112c383836117c3565b806112d457506112d383836114c5565b5b905092915050565b60008073ffffffffffffffffffffffffffffffffffffffff168273ffffffffffffffffffffffffffffffffffffffff16141561134d576040517f08c379a000000000000000000000000000000000000000000000000000000000815260040161134490613d29565b60405180910390fd5b600360008373ffffffffffffffffffffffffffffffffffffffff1673ffffffffffffffffffffffffffffffffffffffff168152602001908152602001600020549050919050565b61139c611c60565b73ffffffffffffffffffffffffffffffffffffffff166113ba611557565b73ffffffffffffffffffffffffffffffffffffffff1614611410576040517f08c379a000000000000000000000000000000000000000000000000000000000815260040161140790613dc9565b60405180910390fd5b61141a60006122ac565b565b6000600a600083815260200190815260200160002060009054906101000a900473ffffffffffffffffffffffffffffffffffffffff169050919050565b60008073ffffffffffffffffffffffffffffffffffffffff16600a600084815260200190815260200160002060009054906101000a900473ffffffffffffffffffffffffffffffffffffffff1673ffffffffffffffffffffffffffffffffffffffff1614159050919050565b6000806114d06118f6565b905060005b8181101561154a578473ffffffffffffffffffffffffffffffffffffffff166114fd82611205565b73ffffffffffffffffffffffffffffffffffffffff1614801561152757508361152582610e5a565b145b1561153757600192505050611551565b8080611542906141fe565b9150506114d5565b5060009150505b92915050565b6000600660009054906101000a900473ffffffffffffffffffffffffffffffffffffffff16905090565b6060600180546115909061419b565b80601f01602080910402602001604051908101604052809291908181526020018280546115bc9061419b565b80156116095780601f106115de57610100808354040283529160200191611609565b820191906000526020600020905b8154815290600101906020018083116115ec57829003601f168201915b5050505050905090565b60008061161e6118f6565b905060005b818110156116a3573373ffffffffffffffffffffffffffffffffffffffff1661164b82611205565b73ffffffffffffffffffffffffffffffffffffffff1614801561167557508461167382610e5a565b145b1561169057611685338583611e47565b6001925050506116aa565b808061169b906141fe565b915050611623565b5060009150505b92915050565b6116c26116bb611c60565b8383612372565b5050565b60006116d0611557565b73ffffffffffffffffffffffffffffffffffffffff168273ffffffffffffffffffffffffffffffffffffffff16141561170c576001905061175c565b600860008373ffffffffffffffffffffffffffffffffffffffff1673ffffffffffffffffffffffffffffffffffffffff16815260200190815260200160002060009054906101000a900460ff1690505b919050565b61177261176c611c60565b83611d69565b6117b1576040517f08c379a00000000000000000000000000000000000000000000000000000000081526004016117a890613e49565b60405180910390fd5b6117bd848484846124df565b50505050565b60008073ffffffffffffffffffffffffffffffffffffffff166117e58361141c565b73ffffffffffffffffffffffffffffffffffffffff161461183c578273ffffffffffffffffffffffffffffffffffffffff166118208361141c565b73ffffffffffffffffffffffffffffffffffffffff161461183f565b60015b905092915050565b606061185282611bf4565b611891576040517f08c379a000000000000000000000000000000000000000000000000000000000815260040161188890613de9565b60405180910390fd5b600061189b61253b565b905060008151116118bb57604051806020016040528060008152506118ee565b806118cd6118c885610e5a565b6125cd565b6040516020016118de929190613a29565b6040516020818303038152906040525b915050919050565b600061190260076120ae565b905090565b6000600560008473ffffffffffffffffffffffffffffffffffffffff1673ffffffffffffffffffffffffffffffffffffffff16815260200190815260200160002060008373ffffffffffffffffffffffffffffffffffffffff1673ffffffffffffffffffffffffffffffffffffffff16815260200190815260200160002060009054906101000a900460ff16905092915050565b6119a3611c60565b73ffffffffffffffffffffffffffffffffffffffff166119c1611557565b73ffffffffffffffffffffffffffffffffffffffff1614611a17576040517f08c379a0000000000000000000000000000000000000000000000000000000008152600401611a0e90613dc9565b60405180910390fd5b600073ffffffffffffffffffffffffffffffffffffffff168173ffffffffffffffffffffffffffffffffffffffff161415611a87576040517f08c379a0000000000000000000000000000000000000000000000000000000008152600401611a7e90613c09565b60405180910390fd5b611a90816122ac565b50565b3373ffffffffffffffffffffffffffffffffffffffff16600a600084815260200190815260200160002060009054906101000a900473ffffffffffffffffffffffffffffffffffffffff1673ffffffffffffffffffffffffffffffffffffffff1614611b34576040517f08c379a0000000000000000000000000000000000000000000000000000000008152600401611b2b90613e69565b60405180910390fd5b80600a600084815260200190815260200160002060006101000a81548173ffffffffffffffffffffffffffffffffffffffff021916908373ffffffffffffffffffffffffffffffffffffffff1602179055505050565b60007f01ffc9a7000000000000000000000000000000000000000000000000000000007bffffffffffffffffffffffffffffffffffffffffffffffffffffffff1916827bffffffffffffffffffffffffffffffffffffffffffffffffffffffff1916149050919050565b60008073ffffffffffffffffffffffffffffffffffffffff166002600084815260200190815260200160002060009054906101000a900473ffffffffffffffffffffffffffffffffffffffff1673ffffffffffffffffffffffffffffffffffffffff1614159050919050565b600033905090565b816004600083815260200190815260200160002060006101000a81548173ffffffffffffffffffffffffffffffffffffffff021916908373ffffffffffffffffffffffffffffffffffffffff160217905550808273ffffffffffffffffffffffffffffffffffffffff16611cdb83611205565b73ffffffffffffffffffffffffffffffffffffffff167f8c5be1e5ebec7d5bd14f71427d1e84f3dd0314c0f7b2291e5b200ac8c7c3b92560405160405180910390a45050565b60008083604051602001611d359190613a58565b604051602081830303815290604052805190602001209050611d60838261277a90919063ffffffff16565b91505092915050565b6000611d7482611bf4565b611db3576040517f08c379a0000000000000000000000000000000000000000000000000000000008152600401611daa90613ce9565b60405180910390fd5b6000611dbe83611205565b90508073ffffffffffffffffffffffffffffffffffffffff168473ffffffffffffffffffffffffffffffffffffffff161480611e2d57508373ffffffffffffffffffffffffffffffffffffffff16611e15846108d9565b73ffffffffffffffffffffffffffffffffffffffff16145b80611e3e5750611e3d8185611907565b5b91505092915050565b8273ffffffffffffffffffffffffffffffffffffffff16611e6782611205565b73ffffffffffffffffffffffffffffffffffffffff1614611ebd576040517f08c379a0000000000000000000000000000000000000000000000000000000008152600401611eb490613c29565b60405180910390fd5b600073ffffffffffffffffffffffffffffffffffffffff168273ffffffffffffffffffffffffffffffffffffffff161415611f2d576040517f08c379a0000000000000000000000000000000000000000000000000000000008152600401611f2490613c69565b60405180910390fd5b611f388383836127a1565b611f43600082611c68565b6001600360008573ffffffffffffffffffffffffffffffffffffffff1673ffffffffffffffffffffffffffffffffffffffff1681526020019081526020016000206000828254611f93919061409a565b925050819055506001600360008473ffffffffffffffffffffffffffffffffffffffff1673ffffffffffffffffffffffffffffffffffffffff1681526020019081526020016000206000828254611fea9190614013565b92505081905550816002600083815260200190815260200160002060006101000a81548173ffffffffffffffffffffffffffffffffffffffff021916908373ffffffffffffffffffffffffffffffffffffffff160217905550808273ffffffffffffffffffffffffffffffffffffffff168473ffffffffffffffffffffffffffffffffffffffff167fddf252ad1be2c89b69c2b068fc378daa952ba7f163c4a11628f55a4df523b3ef60405160405180910390a46120a98383836127a6565b505050565b600081600001549050919050565b6001816000016000828254019250508190555050565b600073ffffffffffffffffffffffffffffffffffffffff168273ffffffffffffffffffffffffffffffffffffffff161415612142576040517f08c379a000000000000000000000000000000000000000000000000000000000815260040161213990613d89565b60405180910390fd5b61214b81611bf4565b1561218b576040517f08c379a000000000000000000000000000000000000000000000000000000000815260040161218290613c49565b60405180910390fd5b612197600083836127a1565b6001600360008473ffffffffffffffffffffffffffffffffffffffff1673ffffffffffffffffffffffffffffffffffffffff16815260200190815260200160002060008282546121e79190614013565b92505081905550816002600083815260200190815260200160002060006101000a81548173ffffffffffffffffffffffffffffffffffffffff021916908373ffffffffffffffffffffffffffffffffffffffff160217905550808273ffffffffffffffffffffffffffffffffffffffff16600073ffffffffffffffffffffffffffffffffffffffff167fddf252ad1be2c89b69c2b068fc378daa952ba7f163c4a11628f55a4df523b3ef60405160405180910390a46122a8600083836127a6565b5050565b6000600660009054906101000a900473ffffffffffffffffffffffffffffffffffffffff16905081600660006101000a81548173ffffffffffffffffffffffffffffffffffffffff021916908373ffffffffffffffffffffffffffffffffffffffff1602179055508173ffffffffffffffffffffffffffffffffffffffff168173ffffffffffffffffffffffffffffffffffffffff167f8be0079c531659141344cd1fd0a4f28419497f9722a3daafe3b4186f6b6457e060405160405180910390a35050565b8173ffffffffffffffffffffffffffffffffffffffff168373ffffffffffffffffffffffffffffffffffffffff1614156123e1576040517f08c379a00000000000000000000000000000000000000000000000000000000081526004016123d890613ca9565b60405180910390fd5b80600560008573ffffffffffffffffffffffffffffffffffffffff1673ffffffffffffffffffffffffffffffffffffffff16815260200190815260200160002060008473ffffffffffffffffffffffffffffffffffffffff1673ffffffffffffffffffffffffffffffffffffffff16815260200190815260200160002060006101000a81548160ff0219169083151502179055508173ffffffffffffffffffffffffffffffffffffffff168373ffffffffffffffffffffffffffffffffffffffff167f17307eab39ab6107e8899845ad3d59bd9653f200f220920489ca2b5937696c31836040516124d29190613b07565b60405180910390a3505050565b6124ea848484611e47565b6124f6848484846127ab565b612535576040517f08c379a000000000000000000000000000000000000000000000000000000000815260040161252c90613bc9565b60405180910390fd5b50505050565b6060600b805461254a9061419b565b80601f01602080910402602001604051908101604052809291908181526020018280546125769061419b565b80156125c35780601f10612598576101008083540402835291602001916125c3565b820191906000526020600020905b8154815290600101906020018083116125a657829003601f168201915b5050505050905090565b60606000821415612615576040518060400160405280600181526020017f30000000000000000000000000000000000000000000000000000000000000008152509050612775565b600082905060005b60008214612647578080612630906141fe565b915050600a826126409190614069565b915061261d565b60008167ffffffffffffffff811115612689577f4e487b7100000000000000000000000000000000000000000000000000000000600052604160045260246000fd5b6040519080825280601f01601f1916602001820160405280156126bb5781602001600182028036833780820191505090505b5090505b6000851461276e576001826126d4919061409a565b9150600a856126e3919061427f565b60306126ef9190614013565b60f81b81838151811061272b577f4e487b7100000000000000000000000000000000000000000000000000000000600052603260045260246000fd5b60200101907effffffffffffffffffffffffffffffffffffffffffffffffffffffffffffff1916908160001a905350600a856127679190614069565b94506126bf565b8093505050505b919050565b60008060006127898585612942565b91509150612796816129c5565b819250505092915050565b505050565b505050565b60006127cc8473ffffffffffffffffffffffffffffffffffffffff16612d16565b15612935578373ffffffffffffffffffffffffffffffffffffffff1663150b7a026127f5611c60565b8786866040518563ffffffff1660e01b81526004016128179493929190613a99565b602060405180830381600087803b15801561283157600080fd5b505af192505050801561286257506040513d601f19601f8201168201806040525081019061285f919061333b565b60015b6128e5573d8060008114612892576040519150601f19603f3d011682016040523d82523d6000602084013e612897565b606091505b506000815114156128dd576040517f08c379a00000000000000000000000000000000000000000000000000000000081526004016128d490613bc9565b60405180910390fd5b805181602001fd5b63150b7a0260e01b7bffffffffffffffffffffffffffffffffffffffffffffffffffffffff1916817bffffffffffffffffffffffffffffffffffffffffffffffffffffffff19161491505061293a565b600190505b949350505050565b6000806041835114156129845760008060006020860151925060408601519150606086015160001a905061297887828585612d39565b945094505050506129be565b6040835114156129b55760008060208501519150604085015190506129aa868383612e46565b9350935050506129be565b60006002915091505b9250929050565b600060048111156129ff577f4e487b7100000000000000000000000000000000000000000000000000000000600052602160045260246000fd5b816004811115612a38577f4e487b7100000000000000000000000000000000000000000000000000000000600052602160045260246000fd5b1415612a4357612d13565b60016004811115612a7d577f4e487b7100000000000000000000000000000000000000000000000000000000600052602160045260246000fd5b816004811115612ab6577f4e487b7100000000000000000000000000000000000000000000000000000000600052602160045260246000fd5b1415612af7576040517f08c379a0000000000000000000000000000000000000000000000000000000008152600401612aee90613b89565b60405180910390fd5b60026004811115612b31577f4e487b7100000000000000000000000000000000000000000000000000000000600052602160045260246000fd5b816004811115612b6a577f4e487b7100000000000000000000000000000000000000000000000000000000600052602160045260246000fd5b1415612bab576040517f08c379a0000000000000000000000000000000000000000000000000000000008152600401612ba290613ba9565b60405180910390fd5b60036004811115612be5577f4e487b7100000000000000000000000000000000000000000000000000000000600052602160045260246000fd5b816004811115612c1e577f4e487b7100000000000000000000000000000000000000000000000000000000600052602160045260246000fd5b1415612c5f576040517f08c379a0000000000000000000000000000000000000000000000000000000008152600401612c5690613cc9565b60405180910390fd5b600480811115612c98577f4e487b7100000000000000000000000000000000000000000000000000000000600052602160045260246000fd5b816004811115612cd1577f4e487b7100000000000000000000000000000000000000000000000000000000600052602160045260246000fd5b1415612d12576040517f08c379a0000000000000000000000000000000000000000000000000000000008152600401612d0990613d69565b60405180910390fd5b5b50565b6000808273ffffffffffffffffffffffffffffffffffffffff163b119050919050565b6000807f7fffffffffffffffffffffffffffffff5d576e7357a4501ddfe92f46681b20a08360001c1115612d74576000600391509150612e3d565b601b8560ff1614158015612d8c5750601c8560ff1614155b15612d9e576000600491509150612e3d565b600060018787878760405160008152602001604052604051612dc39493929190613b22565b6020604051602081039080840390855afa158015612de5573d6000803e3d6000fd5b505050602060405103519050600073ffffffffffffffffffffffffffffffffffffffff168173ffffffffffffffffffffffffffffffffffffffff161415612e3457600060019250925050612e3d565b80600092509250505b94509492505050565b60008060007f7fffffffffffffffffffffffffffffffffffffffffffffffffffffffffffffff60001b841690506000601b60ff8660001c901c612e899190614013565b9050612e9787828885612d39565b935093505050935093915050565b828054612eb19061419b565b90600052602060002090601f016020900481019282612ed35760008555612f1a565b82601f10612eec57805160ff1916838001178555612f1a565b82800160010185558215612f1a579182015b82811115612f19578251825591602001919060010190612efe565b5b509050612f279190612f2b565b5090565b5b80821115612f44576000816000905550600101612f2c565b5090565b6000612f5b612f5684613f09565b613ee4565b90508083825260208201905082856020860282011115612f7a57600080fd5b60005b85811015612faa5781612f908882613102565b845260208401935060208301925050600181019050612f7d565b5050509392505050565b6000612fc7612fc284613f35565b613ee4565b905082815260208101848484011115612fdf57600080fd5b612fea848285614159565b509392505050565b600061300561300084613f66565b613ee4565b90508281526020810184848401111561301d57600080fd5b613028848285614159565b509392505050565b60008135905061303f81614a66565b92915050565b600082601f83011261305657600080fd5b8135613066848260208601612f48565b91505092915050565b60008135905061307e81614a7d565b92915050565b60008135905061309381614a94565b92915050565b6000815190506130a881614a94565b92915050565b600082601f8301126130bf57600080fd5b81356130cf848260208601612fb4565b91505092915050565b600082601f8301126130e957600080fd5b81356130f9848260208601612ff2565b91505092915050565b60008135905061311181614aab565b92915050565b60006020828403121561312957600080fd5b600061313784828501613030565b91505092915050565b6000806040838503121561315357600080fd5b600061316185828601613030565b925050602061317285828601613030565b9150509250929050565b60008060006060848603121561319157600080fd5b600061319f86828701613030565b93505060206131b086828701613030565b92505060406131c186828701613102565b9150509250925092565b600080600080608085870312156131e157600080fd5b60006131ef87828801613030565b945050602061320087828801613030565b935050604061321187828801613102565b925050606085013567ffffffffffffffff81111561322e57600080fd5b61323a878288016130ae565b91505092959194509250565b6000806040838503121561325957600080fd5b600061326785828601613030565b925050602083013567ffffffffffffffff81111561328457600080fd5b61329085828601613045565b9150509250929050565b600080604083850312156132ad57600080fd5b60006132bb85828601613030565b92505060206132cc8582860161306f565b9150509250929050565b600080604083850312156132e957600080fd5b60006132f785828601613030565b925050602061330885828601613102565b9150509250929050565b60006020828403121561332457600080fd5b600061333284828501613084565b91505092915050565b60006020828403121561334d57600080fd5b600061335b84828501613099565b91505092915050565b60006020828403121561337657600080fd5b600082013567ffffffffffffffff81111561339057600080fd5b61339c848285016130d8565b91505092915050565b6000602082840312156133b757600080fd5b60006133c584828501613102565b91505092915050565b600080604083850312156133e157600080fd5b60006133ef85828601613102565b925050602061340085828601613030565b9150509250929050565b60008060006060848603121561341f57600080fd5b600061342d86828701613102565b935050602061343e86828701613030565b925050604084013567ffffffffffffffff81111561345b57600080fd5b613467868287016130ae565b9150509250925092565b600061347d838361350d565b60208301905092915050565b613492816140ce565b82525050565b6134a96134a4826140ce565b614247565b82525050565b60006134ba82613fa7565b6134c48185613fd5565b93506134cf83613f97565b8060005b838110156135005781516134e78882613471565b97506134f283613fc8565b9250506001810190506134d3565b5085935050505092915050565b613516816140e0565b82525050565b613525816140e0565b82525050565b613534816140ec565b82525050565b61354b613546826140ec565b614259565b82525050565b600061355c82613fb2565b6135668185613fe6565b9350613576818560208601614168565b61357f8161436c565b840191505092915050565b600061359582613fbd565b61359f8185613ff7565b93506135af818560208601614168565b6135b88161436c565b840191505092915050565b60006135ce82613fbd565b6135d88185614008565b93506135e8818560208601614168565b80840191505092915050565b6000613601601883613ff7565b915061360c8261438a565b602082019050919050565b6000613624601f83613ff7565b915061362f826143b3565b602082019050919050565b6000613647601c83614008565b9150613652826143dc565b601c82019050919050565b600061366a603283613ff7565b915061367582614405565b604082019050919050565b600061368d603783613ff7565b915061369882614454565b604082019050919050565b60006136b0602683613ff7565b91506136bb826144a3565b604082019050919050565b60006136d3602583613ff7565b91506136de826144f2565b604082019050919050565b60006136f6601c83613ff7565b915061370182614541565b602082019050919050565b6000613719602483613ff7565b91506137248261456a565b604082019050919050565b600061373c601283613ff7565b9150613747826145b9565b602082019050919050565b600061375f601983613ff7565b915061376a826145e2565b602082019050919050565b6000613782602283613ff7565b915061378d8261460b565b604082019050919050565b60006137a5602c83613ff7565b91506137b08261465a565b604082019050919050565b60006137c8603883613ff7565b91506137d3826146a9565b604082019050919050565b60006137eb602a83613ff7565b91506137f6826146f8565b604082019050919050565b600061380e602983613ff7565b915061381982614747565b604082019050919050565b6000613831602283613ff7565b915061383c82614796565b604082019050919050565b6000613854602083613ff7565b915061385f826147e5565b602082019050919050565b6000613877602c83613ff7565b91506138828261480e565b604082019050919050565b600061389a600583614008565b91506138a58261485d565b600582019050919050565b60006138bd602083613ff7565b91506138c882614886565b602082019050919050565b60006138e0602f83613ff7565b91506138eb826148af565b604082019050919050565b6000613903602183613ff7565b915061390e826148fe565b604082019050919050565b6000613926601783613ff7565b91506139318261494d565b602082019050919050565b6000613949603183613ff7565b915061395482614976565b604082019050919050565b600061396c602783613ff7565b9150613977826149c5565b604082019050919050565b600061398f601f83613ff7565b915061399a82614a14565b602082019050919050565b60006139b2601583613ff7565b91506139bd82614a3d565b602082019050919050565b6139d181614142565b82525050565b6139e86139e382614142565b614275565b82525050565b6139f78161414c565b82525050565b6000613a098285613498565b601482019150613a1982846139d7565b6020820191508190509392505050565b6000613a3582856135c3565b9150613a4182846135c3565b9150613a4c8261388d565b91508190509392505050565b6000613a638261363a565b9150613a6f828461353a565b60208201915081905092915050565b6000602082019050613a936000830184613489565b92915050565b6000608082019050613aae6000830187613489565b613abb6020830186613489565b613ac860408301856139c8565b8181036060830152613ada8184613551565b905095945050505050565b60006020820190508181036000830152613aff81846134af565b905092915050565b6000602082019050613b1c600083018461351c565b92915050565b6000608082019050613b37600083018761352b565b613b4460208301866139ee565b613b51604083018561352b565b613b5e606083018461352b565b95945050505050565b60006020820190508181036000830152613b81818461358a565b905092915050565b60006020820190508181036000830152613ba2816135f4565b9050919050565b60006020820190508181036000830152613bc281613617565b9050919050565b60006020820190508181036000830152613be28161365d565b9050919050565b60006020820190508181036000830152613c0281613680565b9050919050565b60006020820190508181036000830152613c22816136a3565b9050919050565b60006020820190508181036000830152613c42816136c6565b9050919050565b60006020820190508181036000830152613c62816136e9565b9050919050565b60006020820190508181036000830152613c828161370c565b9050919050565b60006020820190508181036000830152613ca28161372f565b9050919050565b60006020820190508181036000830152613cc281613752565b9050919050565b60006020820190508181036000830152613ce281613775565b9050919050565b60006020820190508181036000830152613d0281613798565b9050919050565b60006020820190508181036000830152613d22816137bb565b9050919050565b60006020820190508181036000830152613d42816137de565b9050919050565b60006020820190508181036000830152613d6281613801565b9050919050565b60006020820190508181036000830152613d8281613824565b9050919050565b60006020820190508181036000830152613da281613847565b9050919050565b60006020820190508181036000830152613dc28161386a565b9050919050565b60006020820190508181036000830152613de2816138b0565b9050919050565b60006020820190508181036000830152613e02816138d3565b9050919050565b60006020820190508181036000830152613e22816138f6565b9050919050565b60006020820190508181036000830152613e4281613919565b9050919050565b60006020820190508181036000830152613e628161393c565b9050919050565b60006020820190508181036000830152613e828161395f565b9050919050565b60006020820190508181036000830152613ea281613982565b9050919050565b60006020820190508181036000830152613ec2816139a5565b9050919050565b6000602082019050613ede60008301846139c8565b92915050565b6000613eee613eff565b9050613efa82826141cd565b919050565b6000604051905090565b600067ffffffffffffffff821115613f2457613f2361433d565b5b602082029050602081019050919050565b600067ffffffffffffffff821115613f5057613f4f61433d565b5b613f598261436c565b9050602081019050919050565b600067ffffffffffffffff821115613f8157613f8061433d565b5b613f8a8261436c565b9050602081019050919050565b6000819050602082019050919050565b600081519050919050565b600081519050919050565b600081519050919050565b6000602082019050919050565b600082825260208201905092915050565b600082825260208201905092915050565b600082825260208201905092915050565b600081905092915050565b600061401e82614142565b915061402983614142565b9250827fffffffffffffffffffffffffffffffffffffffffffffffffffffffffffffffff0382111561405e5761405d6142b0565b5b828201905092915050565b600061407482614142565b915061407f83614142565b92508261408f5761408e6142df565b5b828204905092915050565b60006140a582614142565b91506140b083614142565b9250828210156140c3576140c26142b0565b5b828203905092915050565b60006140d982614122565b9050919050565b60008115159050919050565b6000819050919050565b60007fffffffff0000000000000000000000000000000000000000000000000000000082169050919050565b600073ffffffffffffffffffffffffffffffffffffffff82169050919050565b6000819050919050565b600060ff82169050919050565b82818337600083830152505050565b60005b8381101561418657808201518184015260208101905061416b565b83811115614195576000848401525b50505050565b600060028204905060018216806141b357607f821691505b602082108114156141c7576141c661430e565b5b50919050565b6141d68261436c565b810181811067ffffffffffffffff821117156141f5576141f461433d565b5b80604052505050565b600061420982614142565b91507fffffffffffffffffffffffffffffffffffffffffffffffffffffffffffffffff82141561423c5761423b6142b0565b5b600182019050919050565b600061425282614263565b9050919050565b6000819050919050565b600061426e8261437d565b9050919050565b6000819050919050565b600061428a82614142565b915061429583614142565b9250826142a5576142a46142df565b5b828206905092915050565b7f4e487b7100000000000000000000000000000000000000000000000000000000600052601160045260246000fd5b7f4e487b7100000000000000000000000000000000000000000000000000000000600052601260045260246000fd5b7f4e487b7100000000000000000000000000000000000000000000000000000000600052602260045260246000fd5b7f4e487b7100000000000000000000000000000000000000000000000000000000600052604160045260246000fd5b6000601f19601f8301169050919050565b60008160601b9050919050565b7f45434453413a20696e76616c6964207369676e61747572650000000000000000600082015250565b7f45434453413a20696e76616c6964207369676e6174757265206c656e67746800600082015250565b7f19457468657265756d205369676e6564204d6573736167653a0a333200000000600082015250565b7f4552433732313a207472616e7366657220746f206e6f6e20455243373231526560008201527f63656976657220696d706c656d656e7465720000000000000000000000000000602082015250565b7f43616e27742063726561746520636f6e74656e74206265636175736520796f7560008201527f20617265206e6f7420636f6e74656e7420736572766572000000000000000000602082015250565b7f4f776e61626c653a206e6577206f776e657220697320746865207a65726f206160008201527f6464726573730000000000000000000000000000000000000000000000000000602082015250565b7f4552433732313a207472616e736665722066726f6d20696e636f72726563742060008201527f6f776e6572000000000000000000000000000000000000000000000000000000602082015250565b7f4552433732313a20746f6b656e20616c7265616479206d696e74656400000000600082015250565b7f4552433732313a207472616e7366657220746f20746865207a65726f2061646460008201527f7265737300000000000000000000000000000000000000000000000000000000602082015250565b7f4e465420616c7265616479206d696e7465640000000000000000000000000000600082015250565b7f4552433732313a20617070726f766520746f2063616c6c657200000000000000600082015250565b7f45434453413a20696e76616c6964207369676e6174757265202773272076616c60008201527f7565000000000000000000000000000000000000000000000000000000000000602082015250565b7f4552433732313a206f70657261746f7220717565727920666f72206e6f6e657860008201527f697374656e7420746f6b656e0000000000000000000000000000000000000000602082015250565b7f4552433732313a20617070726f76652063616c6c6572206973206e6f74206f7760008201527f6e6572206e6f7220617070726f76656420666f7220616c6c0000000000000000602082015250565b7f4552433732313a2062616c616e636520717565727920666f7220746865207a6560008201527f726f206164647265737300000000000000000000000000000000000000000000602082015250565b7f4552433732313a206f776e657220717565727920666f72206e6f6e657869737460008201527f656e7420746f6b656e0000000000000000000000000000000000000000000000602082015250565b7f45434453413a20696e76616c6964207369676e6174757265202776272076616c60008201527f7565000000000000000000000000000000000000000000000000000000000000602082015250565b7f4552433732313a206d696e7420746f20746865207a65726f2061646472657373600082015250565b7f4552433732313a20617070726f76656420717565727920666f72206e6f6e657860008201527f697374656e7420746f6b656e0000000000000000000000000000000000000000602082015250565b7f2e6a736f6e000000000000000000000000000000000000000000000000000000600082015250565b7f4f776e61626c653a2063616c6c6572206973206e6f7420746865206f776e6572600082015250565b7f4552433732314d657461646174613a2055524920717565727920666f72206e6f60008201527f6e6578697374656e7420746f6b656e0000000000000000000000000000000000602082015250565b7f4552433732313a20617070726f76616c20746f2063757272656e74206f776e6560008201527f7200000000000000000000000000000000000000000000000000000000000000602082015250565b7f596f752063616e2774206d696e742074686973204e4654000000000000000000600082015250565b7f4552433732313a207472616e736665722063616c6c6572206973206e6f74206f60008201527f776e6572206e6f7220617070726f766564000000000000000000000000000000602082015250565b7f596f7520617265206e6f74206469737472696275746f72206f6620746869732060008201527f636f6e74656e7400000000000000000000000000000000000000000000000000602082015250565b7f596f7520646f6e2774207065726d6974746564207468697320616374696f6e00600082015250565b7f436f6e74656e7420616c72656164792061646465640000000000000000000000600082015250565b614a6f816140ce565b8114614a7a57600080fd5b50565b614a86816140e0565b8114614a9157600080fd5b50565b614a9d816140f6565b8114614aa857600080fd5b50565b614ab481614142565b8114614abf57600080fd5b5056fea2646970667358221220420cc3bd67fce399b1a948eb4a3d6d5546c545fa967a3d6524df83ce257e0e4564736f6c63430008040033",
  "linkReferences": {},
  "deployedLinkReferences": {}
}