{
  "_format": "hh-sol-artifact-1",
  "contractName": "NCPProof",
  "sourceName": "contracts/NCPProof.sol",
  "abi": [
    {
      "inputs": [],
      "stateMutability": "nonpayable",
      "type": "constructor"
    },
    {
      "anonymous": false,
      "inputs": [
        {
          "indexed": true,
          "internalType": "address",
          "name": "owner",
          "type": "address"
        },
        {
          "indexed": true,
          "internalType": "address",
          "name": "approved",
          "type": "address"
        },
        {
          "indexed": true,
          "internalType": "uint256",
          "name": "tokenId",
          "type": "uint256"
        }
      ],
      "name": "Approval",
      "type": "event"
    },
    {
      "anonymous": false,
      "inputs": [
        {
          "indexed": true,
          "internalType": "address",
          "name": "owner",
          "type": "address"
        },
        {
          "indexed": true,
          "internalType": "address",
          "name": "operator",
          "type": "address"
        },
        {
          "indexed": false,
          "internalType": "bool",
          "name": "approved",
          "type": "bool"
        }
      ],
      "name": "ApprovalForAll",
      "type": "event"
    },
    {
      "anonymous": false,
      "inputs": [
        {
          "indexed": true,
          "internalType": "address",
          "name": "_to",
          "type": "address"
        },
        {
          "indexed": false,
          "internalType": "uint256",
          "name": "_contentId",
          "type": "uint256"
        }
      ],
      "name": "MintNFT",
      "type": "event"
    },
    {
      "anonymous": false,
      "inputs": [
        {
          "indexed": true,
          "internalType": "address",
          "name": "previousOwner",
          "type": "address"
        },
        {
          "indexed": true,
          "internalType": "address",
          "name": "newOwner",
          "type": "address"
        }
      ],
      "name": "OwnershipTransferred",
      "type": "event"
    },
    {
      "anonymous": false,
      "inputs": [
        {
          "indexed": true,
          "internalType": "address",
          "name": "from",
          "type": "address"
        },
        {
          "indexed": true,
          "internalType": "address",
          "name": "to",
          "type": "address"
        },
        {
          "indexed": true,
          "internalType": "uint256",
          "name": "tokenId",
          "type": "uint256"
        }
      ],
      "name": "Transfer",
      "type": "event"
    },
    {
      "inputs": [
        {
          "internalType": "address",
          "name": "to",
          "type": "address"
        },
        {
          "internalType": "uint256",
          "name": "tokenId",
          "type": "uint256"
        }
      ],
      "name": "approve",
      "outputs": [],
      "stateMutability": "nonpayable",
      "type": "function"
    },
    {
      "inputs": [
        {
          "internalType": "address",
          "name": "owner",
          "type": "address"
        }
      ],
      "name": "balanceOf",
      "outputs": [
        {
          "internalType": "uint256",
          "name": "",
          "type": "uint256"
        }
      ],
      "stateMutability": "view",
      "type": "function"
    },
    {
      "inputs": [
        {
          "internalType": "address",
          "name": "owner",
          "type": "address"
        },
        {
          "internalType": "uint256",
          "name": "contentId",
          "type": "uint256"
        }
      ],
      "name": "canSeeProtected",
      "outputs": [
        {
          "internalType": "bool",
          "name": "",
          "type": "bool"
        }
      ],
      "stateMutability": "view",
      "type": "function"
    },
    {
      "inputs": [
        {
          "internalType": "uint256",
          "name": "contentId",
          "type": "uint256"
        }
      ],
      "name": "contentDistributorOf",
      "outputs": [
        {
          "internalType": "address",
          "name": "",
          "type": "address"
        }
      ],
      "stateMutability": "view",
      "type": "function"
    },
    {
      "inputs": [
        {
          "internalType": "uint256",
          "name": "tokenId",
          "type": "uint256"
        }
      ],
      "name": "contentOf",
      "outputs": [
        {
          "internalType": "uint256",
          "name": "",
          "type": "uint256"
        }
      ],
      "stateMutability": "view",
      "type": "function"
    },
    {
      "inputs": [],
      "name": "countOfNFT",
      "outputs": [
        {
          "internalType": "uint256",
          "name": "",
          "type": "uint256"
        }
      ],
      "stateMutability": "view",
      "type": "function"
    },
    {
      "inputs": [
        {
          "internalType": "uint256",
          "name": "tokenId",
          "type": "uint256"
        }
      ],
      "name": "getApproved",
      "outputs": [
        {
          "internalType": "address",
          "name": "",
          "type": "address"
        }
      ],
      "stateMutability": "view",
      "type": "function"
    },
    {
      "inputs": [
        {
          "internalType": "uint256",
          "name": "contentId",
          "type": "uint256"
        }
      ],
      "name": "getNFTForContent",
      "outputs": [
        {
          "internalType": "uint256",
          "name": "",
          "type": "uint256"
        }
      ],
      "stateMutability": "view",
      "type": "function"
    },
    {
      "inputs": [
        {
          "internalType": "address",
          "name": "owner",
          "type": "address"
        },
        {
          "internalType": "uint256",
          "name": "contentId",
          "type": "uint256"
        }
      ],
      "name": "hasNFTForContent",
      "outputs": [
        {
          "internalType": "bool",
          "name": "",
          "type": "bool"
        }
      ],
      "stateMutability": "view",
      "type": "function"
    },
    {
      "inputs": [
        {
          "internalType": "address",
          "name": "owner",
          "type": "address"
        },
        {
          "internalType": "uint256[]",
          "name": "contentIds",
          "type": "uint256[]"
        }
      ],
      "name": "hasNFTForContents",
      "outputs": [
        {
          "internalType": "bool[]",
          "name": "",
          "type": "bool[]"
        }
      ],
      "stateMutability": "view",
      "type": "function"
    },
    {
      "inputs": [
        {
          "internalType": "address",
          "name": "owner",
          "type": "address"
        },
        {
          "internalType": "address",
          "name": "operator",
          "type": "address"
        }
      ],
      "name": "isApprovedForAll",
      "outputs": [
        {
          "internalType": "bool",
          "name": "",
          "type": "bool"
        }
      ],
      "stateMutability": "view",
      "type": "function"
    },
    {
      "inputs": [
        {
          "internalType": "address",
          "name": "addr",
          "type": "address"
        }
      ],
      "name": "isContentServer",
      "outputs": [
        {
          "internalType": "bool",
          "name": "",
          "type": "bool"
        }
      ],
      "stateMutability": "view",
      "type": "function"
    },
    {
      "inputs": [
        {
          "internalType": "address",
          "name": "owner",
          "type": "address"
        },
        {
          "internalType": "uint256",
          "name": "contentId",
          "type": "uint256"
        }
      ],
      "name": "isDistributorOf",
      "outputs": [
        {
          "internalType": "bool",
          "name": "",
          "type": "bool"
        }
      ],
      "stateMutability": "view",
      "type": "function"
    },
    {
      "inputs": [
        {
          "internalType": "address",
          "name": "owner",
          "type": "address"
        },
        {
          "internalType": "uint256[]",
          "name": "contentIds",
          "type": "uint256[]"
        }
      ],
      "name": "isDistributorOfContents",
      "outputs": [
        {
          "internalType": "bool[]",
          "name": "",
          "type": "bool[]"
        }
      ],
      "stateMutability": "view",
      "type": "function"
    },
    {
      "inputs": [
        {
          "internalType": "uint256",
          "name": "contentId",
          "type": "uint256"
        }
      ],
      "name": "isSetted",
      "outputs": [
        {
          "internalType": "bool",
          "name": "",
          "type": "bool"
        }
      ],
      "stateMutability": "view",
      "type": "function"
    },
    {
      "inputs": [
        {
          "internalType": "address",
          "name": "to",
          "type": "address"
        },
        {
          "internalType": "uint256",
          "name": "contentId",
          "type": "uint256"
        },
        {
          "internalType": "uint256",
          "name": "endtime",
          "type": "uint256"
        }
      ],
      "name": "mint",
      "outputs": [
        {
          "internalType": "uint256",
          "name": "",
          "type": "uint256"
        }
      ],
      "stateMutability": "nonpayable",
      "type": "function"
    },
    {
      "inputs": [],
      "name": "name",
      "outputs": [
        {
          "internalType": "string",
          "name": "",
          "type": "string"
        }
      ],
      "stateMutability": "view",
      "type": "function"
    },
    {
      "inputs": [
        {
          "internalType": "uint256",
          "name": "contentId",
          "type": "uint256"
        },
        {
          "internalType": "address",
          "name": "contentOwner",
          "type": "address"
        },
        {
          "internalType": "bytes",
          "name": "signature",
          "type": "bytes"
        }
      ],
      "name": "newContent",
      "outputs": [
        {
          "internalType": "bool",
          "name": "",
          "type": "bool"
        }
      ],
      "stateMutability": "nonpayable",
      "type": "function"
    },
    {
      "inputs": [],
      "name": "newContentId",
      "outputs": [
        {
          "internalType": "uint256",
          "name": "",
          "type": "uint256"
        }
      ],
      "stateMutability": "view",
      "type": "function"
    },
    {
      "inputs": [],
      "name": "owner",
      "outputs": [
        {
          "internalType": "address",
          "name": "",
          "type": "address"
        }
      ],
      "stateMutability": "view",
      "type": "function"
    },
    {
      "inputs": [
        {
          "internalType": "uint256",
          "name": "tokenId",
          "type": "uint256"
        }
      ],
      "name": "ownerOf",
      "outputs": [
        {
          "internalType": "address",
          "name": "",
          "type": "address"
        }
      ],
      "stateMutability": "view",
      "type": "function"
    },
    {
      "inputs": [],
      "name": "renounceOwnership",
      "outputs": [],
      "stateMutability": "nonpayable",
      "type": "function"
    },
    {
      "inputs": [
        {
          "internalType": "address",
          "name": "from",
          "type": "address"
        },
        {
          "internalType": "address",
          "name": "to",
          "type": "address"
        },
        {
          "internalType": "uint256",
          "name": "tokenId",
          "type": "uint256"
        }
      ],
      "name": "safeTransferFrom",
      "outputs": [],
      "stateMutability": "nonpayable",
      "type": "function"
    },
    {
      "inputs": [
        {
          "internalType": "address",
          "name": "from",
          "type": "address"
        },
        {
          "internalType": "address",
          "name": "to",
          "type": "address"
        },
        {
          "internalType": "uint256",
          "name": "tokenId",
          "type": "uint256"
        },
        {
          "internalType": "bytes",
          "name": "_data",
          "type": "bytes"
        }
      ],
      "name": "safeTransferFrom",
      "outputs": [],
      "stateMutability": "nonpayable",
      "type": "function"
    },
    {
      "inputs": [
        {
          "internalType": "address",
          "name": "operator",
          "type": "address"
        },
        {
          "internalType": "bool",
          "name": "approved",
          "type": "bool"
        }
      ],
      "name": "setApprovalForAll",
      "outputs": [],
      "stateMutability": "nonpayable",
      "type": "function"
    },
    {
      "inputs": [
        {
          "internalType": "string",
          "name": "baseURI",
          "type": "string"
        }
      ],
      "name": "setBaseTokenURI",
      "outputs": [],
      "stateMutability": "nonpayable",
      "type": "function"
    },
    {
      "inputs": [
        {
          "internalType": "address",
          "name": "contentServer",
          "type": "address"
        },
        {
          "internalType": "bool",
          "name": "set",
          "type": "bool"
        }
      ],
      "name": "setContentServer",
      "outputs": [],
      "stateMutability": "nonpayable",
      "type": "function"
    },
    {
      "inputs": [
        {
          "internalType": "bytes4",
          "name": "interfaceId",
          "type": "bytes4"
        }
      ],
      "name": "supportsInterface",
      "outputs": [
        {
          "internalType": "bool",
          "name": "",
          "type": "bool"
        }
      ],
      "stateMutability": "view",
      "type": "function"
    },
    {
      "inputs": [],
      "name": "symbol",
      "outputs": [
        {
          "internalType": "string",
          "name": "",
          "type": "string"
        }
      ],
      "stateMutability": "view",
      "type": "function"
    },
    {
      "inputs": [
        {
          "internalType": "uint256",
          "name": "tokenId",
          "type": "uint256"
        }
      ],
      "name": "tokenURI",
      "outputs": [
        {
          "internalType": "string",
          "name": "",
          "type": "string"
        }
      ],
      "stateMutability": "view",
      "type": "function"
    },
    {
      "inputs": [
        {
          "internalType": "uint256",
          "name": "contentId",
          "type": "uint256"
        },
        {
          "internalType": "address",
          "name": "newOwner",
          "type": "address"
        }
      ],
      "name": "transferContentRights",
      "outputs": [],
      "stateMutability": "nonpayable",
      "type": "function"
    },
    {
      "inputs": [
        {
          "internalType": "address",
          "name": "from",
          "type": "address"
        },
        {
          "internalType": "address",
          "name": "to",
          "type": "address"
        },
        {
          "internalType": "uint256",
          "name": "tokenId",
          "type": "uint256"
        }
      ],
      "name": "transferFrom",
      "outputs": [],
      "stateMutability": "nonpayable",
      "type": "function"
    },
    {
      "inputs": [
        {
          "internalType": "uint256",
          "name": "contentId",
          "type": "uint256"
        },
        {
          "internalType": "address",
          "name": "newOwner",
          "type": "address"
        }
      ],
      "name": "transferNFTRights",
      "outputs": [
        {
          "internalType": "bool",
          "name": "",
          "type": "bool"
        }
      ],
      "stateMutability": "nonpayable",
      "type": "function"
    },
    {
      "inputs": [
        {
          "internalType": "address",
          "name": "newOwner",
          "type": "address"
        }
      ],
      "name": "transferOwnership",
      "outputs": [],
      "stateMutability": "nonpayable",
      "type": "function"
    },
    {
      "inputs": [],
      "name": "withdraw",
      "outputs": [],
      "stateMutability": "nonpayable",
      "type": "function"
    }
  ],
  "bytecode": "0x60806040523480156200001157600080fd5b506040518060400160405280601881526020017f4e465420436f6e74656e7420506c617965722050726f6f6600000000000000008152506040518060400160405280600481526020017f4e43505000000000000000000000000000000000000000000000000000000000815250816000908051906020019062000096929190620001f4565b508060019080519060200190620000af929190620001f4565b505050620000d2620000c66200012660201b60201c565b6200012e60201b60201c565b6040518060400160405280600d81526020017f68747470733a2f2f697066732f00000000000000000000000000000000000000815250600c90805190602001906200011f929190620001f4565b5062000309565b600033905090565b6000600660009054906101000a900473ffffffffffffffffffffffffffffffffffffffff16905081600660006101000a81548173ffffffffffffffffffffffffffffffffffffffff021916908373ffffffffffffffffffffffffffffffffffffffff1602179055508173ffffffffffffffffffffffffffffffffffffffff168173ffffffffffffffffffffffffffffffffffffffff167f8be0079c531659141344cd1fd0a4f28419497f9722a3daafe3b4186f6b6457e060405160405180910390a35050565b8280546200020290620002a4565b90600052602060002090601f01602090048101928262000226576000855562000272565b82601f106200024157805160ff191683800117855562000272565b8280016001018555821562000272579182015b828111156200027157825182559160200191906001019062000254565b5b50905062000281919062000285565b5090565b5b80821115620002a057600081600090555060010162000286565b5090565b60006002820490506001821680620002bd57607f821691505b60208210811415620002d457620002d3620002da565b5b50919050565b7f4e487b7100000000000000000000000000000000000000000000000000000000600052602260045260246000fd5b614eb080620003196000396000f3fe608060405234801561001057600080fd5b50600436106102115760003560e01c806370a0823111610125578063a22cb465116100ad578063c87b56dd1161007c578063c87b56dd14610696578063d4a84781146106c6578063e985e9c5146106e4578063f2fde38b14610714578063f9da9c5a1461073057610211565b8063a22cb465146105fe578063aae0ca621461061a578063b88d4fde1461064a578063bb4243e51461066657610211565b806389c61dc2116100f457806389c61dc2146105325780638da5cb5b1461056257806395d89b411461058057806396ed9d001461059e57806399a0d11e146105ce57610211565b806370a0823114610498578063715018a6146104c857806371ca59ca146104d25780638170ced51461050257610211565b80631690a5a6116101a85780633ccfd60b116101775780633ccfd60b146103f657806342842e0e1461040057806361aad37b1461041c5780636352211e146104385780636f1140181461046857610211565b80631690a5a61461035e57806323b872dd1461038e57806327427e31146103aa57806330176e13146103da57610211565b8063081812fc116101e4578063081812fc146102b2578063095ea7b3146102e25780631187beb1146102fe578063156e29f61461032e57610211565b806301ffc9a71461021657806306fdde03146102465780630737b4f71461026457806307c8bbc214610282575b600080fd5b610230600480360381019061022b91906136ca565b61074c565b60405161023d9190613ebf565b60405180910390f35b61024e61082e565b60405161025b9190613f1f565b60405180910390f35b61026c6108c0565b6040516102799190614281565b60405180910390f35b61029c600480360381019061029791906135af565b61094f565b6040516102a99190613e9d565b60405180910390f35b6102cc60048036038101906102c7919061375d565b610ae1565b6040516102d99190613e36565b60405180910390f35b6102fc60048036038101906102f7919061363f565b610b66565b005b610318600480360381019061031391906135af565b610c7e565b6040516103259190613e9d565b60405180910390f35b6103486004803603810190610343919061367b565b610e9c565b6040516103559190614281565b60405180910390f35b610378600480360381019061037391906137c2565b611009565b6040516103859190613ebf565b60405180910390f35b6103a860048036038101906103a391906134e5565b61118e565b005b6103c460048036038101906103bf919061375d565b6111ee565b6040516103d19190614281565b60405180910390f35b6103f460048036038101906103ef919061371c565b61122f565b005b6103fe6112c5565b005b61041a600480360381019061041591906134e5565b61138a565b005b61043660048036038101906104319190613603565b6113aa565b005b610452600480360381019061044d919061375d565b611481565b60405161045f9190613e36565b60405180910390f35b610482600480360381019061047d919061363f565b611533565b60405161048f9190613ebf565b60405180910390f35b6104b260048036038101906104ad9190613480565b611558565b6040516104bf9190614281565b60405180910390f35b6104d0611610565b005b6104ec60048036038101906104e7919061375d565b611698565b6040516104f99190613e36565b60405180910390f35b61051c6004803603810190610517919061375d565b6116d5565b6040516105299190613ebf565b60405180910390f35b61054c6004803603810190610547919061363f565b611741565b6040516105599190613ebf565b60405180910390f35b61056a6117f2565b6040516105779190613e36565b60405180910390f35b61058861181c565b6040516105959190613f1f565b60405180910390f35b6105b860048036038101906105b3919061375d565b6118ae565b6040516105c59190614281565b60405180910390f35b6105e860048036038101906105e39190613786565b61197c565b6040516105f59190613ebf565b60405180910390f35b61061860048036038101906106139190613603565b611a19565b005b610634600480360381019061062f9190613480565b611a2f565b6040516106419190613ebf565b60405180910390f35b610664600480360381019061065f9190613534565b611aca565b005b610680600480360381019061067b919061363f565b611b2c565b60405161068d9190613ebf565b60405180910390f35b6106b060048036038101906106ab919061375d565b611bb0565b6040516106bd9190613f1f565b60405180910390f35b6106ce611c5f565b6040516106db9190614281565b60405180910390f35b6106fe60048036038101906106f991906134a9565b611c70565b60405161070b9190613ebf565b60405180910390f35b61072e60048036038101906107299190613480565b611d04565b005b61074a60048036038101906107459190613786565b611dfc565b005b60007f80ac58cd000000000000000000000000000000000000000000000000000000007bffffffffffffffffffffffffffffffffffffffffffffffffffffffff1916827bffffffffffffffffffffffffffffffffffffffffffffffffffffffff1916148061081757507f5b5e139f000000000000000000000000000000000000000000000000000000007bffffffffffffffffffffffffffffffffffffffffffffffffffffffff1916827bffffffffffffffffffffffffffffffffffffffffffffffffffffffff1916145b80610827575061082682611ef3565b5b9050919050565b60606000805461083d90614553565b80601f016020809104026020016040519081016040528092919081815260200182805461086990614553565b80156108b65780601f1061088b576101008083540402835291602001916108b6565b820191906000526020600020905b81548152906001019060200180831161089957829003601f168201915b5050505050905090565b60006108cb33611a2f565b61090a576040517f08c379a000000000000000000000000000000000000000000000000000000000815260040161090190614241565b60405180910390fd5b60005b3342604051602001610920929190613db5565b6040516020818303038152906040528051906020012060001c9050610944816116d5565b61090d578091505090565b606060008251905060008167ffffffffffffffff811115610999577f4e487b7100000000000000000000000000000000000000000000000000000000600052604160045260246000fd5b6040519080825280602002602001820160405280156109c75781602001602082028036833780820191505090505b50905060005b82811015610ad557600a6000868381518110610a12577f4e487b7100000000000000000000000000000000000000000000000000000000600052603260045260246000fd5b6020026020010151815260200190815260200160002060009054906101000a900473ffffffffffffffffffffffffffffffffffffffff1673ffffffffffffffffffffffffffffffffffffffff168673ffffffffffffffffffffffffffffffffffffffff1614828281518110610ab0577f4e487b7100000000000000000000000000000000000000000000000000000000600052603260045260246000fd5b6020026020010190151590811515815250508080610acd906145b6565b9150506109cd565b50809250505092915050565b6000610aec82611f5d565b610b2b576040517f08c379a0000000000000000000000000000000000000000000000000000000008152600401610b2290614161565b60405180910390fd5b6004600083815260200190815260200160002060009054906101000a900473ffffffffffffffffffffffffffffffffffffffff169050919050565b6000610b7182611481565b90508073ffffffffffffffffffffffffffffffffffffffff168373ffffffffffffffffffffffffffffffffffffffff161415610be2576040517f08c379a0000000000000000000000000000000000000000000000000000000008152600401610bd9906141c1565b60405180910390fd5b8073ffffffffffffffffffffffffffffffffffffffff16610c01611fc9565b73ffffffffffffffffffffffffffffffffffffffff161480610c305750610c2f81610c2a611fc9565b611c70565b5b610c6f576040517f08c379a0000000000000000000000000000000000000000000000000000000008152600401610c66906140c1565b60405180910390fd5b610c798383611fd1565b505050565b606060008251905060008167ffffffffffffffff811115610cc8577f4e487b7100000000000000000000000000000000000000000000000000000000600052604160045260246000fd5b604051908082528060200260200182016040528015610cf65781602001602082028036833780820191505090505b5090506000610d03611c5f565b905060005b83811015610e8f576000838281518110610d4b577f4e487b7100000000000000000000000000000000000000000000000000000000600052603260045260246000fd5b60200260200101901515908115158152505060005b82811015610e7b578773ffffffffffffffffffffffffffffffffffffffff16610d8882611481565b73ffffffffffffffffffffffffffffffffffffffff16148015610df25750868281518110610ddf577f4e487b7100000000000000000000000000000000000000000000000000000000600052603260045260246000fd5b6020026020010151610df0826111ee565b145b8015610e11575042600b60008381526020019081526020016000205410155b15610e68576001848381518110610e51577f4e487b7100000000000000000000000000000000000000000000000000000000600052603260045260246000fd5b602002602001019015159081151581525050610e7b565b8080610e73906145b6565b915050610d60565b508080610e87906145b6565b915050610d08565b5081935050505092915050565b60003373ffffffffffffffffffffffffffffffffffffffff16610ebe84611698565b73ffffffffffffffffffffffffffffffffffffffff1614610f14576040517f08c379a0000000000000000000000000000000000000000000000000000000008152600401610f0b906141e1565b60405180910390fd5b610f1e8484611741565b15610f5e576040517f08c379a0000000000000000000000000000000000000000000000000000000008152600401610f5590614041565b60405180910390fd5b6000610f6a600761208a565b9050610f766007612098565b83600960008381526020019081526020016000208190555082600b600083815260200190815260200160002081905550610fb085826120ae565b8473ffffffffffffffffffffffffffffffffffffffff167f1f89f147a58d1673945cf416187db98efc8208408c011b91887acd59fd8523c385604051610ff69190614281565b60405180910390a2809150509392505050565b60008073ffffffffffffffffffffffffffffffffffffffff16600a600086815260200190815260200160002060009054906101000a900473ffffffffffffffffffffffffffffffffffffffff1673ffffffffffffffffffffffffffffffffffffffff16146110ac576040517f08c379a00000000000000000000000000000000000000000000000000000000081526004016110a390614261565b60405180910390fd5b600083856040516020016110c1929190613db5565b60405160208183030381529060405280519060200120905060006110e58285612288565b90506110f081611a2f565b61112f576040517f08c379a000000000000000000000000000000000000000000000000000000000815260040161112690613fa1565b60405180910390fd5b84600a600088815260200190815260200160002060006101000a81548173ffffffffffffffffffffffffffffffffffffffff021916908373ffffffffffffffffffffffffffffffffffffffff1602179055506001925050509392505050565b61119f611199611fc9565b826122d0565b6111de576040517f08c379a00000000000000000000000000000000000000000000000000000000081526004016111d590614201565b60405180910390fd5b6111e98383836123ae565b505050565b600042600b60008481526020019081526020016000205410611225576009600083815260200190815260200160002054905061122a565b600090505b919050565b611237611fc9565b73ffffffffffffffffffffffffffffffffffffffff166112556117f2565b73ffffffffffffffffffffffffffffffffffffffff16146112ab576040517f08c379a00000000000000000000000000000000000000000000000000000000081526004016112a290614181565b60405180910390fd5b80600c90805190602001906112c192919061320e565b5050565b6112cd611fc9565b73ffffffffffffffffffffffffffffffffffffffff166112eb6117f2565b73ffffffffffffffffffffffffffffffffffffffff1614611341576040517f08c379a000000000000000000000000000000000000000000000000000000000815260040161133890614181565b60405180910390fd5b3373ffffffffffffffffffffffffffffffffffffffff166108fc479081150290604051600060405180830381858888f19350505050158015611387573d6000803e3d6000fd5b50565b6113a583838360405180602001604052806000815250611aca565b505050565b6113b2611fc9565b73ffffffffffffffffffffffffffffffffffffffff166113d06117f2565b73ffffffffffffffffffffffffffffffffffffffff1614611426576040517f08c379a000000000000000000000000000000000000000000000000000000000815260040161141d90614181565b60405180910390fd5b80600860008473ffffffffffffffffffffffffffffffffffffffff1673ffffffffffffffffffffffffffffffffffffffff16815260200190815260200160002060006101000a81548160ff0219169083151502179055505050565b6000806002600084815260200190815260200160002060009054906101000a900473ffffffffffffffffffffffffffffffffffffffff169050600073ffffffffffffffffffffffffffffffffffffffff168173ffffffffffffffffffffffffffffffffffffffff16141561152a576040517f08c379a000000000000000000000000000000000000000000000000000000000815260040161152190614101565b60405180910390fd5b80915050919050565b600061153f8383611b2c565b80611550575061154f8383611741565b5b905092915050565b60008073ffffffffffffffffffffffffffffffffffffffff168273ffffffffffffffffffffffffffffffffffffffff1614156115c9576040517f08c379a00000000000000000000000000000000000000000000000000000000081526004016115c0906140e1565b60405180910390fd5b600360008373ffffffffffffffffffffffffffffffffffffffff1673ffffffffffffffffffffffffffffffffffffffff168152602001908152602001600020549050919050565b611618611fc9565b73ffffffffffffffffffffffffffffffffffffffff166116366117f2565b73ffffffffffffffffffffffffffffffffffffffff161461168c576040517f08c379a000000000000000000000000000000000000000000000000000000000815260040161168390614181565b60405180910390fd5b6116966000612615565b565b6000600a600083815260200190815260200160002060009054906101000a900473ffffffffffffffffffffffffffffffffffffffff169050919050565b60008073ffffffffffffffffffffffffffffffffffffffff16600a600084815260200190815260200160002060009054906101000a900473ffffffffffffffffffffffffffffffffffffffff1673ffffffffffffffffffffffffffffffffffffffff1614159050919050565b60008061174c611c5f565b905060005b818110156117e5578473ffffffffffffffffffffffffffffffffffffffff1661177982611481565b73ffffffffffffffffffffffffffffffffffffffff161480156117a35750836117a1826111ee565b145b80156117c2575042600b60008381526020019081526020016000205410155b156117d2576001925050506117ec565b80806117dd906145b6565b915050611751565b5060009150505b92915050565b6000600660009054906101000a900473ffffffffffffffffffffffffffffffffffffffff16905090565b60606001805461182b90614553565b80601f016020809104026020016040519081016040528092919081815260200182805461185790614553565b80156118a45780601f10611879576101008083540402835291602001916118a4565b820191906000526020600020905b81548152906001019060200180831161188757829003601f168201915b5050505050905090565b6000806118b9611c5f565b905060005b81811015611951573373ffffffffffffffffffffffffffffffffffffffff166118e682611481565b73ffffffffffffffffffffffffffffffffffffffff1614801561191057508361190e826111ee565b145b801561192f575042600b60008381526020019081526020016000205410155b1561193e578092505050611977565b8080611949906145b6565b9150506118be565b507fffffffffffffffffffffffffffffffffffffffffffffffffffffffffffffffff9150505b919050565b600080611987611c5f565b905060005b81811015611a0c573373ffffffffffffffffffffffffffffffffffffffff166119b482611481565b73ffffffffffffffffffffffffffffffffffffffff161480156119de5750846119dc826111ee565b145b156119f9576119ee3385836123ae565b600192505050611a13565b8080611a04906145b6565b91505061198c565b5060009150505b92915050565b611a2b611a24611fc9565b83836126db565b5050565b6000611a396117f2565b73ffffffffffffffffffffffffffffffffffffffff168273ffffffffffffffffffffffffffffffffffffffff161415611a755760019050611ac5565b600860008373ffffffffffffffffffffffffffffffffffffffff1673ffffffffffffffffffffffffffffffffffffffff16815260200190815260200160002060009054906101000a900460ff1690505b919050565b611adb611ad5611fc9565b836122d0565b611b1a576040517f08c379a0000000000000000000000000000000000000000000000000000000008152600401611b1190614201565b60405180910390fd5b611b2684848484612848565b50505050565b60008073ffffffffffffffffffffffffffffffffffffffff16611b4e83611698565b73ffffffffffffffffffffffffffffffffffffffff1614611ba5578273ffffffffffffffffffffffffffffffffffffffff16611b8983611698565b73ffffffffffffffffffffffffffffffffffffffff1614611ba8565b60015b905092915050565b6060611bbb82611f5d565b611bfa576040517f08c379a0000000000000000000000000000000000000000000000000000000008152600401611bf1906141a1565b60405180910390fd5b6000611c046128a4565b90506000815111611c245760405180602001604052806000815250611c57565b80611c36611c31856111ee565b612936565b604051602001611c47929190613de1565b6040516020818303038152906040525b915050919050565b6000611c6b600761208a565b905090565b6000600560008473ffffffffffffffffffffffffffffffffffffffff1673ffffffffffffffffffffffffffffffffffffffff16815260200190815260200160002060008373ffffffffffffffffffffffffffffffffffffffff1673ffffffffffffffffffffffffffffffffffffffff16815260200190815260200160002060009054906101000a900460ff16905092915050565b611d0c611fc9565b73ffffffffffffffffffffffffffffffffffffffff16611d2a6117f2565b73ffffffffffffffffffffffffffffffffffffffff1614611d80576040517f08c379a0000000000000000000000000000000000000000000000000000000008152600401611d7790614181565b60405180910390fd5b600073ffffffffffffffffffffffffffffffffffffffff168173ffffffffffffffffffffffffffffffffffffffff161415611df0576040517f08c379a0000000000000000000000000000000000000000000000000000000008152600401611de790613fc1565b60405180910390fd5b611df981612615565b50565b3373ffffffffffffffffffffffffffffffffffffffff16600a600084815260200190815260200160002060009054906101000a900473ffffffffffffffffffffffffffffffffffffffff1673ffffffffffffffffffffffffffffffffffffffff1614611e9d576040517f08c379a0000000000000000000000000000000000000000000000000000000008152600401611e9490614221565b60405180910390fd5b80600a600084815260200190815260200160002060006101000a81548173ffffffffffffffffffffffffffffffffffffffff021916908373ffffffffffffffffffffffffffffffffffffffff1602179055505050565b60007f01ffc9a7000000000000000000000000000000000000000000000000000000007bffffffffffffffffffffffffffffffffffffffffffffffffffffffff1916827bffffffffffffffffffffffffffffffffffffffffffffffffffffffff1916149050919050565b60008073ffffffffffffffffffffffffffffffffffffffff166002600084815260200190815260200160002060009054906101000a900473ffffffffffffffffffffffffffffffffffffffff1673ffffffffffffffffffffffffffffffffffffffff1614159050919050565b600033905090565b816004600083815260200190815260200160002060006101000a81548173ffffffffffffffffffffffffffffffffffffffff021916908373ffffffffffffffffffffffffffffffffffffffff160217905550808273ffffffffffffffffffffffffffffffffffffffff1661204483611481565b73ffffffffffffffffffffffffffffffffffffffff167f8c5be1e5ebec7d5bd14f71427d1e84f3dd0314c0f7b2291e5b200ac8c7c3b92560405160405180910390a45050565b600081600001549050919050565b6001816000016000828254019250508190555050565b600073ffffffffffffffffffffffffffffffffffffffff168273ffffffffffffffffffffffffffffffffffffffff16141561211e576040517f08c379a000000000000000000000000000000000000000000000000000000000815260040161211590614141565b60405180910390fd5b61212781611f5d565b15612167576040517f08c379a000000000000000000000000000000000000000000000000000000000815260040161215e90614001565b60405180910390fd5b61217360008383612ae3565b6001600360008473ffffffffffffffffffffffffffffffffffffffff1673ffffffffffffffffffffffffffffffffffffffff16815260200190815260200160002060008282546121c391906143cb565b92505081905550816002600083815260200190815260200160002060006101000a81548173ffffffffffffffffffffffffffffffffffffffff021916908373ffffffffffffffffffffffffffffffffffffffff160217905550808273ffffffffffffffffffffffffffffffffffffffff16600073ffffffffffffffffffffffffffffffffffffffff167fddf252ad1be2c89b69c2b068fc378daa952ba7f163c4a11628f55a4df523b3ef60405160405180910390a461228460008383612ae8565b5050565b6000808360405160200161229c9190613e10565b6040516020818303038152906040528051906020012090506122c78382612aed90919063ffffffff16565b91505092915050565b60006122db82611f5d565b61231a576040517f08c379a0000000000000000000000000000000000000000000000000000000008152600401612311906140a1565b60405180910390fd5b600061232583611481565b90508073ffffffffffffffffffffffffffffffffffffffff168473ffffffffffffffffffffffffffffffffffffffff16148061236757506123668185611c70565b5b806123a557508373ffffffffffffffffffffffffffffffffffffffff1661238d84610ae1565b73ffffffffffffffffffffffffffffffffffffffff16145b91505092915050565b8273ffffffffffffffffffffffffffffffffffffffff166123ce82611481565b73ffffffffffffffffffffffffffffffffffffffff1614612424576040517f08c379a000000000000000000000000000000000000000000000000000000000815260040161241b90613fe1565b60405180910390fd5b600073ffffffffffffffffffffffffffffffffffffffff168273ffffffffffffffffffffffffffffffffffffffff161415612494576040517f08c379a000000000000000000000000000000000000000000000000000000000815260040161248b90614021565b60405180910390fd5b61249f838383612ae3565b6124aa600082611fd1565b6001600360008573ffffffffffffffffffffffffffffffffffffffff1673ffffffffffffffffffffffffffffffffffffffff16815260200190815260200160002060008282546124fa9190614452565b925050819055506001600360008473ffffffffffffffffffffffffffffffffffffffff1673ffffffffffffffffffffffffffffffffffffffff168152602001908152602001600020600082825461255191906143cb565b92505081905550816002600083815260200190815260200160002060006101000a81548173ffffffffffffffffffffffffffffffffffffffff021916908373ffffffffffffffffffffffffffffffffffffffff160217905550808273ffffffffffffffffffffffffffffffffffffffff168473ffffffffffffffffffffffffffffffffffffffff167fddf252ad1be2c89b69c2b068fc378daa952ba7f163c4a11628f55a4df523b3ef60405160405180910390a4612610838383612ae8565b505050565b6000600660009054906101000a900473ffffffffffffffffffffffffffffffffffffffff16905081600660006101000a81548173ffffffffffffffffffffffffffffffffffffffff021916908373ffffffffffffffffffffffffffffffffffffffff1602179055508173ffffffffffffffffffffffffffffffffffffffff168173ffffffffffffffffffffffffffffffffffffffff167f8be0079c531659141344cd1fd0a4f28419497f9722a3daafe3b4186f6b6457e060405160405180910390a35050565b8173ffffffffffffffffffffffffffffffffffffffff168373ffffffffffffffffffffffffffffffffffffffff16141561274a576040517f08c379a000000000000000000000000000000000000000000000000000000000815260040161274190614061565b60405180910390fd5b80600560008573ffffffffffffffffffffffffffffffffffffffff1673ffffffffffffffffffffffffffffffffffffffff16815260200190815260200160002060008473ffffffffffffffffffffffffffffffffffffffff1673ffffffffffffffffffffffffffffffffffffffff16815260200190815260200160002060006101000a81548160ff0219169083151502179055508173ffffffffffffffffffffffffffffffffffffffff168373ffffffffffffffffffffffffffffffffffffffff167f17307eab39ab6107e8899845ad3d59bd9653f200f220920489ca2b5937696c318360405161283b9190613ebf565b60405180910390a3505050565b6128538484846123ae565b61285f84848484612b14565b61289e576040517f08c379a000000000000000000000000000000000000000000000000000000000815260040161289590613f81565b60405180910390fd5b50505050565b6060600c80546128b390614553565b80601f01602080910402602001604051908101604052809291908181526020018280546128df90614553565b801561292c5780601f106129015761010080835404028352916020019161292c565b820191906000526020600020905b81548152906001019060200180831161290f57829003601f168201915b5050505050905090565b6060600082141561297e576040518060400160405280600181526020017f30000000000000000000000000000000000000000000000000000000000000008152509050612ade565b600082905060005b600082146129b0578080612999906145b6565b915050600a826129a99190614421565b9150612986565b60008167ffffffffffffffff8111156129f2577f4e487b7100000000000000000000000000000000000000000000000000000000600052604160045260246000fd5b6040519080825280601f01601f191660200182016040528015612a245781602001600182028036833780820191505090505b5090505b60008514612ad757600182612a3d9190614452565b9150600a85612a4c9190614637565b6030612a5891906143cb565b60f81b818381518110612a94577f4e487b7100000000000000000000000000000000000000000000000000000000600052603260045260246000fd5b60200101907effffffffffffffffffffffffffffffffffffffffffffffffffffffffffffff1916908160001a905350600a85612ad09190614421565b9450612a28565b8093505050505b919050565b505050565b505050565b6000806000612afc8585612cab565b91509150612b0981612d2e565b819250505092915050565b6000612b358473ffffffffffffffffffffffffffffffffffffffff1661307f565b15612c9e578373ffffffffffffffffffffffffffffffffffffffff1663150b7a02612b5e611fc9565b8786866040518563ffffffff1660e01b8152600401612b809493929190613e51565b602060405180830381600087803b158015612b9a57600080fd5b505af1925050508015612bcb57506040513d601f19601f82011682018060405250810190612bc891906136f3565b60015b612c4e573d8060008114612bfb576040519150601f19603f3d011682016040523d82523d6000602084013e612c00565b606091505b50600081511415612c46576040517f08c379a0000000000000000000000000000000000000000000000000000000008152600401612c3d90613f81565b60405180910390fd5b805181602001fd5b63150b7a0260e01b7bffffffffffffffffffffffffffffffffffffffffffffffffffffffff1916817bffffffffffffffffffffffffffffffffffffffffffffffffffffffff191614915050612ca3565b600190505b949350505050565b600080604183511415612ced5760008060006020860151925060408601519150606086015160001a9050612ce1878285856130a2565b94509450505050612d27565b604083511415612d1e576000806020850151915060408501519050612d138683836131af565b935093505050612d27565b60006002915091505b9250929050565b60006004811115612d68577f4e487b7100000000000000000000000000000000000000000000000000000000600052602160045260246000fd5b816004811115612da1577f4e487b7100000000000000000000000000000000000000000000000000000000600052602160045260246000fd5b1415612dac5761307c565b60016004811115612de6577f4e487b7100000000000000000000000000000000000000000000000000000000600052602160045260246000fd5b816004811115612e1f577f4e487b7100000000000000000000000000000000000000000000000000000000600052602160045260246000fd5b1415612e60576040517f08c379a0000000000000000000000000000000000000000000000000000000008152600401612e5790613f41565b60405180910390fd5b60026004811115612e9a577f4e487b7100000000000000000000000000000000000000000000000000000000600052602160045260246000fd5b816004811115612ed3577f4e487b7100000000000000000000000000000000000000000000000000000000600052602160045260246000fd5b1415612f14576040517f08c379a0000000000000000000000000000000000000000000000000000000008152600401612f0b90613f61565b60405180910390fd5b60036004811115612f4e577f4e487b7100000000000000000000000000000000000000000000000000000000600052602160045260246000fd5b816004811115612f87577f4e487b7100000000000000000000000000000000000000000000000000000000600052602160045260246000fd5b1415612fc8576040517f08c379a0000000000000000000000000000000000000000000000000000000008152600401612fbf90614081565b60405180910390fd5b600480811115613001577f4e487b7100000000000000000000000000000000000000000000000000000000600052602160045260246000fd5b81600481111561303a577f4e487b7100000000000000000000000000000000000000000000000000000000600052602160045260246000fd5b141561307b576040517f08c379a000000000000000000000000000000000000000000000000000000000815260040161307290614121565b60405180910390fd5b5b50565b6000808273ffffffffffffffffffffffffffffffffffffffff163b119050919050565b6000807f7fffffffffffffffffffffffffffffff5d576e7357a4501ddfe92f46681b20a08360001c11156130dd5760006003915091506131a6565b601b8560ff16141580156130f55750601c8560ff1614155b156131075760006004915091506131a6565b60006001878787876040516000815260200160405260405161312c9493929190613eda565b6020604051602081039080840390855afa15801561314e573d6000803e3d6000fd5b505050602060405103519050600073ffffffffffffffffffffffffffffffffffffffff168173ffffffffffffffffffffffffffffffffffffffff16141561319d576000600192509250506131a6565b80600092509250505b94509492505050565b60008060007f7fffffffffffffffffffffffffffffffffffffffffffffffffffffffffffffff60001b841690506000601b60ff8660001c901c6131f291906143cb565b9050613200878288856130a2565b935093505050935093915050565b82805461321a90614553565b90600052602060002090601f01602090048101928261323c5760008555613283565b82601f1061325557805160ff1916838001178555613283565b82800160010185558215613283579182015b82811115613282578251825591602001919060010190613267565b5b5090506132909190613294565b5090565b5b808211156132ad576000816000905550600101613295565b5090565b60006132c46132bf846142c1565b61429c565b905080838252602082019050828560208602820111156132e357600080fd5b60005b8581101561331357816132f9888261346b565b8452602084019350602083019250506001810190506132e6565b5050509392505050565b600061333061332b846142ed565b61429c565b90508281526020810184848401111561334857600080fd5b613353848285614511565b509392505050565b600061336e6133698461431e565b61429c565b90508281526020810184848401111561338657600080fd5b613391848285614511565b509392505050565b6000813590506133a881614e1e565b92915050565b600082601f8301126133bf57600080fd5b81356133cf8482602086016132b1565b91505092915050565b6000813590506133e781614e35565b92915050565b6000813590506133fc81614e4c565b92915050565b60008151905061341181614e4c565b92915050565b600082601f83011261342857600080fd5b813561343884826020860161331d565b91505092915050565b600082601f83011261345257600080fd5b813561346284826020860161335b565b91505092915050565b60008135905061347a81614e63565b92915050565b60006020828403121561349257600080fd5b60006134a084828501613399565b91505092915050565b600080604083850312156134bc57600080fd5b60006134ca85828601613399565b92505060206134db85828601613399565b9150509250929050565b6000806000606084860312156134fa57600080fd5b600061350886828701613399565b935050602061351986828701613399565b925050604061352a8682870161346b565b9150509250925092565b6000806000806080858703121561354a57600080fd5b600061355887828801613399565b945050602061356987828801613399565b935050604061357a8782880161346b565b925050606085013567ffffffffffffffff81111561359757600080fd5b6135a387828801613417565b91505092959194509250565b600080604083850312156135c257600080fd5b60006135d085828601613399565b925050602083013567ffffffffffffffff8111156135ed57600080fd5b6135f9858286016133ae565b9150509250929050565b6000806040838503121561361657600080fd5b600061362485828601613399565b9250506020613635858286016133d8565b9150509250929050565b6000806040838503121561365257600080fd5b600061366085828601613399565b92505060206136718582860161346b565b9150509250929050565b60008060006060848603121561369057600080fd5b600061369e86828701613399565b93505060206136af8682870161346b565b92505060406136c08682870161346b565b9150509250925092565b6000602082840312156136dc57600080fd5b60006136ea848285016133ed565b91505092915050565b60006020828403121561370557600080fd5b600061371384828501613402565b91505092915050565b60006020828403121561372e57600080fd5b600082013567ffffffffffffffff81111561374857600080fd5b61375484828501613441565b91505092915050565b60006020828403121561376f57600080fd5b600061377d8482850161346b565b91505092915050565b6000806040838503121561379957600080fd5b60006137a78582860161346b565b92505060206137b885828601613399565b9150509250929050565b6000806000606084860312156137d757600080fd5b60006137e58682870161346b565b93505060206137f686828701613399565b925050604084013567ffffffffffffffff81111561381357600080fd5b61381f86828701613417565b9150509250925092565b600061383583836138c5565b60208301905092915050565b61384a81614486565b82525050565b61386161385c82614486565b6145ff565b82525050565b60006138728261435f565b61387c818561438d565b93506138878361434f565b8060005b838110156138b857815161389f8882613829565b97506138aa83614380565b92505060018101905061388b565b5085935050505092915050565b6138ce81614498565b82525050565b6138dd81614498565b82525050565b6138ec816144a4565b82525050565b6139036138fe826144a4565b614611565b82525050565b60006139148261436a565b61391e818561439e565b935061392e818560208601614520565b61393781614724565b840191505092915050565b600061394d82614375565b61395781856143af565b9350613967818560208601614520565b61397081614724565b840191505092915050565b600061398682614375565b61399081856143c0565b93506139a0818560208601614520565b80840191505092915050565b60006139b96018836143af565b91506139c482614742565b602082019050919050565b60006139dc601f836143af565b91506139e78261476b565b602082019050919050565b60006139ff601c836143c0565b9150613a0a82614794565b601c82019050919050565b6000613a226032836143af565b9150613a2d826147bd565b604082019050919050565b6000613a456037836143af565b9150613a508261480c565b604082019050919050565b6000613a686026836143af565b9150613a738261485b565b604082019050919050565b6000613a8b6025836143af565b9150613a96826148aa565b604082019050919050565b6000613aae601c836143af565b9150613ab9826148f9565b602082019050919050565b6000613ad16024836143af565b9150613adc82614922565b604082019050919050565b6000613af46012836143af565b9150613aff82614971565b602082019050919050565b6000613b176019836143af565b9150613b228261499a565b602082019050919050565b6000613b3a6022836143af565b9150613b45826149c3565b604082019050919050565b6000613b5d602c836143af565b9150613b6882614a12565b604082019050919050565b6000613b806038836143af565b9150613b8b82614a61565b604082019050919050565b6000613ba3602a836143af565b9150613bae82614ab0565b604082019050919050565b6000613bc66029836143af565b9150613bd182614aff565b604082019050919050565b6000613be96022836143af565b9150613bf482614b4e565b604082019050919050565b6000613c0c6020836143af565b9150613c1782614b9d565b602082019050919050565b6000613c2f602c836143af565b9150613c3a82614bc6565b604082019050919050565b6000613c526005836143c0565b9150613c5d82614c15565b600582019050919050565b6000613c756020836143af565b9150613c8082614c3e565b602082019050919050565b6000613c98602f836143af565b9150613ca382614c67565b604082019050919050565b6000613cbb6021836143af565b9150613cc682614cb6565b604082019050919050565b6000613cde6017836143af565b9150613ce982614d05565b602082019050919050565b6000613d016031836143af565b9150613d0c82614d2e565b604082019050919050565b6000613d246027836143af565b9150613d2f82614d7d565b604082019050919050565b6000613d47601f836143af565b9150613d5282614dcc565b602082019050919050565b6000613d6a6015836143af565b9150613d7582614df5565b602082019050919050565b613d89816144fa565b82525050565b613da0613d9b826144fa565b61462d565b82525050565b613daf81614504565b82525050565b6000613dc18285613850565b601482019150613dd18284613d8f565b6020820191508190509392505050565b6000613ded828561397b565b9150613df9828461397b565b9150613e0482613c45565b91508190509392505050565b6000613e1b826139f2565b9150613e2782846138f2565b60208201915081905092915050565b6000602082019050613e4b6000830184613841565b92915050565b6000608082019050613e666000830187613841565b613e736020830186613841565b613e806040830185613d80565b8181036060830152613e928184613909565b905095945050505050565b60006020820190508181036000830152613eb78184613867565b905092915050565b6000602082019050613ed460008301846138d4565b92915050565b6000608082019050613eef60008301876138e3565b613efc6020830186613da6565b613f0960408301856138e3565b613f1660608301846138e3565b95945050505050565b60006020820190508181036000830152613f398184613942565b905092915050565b60006020820190508181036000830152613f5a816139ac565b9050919050565b60006020820190508181036000830152613f7a816139cf565b9050919050565b60006020820190508181036000830152613f9a81613a15565b9050919050565b60006020820190508181036000830152613fba81613a38565b9050919050565b60006020820190508181036000830152613fda81613a5b565b9050919050565b60006020820190508181036000830152613ffa81613a7e565b9050919050565b6000602082019050818103600083015261401a81613aa1565b9050919050565b6000602082019050818103600083015261403a81613ac4565b9050919050565b6000602082019050818103600083015261405a81613ae7565b9050919050565b6000602082019050818103600083015261407a81613b0a565b9050919050565b6000602082019050818103600083015261409a81613b2d565b9050919050565b600060208201905081810360008301526140ba81613b50565b9050919050565b600060208201905081810360008301526140da81613b73565b9050919050565b600060208201905081810360008301526140fa81613b96565b9050919050565b6000602082019050818103600083015261411a81613bb9565b9050919050565b6000602082019050818103600083015261413a81613bdc565b9050919050565b6000602082019050818103600083015261415a81613bff565b9050919050565b6000602082019050818103600083015261417a81613c22565b9050919050565b6000602082019050818103600083015261419a81613c68565b9050919050565b600060208201905081810360008301526141ba81613c8b565b9050919050565b600060208201905081810360008301526141da81613cae565b9050919050565b600060208201905081810360008301526141fa81613cd1565b9050919050565b6000602082019050818103600083015261421a81613cf4565b9050919050565b6000602082019050818103600083015261423a81613d17565b9050919050565b6000602082019050818103600083015261425a81613d3a565b9050919050565b6000602082019050818103600083015261427a81613d5d565b9050919050565b60006020820190506142966000830184613d80565b92915050565b60006142a66142b7565b90506142b28282614585565b919050565b6000604051905090565b600067ffffffffffffffff8211156142dc576142db6146f5565b5b602082029050602081019050919050565b600067ffffffffffffffff821115614308576143076146f5565b5b61431182614724565b9050602081019050919050565b600067ffffffffffffffff821115614339576143386146f5565b5b61434282614724565b9050602081019050919050565b6000819050602082019050919050565b600081519050919050565b600081519050919050565b600081519050919050565b6000602082019050919050565b600082825260208201905092915050565b600082825260208201905092915050565b600082825260208201905092915050565b600081905092915050565b60006143d6826144fa565b91506143e1836144fa565b9250827fffffffffffffffffffffffffffffffffffffffffffffffffffffffffffffffff0382111561441657614415614668565b5b828201905092915050565b600061442c826144fa565b9150614437836144fa565b92508261444757614446614697565b5b828204905092915050565b600061445d826144fa565b9150614468836144fa565b92508282101561447b5761447a614668565b5b828203905092915050565b6000614491826144da565b9050919050565b60008115159050919050565b6000819050919050565b60007fffffffff0000000000000000000000000000000000000000000000000000000082169050919050565b600073ffffffffffffffffffffffffffffffffffffffff82169050919050565b6000819050919050565b600060ff82169050919050565b82818337600083830152505050565b60005b8381101561453e578082015181840152602081019050614523565b8381111561454d576000848401525b50505050565b6000600282049050600182168061456b57607f821691505b6020821081141561457f5761457e6146c6565b5b50919050565b61458e82614724565b810181811067ffffffffffffffff821117156145ad576145ac6146f5565b5b80604052505050565b60006145c1826144fa565b91507fffffffffffffffffffffffffffffffffffffffffffffffffffffffffffffffff8214156145f4576145f3614668565b5b600182019050919050565b600061460a8261461b565b9050919050565b6000819050919050565b600061462682614735565b9050919050565b6000819050919050565b6000614642826144fa565b915061464d836144fa565b92508261465d5761465c614697565b5b828206905092915050565b7f4e487b7100000000000000000000000000000000000000000000000000000000600052601160045260246000fd5b7f4e487b7100000000000000000000000000000000000000000000000000000000600052601260045260246000fd5b7f4e487b7100000000000000000000000000000000000000000000000000000000600052602260045260246000fd5b7f4e487b7100000000000000000000000000000000000000000000000000000000600052604160045260246000fd5b6000601f19601f8301169050919050565b60008160601b9050919050565b7f45434453413a20696e76616c6964207369676e61747572650000000000000000600082015250565b7f45434453413a20696e76616c6964207369676e6174757265206c656e67746800600082015250565b7f19457468657265756d205369676e6564204d6573736167653a0a333200000000600082015250565b7f4552433732313a207472616e7366657220746f206e6f6e20455243373231526560008201527f63656976657220696d706c656d656e7465720000000000000000000000000000602082015250565b7f43616e27742063726561746520636f6e74656e74206265636175736520796f7560008201527f20617265206e6f7420636f6e74656e7420736572766572000000000000000000602082015250565b7f4f776e61626c653a206e6577206f776e657220697320746865207a65726f206160008201527f6464726573730000000000000000000000000000000000000000000000000000602082015250565b7f4552433732313a207472616e736665722066726f6d20696e636f72726563742060008201527f6f776e6572000000000000000000000000000000000000000000000000000000602082015250565b7f4552433732313a20746f6b656e20616c7265616479206d696e74656400000000600082015250565b7f4552433732313a207472616e7366657220746f20746865207a65726f2061646460008201527f7265737300000000000000000000000000000000000000000000000000000000602082015250565b7f4e465420616c7265616479206d696e7465640000000000000000000000000000600082015250565b7f4552433732313a20617070726f766520746f2063616c6c657200000000000000600082015250565b7f45434453413a20696e76616c6964207369676e6174757265202773272076616c60008201527f7565000000000000000000000000000000000000000000000000000000000000602082015250565b7f4552433732313a206f70657261746f7220717565727920666f72206e6f6e657860008201527f697374656e7420746f6b656e0000000000000000000000000000000000000000602082015250565b7f4552433732313a20617070726f76652063616c6c6572206973206e6f74206f7760008201527f6e6572206e6f7220617070726f76656420666f7220616c6c0000000000000000602082015250565b7f4552433732313a2062616c616e636520717565727920666f7220746865207a6560008201527f726f206164647265737300000000000000000000000000000000000000000000602082015250565b7f4552433732313a206f776e657220717565727920666f72206e6f6e657869737460008201527f656e7420746f6b656e0000000000000000000000000000000000000000000000602082015250565b7f45434453413a20696e76616c6964207369676e6174757265202776272076616c60008201527f7565000000000000000000000000000000000000000000000000000000000000602082015250565b7f4552433732313a206d696e7420746f20746865207a65726f2061646472657373600082015250565b7f4552433732313a20617070726f76656420717565727920666f72206e6f6e657860008201527f697374656e7420746f6b656e0000000000000000000000000000000000000000602082015250565b7f2e6a736f6e000000000000000000000000000000000000000000000000000000600082015250565b7f4f776e61626c653a2063616c6c6572206973206e6f7420746865206f776e6572600082015250565b7f4552433732314d657461646174613a2055524920717565727920666f72206e6f60008201527f6e6578697374656e7420746f6b656e0000000000000000000000000000000000602082015250565b7f4552433732313a20617070726f76616c20746f2063757272656e74206f776e6560008201527f7200000000000000000000000000000000000000000000000000000000000000602082015250565b7f596f752063616e2774206d696e742074686973204e4654000000000000000000600082015250565b7f4552433732313a207472616e736665722063616c6c6572206973206e6f74206f60008201527f776e6572206e6f7220617070726f766564000000000000000000000000000000602082015250565b7f596f7520617265206e6f74206469737472696275746f72206f6620746869732060008201527f636f6e74656e7400000000000000000000000000000000000000000000000000602082015250565b7f596f7520646f6e2774207065726d6974746564207468697320616374696f6e00600082015250565b7f436f6e74656e7420616c72656164792061646465640000000000000000000000600082015250565b614e2781614486565b8114614e3257600080fd5b50565b614e3e81614498565b8114614e4957600080fd5b50565b614e55816144ae565b8114614e6057600080fd5b50565b614e6c816144fa565b8114614e7757600080fd5b5056fea264697066735822122014817863734476b9066f23e9163c072353689bed6f90c541969dd7decf297f8b64736f6c63430008040033",
  "linkReferences": {},
  "deployedLinkReferences": {}
}