{
  "_format": "hh-sol-artifact-1",
  "contractName": "NCPProof",
  "sourceName": "contracts/NCPProof.sol",
  "abi": [
    {
      "inputs": [],
      "stateMutability": "nonpayable",
      "type": "constructor"
    },
    {
      "anonymous": false,
      "inputs": [
        {
          "indexed": true,
          "internalType": "address",
          "name": "owner",
          "type": "address"
        },
        {
          "indexed": true,
          "internalType": "address",
          "name": "approved",
          "type": "address"
        },
        {
          "indexed": true,
          "internalType": "uint256",
          "name": "tokenId",
          "type": "uint256"
        }
      ],
      "name": "Approval",
      "type": "event"
    },
    {
      "anonymous": false,
      "inputs": [
        {
          "indexed": true,
          "internalType": "address",
          "name": "owner",
          "type": "address"
        },
        {
          "indexed": true,
          "internalType": "address",
          "name": "operator",
          "type": "address"
        },
        {
          "indexed": false,
          "internalType": "bool",
          "name": "approved",
          "type": "bool"
        }
      ],
      "name": "ApprovalForAll",
      "type": "event"
    },
    {
      "anonymous": false,
      "inputs": [
        {
          "indexed": true,
          "internalType": "address",
          "name": "_to",
          "type": "address"
        },
        {
          "indexed": false,
          "internalType": "uint256",
          "name": "_contentId",
          "type": "uint256"
        }
      ],
      "name": "MintNFT",
      "type": "event"
    },
    {
      "anonymous": false,
      "inputs": [
        {
          "indexed": true,
          "internalType": "address",
          "name": "previousOwner",
          "type": "address"
        },
        {
          "indexed": true,
          "internalType": "address",
          "name": "newOwner",
          "type": "address"
        }
      ],
      "name": "OwnershipTransferred",
      "type": "event"
    },
    {
      "anonymous": false,
      "inputs": [
        {
          "indexed": true,
          "internalType": "address",
          "name": "from",
          "type": "address"
        },
        {
          "indexed": true,
          "internalType": "address",
          "name": "to",
          "type": "address"
        },
        {
          "indexed": true,
          "internalType": "uint256",
          "name": "tokenId",
          "type": "uint256"
        }
      ],
      "name": "Transfer",
      "type": "event"
    },
    {
      "inputs": [
        {
          "internalType": "address",
          "name": "to",
          "type": "address"
        },
        {
          "internalType": "uint256",
          "name": "tokenId",
          "type": "uint256"
        }
      ],
      "name": "approve",
      "outputs": [],
      "stateMutability": "nonpayable",
      "type": "function"
    },
    {
      "inputs": [
        {
          "internalType": "address",
          "name": "owner",
          "type": "address"
        }
      ],
      "name": "balanceOf",
      "outputs": [
        {
          "internalType": "uint256",
          "name": "",
          "type": "uint256"
        }
      ],
      "stateMutability": "view",
      "type": "function"
    },
    {
      "inputs": [
        {
          "internalType": "address",
          "name": "owner",
          "type": "address"
        },
        {
          "internalType": "uint256",
          "name": "contentId",
          "type": "uint256"
        }
      ],
      "name": "canSeeProtected",
      "outputs": [
        {
          "internalType": "bool",
          "name": "",
          "type": "bool"
        }
      ],
      "stateMutability": "view",
      "type": "function"
    },
    {
      "inputs": [
        {
          "internalType": "uint256",
          "name": "tokenId",
          "type": "uint256"
        }
      ],
      "name": "contentOf",
      "outputs": [
        {
          "internalType": "uint256",
          "name": "",
          "type": "uint256"
        }
      ],
      "stateMutability": "view",
      "type": "function"
    },
    {
      "inputs": [
        {
          "internalType": "uint256",
          "name": "contentId",
          "type": "uint256"
        }
      ],
      "name": "contentOwnerOf",
      "outputs": [
        {
          "internalType": "address",
          "name": "",
          "type": "address"
        }
      ],
      "stateMutability": "view",
      "type": "function"
    },
    {
      "inputs": [],
      "name": "countOfNFT",
      "outputs": [
        {
          "internalType": "uint256",
          "name": "",
          "type": "uint256"
        }
      ],
      "stateMutability": "view",
      "type": "function"
    },
    {
      "inputs": [
        {
          "internalType": "uint256",
          "name": "tokenId",
          "type": "uint256"
        }
      ],
      "name": "getApproved",
      "outputs": [
        {
          "internalType": "address",
          "name": "",
          "type": "address"
        }
      ],
      "stateMutability": "view",
      "type": "function"
    },
    {
      "inputs": [
        {
          "internalType": "uint256",
          "name": "tokenId",
          "type": "uint256"
        }
      ],
      "name": "getNFTEndTime",
      "outputs": [
        {
          "internalType": "uint256",
          "name": "",
          "type": "uint256"
        }
      ],
      "stateMutability": "view",
      "type": "function"
    },
    {
      "inputs": [
        {
          "internalType": "address",
          "name": "owner",
          "type": "address"
        }
      ],
      "name": "getNFTs",
      "outputs": [
        {
          "components": [
            {
              "internalType": "uint256",
              "name": "tokenId",
              "type": "uint256"
            },
            {
              "internalType": "uint256",
              "name": "contentId",
              "type": "uint256"
            },
            {
              "internalType": "uint256",
              "name": "period",
              "type": "uint256"
            }
          ],
          "internalType": "struct NCPProof.NCPNFT[]",
          "name": "",
          "type": "tuple[]"
        }
      ],
      "stateMutability": "view",
      "type": "function"
    },
    {
      "inputs": [
        {
          "internalType": "address",
          "name": "owner",
          "type": "address"
        },
        {
          "internalType": "uint256",
          "name": "contentId",
          "type": "uint256"
        }
      ],
      "name": "hasNFTForContent",
      "outputs": [
        {
          "internalType": "bool",
          "name": "",
          "type": "bool"
        }
      ],
      "stateMutability": "view",
      "type": "function"
    },
    {
      "inputs": [
        {
          "internalType": "address",
          "name": "owner",
          "type": "address"
        },
        {
          "internalType": "uint256[]",
          "name": "contentIds",
          "type": "uint256[]"
        }
      ],
      "name": "hasNFTForContents",
      "outputs": [
        {
          "internalType": "bool[]",
          "name": "",
          "type": "bool[]"
        }
      ],
      "stateMutability": "view",
      "type": "function"
    },
    {
      "inputs": [
        {
          "internalType": "address",
          "name": "owner",
          "type": "address"
        },
        {
          "internalType": "address",
          "name": "operator",
          "type": "address"
        }
      ],
      "name": "isApprovedForAll",
      "outputs": [
        {
          "internalType": "bool",
          "name": "",
          "type": "bool"
        }
      ],
      "stateMutability": "view",
      "type": "function"
    },
    {
      "inputs": [
        {
          "internalType": "uint256",
          "name": "contentId",
          "type": "uint256"
        },
        {
          "internalType": "address",
          "name": "distributor",
          "type": "address"
        }
      ],
      "name": "isContentDistributorOf",
      "outputs": [
        {
          "internalType": "bool",
          "name": "",
          "type": "bool"
        }
      ],
      "stateMutability": "view",
      "type": "function"
    },
    {
      "inputs": [
        {
          "internalType": "address",
          "name": "addr",
          "type": "address"
        }
      ],
      "name": "isContentServer",
      "outputs": [
        {
          "internalType": "bool",
          "name": "",
          "type": "bool"
        }
      ],
      "stateMutability": "view",
      "type": "function"
    },
    {
      "inputs": [
        {
          "internalType": "address",
          "name": "owner",
          "type": "address"
        },
        {
          "internalType": "uint256",
          "name": "contentId",
          "type": "uint256"
        }
      ],
      "name": "isDistributorOf",
      "outputs": [
        {
          "internalType": "bool",
          "name": "",
          "type": "bool"
        }
      ],
      "stateMutability": "view",
      "type": "function"
    },
    {
      "inputs": [
        {
          "internalType": "address",
          "name": "owner",
          "type": "address"
        },
        {
          "internalType": "uint256[]",
          "name": "contentIds",
          "type": "uint256[]"
        }
      ],
      "name": "isDistributorOfContents",
      "outputs": [
        {
          "internalType": "bool[]",
          "name": "",
          "type": "bool[]"
        }
      ],
      "stateMutability": "view",
      "type": "function"
    },
    {
      "inputs": [
        {
          "internalType": "uint256",
          "name": "contentId",
          "type": "uint256"
        }
      ],
      "name": "isSetted",
      "outputs": [
        {
          "internalType": "bool",
          "name": "",
          "type": "bool"
        }
      ],
      "stateMutability": "view",
      "type": "function"
    },
    {
      "inputs": [
        {
          "internalType": "address",
          "name": "to",
          "type": "address"
        },
        {
          "internalType": "uint256",
          "name": "contentId",
          "type": "uint256"
        },
        {
          "internalType": "uint256",
          "name": "endtime",
          "type": "uint256"
        }
      ],
      "name": "mint",
      "outputs": [
        {
          "internalType": "uint256",
          "name": "",
          "type": "uint256"
        }
      ],
      "stateMutability": "nonpayable",
      "type": "function"
    },
    {
      "inputs": [],
      "name": "name",
      "outputs": [
        {
          "internalType": "string",
          "name": "",
          "type": "string"
        }
      ],
      "stateMutability": "view",
      "type": "function"
    },
    {
      "inputs": [
        {
          "internalType": "uint256",
          "name": "contentId",
          "type": "uint256"
        },
        {
          "internalType": "address",
          "name": "contentOwner",
          "type": "address"
        },
        {
          "internalType": "bytes",
          "name": "signature",
          "type": "bytes"
        }
      ],
      "name": "newContent",
      "outputs": [
        {
          "internalType": "bool",
          "name": "",
          "type": "bool"
        }
      ],
      "stateMutability": "nonpayable",
      "type": "function"
    },
    {
      "inputs": [],
      "name": "newContentId",
      "outputs": [
        {
          "internalType": "uint256",
          "name": "",
          "type": "uint256"
        }
      ],
      "stateMutability": "view",
      "type": "function"
    },
    {
      "inputs": [],
      "name": "owner",
      "outputs": [
        {
          "internalType": "address",
          "name": "",
          "type": "address"
        }
      ],
      "stateMutability": "view",
      "type": "function"
    },
    {
      "inputs": [
        {
          "internalType": "uint256",
          "name": "tokenId",
          "type": "uint256"
        }
      ],
      "name": "ownerOf",
      "outputs": [
        {
          "internalType": "address",
          "name": "",
          "type": "address"
        }
      ],
      "stateMutability": "view",
      "type": "function"
    },
    {
      "inputs": [
        {
          "internalType": "uint256",
          "name": "contentId",
          "type": "uint256"
        },
        {
          "internalType": "address",
          "name": "addr",
          "type": "address"
        }
      ],
      "name": "removeDistributor",
      "outputs": [],
      "stateMutability": "nonpayable",
      "type": "function"
    },
    {
      "inputs": [],
      "name": "renounceOwnership",
      "outputs": [],
      "stateMutability": "nonpayable",
      "type": "function"
    },
    {
      "inputs": [
        {
          "internalType": "address",
          "name": "from",
          "type": "address"
        },
        {
          "internalType": "address",
          "name": "to",
          "type": "address"
        },
        {
          "internalType": "uint256",
          "name": "tokenId",
          "type": "uint256"
        }
      ],
      "name": "safeTransferFrom",
      "outputs": [],
      "stateMutability": "nonpayable",
      "type": "function"
    },
    {
      "inputs": [
        {
          "internalType": "address",
          "name": "from",
          "type": "address"
        },
        {
          "internalType": "address",
          "name": "to",
          "type": "address"
        },
        {
          "internalType": "uint256",
          "name": "tokenId",
          "type": "uint256"
        },
        {
          "internalType": "bytes",
          "name": "_data",
          "type": "bytes"
        }
      ],
      "name": "safeTransferFrom",
      "outputs": [],
      "stateMutability": "nonpayable",
      "type": "function"
    },
    {
      "inputs": [
        {
          "internalType": "address",
          "name": "operator",
          "type": "address"
        },
        {
          "internalType": "bool",
          "name": "approved",
          "type": "bool"
        }
      ],
      "name": "setApprovalForAll",
      "outputs": [],
      "stateMutability": "nonpayable",
      "type": "function"
    },
    {
      "inputs": [
        {
          "internalType": "string",
          "name": "baseURI",
          "type": "string"
        }
      ],
      "name": "setBaseTokenURI",
      "outputs": [],
      "stateMutability": "nonpayable",
      "type": "function"
    },
    {
      "inputs": [
        {
          "internalType": "address",
          "name": "contentServer",
          "type": "address"
        },
        {
          "internalType": "bool",
          "name": "set",
          "type": "bool"
        }
      ],
      "name": "setContentServer",
      "outputs": [],
      "stateMutability": "nonpayable",
      "type": "function"
    },
    {
      "inputs": [
        {
          "internalType": "uint256",
          "name": "contentId",
          "type": "uint256"
        },
        {
          "internalType": "address",
          "name": "addr",
          "type": "address"
        }
      ],
      "name": "setDistributor",
      "outputs": [],
      "stateMutability": "nonpayable",
      "type": "function"
    },
    {
      "inputs": [
        {
          "internalType": "bytes4",
          "name": "interfaceId",
          "type": "bytes4"
        }
      ],
      "name": "supportsInterface",
      "outputs": [
        {
          "internalType": "bool",
          "name": "",
          "type": "bool"
        }
      ],
      "stateMutability": "view",
      "type": "function"
    },
    {
      "inputs": [],
      "name": "symbol",
      "outputs": [
        {
          "internalType": "string",
          "name": "",
          "type": "string"
        }
      ],
      "stateMutability": "view",
      "type": "function"
    },
    {
      "inputs": [
        {
          "internalType": "uint256",
          "name": "tokenId",
          "type": "uint256"
        }
      ],
      "name": "tokenURI",
      "outputs": [
        {
          "internalType": "string",
          "name": "",
          "type": "string"
        }
      ],
      "stateMutability": "view",
      "type": "function"
    },
    {
      "inputs": [
        {
          "internalType": "uint256",
          "name": "contentId",
          "type": "uint256"
        },
        {
          "internalType": "address",
          "name": "newOwner",
          "type": "address"
        }
      ],
      "name": "transferContentRights",
      "outputs": [],
      "stateMutability": "nonpayable",
      "type": "function"
    },
    {
      "inputs": [
        {
          "internalType": "address",
          "name": "from",
          "type": "address"
        },
        {
          "internalType": "address",
          "name": "to",
          "type": "address"
        },
        {
          "internalType": "uint256",
          "name": "tokenId",
          "type": "uint256"
        }
      ],
      "name": "transferFrom",
      "outputs": [],
      "stateMutability": "nonpayable",
      "type": "function"
    },
    {
      "inputs": [
        {
          "internalType": "uint256",
          "name": "tokenId",
          "type": "uint256"
        },
        {
          "internalType": "address",
          "name": "newOwner",
          "type": "address"
        }
      ],
      "name": "transferNFTRights",
      "outputs": [],
      "stateMutability": "nonpayable",
      "type": "function"
    },
    {
      "inputs": [
        {
          "internalType": "address",
          "name": "newOwner",
          "type": "address"
        }
      ],
      "name": "transferOwnership",
      "outputs": [],
      "stateMutability": "nonpayable",
      "type": "function"
    },
    {
      "inputs": [],
      "name": "withdraw",
      "outputs": [],
      "stateMutability": "nonpayable",
      "type": "function"
    }
  ],
  "bytecode": "0x60806040523480156200001157600080fd5b506040518060400160405280601881526020017f4e465420436f6e74656e7420506c617965722050726f6f6600000000000000008152506040518060400160405280600481526020017f4e43505000000000000000000000000000000000000000000000000000000000815250816000908051906020019062000096929190620001f4565b508060019080519060200190620000af929190620001f4565b505050620000d2620000c66200012660201b60201c565b6200012e60201b60201c565b6040518060400160405280600d81526020017f68747470733a2f2f697066732f00000000000000000000000000000000000000815250600d90805190602001906200011f929190620001f4565b5062000309565b600033905090565b6000600660009054906101000a900473ffffffffffffffffffffffffffffffffffffffff16905081600660006101000a81548173ffffffffffffffffffffffffffffffffffffffff021916908373ffffffffffffffffffffffffffffffffffffffff1602179055508173ffffffffffffffffffffffffffffffffffffffff168173ffffffffffffffffffffffffffffffffffffffff167f8be0079c531659141344cd1fd0a4f28419497f9722a3daafe3b4186f6b6457e060405160405180910390a35050565b8280546200020290620002a4565b90600052602060002090601f01602090048101928262000226576000855562000272565b82601f106200024157805160ff191683800117855562000272565b8280016001018555821562000272579182015b828111156200027157825182559160200191906001019062000254565b5b50905062000281919062000285565b5090565b5b80821115620002a057600081600090555060010162000286565b5090565b60006002820490506001821680620002bd57607f821691505b60208210811415620002d457620002d3620002da565b5b50919050565b7f4e487b7100000000000000000000000000000000000000000000000000000000600052602260045260246000fd5b61584480620003196000396000f3fe608060405234801561001057600080fd5b506004361061023d5760003560e01c80636f1140181161013b578063a22cb465116100b8578063c95b43381161007c578063c95b43381461075a578063d4a8478114610776578063e985e9c514610794578063f2fde38b146107c4578063f9da9c5a146107e05761023d565b8063a22cb46514610692578063aae0ca62146106ae578063b88d4fde146106de578063bb4243e5146106fa578063c87b56dd1461072a5761023d565b806389c61dc2116100ff57806389c61dc2146105da5780638da5cb5b1461060a57806395d89b411461062857806399a0d11e146106465780639dd38616146106625761023d565b80636f1140181461051057806370a0823114610540578063715018a6146105705780638170ced51461057a57806382183fb0146105aa5761023d565b806323b872dd116101c957806346adc68e1161018d57806346adc68e14610448578063608985441461046457806361aad37b1461049457806361c7064e146104b05780636352211e146104e05761023d565b806323b872dd146103ba57806327427e31146103d657806330176e13146104065780633ccfd60b1461042257806342842e0e1461042c5761023d565b8063081812fc11610210578063081812fc146102de578063095ea7b31461030e5780631187beb11461032a578063156e29f61461035a5780631690a5a61461038a5761023d565b806301ffc9a71461024257806306fdde03146102725780630737b4f71461029057806307c8bbc2146102ae575b600080fd5b61025c60048036038101906102579190613d63565b6107fc565b60405161026991906146cd565b60405180910390f35b61027a6108de565b604051610287919061472d565b60405180910390f35b610298610970565b6040516102a59190614b0f565b60405180910390f35b6102c860048036038101906102c39190613c48565b6109ff565b6040516102d59190614689565b60405180910390f35b6102f860048036038101906102f39190613df6565b610b8d565b6040516103059190614622565b60405180910390f35b61032860048036038101906103239190613cd8565b610c12565b005b610344600480360381019061033f9190613c48565b610d2a565b6040516103519190614689565b60405180910390f35b610374600480360381019061036f9190613d14565b610f48565b6040516103819190614b0f565b60405180910390f35b6103a4600480360381019061039f9190613e5b565b61103e565b6040516103b191906146cd565b60405180910390f35b6103d460048036038101906103cf9190613b7e565b61122c565b005b6103f060048036038101906103eb9190613df6565b61128c565b6040516103fd9190614b0f565b60405180910390f35b610420600480360381019061041b9190613db5565b6112cd565b005b61042a611363565b005b61044660048036038101906104419190613b7e565b611428565b005b610462600480360381019061045d9190613e1f565b611448565b005b61047e60048036038101906104799190613df6565b611574565b60405161048b9190614622565b60405180910390f35b6104ae60048036038101906104a99190613c9c565b6115b1565b005b6104ca60048036038101906104c59190613df6565b611688565b6040516104d79190614b0f565b60405180910390f35b6104fa60048036038101906104f59190613df6565b611792565b6040516105079190614622565b60405180910390f35b61052a60048036038101906105259190613cd8565b611844565b60405161053791906146cd565b60405180910390f35b61055a60048036038101906105559190613b19565b611869565b6040516105679190614b0f565b60405180910390f35b610578611921565b005b610594600480360381019061058f9190613df6565b6119a9565b6040516105a191906146cd565b60405180910390f35b6105c460048036038101906105bf9190613b19565b611a28565b6040516105d191906146ab565b60405180910390f35b6105f460048036038101906105ef9190613cd8565b611bb5565b60405161060191906146cd565b60405180910390f35b610612611c66565b60405161061f9190614622565b60405180910390f35b610630611c90565b60405161063d919061472d565b60405180910390f35b610660600480360381019061065b9190613e1f565b611d22565b005b61067c60048036038101906106779190613e1f565b611da7565b60405161068991906146cd565b60405180910390f35b6106ac60048036038101906106a79190613c9c565b611e0f565b005b6106c860048036038101906106c39190613b19565b611e25565b6040516106d591906146cd565b60405180910390f35b6106f860048036038101906106f39190613bcd565b611ec0565b005b610714600480360381019061070f9190613cd8565b611f22565b60405161072191906146cd565b60405180910390f35b610744600480360381019061073f9190613df6565b611fcd565b604051610751919061472d565b60405180910390f35b610774600480360381019061076f9190613e1f565b61207c565b005b61077e6121a9565b60405161078b9190614b0f565b60405180910390f35b6107ae60048036038101906107a99190613b42565b6121ba565b6040516107bb91906146cd565b60405180910390f35b6107de60048036038101906107d99190613b19565b61224e565b005b6107fa60048036038101906107f59190613e1f565b612346565b005b60007f80ac58cd000000000000000000000000000000000000000000000000000000007bffffffffffffffffffffffffffffffffffffffffffffffffffffffff1916827bffffffffffffffffffffffffffffffffffffffffffffffffffffffff191614806108c757507f5b5e139f000000000000000000000000000000000000000000000000000000007bffffffffffffffffffffffffffffffffffffffffffffffffffffffff1916827bffffffffffffffffffffffffffffffffffffffffffffffffffffffff1916145b806108d757506108d6826124a6565b5b9050919050565b6060600080546108ed90614e43565b80601f016020809104026020016040519081016040528092919081815260200182805461091990614e43565b80156109665780601f1061093b57610100808354040283529160200191610966565b820191906000526020600020905b81548152906001019060200180831161094957829003601f168201915b5050505050905090565b600061097b33611e25565b6109ba576040517f08c379a00000000000000000000000000000000000000000000000000000000081526004016109b190614aaf565b60405180910390fd5b60005b33426040516020016109d09291906145a1565b6040516020818303038152906040528051906020012060001c90506109f4816119a9565b6109bd578091505090565b606060008251905060008167ffffffffffffffff811115610a49577f4e487b7100000000000000000000000000000000000000000000000000000000600052604160045260246000fd5b604051908082528060200260200182016040528015610a775781602001602082028036833780820191505090505b50905060005b82811015610b8157600b6000868381518110610ac2577f4e487b7100000000000000000000000000000000000000000000000000000000600052603260045260246000fd5b6020026020010151815260200190815260200160002060008773ffffffffffffffffffffffffffffffffffffffff1673ffffffffffffffffffffffffffffffffffffffff16815260200190815260200160002060009054906101000a900460ff16828281518110610b5c577f4e487b7100000000000000000000000000000000000000000000000000000000600052603260045260246000fd5b6020026020010190151590811515815250508080610b7990614ea6565b915050610a7d565b50809250505092915050565b6000610b9882612510565b610bd7576040517f08c379a0000000000000000000000000000000000000000000000000000000008152600401610bce906149af565b60405180910390fd5b6004600083815260200190815260200160002060009054906101000a900473ffffffffffffffffffffffffffffffffffffffff169050919050565b6000610c1d82611792565b90508073ffffffffffffffffffffffffffffffffffffffff168373ffffffffffffffffffffffffffffffffffffffff161415610c8e576040517f08c379a0000000000000000000000000000000000000000000000000000000008152600401610c8590614a2f565b60405180910390fd5b8073ffffffffffffffffffffffffffffffffffffffff16610cad61257c565b73ffffffffffffffffffffffffffffffffffffffff161480610cdc5750610cdb81610cd661257c565b6121ba565b5b610d1b576040517f08c379a0000000000000000000000000000000000000000000000000000000008152600401610d12906148ef565b60405180910390fd5b610d258383612584565b505050565b606060008251905060008167ffffffffffffffff811115610d74577f4e487b7100000000000000000000000000000000000000000000000000000000600052604160045260246000fd5b604051908082528060200260200182016040528015610da25781602001602082028036833780820191505090505b5090506000610daf6121a9565b905060005b83811015610f3b576000838281518110610df7577f4e487b7100000000000000000000000000000000000000000000000000000000600052603260045260246000fd5b60200260200101901515908115158152505060005b82811015610f27578773ffffffffffffffffffffffffffffffffffffffff16610e3482611792565b73ffffffffffffffffffffffffffffffffffffffff16148015610e9e5750868281518110610e8b577f4e487b7100000000000000000000000000000000000000000000000000000000600052603260045260246000fd5b6020026020010151610e9c8261128c565b145b8015610ebd575042600c60008381526020019081526020016000205410155b15610f14576001848381518110610efd577f4e487b7100000000000000000000000000000000000000000000000000000000600052603260045260246000fd5b602002602001019015159081151581525050610f27565b8080610f1f90614ea6565b915050610e0c565b508080610f3390614ea6565b915050610db4565b5081935050505092915050565b6000610f548333611da7565b610f93576040517f08c379a0000000000000000000000000000000000000000000000000000000008152600401610f8a90614a6f565b60405180910390fd5b6000610f9f600761263d565b9050610fab600761264b565b83600960008381526020019081526020016000208190555082600c600083815260200190815260200160002081905550610fe58582612661565b8473ffffffffffffffffffffffffffffffffffffffff167f1f89f147a58d1673945cf416187db98efc8208408c011b91887acd59fd8523c38560405161102b9190614b0f565b60405180910390a2809150509392505050565b60008073ffffffffffffffffffffffffffffffffffffffff16600a600086815260200190815260200160002060009054906101000a900473ffffffffffffffffffffffffffffffffffffffff1673ffffffffffffffffffffffffffffffffffffffff16146110e1576040517f08c379a00000000000000000000000000000000000000000000000000000000081526004016110d890614aef565b60405180910390fd5b600083856040516020016110f69291906145a1565b604051602081830303815290604052805190602001209050600061111a828561283b565b905061112581611e25565b611164576040517f08c379a000000000000000000000000000000000000000000000000000000000815260040161115b906147af565b60405180910390fd5b84600a600088815260200190815260200160002060006101000a81548173ffffffffffffffffffffffffffffffffffffffff021916908373ffffffffffffffffffffffffffffffffffffffff1602179055506001600b600088815260200190815260200160002060008773ffffffffffffffffffffffffffffffffffffffff1673ffffffffffffffffffffffffffffffffffffffff16815260200190815260200160002060006101000a81548160ff0219169083151502179055506001925050509392505050565b61123d61123761257c565b82612883565b61127c576040517f08c379a000000000000000000000000000000000000000000000000000000000815260040161127390614a8f565b60405180910390fd5b611287838383612961565b505050565b600042600c600084815260200190815260200160002054106112c357600960008381526020019081526020016000205490506112c8565b600090505b919050565b6112d561257c565b73ffffffffffffffffffffffffffffffffffffffff166112f3611c66565b73ffffffffffffffffffffffffffffffffffffffff1614611349576040517f08c379a0000000000000000000000000000000000000000000000000000000008152600401611340906149ef565b60405180910390fd5b80600d908051906020019061135f929190613886565b5050565b61136b61257c565b73ffffffffffffffffffffffffffffffffffffffff16611389611c66565b73ffffffffffffffffffffffffffffffffffffffff16146113df576040517f08c379a00000000000000000000000000000000000000000000000000000000081526004016113d6906149ef565b60405180910390fd5b3373ffffffffffffffffffffffffffffffffffffffff166108fc479081150290604051600060405180830381858888f19350505050158015611425573d6000803e3d6000fd5b50565b61144383838360405180602001604052806000815250611ec0565b505050565b3373ffffffffffffffffffffffffffffffffffffffff1661146883611574565b73ffffffffffffffffffffffffffffffffffffffff16146114be576040517f08c379a00000000000000000000000000000000000000000000000000000000081526004016114b590614acf565b60405180910390fd5b6114c88282611da7565b611507576040517f08c379a00000000000000000000000000000000000000000000000000000000081526004016114fe9061494f565b60405180910390fd5b6000600b600084815260200190815260200160002060008373ffffffffffffffffffffffffffffffffffffffff1673ffffffffffffffffffffffffffffffffffffffff16815260200190815260200160002060006101000a81548160ff0219169083151502179055505050565b6000600a600083815260200190815260200160002060009054906101000a900473ffffffffffffffffffffffffffffffffffffffff169050919050565b6115b961257c565b73ffffffffffffffffffffffffffffffffffffffff166115d7611c66565b73ffffffffffffffffffffffffffffffffffffffff161461162d576040517f08c379a0000000000000000000000000000000000000000000000000000000008152600401611624906149ef565b60405180910390fd5b80600860008473ffffffffffffffffffffffffffffffffffffffff1673ffffffffffffffffffffffffffffffffffffffff16815260200190815260200160002060006101000a81548160ff0219169083151502179055505050565b60008073ffffffffffffffffffffffffffffffffffffffff166116aa83611792565b73ffffffffffffffffffffffffffffffffffffffff161415611701576040517f08c379a00000000000000000000000000000000000000000000000000000000081526004016116f8906149cf565b60405180910390fd5b3373ffffffffffffffffffffffffffffffffffffffff1661172183611792565b73ffffffffffffffffffffffffffffffffffffffff1614611777576040517f08c379a000000000000000000000000000000000000000000000000000000000815260040161176e906148af565b60405180910390fd5b600c6000838152602001908152602001600020549050919050565b6000806002600084815260200190815260200160002060009054906101000a900473ffffffffffffffffffffffffffffffffffffffff169050600073ffffffffffffffffffffffffffffffffffffffff168173ffffffffffffffffffffffffffffffffffffffff16141561183b576040517f08c379a00000000000000000000000000000000000000000000000000000000081526004016118329061492f565b60405180910390fd5b80915050919050565b60006118508383611f22565b8061186157506118608383611bb5565b5b905092915050565b60008073ffffffffffffffffffffffffffffffffffffffff168273ffffffffffffffffffffffffffffffffffffffff1614156118da576040517f08c379a00000000000000000000000000000000000000000000000000000000081526004016118d19061490f565b60405180910390fd5b600360008373ffffffffffffffffffffffffffffffffffffffff1673ffffffffffffffffffffffffffffffffffffffff168152602001908152602001600020549050919050565b61192961257c565b73ffffffffffffffffffffffffffffffffffffffff16611947611c66565b73ffffffffffffffffffffffffffffffffffffffff161461199d576040517f08c379a0000000000000000000000000000000000000000000000000000000008152600401611994906149ef565b60405180910390fd5b6119a76000612bc8565b565b6000808214156119bc5760019050611a23565b600073ffffffffffffffffffffffffffffffffffffffff16600a600084815260200190815260200160002060009054906101000a900473ffffffffffffffffffffffffffffffffffffffff1673ffffffffffffffffffffffffffffffffffffffff16141590505b919050565b60606000611a3583611869565b90506000611a416121a9565b905060008267ffffffffffffffff811115611a85577f4e487b7100000000000000000000000000000000000000000000000000000000600052604160045260246000fd5b604051908082528060200260200182016040528015611abe57816020015b611aab61390c565b815260200190600190039081611aa35790505b509050611acb8383612c8e565b6000805b83811015611ba8578673ffffffffffffffffffffffffffffffffffffffff16611af782611792565b73ffffffffffffffffffffffffffffffffffffffff1614611b1757611b95565b6040518060600160405280828152602001611b318361128c565b8152602001611b3f83611688565b815250838381518110611b7b577f4e487b7100000000000000000000000000000000000000000000000000000000600052603260045260246000fd5b60200260200101819052508180611b9190614ea6565b9250505b8080611ba090614ea6565b915050611acf565b5081945050505050919050565b600080611bc06121a9565b905060005b81811015611c59578473ffffffffffffffffffffffffffffffffffffffff16611bed82611792565b73ffffffffffffffffffffffffffffffffffffffff16148015611c17575083611c158261128c565b145b8015611c36575042600c60008381526020019081526020016000205410155b15611c4657600192505050611c60565b8080611c5190614ea6565b915050611bc5565b5060009150505b92915050565b6000600660009054906101000a900473ffffffffffffffffffffffffffffffffffffffff16905090565b606060018054611c9f90614e43565b80601f0160208091040260200160405190810160405280929190818152602001828054611ccb90614e43565b8015611d185780601f10611ced57610100808354040283529160200191611d18565b820191906000526020600020905b815481529060010190602001808311611cfb57829003601f168201915b5050505050905090565b3373ffffffffffffffffffffffffffffffffffffffff16611d4283611792565b73ffffffffffffffffffffffffffffffffffffffff1614611d98576040517f08c379a0000000000000000000000000000000000000000000000000000000008152600401611d8f906148cf565b60405180910390fd5b611da3338284612961565b5050565b6000600b600084815260200190815260200160002060008373ffffffffffffffffffffffffffffffffffffffff1673ffffffffffffffffffffffffffffffffffffffff16815260200190815260200160002060009054906101000a900460ff16905092915050565b611e21611e1a61257c565b8383612d2a565b5050565b6000611e2f611c66565b73ffffffffffffffffffffffffffffffffffffffff168273ffffffffffffffffffffffffffffffffffffffff161415611e6b5760019050611ebb565b600860008373ffffffffffffffffffffffffffffffffffffffff1673ffffffffffffffffffffffffffffffffffffffff16815260200190815260200160002060009054906101000a900460ff1690505b919050565b611ed1611ecb61257c565b83612883565b611f10576040517f08c379a0000000000000000000000000000000000000000000000000000000008152600401611f0790614a8f565b60405180910390fd5b611f1c84848484612e97565b50505050565b60008073ffffffffffffffffffffffffffffffffffffffff16611f4483611574565b73ffffffffffffffffffffffffffffffffffffffff1614611fc257600b600083815260200190815260200160002060008473ffffffffffffffffffffffffffffffffffffffff1673ffffffffffffffffffffffffffffffffffffffff16815260200190815260200160002060009054906101000a900460ff16611fc5565b60015b905092915050565b6060611fd882612510565b612017576040517f08c379a000000000000000000000000000000000000000000000000000000000815260040161200e90614a0f565b60405180910390fd5b6000612021612ef3565b905060008151116120415760405180602001604052806000815250612074565b8061205361204e8561128c565b612f85565b6040516020016120649291906145cd565b6040516020818303038152906040525b915050919050565b3373ffffffffffffffffffffffffffffffffffffffff1661209c83611574565b73ffffffffffffffffffffffffffffffffffffffff16146120f2576040517f08c379a00000000000000000000000000000000000000000000000000000000081526004016120e990614acf565b60405180910390fd5b6120fc8282611da7565b1561213c576040517f08c379a00000000000000000000000000000000000000000000000000000000081526004016121339061494f565b60405180910390fd5b6001600b600084815260200190815260200160002060008373ffffffffffffffffffffffffffffffffffffffff1673ffffffffffffffffffffffffffffffffffffffff16815260200190815260200160002060006101000a81548160ff0219169083151502179055505050565b60006121b5600761263d565b905090565b6000600560008473ffffffffffffffffffffffffffffffffffffffff1673ffffffffffffffffffffffffffffffffffffffff16815260200190815260200160002060008373ffffffffffffffffffffffffffffffffffffffff1673ffffffffffffffffffffffffffffffffffffffff16815260200190815260200160002060009054906101000a900460ff16905092915050565b61225661257c565b73ffffffffffffffffffffffffffffffffffffffff16612274611c66565b73ffffffffffffffffffffffffffffffffffffffff16146122ca576040517f08c379a00000000000000000000000000000000000000000000000000000000081526004016122c1906149ef565b60405180910390fd5b600073ffffffffffffffffffffffffffffffffffffffff168173ffffffffffffffffffffffffffffffffffffffff16141561233a576040517f08c379a0000000000000000000000000000000000000000000000000000000008152600401612331906147cf565b60405180910390fd5b61234381612bc8565b50565b3373ffffffffffffffffffffffffffffffffffffffff16600a600084815260200190815260200160002060009054906101000a900473ffffffffffffffffffffffffffffffffffffffff1673ffffffffffffffffffffffffffffffffffffffff16146123e7576040517f08c379a00000000000000000000000000000000000000000000000000000000081526004016123de90614a4f565b60405180910390fd5b80600a600084815260200190815260200160002060006101000a81548173ffffffffffffffffffffffffffffffffffffffff021916908373ffffffffffffffffffffffffffffffffffffffff1602179055506001600b600084815260200190815260200160002060008373ffffffffffffffffffffffffffffffffffffffff1673ffffffffffffffffffffffffffffffffffffffff16815260200190815260200160002060006101000a81548160ff0219169083151502179055505050565b60007f01ffc9a7000000000000000000000000000000000000000000000000000000007bffffffffffffffffffffffffffffffffffffffffffffffffffffffff1916827bffffffffffffffffffffffffffffffffffffffffffffffffffffffff1916149050919050565b60008073ffffffffffffffffffffffffffffffffffffffff166002600084815260200190815260200160002060009054906101000a900473ffffffffffffffffffffffffffffffffffffffff1673ffffffffffffffffffffffffffffffffffffffff1614159050919050565b600033905090565b816004600083815260200190815260200160002060006101000a81548173ffffffffffffffffffffffffffffffffffffffff021916908373ffffffffffffffffffffffffffffffffffffffff160217905550808273ffffffffffffffffffffffffffffffffffffffff166125f783611792565b73ffffffffffffffffffffffffffffffffffffffff167f8c5be1e5ebec7d5bd14f71427d1e84f3dd0314c0f7b2291e5b200ac8c7c3b92560405160405180910390a45050565b600081600001549050919050565b6001816000016000828254019250508190555050565b600073ffffffffffffffffffffffffffffffffffffffff168273ffffffffffffffffffffffffffffffffffffffff1614156126d1576040517f08c379a00000000000000000000000000000000000000000000000000000000081526004016126c89061498f565b60405180910390fd5b6126da81612510565b1561271a576040517f08c379a00000000000000000000000000000000000000000000000000000000081526004016127119061480f565b60405180910390fd5b61272660008383613132565b6001600360008473ffffffffffffffffffffffffffffffffffffffff1673ffffffffffffffffffffffffffffffffffffffff16815260200190815260200160002060008282546127769190614cbb565b92505081905550816002600083815260200190815260200160002060006101000a81548173ffffffffffffffffffffffffffffffffffffffff021916908373ffffffffffffffffffffffffffffffffffffffff160217905550808273ffffffffffffffffffffffffffffffffffffffff16600073ffffffffffffffffffffffffffffffffffffffff167fddf252ad1be2c89b69c2b068fc378daa952ba7f163c4a11628f55a4df523b3ef60405160405180910390a461283760008383613137565b5050565b6000808360405160200161284f91906145fc565b60405160208183030381529060405280519060200120905061287a838261313c90919063ffffffff16565b91505092915050565b600061288e82612510565b6128cd576040517f08c379a00000000000000000000000000000000000000000000000000000000081526004016128c49061488f565b60405180910390fd5b60006128d883611792565b90508073ffffffffffffffffffffffffffffffffffffffff168473ffffffffffffffffffffffffffffffffffffffff16148061291a575061291981856121ba565b5b8061295857508373ffffffffffffffffffffffffffffffffffffffff1661294084610b8d565b73ffffffffffffffffffffffffffffffffffffffff16145b91505092915050565b8273ffffffffffffffffffffffffffffffffffffffff1661298182611792565b73ffffffffffffffffffffffffffffffffffffffff16146129d7576040517f08c379a00000000000000000000000000000000000000000000000000000000081526004016129ce906147ef565b60405180910390fd5b600073ffffffffffffffffffffffffffffffffffffffff168273ffffffffffffffffffffffffffffffffffffffff161415612a47576040517f08c379a0000000000000000000000000000000000000000000000000000000008152600401612a3e9061482f565b60405180910390fd5b612a52838383613132565b612a5d600082612584565b6001600360008573ffffffffffffffffffffffffffffffffffffffff1673ffffffffffffffffffffffffffffffffffffffff1681526020019081526020016000206000828254612aad9190614d42565b925050819055506001600360008473ffffffffffffffffffffffffffffffffffffffff1673ffffffffffffffffffffffffffffffffffffffff1681526020019081526020016000206000828254612b049190614cbb565b92505081905550816002600083815260200190815260200160002060006101000a81548173ffffffffffffffffffffffffffffffffffffffff021916908373ffffffffffffffffffffffffffffffffffffffff160217905550808273ffffffffffffffffffffffffffffffffffffffff168473ffffffffffffffffffffffffffffffffffffffff167fddf252ad1be2c89b69c2b068fc378daa952ba7f163c4a11628f55a4df523b3ef60405160405180910390a4612bc3838383613137565b505050565b6000600660009054906101000a900473ffffffffffffffffffffffffffffffffffffffff16905081600660006101000a81548173ffffffffffffffffffffffffffffffffffffffff021916908373ffffffffffffffffffffffffffffffffffffffff1602179055508173ffffffffffffffffffffffffffffffffffffffff168173ffffffffffffffffffffffffffffffffffffffff167f8be0079c531659141344cd1fd0a4f28419497f9722a3daafe3b4186f6b6457e060405160405180910390a35050565b612d268282604051602401612ca4929190614b2a565b6040516020818303038152906040527f6c0f6980000000000000000000000000000000000000000000000000000000007bffffffffffffffffffffffffffffffffffffffffffffffffffffffff19166020820180517bffffffffffffffffffffffffffffffffffffffffffffffffffffffff8381831617835250505050613163565b5050565b8173ffffffffffffffffffffffffffffffffffffffff168373ffffffffffffffffffffffffffffffffffffffff161415612d99576040517f08c379a0000000000000000000000000000000000000000000000000000000008152600401612d909061484f565b60405180910390fd5b80600560008573ffffffffffffffffffffffffffffffffffffffff1673ffffffffffffffffffffffffffffffffffffffff16815260200190815260200160002060008473ffffffffffffffffffffffffffffffffffffffff1673ffffffffffffffffffffffffffffffffffffffff16815260200190815260200160002060006101000a81548160ff0219169083151502179055508173ffffffffffffffffffffffffffffffffffffffff168373ffffffffffffffffffffffffffffffffffffffff167f17307eab39ab6107e8899845ad3d59bd9653f200f220920489ca2b5937696c3183604051612e8a91906146cd565b60405180910390a3505050565b612ea2848484612961565b612eae8484848461318c565b612eed576040517f08c379a0000000000000000000000000000000000000000000000000000000008152600401612ee49061478f565b60405180910390fd5b50505050565b6060600d8054612f0290614e43565b80601f0160208091040260200160405190810160405280929190818152602001828054612f2e90614e43565b8015612f7b5780601f10612f5057610100808354040283529160200191612f7b565b820191906000526020600020905b815481529060010190602001808311612f5e57829003601f168201915b5050505050905090565b60606000821415612fcd576040518060400160405280600181526020017f3000000000000000000000000000000000000000000000000000000000000000815250905061312d565b600082905060005b60008214612fff578080612fe890614ea6565b915050600a82612ff89190614d11565b9150612fd5565b60008167ffffffffffffffff811115613041577f4e487b7100000000000000000000000000000000000000000000000000000000600052604160045260246000fd5b6040519080825280601f01601f1916602001820160405280156130735781602001600182028036833780820191505090505b5090505b600085146131265760018261308c9190614d42565b9150600a8561309b9190614f27565b60306130a79190614cbb565b60f81b8183815181106130e3577f4e487b7100000000000000000000000000000000000000000000000000000000600052603260045260246000fd5b60200101907effffffffffffffffffffffffffffffffffffffffffffffffffffffffffffff1916908160001a905350600a8561311f9190614d11565b9450613077565b8093505050505b919050565b505050565b505050565b600080600061314b8585613323565b91509150613158816133a6565b819250505092915050565b60008151905060006a636f6e736f6c652e6c6f679050602083016000808483855afa5050505050565b60006131ad8473ffffffffffffffffffffffffffffffffffffffff166136f7565b15613316578373ffffffffffffffffffffffffffffffffffffffff1663150b7a026131d661257c565b8786866040518563ffffffff1660e01b81526004016131f8949392919061463d565b602060405180830381600087803b15801561321257600080fd5b505af192505050801561324357506040513d601f19601f820116820180604052508101906132409190613d8c565b60015b6132c6573d8060008114613273576040519150601f19603f3d011682016040523d82523d6000602084013e613278565b606091505b506000815114156132be576040517f08c379a00000000000000000000000000000000000000000000000000000000081526004016132b59061478f565b60405180910390fd5b805181602001fd5b63150b7a0260e01b7bffffffffffffffffffffffffffffffffffffffffffffffffffffffff1916817bffffffffffffffffffffffffffffffffffffffffffffffffffffffff19161491505061331b565b600190505b949350505050565b6000806041835114156133655760008060006020860151925060408601519150606086015160001a90506133598782858561371a565b9450945050505061339f565b60408351141561339657600080602085015191506040850151905061338b868383613827565b93509350505061339f565b60006002915091505b9250929050565b600060048111156133e0577f4e487b7100000000000000000000000000000000000000000000000000000000600052602160045260246000fd5b816004811115613419577f4e487b7100000000000000000000000000000000000000000000000000000000600052602160045260246000fd5b1415613424576136f4565b6001600481111561345e577f4e487b7100000000000000000000000000000000000000000000000000000000600052602160045260246000fd5b816004811115613497577f4e487b7100000000000000000000000000000000000000000000000000000000600052602160045260246000fd5b14156134d8576040517f08c379a00000000000000000000000000000000000000000000000000000000081526004016134cf9061474f565b60405180910390fd5b60026004811115613512577f4e487b7100000000000000000000000000000000000000000000000000000000600052602160045260246000fd5b81600481111561354b577f4e487b7100000000000000000000000000000000000000000000000000000000600052602160045260246000fd5b141561358c576040517f08c379a00000000000000000000000000000000000000000000000000000000081526004016135839061476f565b60405180910390fd5b600360048111156135c6577f4e487b7100000000000000000000000000000000000000000000000000000000600052602160045260246000fd5b8160048111156135ff577f4e487b7100000000000000000000000000000000000000000000000000000000600052602160045260246000fd5b1415613640576040517f08c379a00000000000000000000000000000000000000000000000000000000081526004016136379061486f565b60405180910390fd5b600480811115613679577f4e487b7100000000000000000000000000000000000000000000000000000000600052602160045260246000fd5b8160048111156136b2577f4e487b7100000000000000000000000000000000000000000000000000000000600052602160045260246000fd5b14156136f3576040517f08c379a00000000000000000000000000000000000000000000000000000000081526004016136ea9061496f565b60405180910390fd5b5b50565b6000808273ffffffffffffffffffffffffffffffffffffffff163b119050919050565b6000807f7fffffffffffffffffffffffffffffff5d576e7357a4501ddfe92f46681b20a08360001c111561375557600060039150915061381e565b601b8560ff161415801561376d5750601c8560ff1614155b1561377f57600060049150915061381e565b6000600187878787604051600081526020016040526040516137a494939291906146e8565b6020604051602081039080840390855afa1580156137c6573d6000803e3d6000fd5b505050602060405103519050600073ffffffffffffffffffffffffffffffffffffffff168173ffffffffffffffffffffffffffffffffffffffff1614156138155760006001925092505061381e565b80600092509250505b94509492505050565b60008060007f7fffffffffffffffffffffffffffffffffffffffffffffffffffffffffffffff60001b841690506000601b60ff8660001c901c61386a9190614cbb565b90506138788782888561371a565b935093505050935093915050565b82805461389290614e43565b90600052602060002090601f0160209004810192826138b457600085556138fb565b82601f106138cd57805160ff19168380011785556138fb565b828001600101855582156138fb579182015b828111156138fa5782518255916020019190600101906138df565b5b509050613908919061392d565b5090565b60405180606001604052806000815260200160008152602001600081525090565b5b8082111561394657600081600090555060010161392e565b5090565b600061395d61395884614b78565b614b53565b9050808382526020820190508285602086028201111561397c57600080fd5b60005b858110156139ac57816139928882613b04565b84526020840193506020830192505060018101905061397f565b5050509392505050565b60006139c96139c484614ba4565b614b53565b9050828152602081018484840111156139e157600080fd5b6139ec848285614e01565b509392505050565b6000613a07613a0284614bd5565b614b53565b905082815260208101848484011115613a1f57600080fd5b613a2a848285614e01565b509392505050565b600081359050613a41816157b2565b92915050565b600082601f830112613a5857600080fd5b8135613a6884826020860161394a565b91505092915050565b600081359050613a80816157c9565b92915050565b600081359050613a95816157e0565b92915050565b600081519050613aaa816157e0565b92915050565b600082601f830112613ac157600080fd5b8135613ad18482602086016139b6565b91505092915050565b600082601f830112613aeb57600080fd5b8135613afb8482602086016139f4565b91505092915050565b600081359050613b13816157f7565b92915050565b600060208284031215613b2b57600080fd5b6000613b3984828501613a32565b91505092915050565b60008060408385031215613b5557600080fd5b6000613b6385828601613a32565b9250506020613b7485828601613a32565b9150509250929050565b600080600060608486031215613b9357600080fd5b6000613ba186828701613a32565b9350506020613bb286828701613a32565b9250506040613bc386828701613b04565b9150509250925092565b60008060008060808587031215613be357600080fd5b6000613bf187828801613a32565b9450506020613c0287828801613a32565b9350506040613c1387828801613b04565b925050606085013567ffffffffffffffff811115613c3057600080fd5b613c3c87828801613ab0565b91505092959194509250565b60008060408385031215613c5b57600080fd5b6000613c6985828601613a32565b925050602083013567ffffffffffffffff811115613c8657600080fd5b613c9285828601613a47565b9150509250929050565b60008060408385031215613caf57600080fd5b6000613cbd85828601613a32565b9250506020613cce85828601613a71565b9150509250929050565b60008060408385031215613ceb57600080fd5b6000613cf985828601613a32565b9250506020613d0a85828601613b04565b9150509250929050565b600080600060608486031215613d2957600080fd5b6000613d3786828701613a32565b9350506020613d4886828701613b04565b9250506040613d5986828701613b04565b9150509250925092565b600060208284031215613d7557600080fd5b6000613d8384828501613a86565b91505092915050565b600060208284031215613d9e57600080fd5b6000613dac84828501613a9b565b91505092915050565b600060208284031215613dc757600080fd5b600082013567ffffffffffffffff811115613de157600080fd5b613ded84828501613ada565b91505092915050565b600060208284031215613e0857600080fd5b6000613e1684828501613b04565b91505092915050565b60008060408385031215613e3257600080fd5b6000613e4085828601613b04565b9250506020613e5185828601613a32565b9150509250929050565b600080600060608486031215613e7057600080fd5b6000613e7e86828701613b04565b9350506020613e8f86828701613a32565b925050604084013567ffffffffffffffff811115613eac57600080fd5b613eb886828701613ab0565b9150509250925092565b6000613ece8383613fd4565b60208301905092915050565b6000613ee6838361451b565b60608301905092915050565b613efb81614d76565b82525050565b613f12613f0d82614d76565b614eef565b82525050565b6000613f2382614c26565b613f2d8185614c6c565b9350613f3883614c06565b8060005b83811015613f69578151613f508882613ec2565b9750613f5b83614c52565b925050600181019050613f3c565b5085935050505092915050565b6000613f8182614c31565b613f8b8185614c7d565b9350613f9683614c16565b8060005b83811015613fc7578151613fae8882613eda565b9750613fb983614c5f565b925050600181019050613f9a565b5085935050505092915050565b613fdd81614d88565b82525050565b613fec81614d88565b82525050565b613ffb81614d94565b82525050565b61401261400d82614d94565b614f01565b82525050565b600061402382614c3c565b61402d8185614c8e565b935061403d818560208601614e10565b61404681615014565b840191505092915050565b600061405c82614c47565b6140668185614c9f565b9350614076818560208601614e10565b61407f81615014565b840191505092915050565b600061409582614c47565b61409f8185614cb0565b93506140af818560208601614e10565b80840191505092915050565b60006140c8601883614c9f565b91506140d382615032565b602082019050919050565b60006140eb601f83614c9f565b91506140f68261505b565b602082019050919050565b600061410e601c83614cb0565b915061411982615084565b601c82019050919050565b6000614131603283614c9f565b915061413c826150ad565b604082019050919050565b6000614154603783614c9f565b915061415f826150fc565b604082019050919050565b6000614177602683614c9f565b91506141828261514b565b604082019050919050565b600061419a602583614c9f565b91506141a58261519a565b604082019050919050565b60006141bd601c83614c9f565b91506141c8826151e9565b602082019050919050565b60006141e0602483614c9f565b91506141eb82615212565b604082019050919050565b6000614203601983614c9f565b915061420e82615261565b602082019050919050565b6000614226602283614c9f565b91506142318261528a565b604082019050919050565b6000614249602c83614c9f565b9150614254826152d9565b604082019050919050565b600061426c601983614c9f565b915061427782615328565b602082019050919050565b600061428f601583614c9f565b915061429a82615351565b602082019050919050565b60006142b2603883614c9f565b91506142bd8261537a565b604082019050919050565b60006142d5602a83614c9f565b91506142e0826153c9565b604082019050919050565b60006142f8602983614c9f565b915061430382615418565b604082019050919050565b600061431b600b83614c9f565b915061432682615467565b602082019050919050565b600061433e602283614c9f565b915061434982615490565b604082019050919050565b6000614361602083614c9f565b915061436c826154df565b602082019050919050565b6000614384602c83614c9f565b915061438f82615508565b604082019050919050565b60006143a7600583614cb0565b91506143b282615557565b600582019050919050565b60006143ca601083614c9f565b91506143d582615580565b602082019050919050565b60006143ed602083614c9f565b91506143f8826155a9565b602082019050919050565b6000614410602f83614c9f565b915061441b826155d2565b604082019050919050565b6000614433602183614c9f565b915061443e82615621565b604082019050919050565b6000614456602183614c9f565b915061446182615670565b604082019050919050565b6000614479601783614c9f565b9150614484826156bf565b602082019050919050565b600061449c603183614c9f565b91506144a7826156e8565b604082019050919050565b60006144bf601f83614c9f565b91506144ca82615737565b602082019050919050565b60006144e2601983614c9f565b91506144ed82615760565b602082019050919050565b6000614505601583614c9f565b915061451082615789565b602082019050919050565b606082016000820151614531600085018261455d565b506020820151614544602085018261455d565b506040820151614557604085018261455d565b50505050565b61456681614dea565b82525050565b61457581614dea565b82525050565b61458c61458782614dea565b614f1d565b82525050565b61459b81614df4565b82525050565b60006145ad8285613f01565b6014820191506145bd828461457b565b6020820191508190509392505050565b60006145d9828561408a565b91506145e5828461408a565b91506145f08261439a565b91508190509392505050565b600061460782614101565b91506146138284614001565b60208201915081905092915050565b60006020820190506146376000830184613ef2565b92915050565b60006080820190506146526000830187613ef2565b61465f6020830186613ef2565b61466c604083018561456c565b818103606083015261467e8184614018565b905095945050505050565b600060208201905081810360008301526146a38184613f18565b905092915050565b600060208201905081810360008301526146c58184613f76565b905092915050565b60006020820190506146e26000830184613fe3565b92915050565b60006080820190506146fd6000830187613ff2565b61470a6020830186614592565b6147176040830185613ff2565b6147246060830184613ff2565b95945050505050565b600060208201905081810360008301526147478184614051565b905092915050565b60006020820190508181036000830152614768816140bb565b9050919050565b60006020820190508181036000830152614788816140de565b9050919050565b600060208201905081810360008301526147a881614124565b9050919050565b600060208201905081810360008301526147c881614147565b9050919050565b600060208201905081810360008301526147e88161416a565b9050919050565b600060208201905081810360008301526148088161418d565b9050919050565b60006020820190508181036000830152614828816141b0565b9050919050565b60006020820190508181036000830152614848816141d3565b9050919050565b60006020820190508181036000830152614868816141f6565b9050919050565b6000602082019050818103600083015261488881614219565b9050919050565b600060208201905081810360008301526148a88161423c565b9050919050565b600060208201905081810360008301526148c88161425f565b9050919050565b600060208201905081810360008301526148e881614282565b9050919050565b60006020820190508181036000830152614908816142a5565b9050919050565b60006020820190508181036000830152614928816142c8565b9050919050565b60006020820190508181036000830152614948816142eb565b9050919050565b600060208201905081810360008301526149688161430e565b9050919050565b6000602082019050818103600083015261498881614331565b9050919050565b600060208201905081810360008301526149a881614354565b9050919050565b600060208201905081810360008301526149c881614377565b9050919050565b600060208201905081810360008301526149e8816143bd565b9050919050565b60006020820190508181036000830152614a08816143e0565b9050919050565b60006020820190508181036000830152614a2881614403565b9050919050565b60006020820190508181036000830152614a4881614426565b9050919050565b60006020820190508181036000830152614a6881614449565b9050919050565b60006020820190508181036000830152614a888161446c565b9050919050565b60006020820190508181036000830152614aa88161448f565b9050919050565b60006020820190508181036000830152614ac8816144b2565b9050919050565b60006020820190508181036000830152614ae8816144d5565b9050919050565b60006020820190508181036000830152614b08816144f8565b9050919050565b6000602082019050614b24600083018461456c565b92915050565b6000604082019050614b3f600083018561456c565b614b4c602083018461456c565b9392505050565b6000614b5d614b6e565b9050614b698282614e75565b919050565b6000604051905090565b600067ffffffffffffffff821115614b9357614b92614fe5565b5b602082029050602081019050919050565b600067ffffffffffffffff821115614bbf57614bbe614fe5565b5b614bc882615014565b9050602081019050919050565b600067ffffffffffffffff821115614bf057614bef614fe5565b5b614bf982615014565b9050602081019050919050565b6000819050602082019050919050565b6000819050602082019050919050565b600081519050919050565b600081519050919050565b600081519050919050565b600081519050919050565b6000602082019050919050565b6000602082019050919050565b600082825260208201905092915050565b600082825260208201905092915050565b600082825260208201905092915050565b600082825260208201905092915050565b600081905092915050565b6000614cc682614dea565b9150614cd183614dea565b9250827fffffffffffffffffffffffffffffffffffffffffffffffffffffffffffffffff03821115614d0657614d05614f58565b5b828201905092915050565b6000614d1c82614dea565b9150614d2783614dea565b925082614d3757614d36614f87565b5b828204905092915050565b6000614d4d82614dea565b9150614d5883614dea565b925082821015614d6b57614d6a614f58565b5b828203905092915050565b6000614d8182614dca565b9050919050565b60008115159050919050565b6000819050919050565b60007fffffffff0000000000000000000000000000000000000000000000000000000082169050919050565b600073ffffffffffffffffffffffffffffffffffffffff82169050919050565b6000819050919050565b600060ff82169050919050565b82818337600083830152505050565b60005b83811015614e2e578082015181840152602081019050614e13565b83811115614e3d576000848401525b50505050565b60006002820490506001821680614e5b57607f821691505b60208210811415614e6f57614e6e614fb6565b5b50919050565b614e7e82615014565b810181811067ffffffffffffffff82111715614e9d57614e9c614fe5565b5b80604052505050565b6000614eb182614dea565b91507fffffffffffffffffffffffffffffffffffffffffffffffffffffffffffffffff821415614ee457614ee3614f58565b5b600182019050919050565b6000614efa82614f0b565b9050919050565b6000819050919050565b6000614f1682615025565b9050919050565b6000819050919050565b6000614f3282614dea565b9150614f3d83614dea565b925082614f4d57614f4c614f87565b5b828206905092915050565b7f4e487b7100000000000000000000000000000000000000000000000000000000600052601160045260246000fd5b7f4e487b7100000000000000000000000000000000000000000000000000000000600052601260045260246000fd5b7f4e487b7100000000000000000000000000000000000000000000000000000000600052602260045260246000fd5b7f4e487b7100000000000000000000000000000000000000000000000000000000600052604160045260246000fd5b6000601f19601f8301169050919050565b60008160601b9050919050565b7f45434453413a20696e76616c6964207369676e61747572650000000000000000600082015250565b7f45434453413a20696e76616c6964207369676e6174757265206c656e67746800600082015250565b7f19457468657265756d205369676e6564204d6573736167653a0a333200000000600082015250565b7f4552433732313a207472616e7366657220746f206e6f6e20455243373231526560008201527f63656976657220696d706c656d656e7465720000000000000000000000000000602082015250565b7f43616e27742063726561746520636f6e74656e74206265636175736520796f7560008201527f20617265206e6f7420636f6e74656e7420736572766572000000000000000000602082015250565b7f4f776e61626c653a206e6577206f776e657220697320746865207a65726f206160008201527f6464726573730000000000000000000000000000000000000000000000000000602082015250565b7f4552433732313a207472616e736665722066726f6d20696e636f72726563742060008201527f6f776e6572000000000000000000000000000000000000000000000000000000602082015250565b7f4552433732313a20746f6b656e20616c7265616479206d696e74656400000000600082015250565b7f4552433732313a207472616e7366657220746f20746865207a65726f2061646460008201527f7265737300000000000000000000000000000000000000000000000000000000602082015250565b7f4552433732313a20617070726f766520746f2063616c6c657200000000000000600082015250565b7f45434453413a20696e76616c6964207369676e6174757265202773272076616c60008201527f7565000000000000000000000000000000000000000000000000000000000000602082015250565b7f4552433732313a206f70657261746f7220717565727920666f72206e6f6e657860008201527f697374656e7420746f6b656e0000000000000000000000000000000000000000602082015250565b7f596f75206172656e2774206f776e6572206f6620746f6b656e00000000000000600082015250565b7f596f75206172656e2774204e4654206f776e6572210000000000000000000000600082015250565b7f4552433732313a20617070726f76652063616c6c6572206973206e6f74206f7760008201527f6e6572206e6f7220617070726f76656420666f7220616c6c0000000000000000602082015250565b7f4552433732313a2062616c616e636520717565727920666f7220746865207a6560008201527f726f206164647265737300000000000000000000000000000000000000000000602082015250565b7f4552433732313a206f776e657220717565727920666f72206e6f6e657869737460008201527f656e7420746f6b656e0000000000000000000000000000000000000000000000602082015250565b7f416c726561647920736574000000000000000000000000000000000000000000600082015250565b7f45434453413a20696e76616c6964207369676e6174757265202776272076616c60008201527f7565000000000000000000000000000000000000000000000000000000000000602082015250565b7f4552433732313a206d696e7420746f20746865207a65726f2061646472657373600082015250565b7f4552433732313a20617070726f76656420717565727920666f72206e6f6e657860008201527f697374656e7420746f6b656e0000000000000000000000000000000000000000602082015250565b7f2e6a736f6e000000000000000000000000000000000000000000000000000000600082015250565b7f446f65736e2774206d696e742079657400000000000000000000000000000000600082015250565b7f4f776e61626c653a2063616c6c6572206973206e6f7420746865206f776e6572600082015250565b7f4552433732314d657461646174613a2055524920717565727920666f72206e6f60008201527f6e6578697374656e7420746f6b656e0000000000000000000000000000000000602082015250565b7f4552433732313a20617070726f76616c20746f2063757272656e74206f776e6560008201527f7200000000000000000000000000000000000000000000000000000000000000602082015250565b7f596f7520617265206e6f74206f776e6572206f66207468697320636f6e74656e60008201527f7400000000000000000000000000000000000000000000000000000000000000602082015250565b7f596f752063616e2774206d696e742074686973204e4654000000000000000000600082015250565b7f4552433732313a207472616e736665722063616c6c6572206973206e6f74206f60008201527f776e6572206e6f7220617070726f766564000000000000000000000000000000602082015250565b7f596f7520646f6e2774207065726d6974746564207468697320616374696f6e00600082015250565b7f596f7520617265206e6f7420636f6e74656e74206f776e657200000000000000600082015250565b7f436f6e74656e7420616c72656164792061646465640000000000000000000000600082015250565b6157bb81614d76565b81146157c657600080fd5b50565b6157d281614d88565b81146157dd57600080fd5b50565b6157e981614d9e565b81146157f457600080fd5b50565b61580081614dea565b811461580b57600080fd5b5056fea2646970667358221220a989ad270f72c8e4e616b030bed570da6af5a113c29c4b6001b56e8b4569d8c664736f6c63430008040033",
  "linkReferences": {},
  "deployedLinkReferences": {}
}