{
  "_format": "hh-sol-artifact-1",
  "contractName": "NCPProof",
  "sourceName": "contracts/NCPProof.sol",
  "abi": [
    {
      "inputs": [],
      "stateMutability": "nonpayable",
      "type": "constructor"
    },
    {
      "anonymous": false,
      "inputs": [
        {
          "indexed": true,
          "internalType": "address",
          "name": "owner",
          "type": "address"
        },
        {
          "indexed": true,
          "internalType": "address",
          "name": "approved",
          "type": "address"
        },
        {
          "indexed": true,
          "internalType": "uint256",
          "name": "tokenId",
          "type": "uint256"
        }
      ],
      "name": "Approval",
      "type": "event"
    },
    {
      "anonymous": false,
      "inputs": [
        {
          "indexed": true,
          "internalType": "address",
          "name": "owner",
          "type": "address"
        },
        {
          "indexed": true,
          "internalType": "address",
          "name": "operator",
          "type": "address"
        },
        {
          "indexed": false,
          "internalType": "bool",
          "name": "approved",
          "type": "bool"
        }
      ],
      "name": "ApprovalForAll",
      "type": "event"
    },
    {
      "anonymous": false,
      "inputs": [
        {
          "indexed": true,
          "internalType": "address",
          "name": "_to",
          "type": "address"
        },
        {
          "indexed": false,
          "internalType": "uint256",
          "name": "_contentId",
          "type": "uint256"
        }
      ],
      "name": "MintNFT",
      "type": "event"
    },
    {
      "anonymous": false,
      "inputs": [
        {
          "indexed": true,
          "internalType": "address",
          "name": "previousOwner",
          "type": "address"
        },
        {
          "indexed": true,
          "internalType": "address",
          "name": "newOwner",
          "type": "address"
        }
      ],
      "name": "OwnershipTransferred",
      "type": "event"
    },
    {
      "anonymous": false,
      "inputs": [
        {
          "indexed": true,
          "internalType": "address",
          "name": "from",
          "type": "address"
        },
        {
          "indexed": true,
          "internalType": "address",
          "name": "to",
          "type": "address"
        },
        {
          "indexed": true,
          "internalType": "uint256",
          "name": "tokenId",
          "type": "uint256"
        }
      ],
      "name": "Transfer",
      "type": "event"
    },
    {
      "inputs": [
        {
          "internalType": "address",
          "name": "to",
          "type": "address"
        },
        {
          "internalType": "uint256",
          "name": "tokenId",
          "type": "uint256"
        }
      ],
      "name": "approve",
      "outputs": [],
      "stateMutability": "nonpayable",
      "type": "function"
    },
    {
      "inputs": [
        {
          "internalType": "address",
          "name": "owner",
          "type": "address"
        }
      ],
      "name": "balanceOf",
      "outputs": [
        {
          "internalType": "uint256",
          "name": "",
          "type": "uint256"
        }
      ],
      "stateMutability": "view",
      "type": "function"
    },
    {
      "inputs": [
        {
          "internalType": "uint256",
          "name": "contentId",
          "type": "uint256"
        }
      ],
      "name": "contentDistributorOf",
      "outputs": [
        {
          "internalType": "address",
          "name": "",
          "type": "address"
        }
      ],
      "stateMutability": "view",
      "type": "function"
    },
    {
      "inputs": [
        {
          "internalType": "uint256",
          "name": "tokenId",
          "type": "uint256"
        }
      ],
      "name": "contentOf",
      "outputs": [
        {
          "internalType": "uint256",
          "name": "",
          "type": "uint256"
        }
      ],
      "stateMutability": "view",
      "type": "function"
    },
    {
      "inputs": [],
      "name": "countOfNFT",
      "outputs": [
        {
          "internalType": "uint256",
          "name": "",
          "type": "uint256"
        }
      ],
      "stateMutability": "view",
      "type": "function"
    },
    {
      "inputs": [
        {
          "internalType": "uint256",
          "name": "tokenId",
          "type": "uint256"
        }
      ],
      "name": "getApproved",
      "outputs": [
        {
          "internalType": "address",
          "name": "",
          "type": "address"
        }
      ],
      "stateMutability": "view",
      "type": "function"
    },
    {
      "inputs": [
        {
          "internalType": "address",
          "name": "owner",
          "type": "address"
        },
        {
          "internalType": "uint256",
          "name": "contentId",
          "type": "uint256"
        }
      ],
      "name": "hasNFTForContent",
      "outputs": [
        {
          "internalType": "bool",
          "name": "",
          "type": "bool"
        }
      ],
      "stateMutability": "view",
      "type": "function"
    },
    {
      "inputs": [
        {
          "internalType": "address",
          "name": "owner",
          "type": "address"
        },
        {
          "internalType": "address",
          "name": "operator",
          "type": "address"
        }
      ],
      "name": "isApprovedForAll",
      "outputs": [
        {
          "internalType": "bool",
          "name": "",
          "type": "bool"
        }
      ],
      "stateMutability": "view",
      "type": "function"
    },
    {
      "inputs": [
        {
          "internalType": "address",
          "name": "addr",
          "type": "address"
        }
      ],
      "name": "isContentServer",
      "outputs": [
        {
          "internalType": "bool",
          "name": "",
          "type": "bool"
        }
      ],
      "stateMutability": "view",
      "type": "function"
    },
    {
      "inputs": [
        {
          "internalType": "address",
          "name": "owner",
          "type": "address"
        },
        {
          "internalType": "uint256",
          "name": "contentId",
          "type": "uint256"
        }
      ],
      "name": "isDistributorOf",
      "outputs": [
        {
          "internalType": "bool",
          "name": "",
          "type": "bool"
        }
      ],
      "stateMutability": "view",
      "type": "function"
    },
    {
      "inputs": [
        {
          "internalType": "uint256",
          "name": "contentId",
          "type": "uint256"
        }
      ],
      "name": "isSetted",
      "outputs": [
        {
          "internalType": "bool",
          "name": "",
          "type": "bool"
        }
      ],
      "stateMutability": "view",
      "type": "function"
    },
    {
      "inputs": [
        {
          "internalType": "address",
          "name": "to",
          "type": "address"
        },
        {
          "internalType": "uint256",
          "name": "contentId",
          "type": "uint256"
        }
      ],
      "name": "mint",
      "outputs": [
        {
          "internalType": "uint256",
          "name": "",
          "type": "uint256"
        }
      ],
      "stateMutability": "nonpayable",
      "type": "function"
    },
    {
      "inputs": [],
      "name": "name",
      "outputs": [
        {
          "internalType": "string",
          "name": "",
          "type": "string"
        }
      ],
      "stateMutability": "view",
      "type": "function"
    },
    {
      "inputs": [
        {
          "internalType": "uint256",
          "name": "contentId",
          "type": "uint256"
        },
        {
          "internalType": "address",
          "name": "contentOwner",
          "type": "address"
        },
        {
          "internalType": "bytes",
          "name": "signature",
          "type": "bytes"
        }
      ],
      "name": "newContent",
      "outputs": [
        {
          "internalType": "bool",
          "name": "",
          "type": "bool"
        }
      ],
      "stateMutability": "nonpayable",
      "type": "function"
    },
    {
      "inputs": [],
      "name": "newContentId",
      "outputs": [
        {
          "internalType": "uint256",
          "name": "",
          "type": "uint256"
        }
      ],
      "stateMutability": "view",
      "type": "function"
    },
    {
      "inputs": [],
      "name": "owner",
      "outputs": [
        {
          "internalType": "address",
          "name": "",
          "type": "address"
        }
      ],
      "stateMutability": "view",
      "type": "function"
    },
    {
      "inputs": [
        {
          "internalType": "uint256",
          "name": "tokenId",
          "type": "uint256"
        }
      ],
      "name": "ownerOf",
      "outputs": [
        {
          "internalType": "address",
          "name": "",
          "type": "address"
        }
      ],
      "stateMutability": "view",
      "type": "function"
    },
    {
      "inputs": [],
      "name": "renounceOwnership",
      "outputs": [],
      "stateMutability": "nonpayable",
      "type": "function"
    },
    {
      "inputs": [
        {
          "internalType": "address",
          "name": "from",
          "type": "address"
        },
        {
          "internalType": "address",
          "name": "to",
          "type": "address"
        },
        {
          "internalType": "uint256",
          "name": "tokenId",
          "type": "uint256"
        }
      ],
      "name": "safeTransferFrom",
      "outputs": [],
      "stateMutability": "nonpayable",
      "type": "function"
    },
    {
      "inputs": [
        {
          "internalType": "address",
          "name": "from",
          "type": "address"
        },
        {
          "internalType": "address",
          "name": "to",
          "type": "address"
        },
        {
          "internalType": "uint256",
          "name": "tokenId",
          "type": "uint256"
        },
        {
          "internalType": "bytes",
          "name": "_data",
          "type": "bytes"
        }
      ],
      "name": "safeTransferFrom",
      "outputs": [],
      "stateMutability": "nonpayable",
      "type": "function"
    },
    {
      "inputs": [
        {
          "internalType": "address",
          "name": "operator",
          "type": "address"
        },
        {
          "internalType": "bool",
          "name": "approved",
          "type": "bool"
        }
      ],
      "name": "setApprovalForAll",
      "outputs": [],
      "stateMutability": "nonpayable",
      "type": "function"
    },
    {
      "inputs": [
        {
          "internalType": "string",
          "name": "baseURI",
          "type": "string"
        }
      ],
      "name": "setBaseTokenURI",
      "outputs": [],
      "stateMutability": "nonpayable",
      "type": "function"
    },
    {
      "inputs": [
        {
          "internalType": "address",
          "name": "contentServer",
          "type": "address"
        },
        {
          "internalType": "bool",
          "name": "set",
          "type": "bool"
        }
      ],
      "name": "setContentServer",
      "outputs": [],
      "stateMutability": "nonpayable",
      "type": "function"
    },
    {
      "inputs": [
        {
          "internalType": "bytes4",
          "name": "interfaceId",
          "type": "bytes4"
        }
      ],
      "name": "supportsInterface",
      "outputs": [
        {
          "internalType": "bool",
          "name": "",
          "type": "bool"
        }
      ],
      "stateMutability": "view",
      "type": "function"
    },
    {
      "inputs": [],
      "name": "symbol",
      "outputs": [
        {
          "internalType": "string",
          "name": "",
          "type": "string"
        }
      ],
      "stateMutability": "view",
      "type": "function"
    },
    {
      "inputs": [
        {
          "internalType": "uint256",
          "name": "tokenId",
          "type": "uint256"
        }
      ],
      "name": "tokenURI",
      "outputs": [
        {
          "internalType": "string",
          "name": "",
          "type": "string"
        }
      ],
      "stateMutability": "view",
      "type": "function"
    },
    {
      "inputs": [
        {
          "internalType": "uint256",
          "name": "contentId",
          "type": "uint256"
        },
        {
          "internalType": "address",
          "name": "newOwner",
          "type": "address"
        }
      ],
      "name": "transferContentRights",
      "outputs": [
        {
          "internalType": "bool",
          "name": "",
          "type": "bool"
        }
      ],
      "stateMutability": "nonpayable",
      "type": "function"
    },
    {
      "inputs": [
        {
          "internalType": "address",
          "name": "from",
          "type": "address"
        },
        {
          "internalType": "address",
          "name": "to",
          "type": "address"
        },
        {
          "internalType": "uint256",
          "name": "tokenId",
          "type": "uint256"
        }
      ],
      "name": "transferFrom",
      "outputs": [],
      "stateMutability": "nonpayable",
      "type": "function"
    },
    {
      "inputs": [
        {
          "internalType": "address",
          "name": "newOwner",
          "type": "address"
        }
      ],
      "name": "transferOwnership",
      "outputs": [],
      "stateMutability": "nonpayable",
      "type": "function"
    },
    {
      "inputs": [],
      "name": "withdraw",
      "outputs": [],
      "stateMutability": "nonpayable",
      "type": "function"
    }
  ],
  "bytecode": "0x60806040523480156200001157600080fd5b506040518060400160405280601881526020017f4e465420436f6e74656e7420506c617965722050726f6f6600000000000000008152506040518060400160405280600481526020017f4e43505000000000000000000000000000000000000000000000000000000000815250816000908051906020019062000096929190620001f4565b508060019080519060200190620000af929190620001f4565b505050620000d2620000c66200012660201b60201c565b6200012e60201b60201c565b6040518060400160405280600d81526020017f68747470733a2f2f697066732f00000000000000000000000000000000000000815250600b90805190602001906200011f929190620001f4565b5062000309565b600033905090565b6000600660009054906101000a900473ffffffffffffffffffffffffffffffffffffffff16905081600660006101000a81548173ffffffffffffffffffffffffffffffffffffffff021916908373ffffffffffffffffffffffffffffffffffffffff1602179055508173ffffffffffffffffffffffffffffffffffffffff168173ffffffffffffffffffffffffffffffffffffffff167f8be0079c531659141344cd1fd0a4f28419497f9722a3daafe3b4186f6b6457e060405160405180910390a35050565b8280546200020290620002a4565b90600052602060002090601f01602090048101928262000226576000855562000272565b82601f106200024157805160ff191683800117855562000272565b8280016001018555821562000272579182015b828111156200027157825182559160200191906001019062000254565b5b50905062000281919062000285565b5090565b5b80821115620002a057600081600090555060010162000286565b5090565b60006002820490506001821680620002bd57607f821691505b60208210811415620002d457620002d3620002da565b5b50919050565b7f4e487b7100000000000000000000000000000000000000000000000000000000600052602260045260246000fd5b61440380620003196000396000f3fe608060405234801561001057600080fd5b50600436106101da5760003560e01c8063715018a611610104578063aae0ca62116100a2578063d4a8478111610071578063d4a847811461059f578063e985e9c5146105bd578063f2fde38b146105ed578063f9da9c5a14610609576101da565b8063aae0ca62146104f3578063b88d4fde14610523578063bb4243e51461053f578063c87b56dd1461056f576101da565b806389c61dc2116100de57806389c61dc21461046b5780638da5cb5b1461049b57806395d89b41146104b9578063a22cb465146104d7576101da565b8063715018a61461040157806371ca59ca1461040b5780638170ced51461043b576101da565b806327427e311161017c57806342842e0e1161014b57806342842e0e1461036957806361aad37b146103855780636352211e146103a157806370a08231146103d1576101da565b806327427e31146102e357806330176e13146103135780633ccfd60b1461032f57806340c10f1914610339576101da565b8063081812fc116101b8578063081812fc1461024b578063095ea7b31461027b5780631690a5a61461029757806323b872dd146102c7576101da565b806301ffc9a7146101df57806306fdde031461020f5780630737b4f71461022d575b600080fd5b6101f960048036038101906101f49190612e27565b610639565b604051610206919061352f565b60405180910390f35b61021761071b565b604051610224919061358f565b60405180910390f35b6102356107ad565b60405161024291906138b1565b60405180910390f35b61026560048036038101906102609190612eba565b6107f3565b60405161027291906134c8565b60405180910390f35b61029560048036038101906102909190612deb565b610878565b005b6102b160048036038101906102ac9190612f1f565b610990565b6040516102be919061352f565b60405180910390f35b6102e160048036038101906102dc9190612ce5565b610b15565b005b6102fd60048036038101906102f89190612eba565b610b75565b60405161030a91906138b1565b60405180910390f35b61032d60048036038101906103289190612e79565b610b92565b005b610337610c28565b005b610353600480360381019061034e9190612deb565b610ced565b60405161036091906138b1565b60405180910390f35b610383600480360381019061037e9190612ce5565b610e29565b005b61039f600480360381019061039a9190612daf565b610e49565b005b6103bb60048036038101906103b69190612eba565b610f20565b6040516103c891906134c8565b60405180910390f35b6103eb60048036038101906103e69190612c80565b610fd2565b6040516103f891906138b1565b60405180910390f35b61040961108a565b005b61042560048036038101906104209190612eba565b611112565b60405161043291906134c8565b60405180910390f35b61045560048036038101906104509190612eba565b61114f565b604051610462919061352f565b60405180910390f35b61048560048036038101906104809190612deb565b6111bb565b604051610492919061352f565b60405180910390f35b6104a361124d565b6040516104b091906134c8565b60405180910390f35b6104c1611277565b6040516104ce919061358f565b60405180910390f35b6104f160048036038101906104ec9190612daf565b611309565b005b61050d60048036038101906105089190612c80565b61131f565b60405161051a919061352f565b60405180910390f35b61053d60048036038101906105389190612d34565b6113ba565b005b61055960048036038101906105549190612deb565b61141c565b604051610566919061352f565b60405180910390f35b61058960048036038101906105849190612eba565b6114a0565b604051610596919061358f565b60405180910390f35b6105a761154f565b6040516105b491906138b1565b60405180910390f35b6105d760048036038101906105d29190612ca9565b611560565b6040516105e4919061352f565b60405180910390f35b61060760048036038101906106029190612c80565b6115f4565b005b610623600480360381019061061e9190612ee3565b6116ec565b604051610630919061352f565b60405180910390f35b60007f80ac58cd000000000000000000000000000000000000000000000000000000007bffffffffffffffffffffffffffffffffffffffffffffffffffffffff1916827bffffffffffffffffffffffffffffffffffffffffffffffffffffffff1916148061070457507f5b5e139f000000000000000000000000000000000000000000000000000000007bffffffffffffffffffffffffffffffffffffffffffffffffffffffff1916827bffffffffffffffffffffffffffffffffffffffffffffffffffffffff1916145b80610714575061071382611789565b5b9050919050565b60606000805461072a90613b1e565b80601f016020809104026020016040519081016040528092919081815260200182805461075690613b1e565b80156107a35780601f10610778576101008083540402835291602001916107a3565b820191906000526020600020905b81548152906001019060200180831161078657829003601f168201915b5050505050905090565b6000805b33426040516020016107c4929190613447565b6040516020818303038152906040528051906020012060001c90506107e88161114f565b6107b1578091505090565b60006107fe826117f3565b61083d576040517f08c379a0000000000000000000000000000000000000000000000000000000008152600401610834906137d1565b60405180910390fd5b6004600083815260200190815260200160002060009054906101000a900473ffffffffffffffffffffffffffffffffffffffff169050919050565b600061088382610f20565b90508073ffffffffffffffffffffffffffffffffffffffff168373ffffffffffffffffffffffffffffffffffffffff1614156108f4576040517f08c379a00000000000000000000000000000000000000000000000000000000081526004016108eb90613831565b60405180910390fd5b8073ffffffffffffffffffffffffffffffffffffffff1661091361185f565b73ffffffffffffffffffffffffffffffffffffffff16148061094257506109418161093c61185f565b611560565b5b610981576040517f08c379a000000000000000000000000000000000000000000000000000000000815260040161097890613731565b60405180910390fd5b61098b8383611867565b505050565b60008073ffffffffffffffffffffffffffffffffffffffff16600a600086815260200190815260200160002060009054906101000a900473ffffffffffffffffffffffffffffffffffffffff1673ffffffffffffffffffffffffffffffffffffffff1614610a33576040517f08c379a0000000000000000000000000000000000000000000000000000000008152600401610a2a90613891565b60405180910390fd5b60008385604051602001610a48929190613447565b6040516020818303038152906040528051906020012090506000610a6c8285611920565b9050610a778161131f565b610ab6576040517f08c379a0000000000000000000000000000000000000000000000000000000008152600401610aad90613611565b60405180910390fd5b84600a600088815260200190815260200160002060006101000a81548173ffffffffffffffffffffffffffffffffffffffff021916908373ffffffffffffffffffffffffffffffffffffffff1602179055506001925050509392505050565b610b26610b2061185f565b82611968565b610b65576040517f08c379a0000000000000000000000000000000000000000000000000000000008152600401610b5c90613871565b60405180910390fd5b610b70838383611a46565b505050565b600060096000838152602001908152602001600020549050919050565b610b9a61185f565b73ffffffffffffffffffffffffffffffffffffffff16610bb861124d565b73ffffffffffffffffffffffffffffffffffffffff1614610c0e576040517f08c379a0000000000000000000000000000000000000000000000000000000008152600401610c05906137f1565b60405180910390fd5b80600b9080519060200190610c24929190612aa4565b5050565b610c3061185f565b73ffffffffffffffffffffffffffffffffffffffff16610c4e61124d565b73ffffffffffffffffffffffffffffffffffffffff1614610ca4576040517f08c379a0000000000000000000000000000000000000000000000000000000008152600401610c9b906137f1565b60405180910390fd5b3373ffffffffffffffffffffffffffffffffffffffff166108fc479081150290604051600060405180830381858888f19350505050158015610cea573d6000803e3d6000fd5b50565b60003373ffffffffffffffffffffffffffffffffffffffff16610d0f83611112565b73ffffffffffffffffffffffffffffffffffffffff1614610d65576040517f08c379a0000000000000000000000000000000000000000000000000000000008152600401610d5c90613851565b60405180910390fd5b610d6f83836111bb565b15610daf576040517f08c379a0000000000000000000000000000000000000000000000000000000008152600401610da6906136b1565b60405180910390fd5b6000610dbb6007611cad565b9050610dc76007611cbb565b610dd18482611cd1565b8373ffffffffffffffffffffffffffffffffffffffff167f1f89f147a58d1673945cf416187db98efc8208408c011b91887acd59fd8523c384604051610e1791906138b1565b60405180910390a28091505092915050565b610e44838383604051806020016040528060008152506113ba565b505050565b610e5161185f565b73ffffffffffffffffffffffffffffffffffffffff16610e6f61124d565b73ffffffffffffffffffffffffffffffffffffffff1614610ec5576040517f08c379a0000000000000000000000000000000000000000000000000000000008152600401610ebc906137f1565b60405180910390fd5b80600860008473ffffffffffffffffffffffffffffffffffffffff1673ffffffffffffffffffffffffffffffffffffffff16815260200190815260200160002060006101000a81548160ff0219169083151502179055505050565b6000806002600084815260200190815260200160002060009054906101000a900473ffffffffffffffffffffffffffffffffffffffff169050600073ffffffffffffffffffffffffffffffffffffffff168173ffffffffffffffffffffffffffffffffffffffff161415610fc9576040517f08c379a0000000000000000000000000000000000000000000000000000000008152600401610fc090613771565b60405180910390fd5b80915050919050565b60008073ffffffffffffffffffffffffffffffffffffffff168273ffffffffffffffffffffffffffffffffffffffff161415611043576040517f08c379a000000000000000000000000000000000000000000000000000000000815260040161103a90613751565b60405180910390fd5b600360008373ffffffffffffffffffffffffffffffffffffffff1673ffffffffffffffffffffffffffffffffffffffff168152602001908152602001600020549050919050565b61109261185f565b73ffffffffffffffffffffffffffffffffffffffff166110b061124d565b73ffffffffffffffffffffffffffffffffffffffff1614611106576040517f08c379a00000000000000000000000000000000000000000000000000000000081526004016110fd906137f1565b60405180910390fd5b6111106000611eab565b565b6000600a600083815260200190815260200160002060009054906101000a900473ffffffffffffffffffffffffffffffffffffffff169050919050565b60008073ffffffffffffffffffffffffffffffffffffffff16600a600084815260200190815260200160002060009054906101000a900473ffffffffffffffffffffffffffffffffffffffff1673ffffffffffffffffffffffffffffffffffffffff1614159050919050565b6000806111c661154f565b905060005b81811015611240578473ffffffffffffffffffffffffffffffffffffffff166111f382610f20565b73ffffffffffffffffffffffffffffffffffffffff1614801561121d57508361121b82610b75565b145b1561122d57600192505050611247565b808061123890613b81565b9150506111cb565b5060009150505b92915050565b6000600660009054906101000a900473ffffffffffffffffffffffffffffffffffffffff16905090565b60606001805461128690613b1e565b80601f01602080910402602001604051908101604052809291908181526020018280546112b290613b1e565b80156112ff5780601f106112d4576101008083540402835291602001916112ff565b820191906000526020600020905b8154815290600101906020018083116112e257829003601f168201915b5050505050905090565b61131b61131461185f565b8383611f71565b5050565b600061132961124d565b73ffffffffffffffffffffffffffffffffffffffff168273ffffffffffffffffffffffffffffffffffffffff16141561136557600190506113b5565b600860008373ffffffffffffffffffffffffffffffffffffffff1673ffffffffffffffffffffffffffffffffffffffff16815260200190815260200160002060009054906101000a900460ff1690505b919050565b6113cb6113c561185f565b83611968565b61140a576040517f08c379a000000000000000000000000000000000000000000000000000000000815260040161140190613871565b60405180910390fd5b611416848484846120de565b50505050565b60008073ffffffffffffffffffffffffffffffffffffffff1661143e83611112565b73ffffffffffffffffffffffffffffffffffffffff1614611495578273ffffffffffffffffffffffffffffffffffffffff1661147983611112565b73ffffffffffffffffffffffffffffffffffffffff1614611498565b60015b905092915050565b60606114ab826117f3565b6114ea576040517f08c379a00000000000000000000000000000000000000000000000000000000081526004016114e190613811565b60405180910390fd5b60006114f461213a565b905060008151116115145760405180602001604052806000815250611547565b8061152661152185610b75565b6121cc565b604051602001611537929190613473565b6040516020818303038152906040525b915050919050565b600061155b6007611cad565b905090565b6000600560008473ffffffffffffffffffffffffffffffffffffffff1673ffffffffffffffffffffffffffffffffffffffff16815260200190815260200160002060008373ffffffffffffffffffffffffffffffffffffffff1673ffffffffffffffffffffffffffffffffffffffff16815260200190815260200160002060009054906101000a900460ff16905092915050565b6115fc61185f565b73ffffffffffffffffffffffffffffffffffffffff1661161a61124d565b73ffffffffffffffffffffffffffffffffffffffff1614611670576040517f08c379a0000000000000000000000000000000000000000000000000000000008152600401611667906137f1565b60405180910390fd5b600073ffffffffffffffffffffffffffffffffffffffff168173ffffffffffffffffffffffffffffffffffffffff1614156116e0576040517f08c379a00000000000000000000000000000000000000000000000000000000081526004016116d790613631565b60405180910390fd5b6116e981611eab565b50565b6000806116f761154f565b905060005b8181101561177c573373ffffffffffffffffffffffffffffffffffffffff1661172482610f20565b73ffffffffffffffffffffffffffffffffffffffff1614801561174e57508461174c82610b75565b145b156117695761175e338583611a46565b600192505050611783565b808061177490613b81565b9150506116fc565b5060009150505b92915050565b60007f01ffc9a7000000000000000000000000000000000000000000000000000000007bffffffffffffffffffffffffffffffffffffffffffffffffffffffff1916827bffffffffffffffffffffffffffffffffffffffffffffffffffffffff1916149050919050565b60008073ffffffffffffffffffffffffffffffffffffffff166002600084815260200190815260200160002060009054906101000a900473ffffffffffffffffffffffffffffffffffffffff1673ffffffffffffffffffffffffffffffffffffffff1614159050919050565b600033905090565b816004600083815260200190815260200160002060006101000a81548173ffffffffffffffffffffffffffffffffffffffff021916908373ffffffffffffffffffffffffffffffffffffffff160217905550808273ffffffffffffffffffffffffffffffffffffffff166118da83610f20565b73ffffffffffffffffffffffffffffffffffffffff167f8c5be1e5ebec7d5bd14f71427d1e84f3dd0314c0f7b2291e5b200ac8c7c3b92560405160405180910390a45050565b6000808360405160200161193491906134a2565b60405160208183030381529060405280519060200120905061195f838261237990919063ffffffff16565b91505092915050565b6000611973826117f3565b6119b2576040517f08c379a00000000000000000000000000000000000000000000000000000000081526004016119a990613711565b60405180910390fd5b60006119bd83610f20565b90508073ffffffffffffffffffffffffffffffffffffffff168473ffffffffffffffffffffffffffffffffffffffff161480611a2c57508373ffffffffffffffffffffffffffffffffffffffff16611a14846107f3565b73ffffffffffffffffffffffffffffffffffffffff16145b80611a3d5750611a3c8185611560565b5b91505092915050565b8273ffffffffffffffffffffffffffffffffffffffff16611a6682610f20565b73ffffffffffffffffffffffffffffffffffffffff1614611abc576040517f08c379a0000000000000000000000000000000000000000000000000000000008152600401611ab390613651565b60405180910390fd5b600073ffffffffffffffffffffffffffffffffffffffff168273ffffffffffffffffffffffffffffffffffffffff161415611b2c576040517f08c379a0000000000000000000000000000000000000000000000000000000008152600401611b2390613691565b60405180910390fd5b611b378383836123a0565b611b42600082611867565b6001600360008573ffffffffffffffffffffffffffffffffffffffff1673ffffffffffffffffffffffffffffffffffffffff1681526020019081526020016000206000828254611b929190613a1d565b925050819055506001600360008473ffffffffffffffffffffffffffffffffffffffff1673ffffffffffffffffffffffffffffffffffffffff1681526020019081526020016000206000828254611be99190613996565b92505081905550816002600083815260200190815260200160002060006101000a81548173ffffffffffffffffffffffffffffffffffffffff021916908373ffffffffffffffffffffffffffffffffffffffff160217905550808273ffffffffffffffffffffffffffffffffffffffff168473ffffffffffffffffffffffffffffffffffffffff167fddf252ad1be2c89b69c2b068fc378daa952ba7f163c4a11628f55a4df523b3ef60405160405180910390a4611ca88383836123a5565b505050565b600081600001549050919050565b6001816000016000828254019250508190555050565b600073ffffffffffffffffffffffffffffffffffffffff168273ffffffffffffffffffffffffffffffffffffffff161415611d41576040517f08c379a0000000000000000000000000000000000000000000000000000000008152600401611d38906137b1565b60405180910390fd5b611d4a816117f3565b15611d8a576040517f08c379a0000000000000000000000000000000000000000000000000000000008152600401611d8190613671565b60405180910390fd5b611d96600083836123a0565b6001600360008473ffffffffffffffffffffffffffffffffffffffff1673ffffffffffffffffffffffffffffffffffffffff1681526020019081526020016000206000828254611de69190613996565b92505081905550816002600083815260200190815260200160002060006101000a81548173ffffffffffffffffffffffffffffffffffffffff021916908373ffffffffffffffffffffffffffffffffffffffff160217905550808273ffffffffffffffffffffffffffffffffffffffff16600073ffffffffffffffffffffffffffffffffffffffff167fddf252ad1be2c89b69c2b068fc378daa952ba7f163c4a11628f55a4df523b3ef60405160405180910390a4611ea7600083836123a5565b5050565b6000600660009054906101000a900473ffffffffffffffffffffffffffffffffffffffff16905081600660006101000a81548173ffffffffffffffffffffffffffffffffffffffff021916908373ffffffffffffffffffffffffffffffffffffffff1602179055508173ffffffffffffffffffffffffffffffffffffffff168173ffffffffffffffffffffffffffffffffffffffff167f8be0079c531659141344cd1fd0a4f28419497f9722a3daafe3b4186f6b6457e060405160405180910390a35050565b8173ffffffffffffffffffffffffffffffffffffffff168373ffffffffffffffffffffffffffffffffffffffff161415611fe0576040517f08c379a0000000000000000000000000000000000000000000000000000000008152600401611fd7906136d1565b60405180910390fd5b80600560008573ffffffffffffffffffffffffffffffffffffffff1673ffffffffffffffffffffffffffffffffffffffff16815260200190815260200160002060008473ffffffffffffffffffffffffffffffffffffffff1673ffffffffffffffffffffffffffffffffffffffff16815260200190815260200160002060006101000a81548160ff0219169083151502179055508173ffffffffffffffffffffffffffffffffffffffff168373ffffffffffffffffffffffffffffffffffffffff167f17307eab39ab6107e8899845ad3d59bd9653f200f220920489ca2b5937696c31836040516120d1919061352f565b60405180910390a3505050565b6120e9848484611a46565b6120f5848484846123aa565b612134576040517f08c379a000000000000000000000000000000000000000000000000000000000815260040161212b906135f1565b60405180910390fd5b50505050565b6060600b805461214990613b1e565b80601f016020809104026020016040519081016040528092919081815260200182805461217590613b1e565b80156121c25780601f10612197576101008083540402835291602001916121c2565b820191906000526020600020905b8154815290600101906020018083116121a557829003601f168201915b5050505050905090565b60606000821415612214576040518060400160405280600181526020017f30000000000000000000000000000000000000000000000000000000000000008152509050612374565b600082905060005b6000821461224657808061222f90613b81565b915050600a8261223f91906139ec565b915061221c565b60008167ffffffffffffffff811115612288577f4e487b7100000000000000000000000000000000000000000000000000000000600052604160045260246000fd5b6040519080825280601f01601f1916602001820160405280156122ba5781602001600182028036833780820191505090505b5090505b6000851461236d576001826122d39190613a1d565b9150600a856122e29190613c02565b60306122ee9190613996565b60f81b81838151811061232a577f4e487b7100000000000000000000000000000000000000000000000000000000600052603260045260246000fd5b60200101907effffffffffffffffffffffffffffffffffffffffffffffffffffffffffffff1916908160001a905350600a8561236691906139ec565b94506122be565b8093505050505b919050565b60008060006123888585612541565b91509150612395816125c4565b819250505092915050565b505050565b505050565b60006123cb8473ffffffffffffffffffffffffffffffffffffffff16612915565b15612534578373ffffffffffffffffffffffffffffffffffffffff1663150b7a026123f461185f565b8786866040518563ffffffff1660e01b815260040161241694939291906134e3565b602060405180830381600087803b15801561243057600080fd5b505af192505050801561246157506040513d601f19601f8201168201806040525081019061245e9190612e50565b60015b6124e4573d8060008114612491576040519150601f19603f3d011682016040523d82523d6000602084013e612496565b606091505b506000815114156124dc576040517f08c379a00000000000000000000000000000000000000000000000000000000081526004016124d3906135f1565b60405180910390fd5b805181602001fd5b63150b7a0260e01b7bffffffffffffffffffffffffffffffffffffffffffffffffffffffff1916817bffffffffffffffffffffffffffffffffffffffffffffffffffffffff191614915050612539565b600190505b949350505050565b6000806041835114156125835760008060006020860151925060408601519150606086015160001a905061257787828585612938565b945094505050506125bd565b6040835114156125b45760008060208501519150604085015190506125a9868383612a45565b9350935050506125bd565b60006002915091505b9250929050565b600060048111156125fe577f4e487b7100000000000000000000000000000000000000000000000000000000600052602160045260246000fd5b816004811115612637577f4e487b7100000000000000000000000000000000000000000000000000000000600052602160045260246000fd5b141561264257612912565b6001600481111561267c577f4e487b7100000000000000000000000000000000000000000000000000000000600052602160045260246000fd5b8160048111156126b5577f4e487b7100000000000000000000000000000000000000000000000000000000600052602160045260246000fd5b14156126f6576040517f08c379a00000000000000000000000000000000000000000000000000000000081526004016126ed906135b1565b60405180910390fd5b60026004811115612730577f4e487b7100000000000000000000000000000000000000000000000000000000600052602160045260246000fd5b816004811115612769577f4e487b7100000000000000000000000000000000000000000000000000000000600052602160045260246000fd5b14156127aa576040517f08c379a00000000000000000000000000000000000000000000000000000000081526004016127a1906135d1565b60405180910390fd5b600360048111156127e4577f4e487b7100000000000000000000000000000000000000000000000000000000600052602160045260246000fd5b81600481111561281d577f4e487b7100000000000000000000000000000000000000000000000000000000600052602160045260246000fd5b141561285e576040517f08c379a0000000000000000000000000000000000000000000000000000000008152600401612855906136f1565b60405180910390fd5b600480811115612897577f4e487b7100000000000000000000000000000000000000000000000000000000600052602160045260246000fd5b8160048111156128d0577f4e487b7100000000000000000000000000000000000000000000000000000000600052602160045260246000fd5b1415612911576040517f08c379a000000000000000000000000000000000000000000000000000000000815260040161290890613791565b60405180910390fd5b5b50565b6000808273ffffffffffffffffffffffffffffffffffffffff163b119050919050565b6000807f7fffffffffffffffffffffffffffffff5d576e7357a4501ddfe92f46681b20a08360001c1115612973576000600391509150612a3c565b601b8560ff161415801561298b5750601c8560ff1614155b1561299d576000600491509150612a3c565b6000600187878787604051600081526020016040526040516129c2949392919061354a565b6020604051602081039080840390855afa1580156129e4573d6000803e3d6000fd5b505050602060405103519050600073ffffffffffffffffffffffffffffffffffffffff168173ffffffffffffffffffffffffffffffffffffffff161415612a3357600060019250925050612a3c565b80600092509250505b94509492505050565b60008060007f7fffffffffffffffffffffffffffffffffffffffffffffffffffffffffffffff60001b841690506000601b60ff8660001c901c612a889190613996565b9050612a9687828885612938565b935093505050935093915050565b828054612ab090613b1e565b90600052602060002090601f016020900481019282612ad25760008555612b19565b82601f10612aeb57805160ff1916838001178555612b19565b82800160010185558215612b19579182015b82811115612b18578251825591602001919060010190612afd565b5b509050612b269190612b2a565b5090565b5b80821115612b43576000816000905550600101612b2b565b5090565b6000612b5a612b55846138f1565b6138cc565b905082815260208101848484011115612b7257600080fd5b612b7d848285613adc565b509392505050565b6000612b98612b9384613922565b6138cc565b905082815260208101848484011115612bb057600080fd5b612bbb848285613adc565b509392505050565b600081359050612bd281614371565b92915050565b600081359050612be781614388565b92915050565b600081359050612bfc8161439f565b92915050565b600081519050612c118161439f565b92915050565b600082601f830112612c2857600080fd5b8135612c38848260208601612b47565b91505092915050565b600082601f830112612c5257600080fd5b8135612c62848260208601612b85565b91505092915050565b600081359050612c7a816143b6565b92915050565b600060208284031215612c9257600080fd5b6000612ca084828501612bc3565b91505092915050565b60008060408385031215612cbc57600080fd5b6000612cca85828601612bc3565b9250506020612cdb85828601612bc3565b9150509250929050565b600080600060608486031215612cfa57600080fd5b6000612d0886828701612bc3565b9350506020612d1986828701612bc3565b9250506040612d2a86828701612c6b565b9150509250925092565b60008060008060808587031215612d4a57600080fd5b6000612d5887828801612bc3565b9450506020612d6987828801612bc3565b9350506040612d7a87828801612c6b565b925050606085013567ffffffffffffffff811115612d9757600080fd5b612da387828801612c17565b91505092959194509250565b60008060408385031215612dc257600080fd5b6000612dd085828601612bc3565b9250506020612de185828601612bd8565b9150509250929050565b60008060408385031215612dfe57600080fd5b6000612e0c85828601612bc3565b9250506020612e1d85828601612c6b565b9150509250929050565b600060208284031215612e3957600080fd5b6000612e4784828501612bed565b91505092915050565b600060208284031215612e6257600080fd5b6000612e7084828501612c02565b91505092915050565b600060208284031215612e8b57600080fd5b600082013567ffffffffffffffff811115612ea557600080fd5b612eb184828501612c41565b91505092915050565b600060208284031215612ecc57600080fd5b6000612eda84828501612c6b565b91505092915050565b60008060408385031215612ef657600080fd5b6000612f0485828601612c6b565b9250506020612f1585828601612bc3565b9150509250929050565b600080600060608486031215612f3457600080fd5b6000612f4286828701612c6b565b9350506020612f5386828701612bc3565b925050604084013567ffffffffffffffff811115612f7057600080fd5b612f7c86828701612c17565b9150509250925092565b612f8f81613a51565b82525050565b612fa6612fa182613a51565b613bca565b82525050565b612fb581613a63565b82525050565b612fc481613a6f565b82525050565b612fdb612fd682613a6f565b613bdc565b82525050565b6000612fec82613953565b612ff68185613969565b9350613006818560208601613aeb565b61300f81613cef565b840191505092915050565b60006130258261395e565b61302f818561397a565b935061303f818560208601613aeb565b61304881613cef565b840191505092915050565b600061305e8261395e565b613068818561398b565b9350613078818560208601613aeb565b80840191505092915050565b600061309160188361397a565b915061309c82613d0d565b602082019050919050565b60006130b4601f8361397a565b91506130bf82613d36565b602082019050919050565b60006130d7601c8361398b565b91506130e282613d5f565b601c82019050919050565b60006130fa60328361397a565b915061310582613d88565b604082019050919050565b600061311d60378361397a565b915061312882613dd7565b604082019050919050565b600061314060268361397a565b915061314b82613e26565b604082019050919050565b600061316360258361397a565b915061316e82613e75565b604082019050919050565b6000613186601c8361397a565b915061319182613ec4565b602082019050919050565b60006131a960248361397a565b91506131b482613eed565b604082019050919050565b60006131cc60128361397a565b91506131d782613f3c565b602082019050919050565b60006131ef60198361397a565b91506131fa82613f65565b602082019050919050565b600061321260228361397a565b915061321d82613f8e565b604082019050919050565b6000613235602c8361397a565b915061324082613fdd565b604082019050919050565b600061325860388361397a565b91506132638261402c565b604082019050919050565b600061327b602a8361397a565b91506132868261407b565b604082019050919050565b600061329e60298361397a565b91506132a9826140ca565b604082019050919050565b60006132c160228361397a565b91506132cc82614119565b604082019050919050565b60006132e460208361397a565b91506132ef82614168565b602082019050919050565b6000613307602c8361397a565b915061331282614191565b604082019050919050565b600061332a60058361398b565b9150613335826141e0565b600582019050919050565b600061334d60208361397a565b915061335882614209565b602082019050919050565b6000613370602f8361397a565b915061337b82614232565b604082019050919050565b600061339360218361397a565b915061339e82614281565b604082019050919050565b60006133b660178361397a565b91506133c1826142d0565b602082019050919050565b60006133d960318361397a565b91506133e4826142f9565b604082019050919050565b60006133fc60158361397a565b915061340782614348565b602082019050919050565b61341b81613ac5565b82525050565b61343261342d82613ac5565b613bf8565b82525050565b61344181613acf565b82525050565b60006134538285612f95565b6014820191506134638284613421565b6020820191508190509392505050565b600061347f8285613053565b915061348b8284613053565b91506134968261331d565b91508190509392505050565b60006134ad826130ca565b91506134b98284612fca565b60208201915081905092915050565b60006020820190506134dd6000830184612f86565b92915050565b60006080820190506134f86000830187612f86565b6135056020830186612f86565b6135126040830185613412565b81810360608301526135248184612fe1565b905095945050505050565b60006020820190506135446000830184612fac565b92915050565b600060808201905061355f6000830187612fbb565b61356c6020830186613438565b6135796040830185612fbb565b6135866060830184612fbb565b95945050505050565b600060208201905081810360008301526135a9818461301a565b905092915050565b600060208201905081810360008301526135ca81613084565b9050919050565b600060208201905081810360008301526135ea816130a7565b9050919050565b6000602082019050818103600083015261360a816130ed565b9050919050565b6000602082019050818103600083015261362a81613110565b9050919050565b6000602082019050818103600083015261364a81613133565b9050919050565b6000602082019050818103600083015261366a81613156565b9050919050565b6000602082019050818103600083015261368a81613179565b9050919050565b600060208201905081810360008301526136aa8161319c565b9050919050565b600060208201905081810360008301526136ca816131bf565b9050919050565b600060208201905081810360008301526136ea816131e2565b9050919050565b6000602082019050818103600083015261370a81613205565b9050919050565b6000602082019050818103600083015261372a81613228565b9050919050565b6000602082019050818103600083015261374a8161324b565b9050919050565b6000602082019050818103600083015261376a8161326e565b9050919050565b6000602082019050818103600083015261378a81613291565b9050919050565b600060208201905081810360008301526137aa816132b4565b9050919050565b600060208201905081810360008301526137ca816132d7565b9050919050565b600060208201905081810360008301526137ea816132fa565b9050919050565b6000602082019050818103600083015261380a81613340565b9050919050565b6000602082019050818103600083015261382a81613363565b9050919050565b6000602082019050818103600083015261384a81613386565b9050919050565b6000602082019050818103600083015261386a816133a9565b9050919050565b6000602082019050818103600083015261388a816133cc565b9050919050565b600060208201905081810360008301526138aa816133ef565b9050919050565b60006020820190506138c66000830184613412565b92915050565b60006138d66138e7565b90506138e28282613b50565b919050565b6000604051905090565b600067ffffffffffffffff82111561390c5761390b613cc0565b5b61391582613cef565b9050602081019050919050565b600067ffffffffffffffff82111561393d5761393c613cc0565b5b61394682613cef565b9050602081019050919050565b600081519050919050565b600081519050919050565b600082825260208201905092915050565b600082825260208201905092915050565b600081905092915050565b60006139a182613ac5565b91506139ac83613ac5565b9250827fffffffffffffffffffffffffffffffffffffffffffffffffffffffffffffffff038211156139e1576139e0613c33565b5b828201905092915050565b60006139f782613ac5565b9150613a0283613ac5565b925082613a1257613a11613c62565b5b828204905092915050565b6000613a2882613ac5565b9150613a3383613ac5565b925082821015613a4657613a45613c33565b5b828203905092915050565b6000613a5c82613aa5565b9050919050565b60008115159050919050565b6000819050919050565b60007fffffffff0000000000000000000000000000000000000000000000000000000082169050919050565b600073ffffffffffffffffffffffffffffffffffffffff82169050919050565b6000819050919050565b600060ff82169050919050565b82818337600083830152505050565b60005b83811015613b09578082015181840152602081019050613aee565b83811115613b18576000848401525b50505050565b60006002820490506001821680613b3657607f821691505b60208210811415613b4a57613b49613c91565b5b50919050565b613b5982613cef565b810181811067ffffffffffffffff82111715613b7857613b77613cc0565b5b80604052505050565b6000613b8c82613ac5565b91507fffffffffffffffffffffffffffffffffffffffffffffffffffffffffffffffff821415613bbf57613bbe613c33565b5b600182019050919050565b6000613bd582613be6565b9050919050565b6000819050919050565b6000613bf182613d00565b9050919050565b6000819050919050565b6000613c0d82613ac5565b9150613c1883613ac5565b925082613c2857613c27613c62565b5b828206905092915050565b7f4e487b7100000000000000000000000000000000000000000000000000000000600052601160045260246000fd5b7f4e487b7100000000000000000000000000000000000000000000000000000000600052601260045260246000fd5b7f4e487b7100000000000000000000000000000000000000000000000000000000600052602260045260246000fd5b7f4e487b7100000000000000000000000000000000000000000000000000000000600052604160045260246000fd5b6000601f19601f8301169050919050565b60008160601b9050919050565b7f45434453413a20696e76616c6964207369676e61747572650000000000000000600082015250565b7f45434453413a20696e76616c6964207369676e6174757265206c656e67746800600082015250565b7f19457468657265756d205369676e6564204d6573736167653a0a333200000000600082015250565b7f4552433732313a207472616e7366657220746f206e6f6e20455243373231526560008201527f63656976657220696d706c656d656e7465720000000000000000000000000000602082015250565b7f43616e27742063726561746520636f6e74656e74206265636175736520796f7560008201527f20617265206e6f7420636f6e74656e7420736572766572000000000000000000602082015250565b7f4f776e61626c653a206e6577206f776e657220697320746865207a65726f206160008201527f6464726573730000000000000000000000000000000000000000000000000000602082015250565b7f4552433732313a207472616e736665722066726f6d20696e636f72726563742060008201527f6f776e6572000000000000000000000000000000000000000000000000000000602082015250565b7f4552433732313a20746f6b656e20616c7265616479206d696e74656400000000600082015250565b7f4552433732313a207472616e7366657220746f20746865207a65726f2061646460008201527f7265737300000000000000000000000000000000000000000000000000000000602082015250565b7f4e465420616c7265616479206d696e7465640000000000000000000000000000600082015250565b7f4552433732313a20617070726f766520746f2063616c6c657200000000000000600082015250565b7f45434453413a20696e76616c6964207369676e6174757265202773272076616c60008201527f7565000000000000000000000000000000000000000000000000000000000000602082015250565b7f4552433732313a206f70657261746f7220717565727920666f72206e6f6e657860008201527f697374656e7420746f6b656e0000000000000000000000000000000000000000602082015250565b7f4552433732313a20617070726f76652063616c6c6572206973206e6f74206f7760008201527f6e6572206e6f7220617070726f76656420666f7220616c6c0000000000000000602082015250565b7f4552433732313a2062616c616e636520717565727920666f7220746865207a6560008201527f726f206164647265737300000000000000000000000000000000000000000000602082015250565b7f4552433732313a206f776e657220717565727920666f72206e6f6e657869737460008201527f656e7420746f6b656e0000000000000000000000000000000000000000000000602082015250565b7f45434453413a20696e76616c6964207369676e6174757265202776272076616c60008201527f7565000000000000000000000000000000000000000000000000000000000000602082015250565b7f4552433732313a206d696e7420746f20746865207a65726f2061646472657373600082015250565b7f4552433732313a20617070726f76656420717565727920666f72206e6f6e657860008201527f697374656e7420746f6b656e0000000000000000000000000000000000000000602082015250565b7f2e6a736f6e000000000000000000000000000000000000000000000000000000600082015250565b7f4f776e61626c653a2063616c6c6572206973206e6f7420746865206f776e6572600082015250565b7f4552433732314d657461646174613a2055524920717565727920666f72206e6f60008201527f6e6578697374656e7420746f6b656e0000000000000000000000000000000000602082015250565b7f4552433732313a20617070726f76616c20746f2063757272656e74206f776e6560008201527f7200000000000000000000000000000000000000000000000000000000000000602082015250565b7f596f752063616e2774206d696e742074686973204e4654000000000000000000600082015250565b7f4552433732313a207472616e736665722063616c6c6572206973206e6f74206f60008201527f776e6572206e6f7220617070726f766564000000000000000000000000000000602082015250565b7f436f6e74656e7420616c72656164792061646465640000000000000000000000600082015250565b61437a81613a51565b811461438557600080fd5b50565b61439181613a63565b811461439c57600080fd5b50565b6143a881613a79565b81146143b357600080fd5b50565b6143bf81613ac5565b81146143ca57600080fd5b5056fea26469706673582212200d260469f93423a2f4e8e4aeee45414988777978c7c42927364ef11195c6456664736f6c63430008040033",
  "linkReferences": {},
  "deployedLinkReferences": {}
}