{
  "_format": "hh-sol-artifact-1",
  "contractName": "NCPProof",
  "sourceName": "contracts/NCPProof.sol",
  "abi": [
    {
      "inputs": [],
      "stateMutability": "nonpayable",
      "type": "constructor"
    },
    {
      "anonymous": false,
      "inputs": [
        {
          "indexed": true,
          "internalType": "address",
          "name": "owner",
          "type": "address"
        },
        {
          "indexed": true,
          "internalType": "address",
          "name": "approved",
          "type": "address"
        },
        {
          "indexed": true,
          "internalType": "uint256",
          "name": "tokenId",
          "type": "uint256"
        }
      ],
      "name": "Approval",
      "type": "event"
    },
    {
      "anonymous": false,
      "inputs": [
        {
          "indexed": true,
          "internalType": "address",
          "name": "owner",
          "type": "address"
        },
        {
          "indexed": true,
          "internalType": "address",
          "name": "operator",
          "type": "address"
        },
        {
          "indexed": false,
          "internalType": "bool",
          "name": "approved",
          "type": "bool"
        }
      ],
      "name": "ApprovalForAll",
      "type": "event"
    },
    {
      "anonymous": false,
      "inputs": [
        {
          "indexed": true,
          "internalType": "address",
          "name": "_to",
          "type": "address"
        },
        {
          "indexed": false,
          "internalType": "uint256",
          "name": "_contentId",
          "type": "uint256"
        }
      ],
      "name": "MintNFT",
      "type": "event"
    },
    {
      "anonymous": false,
      "inputs": [
        {
          "indexed": true,
          "internalType": "address",
          "name": "previousOwner",
          "type": "address"
        },
        {
          "indexed": true,
          "internalType": "address",
          "name": "newOwner",
          "type": "address"
        }
      ],
      "name": "OwnershipTransferred",
      "type": "event"
    },
    {
      "anonymous": false,
      "inputs": [
        {
          "indexed": true,
          "internalType": "address",
          "name": "from",
          "type": "address"
        },
        {
          "indexed": true,
          "internalType": "address",
          "name": "to",
          "type": "address"
        },
        {
          "indexed": true,
          "internalType": "uint256",
          "name": "tokenId",
          "type": "uint256"
        }
      ],
      "name": "Transfer",
      "type": "event"
    },
    {
      "inputs": [
        {
          "internalType": "address",
          "name": "to",
          "type": "address"
        },
        {
          "internalType": "uint256",
          "name": "tokenId",
          "type": "uint256"
        }
      ],
      "name": "approve",
      "outputs": [],
      "stateMutability": "nonpayable",
      "type": "function"
    },
    {
      "inputs": [
        {
          "internalType": "address",
          "name": "owner",
          "type": "address"
        }
      ],
      "name": "balanceOf",
      "outputs": [
        {
          "internalType": "uint256",
          "name": "",
          "type": "uint256"
        }
      ],
      "stateMutability": "view",
      "type": "function"
    },
    {
      "inputs": [
        {
          "internalType": "address",
          "name": "owner",
          "type": "address"
        },
        {
          "internalType": "uint256",
          "name": "contentId",
          "type": "uint256"
        }
      ],
      "name": "canSeeProtected",
      "outputs": [
        {
          "internalType": "bool",
          "name": "",
          "type": "bool"
        }
      ],
      "stateMutability": "view",
      "type": "function"
    },
    {
      "inputs": [
        {
          "internalType": "uint256",
          "name": "contentId",
          "type": "uint256"
        }
      ],
      "name": "contentDistributorOf",
      "outputs": [
        {
          "internalType": "address",
          "name": "",
          "type": "address"
        }
      ],
      "stateMutability": "view",
      "type": "function"
    },
    {
      "inputs": [
        {
          "internalType": "uint256[]",
          "name": "contentIds",
          "type": "uint256[]"
        }
      ],
      "name": "contentDistributorsOf",
      "outputs": [
        {
          "internalType": "address[]",
          "name": "",
          "type": "address[]"
        }
      ],
      "stateMutability": "view",
      "type": "function"
    },
    {
      "inputs": [
        {
          "internalType": "uint256",
          "name": "tokenId",
          "type": "uint256"
        }
      ],
      "name": "contentOf",
      "outputs": [
        {
          "internalType": "uint256",
          "name": "",
          "type": "uint256"
        }
      ],
      "stateMutability": "view",
      "type": "function"
    },
    {
      "inputs": [],
      "name": "countOfNFT",
      "outputs": [
        {
          "internalType": "uint256",
          "name": "",
          "type": "uint256"
        }
      ],
      "stateMutability": "view",
      "type": "function"
    },
    {
      "inputs": [
        {
          "internalType": "uint256",
          "name": "tokenId",
          "type": "uint256"
        }
      ],
      "name": "getApproved",
      "outputs": [
        {
          "internalType": "address",
          "name": "",
          "type": "address"
        }
      ],
      "stateMutability": "view",
      "type": "function"
    },
    {
      "inputs": [
        {
          "internalType": "address",
          "name": "owner",
          "type": "address"
        },
        {
          "internalType": "uint256",
          "name": "contentId",
          "type": "uint256"
        }
      ],
      "name": "hasNFTForContent",
      "outputs": [
        {
          "internalType": "bool",
          "name": "",
          "type": "bool"
        }
      ],
      "stateMutability": "view",
      "type": "function"
    },
    {
      "inputs": [
        {
          "internalType": "address",
          "name": "owner",
          "type": "address"
        },
        {
          "internalType": "uint256[]",
          "name": "contentIds",
          "type": "uint256[]"
        }
      ],
      "name": "hasNFTForContents",
      "outputs": [
        {
          "internalType": "bool[]",
          "name": "",
          "type": "bool[]"
        }
      ],
      "stateMutability": "view",
      "type": "function"
    },
    {
      "inputs": [
        {
          "internalType": "address",
          "name": "owner",
          "type": "address"
        },
        {
          "internalType": "address",
          "name": "operator",
          "type": "address"
        }
      ],
      "name": "isApprovedForAll",
      "outputs": [
        {
          "internalType": "bool",
          "name": "",
          "type": "bool"
        }
      ],
      "stateMutability": "view",
      "type": "function"
    },
    {
      "inputs": [
        {
          "internalType": "address",
          "name": "addr",
          "type": "address"
        }
      ],
      "name": "isContentServer",
      "outputs": [
        {
          "internalType": "bool",
          "name": "",
          "type": "bool"
        }
      ],
      "stateMutability": "view",
      "type": "function"
    },
    {
      "inputs": [
        {
          "internalType": "address",
          "name": "owner",
          "type": "address"
        },
        {
          "internalType": "uint256",
          "name": "contentId",
          "type": "uint256"
        }
      ],
      "name": "isDistributorOf",
      "outputs": [
        {
          "internalType": "bool",
          "name": "",
          "type": "bool"
        }
      ],
      "stateMutability": "view",
      "type": "function"
    },
    {
      "inputs": [
        {
          "internalType": "uint256",
          "name": "contentId",
          "type": "uint256"
        }
      ],
      "name": "isSetted",
      "outputs": [
        {
          "internalType": "bool",
          "name": "",
          "type": "bool"
        }
      ],
      "stateMutability": "view",
      "type": "function"
    },
    {
      "inputs": [
        {
          "internalType": "address",
          "name": "to",
          "type": "address"
        },
        {
          "internalType": "uint256",
          "name": "contentId",
          "type": "uint256"
        }
      ],
      "name": "mint",
      "outputs": [
        {
          "internalType": "uint256",
          "name": "",
          "type": "uint256"
        }
      ],
      "stateMutability": "nonpayable",
      "type": "function"
    },
    {
      "inputs": [],
      "name": "name",
      "outputs": [
        {
          "internalType": "string",
          "name": "",
          "type": "string"
        }
      ],
      "stateMutability": "view",
      "type": "function"
    },
    {
      "inputs": [
        {
          "internalType": "uint256",
          "name": "contentId",
          "type": "uint256"
        },
        {
          "internalType": "address",
          "name": "contentOwner",
          "type": "address"
        },
        {
          "internalType": "bytes",
          "name": "signature",
          "type": "bytes"
        }
      ],
      "name": "newContent",
      "outputs": [
        {
          "internalType": "bool",
          "name": "",
          "type": "bool"
        }
      ],
      "stateMutability": "nonpayable",
      "type": "function"
    },
    {
      "inputs": [],
      "name": "newContentId",
      "outputs": [
        {
          "internalType": "uint256",
          "name": "",
          "type": "uint256"
        }
      ],
      "stateMutability": "view",
      "type": "function"
    },
    {
      "inputs": [],
      "name": "owner",
      "outputs": [
        {
          "internalType": "address",
          "name": "",
          "type": "address"
        }
      ],
      "stateMutability": "view",
      "type": "function"
    },
    {
      "inputs": [
        {
          "internalType": "uint256",
          "name": "tokenId",
          "type": "uint256"
        }
      ],
      "name": "ownerOf",
      "outputs": [
        {
          "internalType": "address",
          "name": "",
          "type": "address"
        }
      ],
      "stateMutability": "view",
      "type": "function"
    },
    {
      "inputs": [],
      "name": "renounceOwnership",
      "outputs": [],
      "stateMutability": "nonpayable",
      "type": "function"
    },
    {
      "inputs": [
        {
          "internalType": "address",
          "name": "from",
          "type": "address"
        },
        {
          "internalType": "address",
          "name": "to",
          "type": "address"
        },
        {
          "internalType": "uint256",
          "name": "tokenId",
          "type": "uint256"
        }
      ],
      "name": "safeTransferFrom",
      "outputs": [],
      "stateMutability": "nonpayable",
      "type": "function"
    },
    {
      "inputs": [
        {
          "internalType": "address",
          "name": "from",
          "type": "address"
        },
        {
          "internalType": "address",
          "name": "to",
          "type": "address"
        },
        {
          "internalType": "uint256",
          "name": "tokenId",
          "type": "uint256"
        },
        {
          "internalType": "bytes",
          "name": "_data",
          "type": "bytes"
        }
      ],
      "name": "safeTransferFrom",
      "outputs": [],
      "stateMutability": "nonpayable",
      "type": "function"
    },
    {
      "inputs": [
        {
          "internalType": "address",
          "name": "operator",
          "type": "address"
        },
        {
          "internalType": "bool",
          "name": "approved",
          "type": "bool"
        }
      ],
      "name": "setApprovalForAll",
      "outputs": [],
      "stateMutability": "nonpayable",
      "type": "function"
    },
    {
      "inputs": [
        {
          "internalType": "string",
          "name": "baseURI",
          "type": "string"
        }
      ],
      "name": "setBaseTokenURI",
      "outputs": [],
      "stateMutability": "nonpayable",
      "type": "function"
    },
    {
      "inputs": [
        {
          "internalType": "address",
          "name": "contentServer",
          "type": "address"
        },
        {
          "internalType": "bool",
          "name": "set",
          "type": "bool"
        }
      ],
      "name": "setContentServer",
      "outputs": [],
      "stateMutability": "nonpayable",
      "type": "function"
    },
    {
      "inputs": [
        {
          "internalType": "bytes4",
          "name": "interfaceId",
          "type": "bytes4"
        }
      ],
      "name": "supportsInterface",
      "outputs": [
        {
          "internalType": "bool",
          "name": "",
          "type": "bool"
        }
      ],
      "stateMutability": "view",
      "type": "function"
    },
    {
      "inputs": [],
      "name": "symbol",
      "outputs": [
        {
          "internalType": "string",
          "name": "",
          "type": "string"
        }
      ],
      "stateMutability": "view",
      "type": "function"
    },
    {
      "inputs": [
        {
          "internalType": "uint256",
          "name": "tokenId",
          "type": "uint256"
        }
      ],
      "name": "tokenURI",
      "outputs": [
        {
          "internalType": "string",
          "name": "",
          "type": "string"
        }
      ],
      "stateMutability": "view",
      "type": "function"
    },
    {
      "inputs": [
        {
          "internalType": "uint256",
          "name": "contentId",
          "type": "uint256"
        },
        {
          "internalType": "address",
          "name": "newOwner",
          "type": "address"
        }
      ],
      "name": "transferContentRights",
      "outputs": [],
      "stateMutability": "nonpayable",
      "type": "function"
    },
    {
      "inputs": [
        {
          "internalType": "address",
          "name": "from",
          "type": "address"
        },
        {
          "internalType": "address",
          "name": "to",
          "type": "address"
        },
        {
          "internalType": "uint256",
          "name": "tokenId",
          "type": "uint256"
        }
      ],
      "name": "transferFrom",
      "outputs": [],
      "stateMutability": "nonpayable",
      "type": "function"
    },
    {
      "inputs": [
        {
          "internalType": "uint256",
          "name": "contentId",
          "type": "uint256"
        },
        {
          "internalType": "address",
          "name": "newOwner",
          "type": "address"
        }
      ],
      "name": "transferNFTRights",
      "outputs": [
        {
          "internalType": "bool",
          "name": "",
          "type": "bool"
        }
      ],
      "stateMutability": "nonpayable",
      "type": "function"
    },
    {
      "inputs": [
        {
          "internalType": "address",
          "name": "newOwner",
          "type": "address"
        }
      ],
      "name": "transferOwnership",
      "outputs": [],
      "stateMutability": "nonpayable",
      "type": "function"
    },
    {
      "inputs": [],
      "name": "withdraw",
      "outputs": [],
      "stateMutability": "nonpayable",
      "type": "function"
    }
  ],
  "bytecode": "0x60806040523480156200001157600080fd5b506040518060400160405280601881526020017f4e465420436f6e74656e7420506c617965722050726f6f6600000000000000008152506040518060400160405280600481526020017f4e43505000000000000000000000000000000000000000000000000000000000815250816000908051906020019062000096929190620001f4565b508060019080519060200190620000af929190620001f4565b505050620000d2620000c66200012660201b60201c565b6200012e60201b60201c565b6040518060400160405280600d81526020017f68747470733a2f2f697066732f00000000000000000000000000000000000000815250600b90805190602001906200011f929190620001f4565b5062000309565b600033905090565b6000600660009054906101000a900473ffffffffffffffffffffffffffffffffffffffff16905081600660006101000a81548173ffffffffffffffffffffffffffffffffffffffff021916908373ffffffffffffffffffffffffffffffffffffffff1602179055508173ffffffffffffffffffffffffffffffffffffffff168173ffffffffffffffffffffffffffffffffffffffff167f8be0079c531659141344cd1fd0a4f28419497f9722a3daafe3b4186f6b6457e060405160405180910390a35050565b8280546200020290620002a4565b90600052602060002090601f01602090048101928262000226576000855562000272565b82601f106200024157805160ff191683800117855562000272565b8280016001018555821562000272579182015b828111156200027157825182559160200191906001019062000254565b5b50905062000281919062000285565b5090565b5b80821115620002a057600081600090555060010162000286565b5090565b60006002820490506001821680620002bd57607f821691505b60208210811415620002d457620002d3620002da565b5b50919050565b7f4e487b7100000000000000000000000000000000000000000000000000000000600052602260045260246000fd5b614ddf80620003196000396000f3fe608060405234801561001057600080fd5b50600436106102065760003560e01c806370a082311161011a578063a22cb465116100ad578063c87b56dd1161007c578063c87b56dd1461065b578063d4a847811461068b578063e985e9c5146106a9578063f2fde38b146106d9578063f9da9c5a146106f557610206565b8063a22cb465146105c3578063aae0ca62146105df578063b88d4fde1461060f578063bb4243e51461062b57610206565b806389c61dc2116100e957806389c61dc2146105275780638da5cb5b1461055757806395d89b411461057557806399a0d11e1461059357610206565b806370a082311461048d578063715018a6146104bd57806371ca59ca146104c75780638170ced5146104f757610206565b806327427e311161019d57806340c10f191161016c57806340c10f19146103c557806342842e0e146103f557806361aad37b146104115780636352211e1461042d5780636f1140181461045d57610206565b806327427e311461033f5780632e4508e21461036f57806330176e131461039f5780633ccfd60b146103bb57610206565b8063095ea7b3116101d9578063095ea7b3146102a75780631187beb1146102c35780631690a5a6146102f357806323b872dd1461032357610206565b806301ffc9a71461020b57806306fdde031461023b5780630737b4f714610259578063081812fc14610277575b600080fd5b61022560048036038101906102209190613519565b610711565b6040516102329190613db5565b60405180910390f35b6102436107f3565b6040516102509190613e15565b60405180910390f35b610261610885565b60405161026e9190614177565b60405180910390f35b610291600480360381019061028c91906135ac565b610914565b60405161029e9190613d0a565b60405180910390f35b6102c160048036038101906102bc919061349c565b610999565b005b6102dd60048036038101906102d8919061340c565b610ab1565b6040516102ea9190613d93565b60405180910390f35b61030d60048036038101906103089190613611565b610cb0565b60405161031a9190613db5565b60405180910390f35b61033d60048036038101906103389190613342565b610e35565b005b610359600480360381019061035491906135ac565b610e95565b6040516103669190614177565b60405180910390f35b610389600480360381019061038491906134d8565b610eb2565b6040516103969190613d71565b60405180910390f35b6103b960048036038101906103b4919061356b565b61103d565b005b6103c36110d3565b005b6103df60048036038101906103da919061349c565b611198565b6040516103ec9190614177565b60405180910390f35b61040f600480360381019061040a9190613342565b6112d4565b005b61042b60048036038101906104269190613460565b6112f4565b005b610447600480360381019061044291906135ac565b6113cb565b6040516104549190613d0a565b60405180910390f35b6104776004803603810190610472919061349c565b61147d565b6040516104849190613db5565b60405180910390f35b6104a760048036038101906104a291906132dd565b6114a2565b6040516104b49190614177565b60405180910390f35b6104c561155a565b005b6104e160048036038101906104dc91906135ac565b6115e2565b6040516104ee9190613d0a565b60405180910390f35b610511600480360381019061050c91906135ac565b61161f565b60405161051e9190613db5565b60405180910390f35b610541600480360381019061053c919061349c565b61168b565b60405161054e9190613db5565b60405180910390f35b61055f61171d565b60405161056c9190613d0a565b60405180910390f35b61057d611747565b60405161058a9190613e15565b60405180910390f35b6105ad60048036038101906105a891906135d5565b6117d9565b6040516105ba9190613db5565b60405180910390f35b6105dd60048036038101906105d89190613460565b611876565b005b6105f960048036038101906105f491906132dd565b61188c565b6040516106069190613db5565b60405180910390f35b61062960048036038101906106249190613391565b611927565b005b6106456004803603810190610640919061349c565b611989565b6040516106529190613db5565b60405180910390f35b610675600480360381019061067091906135ac565b611a0d565b6040516106829190613e15565b60405180910390f35b610693611abc565b6040516106a09190614177565b60405180910390f35b6106c360048036038101906106be9190613306565b611acd565b6040516106d09190613db5565b60405180910390f35b6106f360048036038101906106ee91906132dd565b611b61565b005b61070f600480360381019061070a91906135d5565b611c59565b005b60007f80ac58cd000000000000000000000000000000000000000000000000000000007bffffffffffffffffffffffffffffffffffffffffffffffffffffffff1916827bffffffffffffffffffffffffffffffffffffffffffffffffffffffff191614806107dc57507f5b5e139f000000000000000000000000000000000000000000000000000000007bffffffffffffffffffffffffffffffffffffffffffffffffffffffff1916827bffffffffffffffffffffffffffffffffffffffffffffffffffffffff1916145b806107ec57506107eb82611d50565b5b9050919050565b60606000805461080290614482565b80601f016020809104026020016040519081016040528092919081815260200182805461082e90614482565b801561087b5780601f106108505761010080835404028352916020019161087b565b820191906000526020600020905b81548152906001019060200180831161085e57829003601f168201915b5050505050905090565b60006108903361188c565b6108cf576040517f08c379a00000000000000000000000000000000000000000000000000000000081526004016108c690614137565b60405180910390fd5b60005b33426040516020016108e5929190613c89565b6040516020818303038152906040528051906020012060001c90506109098161161f565b6108d2578091505090565b600061091f82611dba565b61095e576040517f08c379a000000000000000000000000000000000000000000000000000000000815260040161095590614057565b60405180910390fd5b6004600083815260200190815260200160002060009054906101000a900473ffffffffffffffffffffffffffffffffffffffff169050919050565b60006109a4826113cb565b90508073ffffffffffffffffffffffffffffffffffffffff168373ffffffffffffffffffffffffffffffffffffffff161415610a15576040517f08c379a0000000000000000000000000000000000000000000000000000000008152600401610a0c906140b7565b60405180910390fd5b8073ffffffffffffffffffffffffffffffffffffffff16610a34611e26565b73ffffffffffffffffffffffffffffffffffffffff161480610a635750610a6281610a5d611e26565b611acd565b5b610aa2576040517f08c379a0000000000000000000000000000000000000000000000000000000008152600401610a9990613fb7565b60405180910390fd5b610aac8383611e2e565b505050565b606060008251905060008167ffffffffffffffff811115610afb577f4e487b7100000000000000000000000000000000000000000000000000000000600052604160045260246000fd5b604051908082528060200260200182016040528015610b295781602001602082028036833780820191505090505b5090506000610b36611abc565b905060005b83811015610ca3576000838281518110610b7e577f4e487b7100000000000000000000000000000000000000000000000000000000600052603260045260246000fd5b60200260200101901515908115158152505060005b82811015610c8f578773ffffffffffffffffffffffffffffffffffffffff16610bbb826113cb565b73ffffffffffffffffffffffffffffffffffffffff16148015610c255750868281518110610c12577f4e487b7100000000000000000000000000000000000000000000000000000000600052603260045260246000fd5b6020026020010151610c2382610e95565b145b15610c7c576001848381518110610c65577f4e487b7100000000000000000000000000000000000000000000000000000000600052603260045260246000fd5b602002602001019015159081151581525050610c8f565b8080610c87906144e5565b915050610b93565b508080610c9b906144e5565b915050610b3b565b5081935050505092915050565b60008073ffffffffffffffffffffffffffffffffffffffff16600a600086815260200190815260200160002060009054906101000a900473ffffffffffffffffffffffffffffffffffffffff1673ffffffffffffffffffffffffffffffffffffffff1614610d53576040517f08c379a0000000000000000000000000000000000000000000000000000000008152600401610d4a90614157565b60405180910390fd5b60008385604051602001610d68929190613c89565b6040516020818303038152906040528051906020012090506000610d8c8285611ee7565b9050610d978161188c565b610dd6576040517f08c379a0000000000000000000000000000000000000000000000000000000008152600401610dcd90613e97565b60405180910390fd5b84600a600088815260200190815260200160002060006101000a81548173ffffffffffffffffffffffffffffffffffffffff021916908373ffffffffffffffffffffffffffffffffffffffff1602179055506001925050509392505050565b610e46610e40611e26565b82611f2f565b610e85576040517f08c379a0000000000000000000000000000000000000000000000000000000008152600401610e7c906140f7565b60405180910390fd5b610e9083838361200d565b505050565b600060096000838152602001908152602001600020549050919050565b606060008251905060008167ffffffffffffffff811115610efc577f4e487b7100000000000000000000000000000000000000000000000000000000600052604160045260246000fd5b604051908082528060200260200182016040528015610f2a5781602001602082028036833780820191505090505b50905060005b8281101561103257600a6000868381518110610f75577f4e487b7100000000000000000000000000000000000000000000000000000000600052603260045260246000fd5b6020026020010151815260200190815260200160002060009054906101000a900473ffffffffffffffffffffffffffffffffffffffff16828281518110610fe5577f4e487b7100000000000000000000000000000000000000000000000000000000600052603260045260246000fd5b602002602001019073ffffffffffffffffffffffffffffffffffffffff16908173ffffffffffffffffffffffffffffffffffffffff1681525050808061102a906144e5565b915050610f30565b508092505050919050565b611045611e26565b73ffffffffffffffffffffffffffffffffffffffff1661106361171d565b73ffffffffffffffffffffffffffffffffffffffff16146110b9576040517f08c379a00000000000000000000000000000000000000000000000000000000081526004016110b090614077565b60405180910390fd5b80600b90805190602001906110cf92919061306b565b5050565b6110db611e26565b73ffffffffffffffffffffffffffffffffffffffff166110f961171d565b73ffffffffffffffffffffffffffffffffffffffff161461114f576040517f08c379a000000000000000000000000000000000000000000000000000000000815260040161114690614077565b60405180910390fd5b3373ffffffffffffffffffffffffffffffffffffffff166108fc479081150290604051600060405180830381858888f19350505050158015611195573d6000803e3d6000fd5b50565b60003373ffffffffffffffffffffffffffffffffffffffff166111ba836115e2565b73ffffffffffffffffffffffffffffffffffffffff1614611210576040517f08c379a0000000000000000000000000000000000000000000000000000000008152600401611207906140d7565b60405180910390fd5b61121a838361168b565b1561125a576040517f08c379a000000000000000000000000000000000000000000000000000000000815260040161125190613f37565b60405180910390fd5b60006112666007612274565b90506112726007612282565b61127c8482612298565b8373ffffffffffffffffffffffffffffffffffffffff167f1f89f147a58d1673945cf416187db98efc8208408c011b91887acd59fd8523c3846040516112c29190614177565b60405180910390a28091505092915050565b6112ef83838360405180602001604052806000815250611927565b505050565b6112fc611e26565b73ffffffffffffffffffffffffffffffffffffffff1661131a61171d565b73ffffffffffffffffffffffffffffffffffffffff1614611370576040517f08c379a000000000000000000000000000000000000000000000000000000000815260040161136790614077565b60405180910390fd5b80600860008473ffffffffffffffffffffffffffffffffffffffff1673ffffffffffffffffffffffffffffffffffffffff16815260200190815260200160002060006101000a81548160ff0219169083151502179055505050565b6000806002600084815260200190815260200160002060009054906101000a900473ffffffffffffffffffffffffffffffffffffffff169050600073ffffffffffffffffffffffffffffffffffffffff168173ffffffffffffffffffffffffffffffffffffffff161415611474576040517f08c379a000000000000000000000000000000000000000000000000000000000815260040161146b90613ff7565b60405180910390fd5b80915050919050565b60006114898383611989565b8061149a5750611499838361168b565b5b905092915050565b60008073ffffffffffffffffffffffffffffffffffffffff168273ffffffffffffffffffffffffffffffffffffffff161415611513576040517f08c379a000000000000000000000000000000000000000000000000000000000815260040161150a90613fd7565b60405180910390fd5b600360008373ffffffffffffffffffffffffffffffffffffffff1673ffffffffffffffffffffffffffffffffffffffff168152602001908152602001600020549050919050565b611562611e26565b73ffffffffffffffffffffffffffffffffffffffff1661158061171d565b73ffffffffffffffffffffffffffffffffffffffff16146115d6576040517f08c379a00000000000000000000000000000000000000000000000000000000081526004016115cd90614077565b60405180910390fd5b6115e06000612472565b565b6000600a600083815260200190815260200160002060009054906101000a900473ffffffffffffffffffffffffffffffffffffffff169050919050565b60008073ffffffffffffffffffffffffffffffffffffffff16600a600084815260200190815260200160002060009054906101000a900473ffffffffffffffffffffffffffffffffffffffff1673ffffffffffffffffffffffffffffffffffffffff1614159050919050565b600080611696611abc565b905060005b81811015611710578473ffffffffffffffffffffffffffffffffffffffff166116c3826113cb565b73ffffffffffffffffffffffffffffffffffffffff161480156116ed5750836116eb82610e95565b145b156116fd57600192505050611717565b8080611708906144e5565b91505061169b565b5060009150505b92915050565b6000600660009054906101000a900473ffffffffffffffffffffffffffffffffffffffff16905090565b60606001805461175690614482565b80601f016020809104026020016040519081016040528092919081815260200182805461178290614482565b80156117cf5780601f106117a4576101008083540402835291602001916117cf565b820191906000526020600020905b8154815290600101906020018083116117b257829003601f168201915b5050505050905090565b6000806117e4611abc565b905060005b81811015611869573373ffffffffffffffffffffffffffffffffffffffff16611811826113cb565b73ffffffffffffffffffffffffffffffffffffffff1614801561183b57508461183982610e95565b145b156118565761184b33858361200d565b600192505050611870565b8080611861906144e5565b9150506117e9565b5060009150505b92915050565b611888611881611e26565b8383612538565b5050565b600061189661171d565b73ffffffffffffffffffffffffffffffffffffffff168273ffffffffffffffffffffffffffffffffffffffff1614156118d25760019050611922565b600860008373ffffffffffffffffffffffffffffffffffffffff1673ffffffffffffffffffffffffffffffffffffffff16815260200190815260200160002060009054906101000a900460ff1690505b919050565b611938611932611e26565b83611f2f565b611977576040517f08c379a000000000000000000000000000000000000000000000000000000000815260040161196e906140f7565b60405180910390fd5b611983848484846126a5565b50505050565b60008073ffffffffffffffffffffffffffffffffffffffff166119ab836115e2565b73ffffffffffffffffffffffffffffffffffffffff1614611a02578273ffffffffffffffffffffffffffffffffffffffff166119e6836115e2565b73ffffffffffffffffffffffffffffffffffffffff1614611a05565b60015b905092915050565b6060611a1882611dba565b611a57576040517f08c379a0000000000000000000000000000000000000000000000000000000008152600401611a4e90614097565b60405180910390fd5b6000611a61612701565b90506000815111611a815760405180602001604052806000815250611ab4565b80611a93611a8e85610e95565b612793565b604051602001611aa4929190613cb5565b6040516020818303038152906040525b915050919050565b6000611ac86007612274565b905090565b6000600560008473ffffffffffffffffffffffffffffffffffffffff1673ffffffffffffffffffffffffffffffffffffffff16815260200190815260200160002060008373ffffffffffffffffffffffffffffffffffffffff1673ffffffffffffffffffffffffffffffffffffffff16815260200190815260200160002060009054906101000a900460ff16905092915050565b611b69611e26565b73ffffffffffffffffffffffffffffffffffffffff16611b8761171d565b73ffffffffffffffffffffffffffffffffffffffff1614611bdd576040517f08c379a0000000000000000000000000000000000000000000000000000000008152600401611bd490614077565b60405180910390fd5b600073ffffffffffffffffffffffffffffffffffffffff168173ffffffffffffffffffffffffffffffffffffffff161415611c4d576040517f08c379a0000000000000000000000000000000000000000000000000000000008152600401611c4490613eb7565b60405180910390fd5b611c5681612472565b50565b3373ffffffffffffffffffffffffffffffffffffffff16600a600084815260200190815260200160002060009054906101000a900473ffffffffffffffffffffffffffffffffffffffff1673ffffffffffffffffffffffffffffffffffffffff1614611cfa576040517f08c379a0000000000000000000000000000000000000000000000000000000008152600401611cf190614117565b60405180910390fd5b80600a600084815260200190815260200160002060006101000a81548173ffffffffffffffffffffffffffffffffffffffff021916908373ffffffffffffffffffffffffffffffffffffffff1602179055505050565b60007f01ffc9a7000000000000000000000000000000000000000000000000000000007bffffffffffffffffffffffffffffffffffffffffffffffffffffffff1916827bffffffffffffffffffffffffffffffffffffffffffffffffffffffff1916149050919050565b60008073ffffffffffffffffffffffffffffffffffffffff166002600084815260200190815260200160002060009054906101000a900473ffffffffffffffffffffffffffffffffffffffff1673ffffffffffffffffffffffffffffffffffffffff1614159050919050565b600033905090565b816004600083815260200190815260200160002060006101000a81548173ffffffffffffffffffffffffffffffffffffffff021916908373ffffffffffffffffffffffffffffffffffffffff160217905550808273ffffffffffffffffffffffffffffffffffffffff16611ea1836113cb565b73ffffffffffffffffffffffffffffffffffffffff167f8c5be1e5ebec7d5bd14f71427d1e84f3dd0314c0f7b2291e5b200ac8c7c3b92560405160405180910390a45050565b60008083604051602001611efb9190613ce4565b604051602081830303815290604052805190602001209050611f26838261294090919063ffffffff16565b91505092915050565b6000611f3a82611dba565b611f79576040517f08c379a0000000000000000000000000000000000000000000000000000000008152600401611f7090613f97565b60405180910390fd5b6000611f84836113cb565b90508073ffffffffffffffffffffffffffffffffffffffff168473ffffffffffffffffffffffffffffffffffffffff161480611ff357508373ffffffffffffffffffffffffffffffffffffffff16611fdb84610914565b73ffffffffffffffffffffffffffffffffffffffff16145b8061200457506120038185611acd565b5b91505092915050565b8273ffffffffffffffffffffffffffffffffffffffff1661202d826113cb565b73ffffffffffffffffffffffffffffffffffffffff1614612083576040517f08c379a000000000000000000000000000000000000000000000000000000000815260040161207a90613ed7565b60405180910390fd5b600073ffffffffffffffffffffffffffffffffffffffff168273ffffffffffffffffffffffffffffffffffffffff1614156120f3576040517f08c379a00000000000000000000000000000000000000000000000000000000081526004016120ea90613f17565b60405180910390fd5b6120fe838383612967565b612109600082611e2e565b6001600360008573ffffffffffffffffffffffffffffffffffffffff1673ffffffffffffffffffffffffffffffffffffffff16815260200190815260200160002060008282546121599190614381565b925050819055506001600360008473ffffffffffffffffffffffffffffffffffffffff1673ffffffffffffffffffffffffffffffffffffffff16815260200190815260200160002060008282546121b091906142fa565b92505081905550816002600083815260200190815260200160002060006101000a81548173ffffffffffffffffffffffffffffffffffffffff021916908373ffffffffffffffffffffffffffffffffffffffff160217905550808273ffffffffffffffffffffffffffffffffffffffff168473ffffffffffffffffffffffffffffffffffffffff167fddf252ad1be2c89b69c2b068fc378daa952ba7f163c4a11628f55a4df523b3ef60405160405180910390a461226f83838361296c565b505050565b600081600001549050919050565b6001816000016000828254019250508190555050565b600073ffffffffffffffffffffffffffffffffffffffff168273ffffffffffffffffffffffffffffffffffffffff161415612308576040517f08c379a00000000000000000000000000000000000000000000000000000000081526004016122ff90614037565b60405180910390fd5b61231181611dba565b15612351576040517f08c379a000000000000000000000000000000000000000000000000000000000815260040161234890613ef7565b60405180910390fd5b61235d60008383612967565b6001600360008473ffffffffffffffffffffffffffffffffffffffff1673ffffffffffffffffffffffffffffffffffffffff16815260200190815260200160002060008282546123ad91906142fa565b92505081905550816002600083815260200190815260200160002060006101000a81548173ffffffffffffffffffffffffffffffffffffffff021916908373ffffffffffffffffffffffffffffffffffffffff160217905550808273ffffffffffffffffffffffffffffffffffffffff16600073ffffffffffffffffffffffffffffffffffffffff167fddf252ad1be2c89b69c2b068fc378daa952ba7f163c4a11628f55a4df523b3ef60405160405180910390a461246e6000838361296c565b5050565b6000600660009054906101000a900473ffffffffffffffffffffffffffffffffffffffff16905081600660006101000a81548173ffffffffffffffffffffffffffffffffffffffff021916908373ffffffffffffffffffffffffffffffffffffffff1602179055508173ffffffffffffffffffffffffffffffffffffffff168173ffffffffffffffffffffffffffffffffffffffff167f8be0079c531659141344cd1fd0a4f28419497f9722a3daafe3b4186f6b6457e060405160405180910390a35050565b8173ffffffffffffffffffffffffffffffffffffffff168373ffffffffffffffffffffffffffffffffffffffff1614156125a7576040517f08c379a000000000000000000000000000000000000000000000000000000000815260040161259e90613f57565b60405180910390fd5b80600560008573ffffffffffffffffffffffffffffffffffffffff1673ffffffffffffffffffffffffffffffffffffffff16815260200190815260200160002060008473ffffffffffffffffffffffffffffffffffffffff1673ffffffffffffffffffffffffffffffffffffffff16815260200190815260200160002060006101000a81548160ff0219169083151502179055508173ffffffffffffffffffffffffffffffffffffffff168373ffffffffffffffffffffffffffffffffffffffff167f17307eab39ab6107e8899845ad3d59bd9653f200f220920489ca2b5937696c31836040516126989190613db5565b60405180910390a3505050565b6126b084848461200d565b6126bc84848484612971565b6126fb576040517f08c379a00000000000000000000000000000000000000000000000000000000081526004016126f290613e77565b60405180910390fd5b50505050565b6060600b805461271090614482565b80601f016020809104026020016040519081016040528092919081815260200182805461273c90614482565b80156127895780601f1061275e57610100808354040283529160200191612789565b820191906000526020600020905b81548152906001019060200180831161276c57829003601f168201915b5050505050905090565b606060008214156127db576040518060400160405280600181526020017f3000000000000000000000000000000000000000000000000000000000000000815250905061293b565b600082905060005b6000821461280d5780806127f6906144e5565b915050600a826128069190614350565b91506127e3565b60008167ffffffffffffffff81111561284f577f4e487b7100000000000000000000000000000000000000000000000000000000600052604160045260246000fd5b6040519080825280601f01601f1916602001820160405280156128815781602001600182028036833780820191505090505b5090505b600085146129345760018261289a9190614381565b9150600a856128a99190614566565b60306128b591906142fa565b60f81b8183815181106128f1577f4e487b7100000000000000000000000000000000000000000000000000000000600052603260045260246000fd5b60200101907effffffffffffffffffffffffffffffffffffffffffffffffffffffffffffff1916908160001a905350600a8561292d9190614350565b9450612885565b8093505050505b919050565b600080600061294f8585612b08565b9150915061295c81612b8b565b819250505092915050565b505050565b505050565b60006129928473ffffffffffffffffffffffffffffffffffffffff16612edc565b15612afb578373ffffffffffffffffffffffffffffffffffffffff1663150b7a026129bb611e26565b8786866040518563ffffffff1660e01b81526004016129dd9493929190613d25565b602060405180830381600087803b1580156129f757600080fd5b505af1925050508015612a2857506040513d601f19601f82011682018060405250810190612a259190613542565b60015b612aab573d8060008114612a58576040519150601f19603f3d011682016040523d82523d6000602084013e612a5d565b606091505b50600081511415612aa3576040517f08c379a0000000000000000000000000000000000000000000000000000000008152600401612a9a90613e77565b60405180910390fd5b805181602001fd5b63150b7a0260e01b7bffffffffffffffffffffffffffffffffffffffffffffffffffffffff1916817bffffffffffffffffffffffffffffffffffffffffffffffffffffffff191614915050612b00565b600190505b949350505050565b600080604183511415612b4a5760008060006020860151925060408601519150606086015160001a9050612b3e87828585612eff565b94509450505050612b84565b604083511415612b7b576000806020850151915060408501519050612b7086838361300c565b935093505050612b84565b60006002915091505b9250929050565b60006004811115612bc5577f4e487b7100000000000000000000000000000000000000000000000000000000600052602160045260246000fd5b816004811115612bfe577f4e487b7100000000000000000000000000000000000000000000000000000000600052602160045260246000fd5b1415612c0957612ed9565b60016004811115612c43577f4e487b7100000000000000000000000000000000000000000000000000000000600052602160045260246000fd5b816004811115612c7c577f4e487b7100000000000000000000000000000000000000000000000000000000600052602160045260246000fd5b1415612cbd576040517f08c379a0000000000000000000000000000000000000000000000000000000008152600401612cb490613e37565b60405180910390fd5b60026004811115612cf7577f4e487b7100000000000000000000000000000000000000000000000000000000600052602160045260246000fd5b816004811115612d30577f4e487b7100000000000000000000000000000000000000000000000000000000600052602160045260246000fd5b1415612d71576040517f08c379a0000000000000000000000000000000000000000000000000000000008152600401612d6890613e57565b60405180910390fd5b60036004811115612dab577f4e487b7100000000000000000000000000000000000000000000000000000000600052602160045260246000fd5b816004811115612de4577f4e487b7100000000000000000000000000000000000000000000000000000000600052602160045260246000fd5b1415612e25576040517f08c379a0000000000000000000000000000000000000000000000000000000008152600401612e1c90613f77565b60405180910390fd5b600480811115612e5e577f4e487b7100000000000000000000000000000000000000000000000000000000600052602160045260246000fd5b816004811115612e97577f4e487b7100000000000000000000000000000000000000000000000000000000600052602160045260246000fd5b1415612ed8576040517f08c379a0000000000000000000000000000000000000000000000000000000008152600401612ecf90614017565b60405180910390fd5b5b50565b6000808273ffffffffffffffffffffffffffffffffffffffff163b119050919050565b6000807f7fffffffffffffffffffffffffffffff5d576e7357a4501ddfe92f46681b20a08360001c1115612f3a576000600391509150613003565b601b8560ff1614158015612f525750601c8560ff1614155b15612f64576000600491509150613003565b600060018787878760405160008152602001604052604051612f899493929190613dd0565b6020604051602081039080840390855afa158015612fab573d6000803e3d6000fd5b505050602060405103519050600073ffffffffffffffffffffffffffffffffffffffff168173ffffffffffffffffffffffffffffffffffffffff161415612ffa57600060019250925050613003565b80600092509250505b94509492505050565b60008060007f7fffffffffffffffffffffffffffffffffffffffffffffffffffffffffffffff60001b841690506000601b60ff8660001c901c61304f91906142fa565b905061305d87828885612eff565b935093505050935093915050565b82805461307790614482565b90600052602060002090601f01602090048101928261309957600085556130e0565b82601f106130b257805160ff19168380011785556130e0565b828001600101855582156130e0579182015b828111156130df5782518255916020019190600101906130c4565b5b5090506130ed91906130f1565b5090565b5b8082111561310a5760008160009055506001016130f2565b5090565b600061312161311c846141b7565b614192565b9050808382526020820190508285602086028201111561314057600080fd5b60005b85811015613170578161315688826132c8565b845260208401935060208301925050600181019050613143565b5050509392505050565b600061318d613188846141e3565b614192565b9050828152602081018484840111156131a557600080fd5b6131b0848285614440565b509392505050565b60006131cb6131c684614214565b614192565b9050828152602081018484840111156131e357600080fd5b6131ee848285614440565b509392505050565b60008135905061320581614d4d565b92915050565b600082601f83011261321c57600080fd5b813561322c84826020860161310e565b91505092915050565b60008135905061324481614d64565b92915050565b60008135905061325981614d7b565b92915050565b60008151905061326e81614d7b565b92915050565b600082601f83011261328557600080fd5b813561329584826020860161317a565b91505092915050565b600082601f8301126132af57600080fd5b81356132bf8482602086016131b8565b91505092915050565b6000813590506132d781614d92565b92915050565b6000602082840312156132ef57600080fd5b60006132fd848285016131f6565b91505092915050565b6000806040838503121561331957600080fd5b6000613327858286016131f6565b9250506020613338858286016131f6565b9150509250929050565b60008060006060848603121561335757600080fd5b6000613365868287016131f6565b9350506020613376868287016131f6565b9250506040613387868287016132c8565b9150509250925092565b600080600080608085870312156133a757600080fd5b60006133b5878288016131f6565b94505060206133c6878288016131f6565b93505060406133d7878288016132c8565b925050606085013567ffffffffffffffff8111156133f457600080fd5b61340087828801613274565b91505092959194509250565b6000806040838503121561341f57600080fd5b600061342d858286016131f6565b925050602083013567ffffffffffffffff81111561344a57600080fd5b6134568582860161320b565b9150509250929050565b6000806040838503121561347357600080fd5b6000613481858286016131f6565b925050602061349285828601613235565b9150509250929050565b600080604083850312156134af57600080fd5b60006134bd858286016131f6565b92505060206134ce858286016132c8565b9150509250929050565b6000602082840312156134ea57600080fd5b600082013567ffffffffffffffff81111561350457600080fd5b6135108482850161320b565b91505092915050565b60006020828403121561352b57600080fd5b60006135398482850161324a565b91505092915050565b60006020828403121561355457600080fd5b60006135628482850161325f565b91505092915050565b60006020828403121561357d57600080fd5b600082013567ffffffffffffffff81111561359757600080fd5b6135a38482850161329e565b91505092915050565b6000602082840312156135be57600080fd5b60006135cc848285016132c8565b91505092915050565b600080604083850312156135e857600080fd5b60006135f6858286016132c8565b9250506020613607858286016131f6565b9150509250929050565b60008060006060848603121561362657600080fd5b6000613634868287016132c8565b9350506020613645868287016131f6565b925050604084013567ffffffffffffffff81111561366257600080fd5b61366e86828701613274565b9150509250925092565b600061368483836136a8565b60208301905092915050565b600061369c8383613799565b60208301905092915050565b6136b1816143b5565b82525050565b6136c0816143b5565b82525050565b6136d76136d2826143b5565b61452e565b82525050565b60006136e882614265565b6136f281856142ab565b93506136fd83614245565b8060005b8381101561372e5781516137158882613678565b975061372083614291565b925050600181019050613701565b5085935050505092915050565b600061374682614270565b61375081856142bc565b935061375b83614255565b8060005b8381101561378c5781516137738882613690565b975061377e8361429e565b92505060018101905061375f565b5085935050505092915050565b6137a2816143c7565b82525050565b6137b1816143c7565b82525050565b6137c0816143d3565b82525050565b6137d76137d2826143d3565b614540565b82525050565b60006137e88261427b565b6137f281856142cd565b935061380281856020860161444f565b61380b81614653565b840191505092915050565b600061382182614286565b61382b81856142de565b935061383b81856020860161444f565b61384481614653565b840191505092915050565b600061385a82614286565b61386481856142ef565b935061387481856020860161444f565b80840191505092915050565b600061388d6018836142de565b915061389882614671565b602082019050919050565b60006138b0601f836142de565b91506138bb8261469a565b602082019050919050565b60006138d3601c836142ef565b91506138de826146c3565b601c82019050919050565b60006138f66032836142de565b9150613901826146ec565b604082019050919050565b60006139196037836142de565b91506139248261473b565b604082019050919050565b600061393c6026836142de565b91506139478261478a565b604082019050919050565b600061395f6025836142de565b915061396a826147d9565b604082019050919050565b6000613982601c836142de565b915061398d82614828565b602082019050919050565b60006139a56024836142de565b91506139b082614851565b604082019050919050565b60006139c86012836142de565b91506139d3826148a0565b602082019050919050565b60006139eb6019836142de565b91506139f6826148c9565b602082019050919050565b6000613a0e6022836142de565b9150613a19826148f2565b604082019050919050565b6000613a31602c836142de565b9150613a3c82614941565b604082019050919050565b6000613a546038836142de565b9150613a5f82614990565b604082019050919050565b6000613a77602a836142de565b9150613a82826149df565b604082019050919050565b6000613a9a6029836142de565b9150613aa582614a2e565b604082019050919050565b6000613abd6022836142de565b9150613ac882614a7d565b604082019050919050565b6000613ae06020836142de565b9150613aeb82614acc565b602082019050919050565b6000613b03602c836142de565b9150613b0e82614af5565b604082019050919050565b6000613b266005836142ef565b9150613b3182614b44565b600582019050919050565b6000613b496020836142de565b9150613b5482614b6d565b602082019050919050565b6000613b6c602f836142de565b9150613b7782614b96565b604082019050919050565b6000613b8f6021836142de565b9150613b9a82614be5565b604082019050919050565b6000613bb26017836142de565b9150613bbd82614c34565b602082019050919050565b6000613bd56031836142de565b9150613be082614c5d565b604082019050919050565b6000613bf86027836142de565b9150613c0382614cac565b604082019050919050565b6000613c1b601f836142de565b9150613c2682614cfb565b602082019050919050565b6000613c3e6015836142de565b9150613c4982614d24565b602082019050919050565b613c5d81614429565b82525050565b613c74613c6f82614429565b61455c565b82525050565b613c8381614433565b82525050565b6000613c9582856136c6565b601482019150613ca58284613c63565b6020820191508190509392505050565b6000613cc1828561384f565b9150613ccd828461384f565b9150613cd882613b19565b91508190509392505050565b6000613cef826138c6565b9150613cfb82846137c6565b60208201915081905092915050565b6000602082019050613d1f60008301846136b7565b92915050565b6000608082019050613d3a60008301876136b7565b613d4760208301866136b7565b613d546040830185613c54565b8181036060830152613d6681846137dd565b905095945050505050565b60006020820190508181036000830152613d8b81846136dd565b905092915050565b60006020820190508181036000830152613dad818461373b565b905092915050565b6000602082019050613dca60008301846137a8565b92915050565b6000608082019050613de560008301876137b7565b613df26020830186613c7a565b613dff60408301856137b7565b613e0c60608301846137b7565b95945050505050565b60006020820190508181036000830152613e2f8184613816565b905092915050565b60006020820190508181036000830152613e5081613880565b9050919050565b60006020820190508181036000830152613e70816138a3565b9050919050565b60006020820190508181036000830152613e90816138e9565b9050919050565b60006020820190508181036000830152613eb08161390c565b9050919050565b60006020820190508181036000830152613ed08161392f565b9050919050565b60006020820190508181036000830152613ef081613952565b9050919050565b60006020820190508181036000830152613f1081613975565b9050919050565b60006020820190508181036000830152613f3081613998565b9050919050565b60006020820190508181036000830152613f50816139bb565b9050919050565b60006020820190508181036000830152613f70816139de565b9050919050565b60006020820190508181036000830152613f9081613a01565b9050919050565b60006020820190508181036000830152613fb081613a24565b9050919050565b60006020820190508181036000830152613fd081613a47565b9050919050565b60006020820190508181036000830152613ff081613a6a565b9050919050565b6000602082019050818103600083015261401081613a8d565b9050919050565b6000602082019050818103600083015261403081613ab0565b9050919050565b6000602082019050818103600083015261405081613ad3565b9050919050565b6000602082019050818103600083015261407081613af6565b9050919050565b6000602082019050818103600083015261409081613b3c565b9050919050565b600060208201905081810360008301526140b081613b5f565b9050919050565b600060208201905081810360008301526140d081613b82565b9050919050565b600060208201905081810360008301526140f081613ba5565b9050919050565b6000602082019050818103600083015261411081613bc8565b9050919050565b6000602082019050818103600083015261413081613beb565b9050919050565b6000602082019050818103600083015261415081613c0e565b9050919050565b6000602082019050818103600083015261417081613c31565b9050919050565b600060208201905061418c6000830184613c54565b92915050565b600061419c6141ad565b90506141a882826144b4565b919050565b6000604051905090565b600067ffffffffffffffff8211156141d2576141d1614624565b5b602082029050602081019050919050565b600067ffffffffffffffff8211156141fe576141fd614624565b5b61420782614653565b9050602081019050919050565b600067ffffffffffffffff82111561422f5761422e614624565b5b61423882614653565b9050602081019050919050565b6000819050602082019050919050565b6000819050602082019050919050565b600081519050919050565b600081519050919050565b600081519050919050565b600081519050919050565b6000602082019050919050565b6000602082019050919050565b600082825260208201905092915050565b600082825260208201905092915050565b600082825260208201905092915050565b600082825260208201905092915050565b600081905092915050565b600061430582614429565b915061431083614429565b9250827fffffffffffffffffffffffffffffffffffffffffffffffffffffffffffffffff0382111561434557614344614597565b5b828201905092915050565b600061435b82614429565b915061436683614429565b925082614376576143756145c6565b5b828204905092915050565b600061438c82614429565b915061439783614429565b9250828210156143aa576143a9614597565b5b828203905092915050565b60006143c082614409565b9050919050565b60008115159050919050565b6000819050919050565b60007fffffffff0000000000000000000000000000000000000000000000000000000082169050919050565b600073ffffffffffffffffffffffffffffffffffffffff82169050919050565b6000819050919050565b600060ff82169050919050565b82818337600083830152505050565b60005b8381101561446d578082015181840152602081019050614452565b8381111561447c576000848401525b50505050565b6000600282049050600182168061449a57607f821691505b602082108114156144ae576144ad6145f5565b5b50919050565b6144bd82614653565b810181811067ffffffffffffffff821117156144dc576144db614624565b5b80604052505050565b60006144f082614429565b91507fffffffffffffffffffffffffffffffffffffffffffffffffffffffffffffffff82141561452357614522614597565b5b600182019050919050565b60006145398261454a565b9050919050565b6000819050919050565b600061455582614664565b9050919050565b6000819050919050565b600061457182614429565b915061457c83614429565b92508261458c5761458b6145c6565b5b828206905092915050565b7f4e487b7100000000000000000000000000000000000000000000000000000000600052601160045260246000fd5b7f4e487b7100000000000000000000000000000000000000000000000000000000600052601260045260246000fd5b7f4e487b7100000000000000000000000000000000000000000000000000000000600052602260045260246000fd5b7f4e487b7100000000000000000000000000000000000000000000000000000000600052604160045260246000fd5b6000601f19601f8301169050919050565b60008160601b9050919050565b7f45434453413a20696e76616c6964207369676e61747572650000000000000000600082015250565b7f45434453413a20696e76616c6964207369676e6174757265206c656e67746800600082015250565b7f19457468657265756d205369676e6564204d6573736167653a0a333200000000600082015250565b7f4552433732313a207472616e7366657220746f206e6f6e20455243373231526560008201527f63656976657220696d706c656d656e7465720000000000000000000000000000602082015250565b7f43616e27742063726561746520636f6e74656e74206265636175736520796f7560008201527f20617265206e6f7420636f6e74656e7420736572766572000000000000000000602082015250565b7f4f776e61626c653a206e6577206f776e657220697320746865207a65726f206160008201527f6464726573730000000000000000000000000000000000000000000000000000602082015250565b7f4552433732313a207472616e736665722066726f6d20696e636f72726563742060008201527f6f776e6572000000000000000000000000000000000000000000000000000000602082015250565b7f4552433732313a20746f6b656e20616c7265616479206d696e74656400000000600082015250565b7f4552433732313a207472616e7366657220746f20746865207a65726f2061646460008201527f7265737300000000000000000000000000000000000000000000000000000000602082015250565b7f4e465420616c7265616479206d696e7465640000000000000000000000000000600082015250565b7f4552433732313a20617070726f766520746f2063616c6c657200000000000000600082015250565b7f45434453413a20696e76616c6964207369676e6174757265202773272076616c60008201527f7565000000000000000000000000000000000000000000000000000000000000602082015250565b7f4552433732313a206f70657261746f7220717565727920666f72206e6f6e657860008201527f697374656e7420746f6b656e0000000000000000000000000000000000000000602082015250565b7f4552433732313a20617070726f76652063616c6c6572206973206e6f74206f7760008201527f6e6572206e6f7220617070726f76656420666f7220616c6c0000000000000000602082015250565b7f4552433732313a2062616c616e636520717565727920666f7220746865207a6560008201527f726f206164647265737300000000000000000000000000000000000000000000602082015250565b7f4552433732313a206f776e657220717565727920666f72206e6f6e657869737460008201527f656e7420746f6b656e0000000000000000000000000000000000000000000000602082015250565b7f45434453413a20696e76616c6964207369676e6174757265202776272076616c60008201527f7565000000000000000000000000000000000000000000000000000000000000602082015250565b7f4552433732313a206d696e7420746f20746865207a65726f2061646472657373600082015250565b7f4552433732313a20617070726f76656420717565727920666f72206e6f6e657860008201527f697374656e7420746f6b656e0000000000000000000000000000000000000000602082015250565b7f2e6a736f6e000000000000000000000000000000000000000000000000000000600082015250565b7f4f776e61626c653a2063616c6c6572206973206e6f7420746865206f776e6572600082015250565b7f4552433732314d657461646174613a2055524920717565727920666f72206e6f60008201527f6e6578697374656e7420746f6b656e0000000000000000000000000000000000602082015250565b7f4552433732313a20617070726f76616c20746f2063757272656e74206f776e6560008201527f7200000000000000000000000000000000000000000000000000000000000000602082015250565b7f596f752063616e2774206d696e742074686973204e4654000000000000000000600082015250565b7f4552433732313a207472616e736665722063616c6c6572206973206e6f74206f60008201527f776e6572206e6f7220617070726f766564000000000000000000000000000000602082015250565b7f596f7520617265206e6f74206469737472696275746f72206f6620746869732060008201527f636f6e74656e7400000000000000000000000000000000000000000000000000602082015250565b7f596f7520646f6e2774207065726d6974746564207468697320616374696f6e00600082015250565b7f436f6e74656e7420616c72656164792061646465640000000000000000000000600082015250565b614d56816143b5565b8114614d6157600080fd5b50565b614d6d816143c7565b8114614d7857600080fd5b50565b614d84816143dd565b8114614d8f57600080fd5b50565b614d9b81614429565b8114614da657600080fd5b5056fea26469706673582212205c54a66757c41d689e450b4cb62045bab577d458d254b65738edee91e2a74e7f64736f6c63430008040033",
  "linkReferences": {},
  "deployedLinkReferences": {}
}