{
  "_format": "hh-sol-artifact-1",
  "contractName": "NCPProof",
  "sourceName": "contracts/NCPProof.sol",
  "abi": [
    {
      "inputs": [],
      "stateMutability": "nonpayable",
      "type": "constructor"
    },
    {
      "anonymous": false,
      "inputs": [
        {
          "indexed": true,
          "internalType": "address",
          "name": "owner",
          "type": "address"
        },
        {
          "indexed": true,
          "internalType": "address",
          "name": "approved",
          "type": "address"
        },
        {
          "indexed": true,
          "internalType": "uint256",
          "name": "tokenId",
          "type": "uint256"
        }
      ],
      "name": "Approval",
      "type": "event"
    },
    {
      "anonymous": false,
      "inputs": [
        {
          "indexed": true,
          "internalType": "address",
          "name": "owner",
          "type": "address"
        },
        {
          "indexed": true,
          "internalType": "address",
          "name": "operator",
          "type": "address"
        },
        {
          "indexed": false,
          "internalType": "bool",
          "name": "approved",
          "type": "bool"
        }
      ],
      "name": "ApprovalForAll",
      "type": "event"
    },
    {
      "anonymous": false,
      "inputs": [
        {
          "indexed": true,
          "internalType": "address",
          "name": "_to",
          "type": "address"
        },
        {
          "indexed": false,
          "internalType": "uint256",
          "name": "_contentId",
          "type": "uint256"
        }
      ],
      "name": "MintNFT",
      "type": "event"
    },
    {
      "anonymous": false,
      "inputs": [
        {
          "indexed": true,
          "internalType": "address",
          "name": "previousOwner",
          "type": "address"
        },
        {
          "indexed": true,
          "internalType": "address",
          "name": "newOwner",
          "type": "address"
        }
      ],
      "name": "OwnershipTransferred",
      "type": "event"
    },
    {
      "anonymous": false,
      "inputs": [
        {
          "indexed": true,
          "internalType": "address",
          "name": "from",
          "type": "address"
        },
        {
          "indexed": true,
          "internalType": "address",
          "name": "to",
          "type": "address"
        },
        {
          "indexed": true,
          "internalType": "uint256",
          "name": "tokenId",
          "type": "uint256"
        }
      ],
      "name": "Transfer",
      "type": "event"
    },
    {
      "inputs": [
        {
          "internalType": "address",
          "name": "to",
          "type": "address"
        },
        {
          "internalType": "uint256",
          "name": "tokenId",
          "type": "uint256"
        }
      ],
      "name": "approve",
      "outputs": [],
      "stateMutability": "nonpayable",
      "type": "function"
    },
    {
      "inputs": [
        {
          "internalType": "address",
          "name": "owner",
          "type": "address"
        }
      ],
      "name": "balanceOf",
      "outputs": [
        {
          "internalType": "uint256",
          "name": "",
          "type": "uint256"
        }
      ],
      "stateMutability": "view",
      "type": "function"
    },
    {
      "inputs": [
        {
          "internalType": "address",
          "name": "owner",
          "type": "address"
        },
        {
          "internalType": "uint256",
          "name": "contentId",
          "type": "uint256"
        }
      ],
      "name": "canSeeProtected",
      "outputs": [
        {
          "internalType": "bool",
          "name": "",
          "type": "bool"
        }
      ],
      "stateMutability": "view",
      "type": "function"
    },
    {
      "inputs": [
        {
          "internalType": "uint256",
          "name": "contentId",
          "type": "uint256"
        }
      ],
      "name": "contentDistributorOf",
      "outputs": [
        {
          "internalType": "address",
          "name": "",
          "type": "address"
        }
      ],
      "stateMutability": "view",
      "type": "function"
    },
    {
      "inputs": [
        {
          "internalType": "uint256",
          "name": "tokenId",
          "type": "uint256"
        }
      ],
      "name": "contentOf",
      "outputs": [
        {
          "internalType": "uint256",
          "name": "",
          "type": "uint256"
        }
      ],
      "stateMutability": "view",
      "type": "function"
    },
    {
      "inputs": [],
      "name": "countOfNFT",
      "outputs": [
        {
          "internalType": "uint256",
          "name": "",
          "type": "uint256"
        }
      ],
      "stateMutability": "view",
      "type": "function"
    },
    {
      "inputs": [
        {
          "internalType": "uint256",
          "name": "tokenId",
          "type": "uint256"
        }
      ],
      "name": "getApproved",
      "outputs": [
        {
          "internalType": "address",
          "name": "",
          "type": "address"
        }
      ],
      "stateMutability": "view",
      "type": "function"
    },
    {
      "inputs": [
        {
          "internalType": "uint256",
          "name": "contentId",
          "type": "uint256"
        }
      ],
      "name": "getNFTForContent",
      "outputs": [
        {
          "internalType": "uint256",
          "name": "",
          "type": "uint256"
        }
      ],
      "stateMutability": "view",
      "type": "function"
    },
    {
      "inputs": [
        {
          "internalType": "address",
          "name": "owner",
          "type": "address"
        },
        {
          "internalType": "uint256",
          "name": "contentId",
          "type": "uint256"
        }
      ],
      "name": "hasNFTForContent",
      "outputs": [
        {
          "internalType": "bool",
          "name": "",
          "type": "bool"
        }
      ],
      "stateMutability": "view",
      "type": "function"
    },
    {
      "inputs": [
        {
          "internalType": "address",
          "name": "owner",
          "type": "address"
        },
        {
          "internalType": "uint256[]",
          "name": "contentIds",
          "type": "uint256[]"
        }
      ],
      "name": "hasNFTForContents",
      "outputs": [
        {
          "internalType": "bool[]",
          "name": "",
          "type": "bool[]"
        }
      ],
      "stateMutability": "view",
      "type": "function"
    },
    {
      "inputs": [
        {
          "internalType": "address",
          "name": "owner",
          "type": "address"
        },
        {
          "internalType": "address",
          "name": "operator",
          "type": "address"
        }
      ],
      "name": "isApprovedForAll",
      "outputs": [
        {
          "internalType": "bool",
          "name": "",
          "type": "bool"
        }
      ],
      "stateMutability": "view",
      "type": "function"
    },
    {
      "inputs": [
        {
          "internalType": "address",
          "name": "addr",
          "type": "address"
        }
      ],
      "name": "isContentServer",
      "outputs": [
        {
          "internalType": "bool",
          "name": "",
          "type": "bool"
        }
      ],
      "stateMutability": "view",
      "type": "function"
    },
    {
      "inputs": [
        {
          "internalType": "address",
          "name": "owner",
          "type": "address"
        },
        {
          "internalType": "uint256",
          "name": "contentId",
          "type": "uint256"
        }
      ],
      "name": "isDistributorOf",
      "outputs": [
        {
          "internalType": "bool",
          "name": "",
          "type": "bool"
        }
      ],
      "stateMutability": "view",
      "type": "function"
    },
    {
      "inputs": [
        {
          "internalType": "address",
          "name": "owner",
          "type": "address"
        },
        {
          "internalType": "uint256[]",
          "name": "contentIds",
          "type": "uint256[]"
        }
      ],
      "name": "isDistributorOfContents",
      "outputs": [
        {
          "internalType": "bool[]",
          "name": "",
          "type": "bool[]"
        }
      ],
      "stateMutability": "view",
      "type": "function"
    },
    {
      "inputs": [
        {
          "internalType": "uint256",
          "name": "contentId",
          "type": "uint256"
        }
      ],
      "name": "isSetted",
      "outputs": [
        {
          "internalType": "bool",
          "name": "",
          "type": "bool"
        }
      ],
      "stateMutability": "view",
      "type": "function"
    },
    {
      "inputs": [
        {
          "internalType": "address",
          "name": "to",
          "type": "address"
        },
        {
          "internalType": "uint256",
          "name": "contentId",
          "type": "uint256"
        }
      ],
      "name": "mint",
      "outputs": [
        {
          "internalType": "uint256",
          "name": "",
          "type": "uint256"
        }
      ],
      "stateMutability": "nonpayable",
      "type": "function"
    },
    {
      "inputs": [],
      "name": "name",
      "outputs": [
        {
          "internalType": "string",
          "name": "",
          "type": "string"
        }
      ],
      "stateMutability": "view",
      "type": "function"
    },
    {
      "inputs": [
        {
          "internalType": "uint256",
          "name": "contentId",
          "type": "uint256"
        },
        {
          "internalType": "address",
          "name": "contentOwner",
          "type": "address"
        },
        {
          "internalType": "bytes",
          "name": "signature",
          "type": "bytes"
        }
      ],
      "name": "newContent",
      "outputs": [
        {
          "internalType": "bool",
          "name": "",
          "type": "bool"
        }
      ],
      "stateMutability": "nonpayable",
      "type": "function"
    },
    {
      "inputs": [],
      "name": "newContentId",
      "outputs": [
        {
          "internalType": "uint256",
          "name": "",
          "type": "uint256"
        }
      ],
      "stateMutability": "view",
      "type": "function"
    },
    {
      "inputs": [],
      "name": "owner",
      "outputs": [
        {
          "internalType": "address",
          "name": "",
          "type": "address"
        }
      ],
      "stateMutability": "view",
      "type": "function"
    },
    {
      "inputs": [
        {
          "internalType": "uint256",
          "name": "tokenId",
          "type": "uint256"
        }
      ],
      "name": "ownerOf",
      "outputs": [
        {
          "internalType": "address",
          "name": "",
          "type": "address"
        }
      ],
      "stateMutability": "view",
      "type": "function"
    },
    {
      "inputs": [],
      "name": "renounceOwnership",
      "outputs": [],
      "stateMutability": "nonpayable",
      "type": "function"
    },
    {
      "inputs": [
        {
          "internalType": "address",
          "name": "from",
          "type": "address"
        },
        {
          "internalType": "address",
          "name": "to",
          "type": "address"
        },
        {
          "internalType": "uint256",
          "name": "tokenId",
          "type": "uint256"
        }
      ],
      "name": "safeTransferFrom",
      "outputs": [],
      "stateMutability": "nonpayable",
      "type": "function"
    },
    {
      "inputs": [
        {
          "internalType": "address",
          "name": "from",
          "type": "address"
        },
        {
          "internalType": "address",
          "name": "to",
          "type": "address"
        },
        {
          "internalType": "uint256",
          "name": "tokenId",
          "type": "uint256"
        },
        {
          "internalType": "bytes",
          "name": "_data",
          "type": "bytes"
        }
      ],
      "name": "safeTransferFrom",
      "outputs": [],
      "stateMutability": "nonpayable",
      "type": "function"
    },
    {
      "inputs": [
        {
          "internalType": "address",
          "name": "operator",
          "type": "address"
        },
        {
          "internalType": "bool",
          "name": "approved",
          "type": "bool"
        }
      ],
      "name": "setApprovalForAll",
      "outputs": [],
      "stateMutability": "nonpayable",
      "type": "function"
    },
    {
      "inputs": [
        {
          "internalType": "string",
          "name": "baseURI",
          "type": "string"
        }
      ],
      "name": "setBaseTokenURI",
      "outputs": [],
      "stateMutability": "nonpayable",
      "type": "function"
    },
    {
      "inputs": [
        {
          "internalType": "address",
          "name": "contentServer",
          "type": "address"
        },
        {
          "internalType": "bool",
          "name": "set",
          "type": "bool"
        }
      ],
      "name": "setContentServer",
      "outputs": [],
      "stateMutability": "nonpayable",
      "type": "function"
    },
    {
      "inputs": [
        {
          "internalType": "bytes4",
          "name": "interfaceId",
          "type": "bytes4"
        }
      ],
      "name": "supportsInterface",
      "outputs": [
        {
          "internalType": "bool",
          "name": "",
          "type": "bool"
        }
      ],
      "stateMutability": "view",
      "type": "function"
    },
    {
      "inputs": [],
      "name": "symbol",
      "outputs": [
        {
          "internalType": "string",
          "name": "",
          "type": "string"
        }
      ],
      "stateMutability": "view",
      "type": "function"
    },
    {
      "inputs": [
        {
          "internalType": "uint256",
          "name": "tokenId",
          "type": "uint256"
        }
      ],
      "name": "tokenURI",
      "outputs": [
        {
          "internalType": "string",
          "name": "",
          "type": "string"
        }
      ],
      "stateMutability": "view",
      "type": "function"
    },
    {
      "inputs": [
        {
          "internalType": "uint256",
          "name": "contentId",
          "type": "uint256"
        },
        {
          "internalType": "address",
          "name": "newOwner",
          "type": "address"
        }
      ],
      "name": "transferContentRights",
      "outputs": [],
      "stateMutability": "nonpayable",
      "type": "function"
    },
    {
      "inputs": [
        {
          "internalType": "address",
          "name": "from",
          "type": "address"
        },
        {
          "internalType": "address",
          "name": "to",
          "type": "address"
        },
        {
          "internalType": "uint256",
          "name": "tokenId",
          "type": "uint256"
        }
      ],
      "name": "transferFrom",
      "outputs": [],
      "stateMutability": "nonpayable",
      "type": "function"
    },
    {
      "inputs": [
        {
          "internalType": "uint256",
          "name": "contentId",
          "type": "uint256"
        },
        {
          "internalType": "address",
          "name": "newOwner",
          "type": "address"
        }
      ],
      "name": "transferNFTRights",
      "outputs": [
        {
          "internalType": "bool",
          "name": "",
          "type": "bool"
        }
      ],
      "stateMutability": "nonpayable",
      "type": "function"
    },
    {
      "inputs": [
        {
          "internalType": "address",
          "name": "newOwner",
          "type": "address"
        }
      ],
      "name": "transferOwnership",
      "outputs": [],
      "stateMutability": "nonpayable",
      "type": "function"
    },
    {
      "inputs": [],
      "name": "withdraw",
      "outputs": [],
      "stateMutability": "nonpayable",
      "type": "function"
    }
  ],
  "bytecode": "0x60806040523480156200001157600080fd5b506040518060400160405280601881526020017f4e465420436f6e74656e7420506c617965722050726f6f6600000000000000008152506040518060400160405280600481526020017f4e43505000000000000000000000000000000000000000000000000000000000815250816000908051906020019062000096929190620001f4565b508060019080519060200190620000af929190620001f4565b505050620000d2620000c66200012660201b60201c565b6200012e60201b60201c565b6040518060400160405280600d81526020017f68747470733a2f2f697066732f00000000000000000000000000000000000000815250600b90805190602001906200011f929190620001f4565b5062000309565b600033905090565b6000600660009054906101000a900473ffffffffffffffffffffffffffffffffffffffff16905081600660006101000a81548173ffffffffffffffffffffffffffffffffffffffff021916908373ffffffffffffffffffffffffffffffffffffffff1602179055508173ffffffffffffffffffffffffffffffffffffffff168173ffffffffffffffffffffffffffffffffffffffff167f8be0079c531659141344cd1fd0a4f28419497f9722a3daafe3b4186f6b6457e060405160405180910390a35050565b8280546200020290620002a4565b90600052602060002090601f01602090048101928262000226576000855562000272565b82601f106200024157805160ff191683800117855562000272565b8280016001018555821562000272579182015b828111156200027157825182559160200191906001019062000254565b5b50905062000281919062000285565b5090565b5b80821115620002a057600081600090555060010162000286565b5090565b60006002820490506001821680620002bd57607f821691505b60208210811415620002d457620002d3620002da565b5b50919050565b7f4e487b7100000000000000000000000000000000000000000000000000000000600052602260045260246000fd5b614dc780620003196000396000f3fe608060405234801561001057600080fd5b50600436106102115760003560e01c806370a0823111610125578063a22cb465116100ad578063c87b56dd1161007c578063c87b56dd14610696578063d4a84781146106c6578063e985e9c5146106e4578063f2fde38b14610714578063f9da9c5a1461073057610211565b8063a22cb465146105fe578063aae0ca621461061a578063b88d4fde1461064a578063bb4243e51461066657610211565b806389c61dc2116100f457806389c61dc2146105325780638da5cb5b1461056257806395d89b411461058057806396ed9d001461059e57806399a0d11e146105ce57610211565b806370a0823114610498578063715018a6146104c857806371ca59ca146104d25780638170ced51461050257610211565b806323b872dd116101a857806340c10f191161017757806340c10f19146103d057806342842e0e1461040057806361aad37b1461041c5780636352211e146104385780636f1140181461046857610211565b806323b872dd1461035e57806327427e311461037a57806330176e13146103aa5780633ccfd60b146103c657610211565b8063081812fc116101e4578063081812fc146102b2578063095ea7b3146102e25780631187beb1146102fe5780631690a5a61461032e57610211565b806301ffc9a71461021657806306fdde03146102465780630737b4f71461026457806307c8bbc214610282575b600080fd5b610230600480360381019061022b91906135e1565b61074c565b60405161023d9190613dd6565b60405180910390f35b61024e61082e565b60405161025b9190613e36565b60405180910390f35b61026c6108c0565b6040516102799190614198565b60405180910390f35b61029c60048036038101906102979190613515565b61094f565b6040516102a99190613db4565b60405180910390f35b6102cc60048036038101906102c79190613674565b610ae1565b6040516102d99190613d4d565b60405180910390f35b6102fc60048036038101906102f791906135a5565b610b66565b005b61031860048036038101906103139190613515565b610c7e565b6040516103259190613db4565b60405180910390f35b610348600480360381019061034391906136d9565b610e7d565b6040516103559190613dd6565b60405180910390f35b6103786004803603810190610373919061344b565b611002565b005b610394600480360381019061038f9190613674565b611062565b6040516103a19190614198565b60405180910390f35b6103c460048036038101906103bf9190613633565b61107f565b005b6103ce611115565b005b6103ea60048036038101906103e591906135a5565b6111da565b6040516103f79190614198565b60405180910390f35b61041a6004803603810190610415919061344b565b61132e565b005b61043660048036038101906104319190613569565b61134e565b005b610452600480360381019061044d9190613674565b611425565b60405161045f9190613d4d565b60405180910390f35b610482600480360381019061047d91906135a5565b6114d7565b60405161048f9190613dd6565b60405180910390f35b6104b260048036038101906104ad91906133e6565b6114fc565b6040516104bf9190614198565b60405180910390f35b6104d06115b4565b005b6104ec60048036038101906104e79190613674565b61163c565b6040516104f99190613d4d565b60405180910390f35b61051c60048036038101906105179190613674565b611679565b6040516105299190613dd6565b60405180910390f35b61054c600480360381019061054791906135a5565b6116e5565b6040516105599190613dd6565b60405180910390f35b61056a611777565b6040516105779190613d4d565b60405180910390f35b6105886117a1565b6040516105959190613e36565b60405180910390f35b6105b860048036038101906105b39190613674565b611833565b6040516105c59190614198565b60405180910390f35b6105e860048036038101906105e3919061369d565b6118e2565b6040516105f59190613dd6565b60405180910390f35b61061860048036038101906106139190613569565b61197f565b005b610634600480360381019061062f91906133e6565b611995565b6040516106419190613dd6565b60405180910390f35b610664600480360381019061065f919061349a565b611a30565b005b610680600480360381019061067b91906135a5565b611a92565b60405161068d9190613dd6565b60405180910390f35b6106b060048036038101906106ab9190613674565b611b16565b6040516106bd9190613e36565b60405180910390f35b6106ce611bc5565b6040516106db9190614198565b60405180910390f35b6106fe60048036038101906106f9919061340f565b611bd6565b60405161070b9190613dd6565b60405180910390f35b61072e600480360381019061072991906133e6565b611c6a565b005b61074a6004803603810190610745919061369d565b611d62565b005b60007f80ac58cd000000000000000000000000000000000000000000000000000000007bffffffffffffffffffffffffffffffffffffffffffffffffffffffff1916827bffffffffffffffffffffffffffffffffffffffffffffffffffffffff1916148061081757507f5b5e139f000000000000000000000000000000000000000000000000000000007bffffffffffffffffffffffffffffffffffffffffffffffffffffffff1916827bffffffffffffffffffffffffffffffffffffffffffffffffffffffff1916145b80610827575061082682611e59565b5b9050919050565b60606000805461083d9061446a565b80601f01602080910402602001604051908101604052809291908181526020018280546108699061446a565b80156108b65780601f1061088b576101008083540402835291602001916108b6565b820191906000526020600020905b81548152906001019060200180831161089957829003601f168201915b5050505050905090565b60006108cb33611995565b61090a576040517f08c379a000000000000000000000000000000000000000000000000000000000815260040161090190614158565b60405180910390fd5b60005b3342604051602001610920929190613ccc565b6040516020818303038152906040528051906020012060001c905061094481611679565b61090d578091505090565b606060008251905060008167ffffffffffffffff811115610999577f4e487b7100000000000000000000000000000000000000000000000000000000600052604160045260246000fd5b6040519080825280602002602001820160405280156109c75781602001602082028036833780820191505090505b50905060005b82811015610ad557600a6000868381518110610a12577f4e487b7100000000000000000000000000000000000000000000000000000000600052603260045260246000fd5b6020026020010151815260200190815260200160002060009054906101000a900473ffffffffffffffffffffffffffffffffffffffff1673ffffffffffffffffffffffffffffffffffffffff168673ffffffffffffffffffffffffffffffffffffffff1614828281518110610ab0577f4e487b7100000000000000000000000000000000000000000000000000000000600052603260045260246000fd5b6020026020010190151590811515815250508080610acd906144cd565b9150506109cd565b50809250505092915050565b6000610aec82611ec3565b610b2b576040517f08c379a0000000000000000000000000000000000000000000000000000000008152600401610b2290614078565b60405180910390fd5b6004600083815260200190815260200160002060009054906101000a900473ffffffffffffffffffffffffffffffffffffffff169050919050565b6000610b7182611425565b90508073ffffffffffffffffffffffffffffffffffffffff168373ffffffffffffffffffffffffffffffffffffffff161415610be2576040517f08c379a0000000000000000000000000000000000000000000000000000000008152600401610bd9906140d8565b60405180910390fd5b8073ffffffffffffffffffffffffffffffffffffffff16610c01611f2f565b73ffffffffffffffffffffffffffffffffffffffff161480610c305750610c2f81610c2a611f2f565b611bd6565b5b610c6f576040517f08c379a0000000000000000000000000000000000000000000000000000000008152600401610c6690613fd8565b60405180910390fd5b610c798383611f37565b505050565b606060008251905060008167ffffffffffffffff811115610cc8577f4e487b7100000000000000000000000000000000000000000000000000000000600052604160045260246000fd5b604051908082528060200260200182016040528015610cf65781602001602082028036833780820191505090505b5090506000610d03611bc5565b905060005b83811015610e70576000838281518110610d4b577f4e487b7100000000000000000000000000000000000000000000000000000000600052603260045260246000fd5b60200260200101901515908115158152505060005b82811015610e5c578773ffffffffffffffffffffffffffffffffffffffff16610d8882611425565b73ffffffffffffffffffffffffffffffffffffffff16148015610df25750868281518110610ddf577f4e487b7100000000000000000000000000000000000000000000000000000000600052603260045260246000fd5b6020026020010151610df082611062565b145b15610e49576001848381518110610e32577f4e487b7100000000000000000000000000000000000000000000000000000000600052603260045260246000fd5b602002602001019015159081151581525050610e5c565b8080610e54906144cd565b915050610d60565b508080610e68906144cd565b915050610d08565b5081935050505092915050565b60008073ffffffffffffffffffffffffffffffffffffffff16600a600086815260200190815260200160002060009054906101000a900473ffffffffffffffffffffffffffffffffffffffff1673ffffffffffffffffffffffffffffffffffffffff1614610f20576040517f08c379a0000000000000000000000000000000000000000000000000000000008152600401610f1790614178565b60405180910390fd5b60008385604051602001610f35929190613ccc565b6040516020818303038152906040528051906020012090506000610f598285611ff0565b9050610f6481611995565b610fa3576040517f08c379a0000000000000000000000000000000000000000000000000000000008152600401610f9a90613eb8565b60405180910390fd5b84600a600088815260200190815260200160002060006101000a81548173ffffffffffffffffffffffffffffffffffffffff021916908373ffffffffffffffffffffffffffffffffffffffff1602179055506001925050509392505050565b61101361100d611f2f565b82612038565b611052576040517f08c379a000000000000000000000000000000000000000000000000000000000815260040161104990614118565b60405180910390fd5b61105d838383612116565b505050565b600060096000838152602001908152602001600020549050919050565b611087611f2f565b73ffffffffffffffffffffffffffffffffffffffff166110a5611777565b73ffffffffffffffffffffffffffffffffffffffff16146110fb576040517f08c379a00000000000000000000000000000000000000000000000000000000081526004016110f290614098565b60405180910390fd5b80600b9080519060200190611111929190613174565b5050565b61111d611f2f565b73ffffffffffffffffffffffffffffffffffffffff1661113b611777565b73ffffffffffffffffffffffffffffffffffffffff1614611191576040517f08c379a000000000000000000000000000000000000000000000000000000000815260040161118890614098565b60405180910390fd5b3373ffffffffffffffffffffffffffffffffffffffff166108fc479081150290604051600060405180830381858888f193505050501580156111d7573d6000803e3d6000fd5b50565b60003373ffffffffffffffffffffffffffffffffffffffff166111fc8361163c565b73ffffffffffffffffffffffffffffffffffffffff1614611252576040517f08c379a0000000000000000000000000000000000000000000000000000000008152600401611249906140f8565b60405180910390fd5b61125c83836116e5565b1561129c576040517f08c379a000000000000000000000000000000000000000000000000000000000815260040161129390613f58565b60405180910390fd5b60006112a8600761237d565b90506112b4600761238b565b8260096000838152602001908152602001600020819055506112d684826123a1565b8373ffffffffffffffffffffffffffffffffffffffff167f1f89f147a58d1673945cf416187db98efc8208408c011b91887acd59fd8523c38460405161131c9190614198565b60405180910390a28091505092915050565b61134983838360405180602001604052806000815250611a30565b505050565b611356611f2f565b73ffffffffffffffffffffffffffffffffffffffff16611374611777565b73ffffffffffffffffffffffffffffffffffffffff16146113ca576040517f08c379a00000000000000000000000000000000000000000000000000000000081526004016113c190614098565b60405180910390fd5b80600860008473ffffffffffffffffffffffffffffffffffffffff1673ffffffffffffffffffffffffffffffffffffffff16815260200190815260200160002060006101000a81548160ff0219169083151502179055505050565b6000806002600084815260200190815260200160002060009054906101000a900473ffffffffffffffffffffffffffffffffffffffff169050600073ffffffffffffffffffffffffffffffffffffffff168173ffffffffffffffffffffffffffffffffffffffff1614156114ce576040517f08c379a00000000000000000000000000000000000000000000000000000000081526004016114c590614018565b60405180910390fd5b80915050919050565b60006114e38383611a92565b806114f457506114f383836116e5565b5b905092915050565b60008073ffffffffffffffffffffffffffffffffffffffff168273ffffffffffffffffffffffffffffffffffffffff16141561156d576040517f08c379a000000000000000000000000000000000000000000000000000000000815260040161156490613ff8565b60405180910390fd5b600360008373ffffffffffffffffffffffffffffffffffffffff1673ffffffffffffffffffffffffffffffffffffffff168152602001908152602001600020549050919050565b6115bc611f2f565b73ffffffffffffffffffffffffffffffffffffffff166115da611777565b73ffffffffffffffffffffffffffffffffffffffff1614611630576040517f08c379a000000000000000000000000000000000000000000000000000000000815260040161162790614098565b60405180910390fd5b61163a600061257b565b565b6000600a600083815260200190815260200160002060009054906101000a900473ffffffffffffffffffffffffffffffffffffffff169050919050565b60008073ffffffffffffffffffffffffffffffffffffffff16600a600084815260200190815260200160002060009054906101000a900473ffffffffffffffffffffffffffffffffffffffff1673ffffffffffffffffffffffffffffffffffffffff1614159050919050565b6000806116f0611bc5565b905060005b8181101561176a578473ffffffffffffffffffffffffffffffffffffffff1661171d82611425565b73ffffffffffffffffffffffffffffffffffffffff1614801561174757508361174582611062565b145b1561175757600192505050611771565b8080611762906144cd565b9150506116f5565b5060009150505b92915050565b6000600660009054906101000a900473ffffffffffffffffffffffffffffffffffffffff16905090565b6060600180546117b09061446a565b80601f01602080910402602001604051908101604052809291908181526020018280546117dc9061446a565b80156118295780601f106117fe57610100808354040283529160200191611829565b820191906000526020600020905b81548152906001019060200180831161180c57829003601f168201915b5050505050905090565b60008061183e611bc5565b905060005b818110156118b7573373ffffffffffffffffffffffffffffffffffffffff1661186b82611425565b73ffffffffffffffffffffffffffffffffffffffff1614801561189557508361189382611062565b145b156118a45780925050506118dd565b80806118af906144cd565b915050611843565b507fffffffffffffffffffffffffffffffffffffffffffffffffffffffffffffffff9150505b919050565b6000806118ed611bc5565b905060005b81811015611972573373ffffffffffffffffffffffffffffffffffffffff1661191a82611425565b73ffffffffffffffffffffffffffffffffffffffff1614801561194457508461194282611062565b145b1561195f57611954338583612116565b600192505050611979565b808061196a906144cd565b9150506118f2565b5060009150505b92915050565b61199161198a611f2f565b8383612641565b5050565b600061199f611777565b73ffffffffffffffffffffffffffffffffffffffff168273ffffffffffffffffffffffffffffffffffffffff1614156119db5760019050611a2b565b600860008373ffffffffffffffffffffffffffffffffffffffff1673ffffffffffffffffffffffffffffffffffffffff16815260200190815260200160002060009054906101000a900460ff1690505b919050565b611a41611a3b611f2f565b83612038565b611a80576040517f08c379a0000000000000000000000000000000000000000000000000000000008152600401611a7790614118565b60405180910390fd5b611a8c848484846127ae565b50505050565b60008073ffffffffffffffffffffffffffffffffffffffff16611ab48361163c565b73ffffffffffffffffffffffffffffffffffffffff1614611b0b578273ffffffffffffffffffffffffffffffffffffffff16611aef8361163c565b73ffffffffffffffffffffffffffffffffffffffff1614611b0e565b60015b905092915050565b6060611b2182611ec3565b611b60576040517f08c379a0000000000000000000000000000000000000000000000000000000008152600401611b57906140b8565b60405180910390fd5b6000611b6a61280a565b90506000815111611b8a5760405180602001604052806000815250611bbd565b80611b9c611b9785611062565b61289c565b604051602001611bad929190613cf8565b6040516020818303038152906040525b915050919050565b6000611bd1600761237d565b905090565b6000600560008473ffffffffffffffffffffffffffffffffffffffff1673ffffffffffffffffffffffffffffffffffffffff16815260200190815260200160002060008373ffffffffffffffffffffffffffffffffffffffff1673ffffffffffffffffffffffffffffffffffffffff16815260200190815260200160002060009054906101000a900460ff16905092915050565b611c72611f2f565b73ffffffffffffffffffffffffffffffffffffffff16611c90611777565b73ffffffffffffffffffffffffffffffffffffffff1614611ce6576040517f08c379a0000000000000000000000000000000000000000000000000000000008152600401611cdd90614098565b60405180910390fd5b600073ffffffffffffffffffffffffffffffffffffffff168173ffffffffffffffffffffffffffffffffffffffff161415611d56576040517f08c379a0000000000000000000000000000000000000000000000000000000008152600401611d4d90613ed8565b60405180910390fd5b611d5f8161257b565b50565b3373ffffffffffffffffffffffffffffffffffffffff16600a600084815260200190815260200160002060009054906101000a900473ffffffffffffffffffffffffffffffffffffffff1673ffffffffffffffffffffffffffffffffffffffff1614611e03576040517f08c379a0000000000000000000000000000000000000000000000000000000008152600401611dfa90614138565b60405180910390fd5b80600a600084815260200190815260200160002060006101000a81548173ffffffffffffffffffffffffffffffffffffffff021916908373ffffffffffffffffffffffffffffffffffffffff1602179055505050565b60007f01ffc9a7000000000000000000000000000000000000000000000000000000007bffffffffffffffffffffffffffffffffffffffffffffffffffffffff1916827bffffffffffffffffffffffffffffffffffffffffffffffffffffffff1916149050919050565b60008073ffffffffffffffffffffffffffffffffffffffff166002600084815260200190815260200160002060009054906101000a900473ffffffffffffffffffffffffffffffffffffffff1673ffffffffffffffffffffffffffffffffffffffff1614159050919050565b600033905090565b816004600083815260200190815260200160002060006101000a81548173ffffffffffffffffffffffffffffffffffffffff021916908373ffffffffffffffffffffffffffffffffffffffff160217905550808273ffffffffffffffffffffffffffffffffffffffff16611faa83611425565b73ffffffffffffffffffffffffffffffffffffffff167f8c5be1e5ebec7d5bd14f71427d1e84f3dd0314c0f7b2291e5b200ac8c7c3b92560405160405180910390a45050565b600080836040516020016120049190613d27565b60405160208183030381529060405280519060200120905061202f8382612a4990919063ffffffff16565b91505092915050565b600061204382611ec3565b612082576040517f08c379a000000000000000000000000000000000000000000000000000000000815260040161207990613fb8565b60405180910390fd5b600061208d83611425565b90508073ffffffffffffffffffffffffffffffffffffffff168473ffffffffffffffffffffffffffffffffffffffff1614806120cf57506120ce8185611bd6565b5b8061210d57508373ffffffffffffffffffffffffffffffffffffffff166120f584610ae1565b73ffffffffffffffffffffffffffffffffffffffff16145b91505092915050565b8273ffffffffffffffffffffffffffffffffffffffff1661213682611425565b73ffffffffffffffffffffffffffffffffffffffff161461218c576040517f08c379a000000000000000000000000000000000000000000000000000000000815260040161218390613ef8565b60405180910390fd5b600073ffffffffffffffffffffffffffffffffffffffff168273ffffffffffffffffffffffffffffffffffffffff1614156121fc576040517f08c379a00000000000000000000000000000000000000000000000000000000081526004016121f390613f38565b60405180910390fd5b612207838383612a70565b612212600082611f37565b6001600360008573ffffffffffffffffffffffffffffffffffffffff1673ffffffffffffffffffffffffffffffffffffffff16815260200190815260200160002060008282546122629190614369565b925050819055506001600360008473ffffffffffffffffffffffffffffffffffffffff1673ffffffffffffffffffffffffffffffffffffffff16815260200190815260200160002060008282546122b991906142e2565b92505081905550816002600083815260200190815260200160002060006101000a81548173ffffffffffffffffffffffffffffffffffffffff021916908373ffffffffffffffffffffffffffffffffffffffff160217905550808273ffffffffffffffffffffffffffffffffffffffff168473ffffffffffffffffffffffffffffffffffffffff167fddf252ad1be2c89b69c2b068fc378daa952ba7f163c4a11628f55a4df523b3ef60405160405180910390a4612378838383612a75565b505050565b600081600001549050919050565b6001816000016000828254019250508190555050565b600073ffffffffffffffffffffffffffffffffffffffff168273ffffffffffffffffffffffffffffffffffffffff161415612411576040517f08c379a000000000000000000000000000000000000000000000000000000000815260040161240890614058565b60405180910390fd5b61241a81611ec3565b1561245a576040517f08c379a000000000000000000000000000000000000000000000000000000000815260040161245190613f18565b60405180910390fd5b61246660008383612a70565b6001600360008473ffffffffffffffffffffffffffffffffffffffff1673ffffffffffffffffffffffffffffffffffffffff16815260200190815260200160002060008282546124b691906142e2565b92505081905550816002600083815260200190815260200160002060006101000a81548173ffffffffffffffffffffffffffffffffffffffff021916908373ffffffffffffffffffffffffffffffffffffffff160217905550808273ffffffffffffffffffffffffffffffffffffffff16600073ffffffffffffffffffffffffffffffffffffffff167fddf252ad1be2c89b69c2b068fc378daa952ba7f163c4a11628f55a4df523b3ef60405160405180910390a461257760008383612a75565b5050565b6000600660009054906101000a900473ffffffffffffffffffffffffffffffffffffffff16905081600660006101000a81548173ffffffffffffffffffffffffffffffffffffffff021916908373ffffffffffffffffffffffffffffffffffffffff1602179055508173ffffffffffffffffffffffffffffffffffffffff168173ffffffffffffffffffffffffffffffffffffffff167f8be0079c531659141344cd1fd0a4f28419497f9722a3daafe3b4186f6b6457e060405160405180910390a35050565b8173ffffffffffffffffffffffffffffffffffffffff168373ffffffffffffffffffffffffffffffffffffffff1614156126b0576040517f08c379a00000000000000000000000000000000000000000000000000000000081526004016126a790613f78565b60405180910390fd5b80600560008573ffffffffffffffffffffffffffffffffffffffff1673ffffffffffffffffffffffffffffffffffffffff16815260200190815260200160002060008473ffffffffffffffffffffffffffffffffffffffff1673ffffffffffffffffffffffffffffffffffffffff16815260200190815260200160002060006101000a81548160ff0219169083151502179055508173ffffffffffffffffffffffffffffffffffffffff168373ffffffffffffffffffffffffffffffffffffffff167f17307eab39ab6107e8899845ad3d59bd9653f200f220920489ca2b5937696c31836040516127a19190613dd6565b60405180910390a3505050565b6127b9848484612116565b6127c584848484612a7a565b612804576040517f08c379a00000000000000000000000000000000000000000000000000000000081526004016127fb90613e98565b60405180910390fd5b50505050565b6060600b80546128199061446a565b80601f01602080910402602001604051908101604052809291908181526020018280546128459061446a565b80156128925780601f1061286757610100808354040283529160200191612892565b820191906000526020600020905b81548152906001019060200180831161287557829003601f168201915b5050505050905090565b606060008214156128e4576040518060400160405280600181526020017f30000000000000000000000000000000000000000000000000000000000000008152509050612a44565b600082905060005b600082146129165780806128ff906144cd565b915050600a8261290f9190614338565b91506128ec565b60008167ffffffffffffffff811115612958577f4e487b7100000000000000000000000000000000000000000000000000000000600052604160045260246000fd5b6040519080825280601f01601f19166020018201604052801561298a5781602001600182028036833780820191505090505b5090505b60008514612a3d576001826129a39190614369565b9150600a856129b2919061454e565b60306129be91906142e2565b60f81b8183815181106129fa577f4e487b7100000000000000000000000000000000000000000000000000000000600052603260045260246000fd5b60200101907effffffffffffffffffffffffffffffffffffffffffffffffffffffffffffff1916908160001a905350600a85612a369190614338565b945061298e565b8093505050505b919050565b6000806000612a588585612c11565b91509150612a6581612c94565b819250505092915050565b505050565b505050565b6000612a9b8473ffffffffffffffffffffffffffffffffffffffff16612fe5565b15612c04578373ffffffffffffffffffffffffffffffffffffffff1663150b7a02612ac4611f2f565b8786866040518563ffffffff1660e01b8152600401612ae69493929190613d68565b602060405180830381600087803b158015612b0057600080fd5b505af1925050508015612b3157506040513d601f19601f82011682018060405250810190612b2e919061360a565b60015b612bb4573d8060008114612b61576040519150601f19603f3d011682016040523d82523d6000602084013e612b66565b606091505b50600081511415612bac576040517f08c379a0000000000000000000000000000000000000000000000000000000008152600401612ba390613e98565b60405180910390fd5b805181602001fd5b63150b7a0260e01b7bffffffffffffffffffffffffffffffffffffffffffffffffffffffff1916817bffffffffffffffffffffffffffffffffffffffffffffffffffffffff191614915050612c09565b600190505b949350505050565b600080604183511415612c535760008060006020860151925060408601519150606086015160001a9050612c4787828585613008565b94509450505050612c8d565b604083511415612c84576000806020850151915060408501519050612c79868383613115565b935093505050612c8d565b60006002915091505b9250929050565b60006004811115612cce577f4e487b7100000000000000000000000000000000000000000000000000000000600052602160045260246000fd5b816004811115612d07577f4e487b7100000000000000000000000000000000000000000000000000000000600052602160045260246000fd5b1415612d1257612fe2565b60016004811115612d4c577f4e487b7100000000000000000000000000000000000000000000000000000000600052602160045260246000fd5b816004811115612d85577f4e487b7100000000000000000000000000000000000000000000000000000000600052602160045260246000fd5b1415612dc6576040517f08c379a0000000000000000000000000000000000000000000000000000000008152600401612dbd90613e58565b60405180910390fd5b60026004811115612e00577f4e487b7100000000000000000000000000000000000000000000000000000000600052602160045260246000fd5b816004811115612e39577f4e487b7100000000000000000000000000000000000000000000000000000000600052602160045260246000fd5b1415612e7a576040517f08c379a0000000000000000000000000000000000000000000000000000000008152600401612e7190613e78565b60405180910390fd5b60036004811115612eb4577f4e487b7100000000000000000000000000000000000000000000000000000000600052602160045260246000fd5b816004811115612eed577f4e487b7100000000000000000000000000000000000000000000000000000000600052602160045260246000fd5b1415612f2e576040517f08c379a0000000000000000000000000000000000000000000000000000000008152600401612f2590613f98565b60405180910390fd5b600480811115612f67577f4e487b7100000000000000000000000000000000000000000000000000000000600052602160045260246000fd5b816004811115612fa0577f4e487b7100000000000000000000000000000000000000000000000000000000600052602160045260246000fd5b1415612fe1576040517f08c379a0000000000000000000000000000000000000000000000000000000008152600401612fd890614038565b60405180910390fd5b5b50565b6000808273ffffffffffffffffffffffffffffffffffffffff163b119050919050565b6000807f7fffffffffffffffffffffffffffffff5d576e7357a4501ddfe92f46681b20a08360001c111561304357600060039150915061310c565b601b8560ff161415801561305b5750601c8560ff1614155b1561306d57600060049150915061310c565b6000600187878787604051600081526020016040526040516130929493929190613df1565b6020604051602081039080840390855afa1580156130b4573d6000803e3d6000fd5b505050602060405103519050600073ffffffffffffffffffffffffffffffffffffffff168173ffffffffffffffffffffffffffffffffffffffff1614156131035760006001925092505061310c565b80600092509250505b94509492505050565b60008060007f7fffffffffffffffffffffffffffffffffffffffffffffffffffffffffffffff60001b841690506000601b60ff8660001c901c61315891906142e2565b905061316687828885613008565b935093505050935093915050565b8280546131809061446a565b90600052602060002090601f0160209004810192826131a257600085556131e9565b82601f106131bb57805160ff19168380011785556131e9565b828001600101855582156131e9579182015b828111156131e85782518255916020019190600101906131cd565b5b5090506131f691906131fa565b5090565b5b808211156132135760008160009055506001016131fb565b5090565b600061322a613225846141d8565b6141b3565b9050808382526020820190508285602086028201111561324957600080fd5b60005b85811015613279578161325f88826133d1565b84526020840193506020830192505060018101905061324c565b5050509392505050565b600061329661329184614204565b6141b3565b9050828152602081018484840111156132ae57600080fd5b6132b9848285614428565b509392505050565b60006132d46132cf84614235565b6141b3565b9050828152602081018484840111156132ec57600080fd5b6132f7848285614428565b509392505050565b60008135905061330e81614d35565b92915050565b600082601f83011261332557600080fd5b8135613335848260208601613217565b91505092915050565b60008135905061334d81614d4c565b92915050565b60008135905061336281614d63565b92915050565b60008151905061337781614d63565b92915050565b600082601f83011261338e57600080fd5b813561339e848260208601613283565b91505092915050565b600082601f8301126133b857600080fd5b81356133c88482602086016132c1565b91505092915050565b6000813590506133e081614d7a565b92915050565b6000602082840312156133f857600080fd5b6000613406848285016132ff565b91505092915050565b6000806040838503121561342257600080fd5b6000613430858286016132ff565b9250506020613441858286016132ff565b9150509250929050565b60008060006060848603121561346057600080fd5b600061346e868287016132ff565b935050602061347f868287016132ff565b9250506040613490868287016133d1565b9150509250925092565b600080600080608085870312156134b057600080fd5b60006134be878288016132ff565b94505060206134cf878288016132ff565b93505060406134e0878288016133d1565b925050606085013567ffffffffffffffff8111156134fd57600080fd5b6135098782880161337d565b91505092959194509250565b6000806040838503121561352857600080fd5b6000613536858286016132ff565b925050602083013567ffffffffffffffff81111561355357600080fd5b61355f85828601613314565b9150509250929050565b6000806040838503121561357c57600080fd5b600061358a858286016132ff565b925050602061359b8582860161333e565b9150509250929050565b600080604083850312156135b857600080fd5b60006135c6858286016132ff565b92505060206135d7858286016133d1565b9150509250929050565b6000602082840312156135f357600080fd5b600061360184828501613353565b91505092915050565b60006020828403121561361c57600080fd5b600061362a84828501613368565b91505092915050565b60006020828403121561364557600080fd5b600082013567ffffffffffffffff81111561365f57600080fd5b61366b848285016133a7565b91505092915050565b60006020828403121561368657600080fd5b6000613694848285016133d1565b91505092915050565b600080604083850312156136b057600080fd5b60006136be858286016133d1565b92505060206136cf858286016132ff565b9150509250929050565b6000806000606084860312156136ee57600080fd5b60006136fc868287016133d1565b935050602061370d868287016132ff565b925050604084013567ffffffffffffffff81111561372a57600080fd5b6137368682870161337d565b9150509250925092565b600061374c83836137dc565b60208301905092915050565b6137618161439d565b82525050565b6137786137738261439d565b614516565b82525050565b600061378982614276565b61379381856142a4565b935061379e83614266565b8060005b838110156137cf5781516137b68882613740565b97506137c183614297565b9250506001810190506137a2565b5085935050505092915050565b6137e5816143af565b82525050565b6137f4816143af565b82525050565b613803816143bb565b82525050565b61381a613815826143bb565b614528565b82525050565b600061382b82614281565b61383581856142b5565b9350613845818560208601614437565b61384e8161463b565b840191505092915050565b60006138648261428c565b61386e81856142c6565b935061387e818560208601614437565b6138878161463b565b840191505092915050565b600061389d8261428c565b6138a781856142d7565b93506138b7818560208601614437565b80840191505092915050565b60006138d06018836142c6565b91506138db82614659565b602082019050919050565b60006138f3601f836142c6565b91506138fe82614682565b602082019050919050565b6000613916601c836142d7565b9150613921826146ab565b601c82019050919050565b60006139396032836142c6565b9150613944826146d4565b604082019050919050565b600061395c6037836142c6565b915061396782614723565b604082019050919050565b600061397f6026836142c6565b915061398a82614772565b604082019050919050565b60006139a26025836142c6565b91506139ad826147c1565b604082019050919050565b60006139c5601c836142c6565b91506139d082614810565b602082019050919050565b60006139e86024836142c6565b91506139f382614839565b604082019050919050565b6000613a0b6012836142c6565b9150613a1682614888565b602082019050919050565b6000613a2e6019836142c6565b9150613a39826148b1565b602082019050919050565b6000613a516022836142c6565b9150613a5c826148da565b604082019050919050565b6000613a74602c836142c6565b9150613a7f82614929565b604082019050919050565b6000613a976038836142c6565b9150613aa282614978565b604082019050919050565b6000613aba602a836142c6565b9150613ac5826149c7565b604082019050919050565b6000613add6029836142c6565b9150613ae882614a16565b604082019050919050565b6000613b006022836142c6565b9150613b0b82614a65565b604082019050919050565b6000613b236020836142c6565b9150613b2e82614ab4565b602082019050919050565b6000613b46602c836142c6565b9150613b5182614add565b604082019050919050565b6000613b696005836142d7565b9150613b7482614b2c565b600582019050919050565b6000613b8c6020836142c6565b9150613b9782614b55565b602082019050919050565b6000613baf602f836142c6565b9150613bba82614b7e565b604082019050919050565b6000613bd26021836142c6565b9150613bdd82614bcd565b604082019050919050565b6000613bf56017836142c6565b9150613c0082614c1c565b602082019050919050565b6000613c186031836142c6565b9150613c2382614c45565b604082019050919050565b6000613c3b6027836142c6565b9150613c4682614c94565b604082019050919050565b6000613c5e601f836142c6565b9150613c6982614ce3565b602082019050919050565b6000613c816015836142c6565b9150613c8c82614d0c565b602082019050919050565b613ca081614411565b82525050565b613cb7613cb282614411565b614544565b82525050565b613cc68161441b565b82525050565b6000613cd88285613767565b601482019150613ce88284613ca6565b6020820191508190509392505050565b6000613d048285613892565b9150613d108284613892565b9150613d1b82613b5c565b91508190509392505050565b6000613d3282613909565b9150613d3e8284613809565b60208201915081905092915050565b6000602082019050613d626000830184613758565b92915050565b6000608082019050613d7d6000830187613758565b613d8a6020830186613758565b613d976040830185613c97565b8181036060830152613da98184613820565b905095945050505050565b60006020820190508181036000830152613dce818461377e565b905092915050565b6000602082019050613deb60008301846137eb565b92915050565b6000608082019050613e0660008301876137fa565b613e136020830186613cbd565b613e2060408301856137fa565b613e2d60608301846137fa565b95945050505050565b60006020820190508181036000830152613e508184613859565b905092915050565b60006020820190508181036000830152613e71816138c3565b9050919050565b60006020820190508181036000830152613e91816138e6565b9050919050565b60006020820190508181036000830152613eb18161392c565b9050919050565b60006020820190508181036000830152613ed18161394f565b9050919050565b60006020820190508181036000830152613ef181613972565b9050919050565b60006020820190508181036000830152613f1181613995565b9050919050565b60006020820190508181036000830152613f31816139b8565b9050919050565b60006020820190508181036000830152613f51816139db565b9050919050565b60006020820190508181036000830152613f71816139fe565b9050919050565b60006020820190508181036000830152613f9181613a21565b9050919050565b60006020820190508181036000830152613fb181613a44565b9050919050565b60006020820190508181036000830152613fd181613a67565b9050919050565b60006020820190508181036000830152613ff181613a8a565b9050919050565b6000602082019050818103600083015261401181613aad565b9050919050565b6000602082019050818103600083015261403181613ad0565b9050919050565b6000602082019050818103600083015261405181613af3565b9050919050565b6000602082019050818103600083015261407181613b16565b9050919050565b6000602082019050818103600083015261409181613b39565b9050919050565b600060208201905081810360008301526140b181613b7f565b9050919050565b600060208201905081810360008301526140d181613ba2565b9050919050565b600060208201905081810360008301526140f181613bc5565b9050919050565b6000602082019050818103600083015261411181613be8565b9050919050565b6000602082019050818103600083015261413181613c0b565b9050919050565b6000602082019050818103600083015261415181613c2e565b9050919050565b6000602082019050818103600083015261417181613c51565b9050919050565b6000602082019050818103600083015261419181613c74565b9050919050565b60006020820190506141ad6000830184613c97565b92915050565b60006141bd6141ce565b90506141c9828261449c565b919050565b6000604051905090565b600067ffffffffffffffff8211156141f3576141f261460c565b5b602082029050602081019050919050565b600067ffffffffffffffff82111561421f5761421e61460c565b5b6142288261463b565b9050602081019050919050565b600067ffffffffffffffff8211156142505761424f61460c565b5b6142598261463b565b9050602081019050919050565b6000819050602082019050919050565b600081519050919050565b600081519050919050565b600081519050919050565b6000602082019050919050565b600082825260208201905092915050565b600082825260208201905092915050565b600082825260208201905092915050565b600081905092915050565b60006142ed82614411565b91506142f883614411565b9250827fffffffffffffffffffffffffffffffffffffffffffffffffffffffffffffffff0382111561432d5761432c61457f565b5b828201905092915050565b600061434382614411565b915061434e83614411565b92508261435e5761435d6145ae565b5b828204905092915050565b600061437482614411565b915061437f83614411565b9250828210156143925761439161457f565b5b828203905092915050565b60006143a8826143f1565b9050919050565b60008115159050919050565b6000819050919050565b60007fffffffff0000000000000000000000000000000000000000000000000000000082169050919050565b600073ffffffffffffffffffffffffffffffffffffffff82169050919050565b6000819050919050565b600060ff82169050919050565b82818337600083830152505050565b60005b8381101561445557808201518184015260208101905061443a565b83811115614464576000848401525b50505050565b6000600282049050600182168061448257607f821691505b60208210811415614496576144956145dd565b5b50919050565b6144a58261463b565b810181811067ffffffffffffffff821117156144c4576144c361460c565b5b80604052505050565b60006144d882614411565b91507fffffffffffffffffffffffffffffffffffffffffffffffffffffffffffffffff82141561450b5761450a61457f565b5b600182019050919050565b600061452182614532565b9050919050565b6000819050919050565b600061453d8261464c565b9050919050565b6000819050919050565b600061455982614411565b915061456483614411565b925082614574576145736145ae565b5b828206905092915050565b7f4e487b7100000000000000000000000000000000000000000000000000000000600052601160045260246000fd5b7f4e487b7100000000000000000000000000000000000000000000000000000000600052601260045260246000fd5b7f4e487b7100000000000000000000000000000000000000000000000000000000600052602260045260246000fd5b7f4e487b7100000000000000000000000000000000000000000000000000000000600052604160045260246000fd5b6000601f19601f8301169050919050565b60008160601b9050919050565b7f45434453413a20696e76616c6964207369676e61747572650000000000000000600082015250565b7f45434453413a20696e76616c6964207369676e6174757265206c656e67746800600082015250565b7f19457468657265756d205369676e6564204d6573736167653a0a333200000000600082015250565b7f4552433732313a207472616e7366657220746f206e6f6e20455243373231526560008201527f63656976657220696d706c656d656e7465720000000000000000000000000000602082015250565b7f43616e27742063726561746520636f6e74656e74206265636175736520796f7560008201527f20617265206e6f7420636f6e74656e7420736572766572000000000000000000602082015250565b7f4f776e61626c653a206e6577206f776e657220697320746865207a65726f206160008201527f6464726573730000000000000000000000000000000000000000000000000000602082015250565b7f4552433732313a207472616e736665722066726f6d20696e636f72726563742060008201527f6f776e6572000000000000000000000000000000000000000000000000000000602082015250565b7f4552433732313a20746f6b656e20616c7265616479206d696e74656400000000600082015250565b7f4552433732313a207472616e7366657220746f20746865207a65726f2061646460008201527f7265737300000000000000000000000000000000000000000000000000000000602082015250565b7f4e465420616c7265616479206d696e7465640000000000000000000000000000600082015250565b7f4552433732313a20617070726f766520746f2063616c6c657200000000000000600082015250565b7f45434453413a20696e76616c6964207369676e6174757265202773272076616c60008201527f7565000000000000000000000000000000000000000000000000000000000000602082015250565b7f4552433732313a206f70657261746f7220717565727920666f72206e6f6e657860008201527f697374656e7420746f6b656e0000000000000000000000000000000000000000602082015250565b7f4552433732313a20617070726f76652063616c6c6572206973206e6f74206f7760008201527f6e6572206e6f7220617070726f76656420666f7220616c6c0000000000000000602082015250565b7f4552433732313a2062616c616e636520717565727920666f7220746865207a6560008201527f726f206164647265737300000000000000000000000000000000000000000000602082015250565b7f4552433732313a206f776e657220717565727920666f72206e6f6e657869737460008201527f656e7420746f6b656e0000000000000000000000000000000000000000000000602082015250565b7f45434453413a20696e76616c6964207369676e6174757265202776272076616c60008201527f7565000000000000000000000000000000000000000000000000000000000000602082015250565b7f4552433732313a206d696e7420746f20746865207a65726f2061646472657373600082015250565b7f4552433732313a20617070726f76656420717565727920666f72206e6f6e657860008201527f697374656e7420746f6b656e0000000000000000000000000000000000000000602082015250565b7f2e6a736f6e000000000000000000000000000000000000000000000000000000600082015250565b7f4f776e61626c653a2063616c6c6572206973206e6f7420746865206f776e6572600082015250565b7f4552433732314d657461646174613a2055524920717565727920666f72206e6f60008201527f6e6578697374656e7420746f6b656e0000000000000000000000000000000000602082015250565b7f4552433732313a20617070726f76616c20746f2063757272656e74206f776e6560008201527f7200000000000000000000000000000000000000000000000000000000000000602082015250565b7f596f752063616e2774206d696e742074686973204e4654000000000000000000600082015250565b7f4552433732313a207472616e736665722063616c6c6572206973206e6f74206f60008201527f776e6572206e6f7220617070726f766564000000000000000000000000000000602082015250565b7f596f7520617265206e6f74206469737472696275746f72206f6620746869732060008201527f636f6e74656e7400000000000000000000000000000000000000000000000000602082015250565b7f596f7520646f6e2774207065726d6974746564207468697320616374696f6e00600082015250565b7f436f6e74656e7420616c72656164792061646465640000000000000000000000600082015250565b614d3e8161439d565b8114614d4957600080fd5b50565b614d55816143af565b8114614d6057600080fd5b50565b614d6c816143c5565b8114614d7757600080fd5b50565b614d8381614411565b8114614d8e57600080fd5b5056fea2646970667358221220897848381d16a565ccb8fc8e9f10b47f5b6cd14a3288d3e4f51bc89252b5ee3a64736f6c63430008040033",
  "linkReferences": {},
  "deployedLinkReferences": {}
}